{
	"contracts/DEX.sol": {
		"DEX": {
			"abi": [
				{
					"inputs": [
						{
							"internalType": "address",
							"name": "_tokenA",
							"type": "address"
						},
						{
							"internalType": "address",
							"name": "_tokenB",
							"type": "address"
						}
					],
					"stateMutability": "nonpayable",
					"type": "constructor"
				},
				{
					"inputs": [
						{
							"internalType": "uint256",
							"name": "amountA",
							"type": "uint256"
						},
						{
							"internalType": "uint256",
							"name": "amountB",
							"type": "uint256"
						}
					],
					"name": "depositLiquidity",
					"outputs": [],
					"stateMutability": "nonpayable",
					"type": "function"
				},
				{
					"inputs": [],
					"name": "getReserves",
					"outputs": [
						{
							"internalType": "uint256",
							"name": "_reserveA",
							"type": "uint256"
						},
						{
							"internalType": "uint256",
							"name": "_reserveB",
							"type": "uint256"
						}
					],
					"stateMutability": "view",
					"type": "function"
				},
				{
					"inputs": [],
					"name": "getSpotPriceAinB",
					"outputs": [
						{
							"internalType": "uint256",
							"name": "",
							"type": "uint256"
						}
					],
					"stateMutability": "view",
					"type": "function"
				},
				{
					"inputs": [],
					"name": "getSpotPriceBinA",
					"outputs": [
						{
							"internalType": "uint256",
							"name": "",
							"type": "uint256"
						}
					],
					"stateMutability": "view",
					"type": "function"
				},
				{
					"inputs": [],
					"name": "lpToken",
					"outputs": [
						{
							"internalType": "contract LPToken",
							"name": "",
							"type": "address"
						}
					],
					"stateMutability": "view",
					"type": "function"
				},
				{
					"inputs": [],
					"name": "reserveA",
					"outputs": [
						{
							"internalType": "uint256",
							"name": "",
							"type": "uint256"
						}
					],
					"stateMutability": "view",
					"type": "function"
				},
				{
					"inputs": [],
					"name": "reserveB",
					"outputs": [
						{
							"internalType": "uint256",
							"name": "",
							"type": "uint256"
						}
					],
					"stateMutability": "view",
					"type": "function"
				},
				{
					"inputs": [
						{
							"internalType": "uint256",
							"name": "amountAIn",
							"type": "uint256"
						}
					],
					"name": "swapTokenAForTokenB",
					"outputs": [],
					"stateMutability": "nonpayable",
					"type": "function"
				},
				{
					"inputs": [
						{
							"internalType": "uint256",
							"name": "amountBIn",
							"type": "uint256"
						}
					],
					"name": "swapTokenBForTokenA",
					"outputs": [],
					"stateMutability": "nonpayable",
					"type": "function"
				},
				{
					"inputs": [],
					"name": "tokenA",
					"outputs": [
						{
							"internalType": "contract IERC20",
							"name": "",
							"type": "address"
						}
					],
					"stateMutability": "view",
					"type": "function"
				},
				{
					"inputs": [],
					"name": "tokenB",
					"outputs": [
						{
							"internalType": "contract IERC20",
							"name": "",
							"type": "address"
						}
					],
					"stateMutability": "view",
					"type": "function"
				},
				{
					"inputs": [
						{
							"internalType": "uint256",
							"name": "lpAmount",
							"type": "uint256"
						}
					],
					"name": "withdrawLiquidity",
					"outputs": [],
					"stateMutability": "nonpayable",
					"type": "function"
				}
			],
			"devdoc": {
				"kind": "dev",
				"methods": {
					"constructor": {
						"params": {
							"_tokenA": "The address of TokenA.",
							"_tokenB": "The address of TokenB."
						}
					},
					"depositLiquidity(uint256,uint256)": {
						"params": {
							"amountA": "The amount of TokenA to deposit.",
							"amountB": "The amount of TokenB to deposit. Requirements: - If the pool already has liquidity, deposits must preserve the current ratio."
						}
					},
					"getSpotPriceAinB()": {
						"returns": {
							"_0": "The price scaled by 1e18."
						}
					},
					"getSpotPriceBinA()": {
						"returns": {
							"_0": "The price scaled by 1e18."
						}
					},
					"swapTokenAForTokenB(uint256)": {
						"params": {
							"amountAIn": "The amount of TokenA the trader is swapping."
						}
					},
					"swapTokenBForTokenA(uint256)": {
						"params": {
							"amountBIn": "The amount of TokenB the trader is swapping."
						}
					},
					"withdrawLiquidity(uint256)": {
						"params": {
							"lpAmount": "The amount of LP tokens to redeem."
						}
					}
				},
				"version": 1
			},
			"evm": {
				"assembly": "    /* \"contracts/DEX.sol\":140:7275  contract DEX {... */\n  mstore(0x40, 0x80)\n    /* \"contracts/DEX.sol\":685:915  constructor(address _tokenA, address _tokenB) {... */\n  callvalue\n  dup1\n  iszero\n  tag_1\n  jumpi\n  0x00\n  dup1\n  revert\ntag_1:\n  pop\n  mload(0x40)\n  sub(codesize, bytecodeSize)\n  dup1\n  bytecodeSize\n  dup4\n  codecopy\n  dup2\n  dup2\n  add\n  0x40\n  mstore\n  dup2\n  add\n  swap1\n  tag_2\n  swap2\n  swap1\n  tag_3\n  jump\t// in\ntag_2:\n    /* \"contracts/DEX.sol\":757:764  _tokenA */\n  dup2\n    /* \"contracts/DEX.sol\":741:747  tokenA */\n  0x00\n  dup1\n    /* \"contracts/DEX.sol\":741:765  tokenA = IERC20(_tokenA) */\n  0x0100\n  exp\n  dup2\n  sload\n  dup2\n  0xffffffffffffffffffffffffffffffffffffffff\n  mul\n  not\n  and\n  swap1\n  dup4\n  0xffffffffffffffffffffffffffffffffffffffff\n  and\n  mul\n  or\n  swap1\n  sstore\n  pop\n    /* \"contracts/DEX.sol\":791:798  _tokenB */\n  dup1\n    /* \"contracts/DEX.sol\":775:781  tokenB */\n  0x01\n  0x00\n    /* \"contracts/DEX.sol\":775:799  tokenB = IERC20(_tokenB) */\n  0x0100\n  exp\n  dup2\n  sload\n  dup2\n  0xffffffffffffffffffffffffffffffffffffffff\n  mul\n  not\n  and\n  swap1\n  dup4\n  0xffffffffffffffffffffffffffffffffffffffff\n  and\n  mul\n  or\n  swap1\n  sstore\n  pop\n    /* \"contracts/DEX.sol\":874:908  new LPToken(\"DEX LP Token\", \"DLP\") */\n  mload(0x40)\n  tag_6\n  swap1\n  tag_7\n  jump\t// in\ntag_6:\n  tag_8\n  swap1\n  tag_9\n  jump\t// in\ntag_8:\n  mload(0x40)\n  dup1\n  swap2\n  sub\n  swap1\n  0x00\n  create\n  dup1\n  iszero\n  dup1\n  iszero\n  tag_10\n  jumpi\n  returndatasize\n  0x00\n  dup1\n  returndatacopy\n  revert(0x00, returndatasize)\ntag_10:\n  pop\n    /* \"contracts/DEX.sol\":864:871  lpToken */\n  0x02\n  0x00\n    /* \"contracts/DEX.sol\":864:908  lpToken = new LPToken(\"DEX LP Token\", \"DLP\") */\n  0x0100\n  exp\n  dup2\n  sload\n  dup2\n  0xffffffffffffffffffffffffffffffffffffffff\n  mul\n  not\n  and\n  swap1\n  dup4\n  0xffffffffffffffffffffffffffffffffffffffff\n  and\n  mul\n  or\n  swap1\n  sstore\n  pop\n    /* \"contracts/DEX.sol\":685:915  constructor(address _tokenA, address _tokenB) {... */\n  pop\n  pop\n    /* \"contracts/DEX.sol\":140:7275  contract DEX {... */\n  jump(tag_11)\ntag_7:\n  dataSize(sub_1)\n  dup1\n  dataOffset(sub_1)\n  dup4\n  codecopy\n  add\n  swap1\n  jump\t// out\n    /* \"#utility.yul\":88:205   */\ntag_13:\n    /* \"#utility.yul\":197:198   */\n  0x00\n    /* \"#utility.yul\":194:195   */\n  dup1\n    /* \"#utility.yul\":187:199   */\n  revert\n    /* \"#utility.yul\":334:460   */\ntag_15:\n    /* \"#utility.yul\":371:378   */\n  0x00\n    /* \"#utility.yul\":411:453   */\n  0xffffffffffffffffffffffffffffffffffffffff\n    /* \"#utility.yul\":404:409   */\n  dup3\n    /* \"#utility.yul\":400:454   */\n  and\n    /* \"#utility.yul\":389:454   */\n  swap1\n  pop\n    /* \"#utility.yul\":334:460   */\n  swap2\n  swap1\n  pop\n  jump\t// out\n    /* \"#utility.yul\":466:562   */\ntag_16:\n    /* \"#utility.yul\":503:510   */\n  0x00\n    /* \"#utility.yul\":532:556   */\n  tag_30\n    /* \"#utility.yul\":550:555   */\n  dup3\n    /* \"#utility.yul\":532:556   */\n  tag_15\n  jump\t// in\ntag_30:\n    /* \"#utility.yul\":521:556   */\n  swap1\n  pop\n    /* \"#utility.yul\":466:562   */\n  swap2\n  swap1\n  pop\n  jump\t// out\n    /* \"#utility.yul\":568:690   */\ntag_17:\n    /* \"#utility.yul\":641:665   */\n  tag_32\n    /* \"#utility.yul\":659:664   */\n  dup2\n    /* \"#utility.yul\":641:665   */\n  tag_16\n  jump\t// in\ntag_32:\n    /* \"#utility.yul\":634:639   */\n  dup2\n    /* \"#utility.yul\":631:666   */\n  eq\n    /* \"#utility.yul\":621:684   */\n  tag_33\n  jumpi\n    /* \"#utility.yul\":680:681   */\n  0x00\n    /* \"#utility.yul\":677:678   */\n  dup1\n    /* \"#utility.yul\":670:682   */\n  revert\n    /* \"#utility.yul\":621:684   */\ntag_33:\n    /* \"#utility.yul\":568:690   */\n  pop\n  jump\t// out\n    /* \"#utility.yul\":696:839   */\ntag_18:\n    /* \"#utility.yul\":753:758   */\n  0x00\n    /* \"#utility.yul\":784:790   */\n  dup2\n    /* \"#utility.yul\":778:791   */\n  mload\n    /* \"#utility.yul\":769:791   */\n  swap1\n  pop\n    /* \"#utility.yul\":800:833   */\n  tag_35\n    /* \"#utility.yul\":827:832   */\n  dup2\n    /* \"#utility.yul\":800:833   */\n  tag_17\n  jump\t// in\ntag_35:\n    /* \"#utility.yul\":696:839   */\n  swap3\n  swap2\n  pop\n  pop\n  jump\t// out\n    /* \"#utility.yul\":845:1352   */\ntag_3:\n    /* \"#utility.yul\":924:930   */\n  0x00\n    /* \"#utility.yul\":932:938   */\n  dup1\n    /* \"#utility.yul\":981:983   */\n  0x40\n    /* \"#utility.yul\":969:978   */\n  dup4\n    /* \"#utility.yul\":960:967   */\n  dup6\n    /* \"#utility.yul\":956:979   */\n  sub\n    /* \"#utility.yul\":952:984   */\n  slt\n    /* \"#utility.yul\":949:1068   */\n  iszero\n  tag_37\n  jumpi\n    /* \"#utility.yul\":987:1066   */\n  tag_38\n  tag_13\n  jump\t// in\ntag_38:\n    /* \"#utility.yul\":949:1068   */\ntag_37:\n    /* \"#utility.yul\":1107:1108   */\n  0x00\n    /* \"#utility.yul\":1132:1196   */\n  tag_39\n    /* \"#utility.yul\":1188:1195   */\n  dup6\n    /* \"#utility.yul\":1179:1185   */\n  dup3\n    /* \"#utility.yul\":1168:1177   */\n  dup7\n    /* \"#utility.yul\":1164:1186   */\n  add\n    /* \"#utility.yul\":1132:1196   */\n  tag_18\n  jump\t// in\ntag_39:\n    /* \"#utility.yul\":1122:1196   */\n  swap3\n  pop\n    /* \"#utility.yul\":1078:1206   */\n  pop\n    /* \"#utility.yul\":1245:1247   */\n  0x20\n    /* \"#utility.yul\":1271:1335   */\n  tag_40\n    /* \"#utility.yul\":1327:1334   */\n  dup6\n    /* \"#utility.yul\":1318:1324   */\n  dup3\n    /* \"#utility.yul\":1307:1316   */\n  dup7\n    /* \"#utility.yul\":1303:1325   */\n  add\n    /* \"#utility.yul\":1271:1335   */\n  tag_18\n  jump\t// in\ntag_40:\n    /* \"#utility.yul\":1261:1335   */\n  swap2\n  pop\n    /* \"#utility.yul\":1216:1345   */\n  pop\n    /* \"#utility.yul\":845:1352   */\n  swap3\n  pop\n  swap3\n  swap1\n  pop\n  jump\t// out\n    /* \"#utility.yul\":1358:1527   */\ntag_19:\n    /* \"#utility.yul\":1442:1453   */\n  0x00\n    /* \"#utility.yul\":1476:1482   */\n  dup3\n    /* \"#utility.yul\":1471:1474   */\n  dup3\n    /* \"#utility.yul\":1464:1483   */\n  mstore\n    /* \"#utility.yul\":1516:1520   */\n  0x20\n    /* \"#utility.yul\":1511:1514   */\n  dup3\n    /* \"#utility.yul\":1507:1521   */\n  add\n    /* \"#utility.yul\":1492:1521   */\n  swap1\n  pop\n    /* \"#utility.yul\":1358:1527   */\n  swap3\n  swap2\n  pop\n  pop\n  jump\t// out\n    /* \"#utility.yul\":1533:1695   */\ntag_20:\n    /* \"#utility.yul\":1673:1687   */\n  0x444558204c5020546f6b656e0000000000000000000000000000000000000000\n    /* \"#utility.yul\":1669:1670   */\n  0x00\n    /* \"#utility.yul\":1661:1667   */\n  dup3\n    /* \"#utility.yul\":1657:1671   */\n  add\n    /* \"#utility.yul\":1650:1688   */\n  mstore\n    /* \"#utility.yul\":1533:1695   */\n  pop\n  jump\t// out\n    /* \"#utility.yul\":1701:2067   */\ntag_21:\n    /* \"#utility.yul\":1843:1846   */\n  0x00\n    /* \"#utility.yul\":1864:1931   */\n  tag_44\n    /* \"#utility.yul\":1928:1930   */\n  0x0c\n    /* \"#utility.yul\":1923:1926   */\n  dup4\n    /* \"#utility.yul\":1864:1931   */\n  tag_19\n  jump\t// in\ntag_44:\n    /* \"#utility.yul\":1857:1931   */\n  swap2\n  pop\n    /* \"#utility.yul\":1940:2033   */\n  tag_45\n    /* \"#utility.yul\":2029:2032   */\n  dup3\n    /* \"#utility.yul\":1940:2033   */\n  tag_20\n  jump\t// in\ntag_45:\n    /* \"#utility.yul\":2058:2060   */\n  0x20\n    /* \"#utility.yul\":2053:2056   */\n  dup3\n    /* \"#utility.yul\":2049:2061   */\n  add\n    /* \"#utility.yul\":2042:2061   */\n  swap1\n  pop\n    /* \"#utility.yul\":1701:2067   */\n  swap2\n  swap1\n  pop\n  jump\t// out\n    /* \"#utility.yul\":2073:2226   */\ntag_22:\n    /* \"#utility.yul\":2213:2218   */\n  0x444c500000000000000000000000000000000000000000000000000000000000\n    /* \"#utility.yul\":2209:2210   */\n  0x00\n    /* \"#utility.yul\":2201:2207   */\n  dup3\n    /* \"#utility.yul\":2197:2211   */\n  add\n    /* \"#utility.yul\":2190:2219   */\n  mstore\n    /* \"#utility.yul\":2073:2226   */\n  pop\n  jump\t// out\n    /* \"#utility.yul\":2232:2597   */\ntag_23:\n    /* \"#utility.yul\":2374:2377   */\n  0x00\n    /* \"#utility.yul\":2395:2461   */\n  tag_48\n    /* \"#utility.yul\":2459:2460   */\n  0x03\n    /* \"#utility.yul\":2454:2457   */\n  dup4\n    /* \"#utility.yul\":2395:2461   */\n  tag_19\n  jump\t// in\ntag_48:\n    /* \"#utility.yul\":2388:2461   */\n  swap2\n  pop\n    /* \"#utility.yul\":2470:2563   */\n  tag_49\n    /* \"#utility.yul\":2559:2562   */\n  dup3\n    /* \"#utility.yul\":2470:2563   */\n  tag_22\n  jump\t// in\ntag_49:\n    /* \"#utility.yul\":2588:2590   */\n  0x20\n    /* \"#utility.yul\":2583:2586   */\n  dup3\n    /* \"#utility.yul\":2579:2591   */\n  add\n    /* \"#utility.yul\":2572:2591   */\n  swap1\n  pop\n    /* \"#utility.yul\":2232:2597   */\n  swap2\n  swap1\n  pop\n  jump\t// out\n    /* \"#utility.yul\":2603:3329   */\ntag_9:\n    /* \"#utility.yul\":2870:2874   */\n  0x00\n    /* \"#utility.yul\":2908:2910   */\n  0x40\n    /* \"#utility.yul\":2897:2906   */\n  dup3\n    /* \"#utility.yul\":2893:2911   */\n  add\n    /* \"#utility.yul\":2885:2911   */\n  swap1\n  pop\n    /* \"#utility.yul\":2957:2966   */\n  dup2\n    /* \"#utility.yul\":2951:2955   */\n  dup2\n    /* \"#utility.yul\":2947:2967   */\n  sub\n    /* \"#utility.yul\":2943:2944   */\n  0x00\n    /* \"#utility.yul\":2932:2941   */\n  dup4\n    /* \"#utility.yul\":2928:2945   */\n  add\n    /* \"#utility.yul\":2921:2968   */\n  mstore\n    /* \"#utility.yul\":2985:3116   */\n  tag_51\n    /* \"#utility.yul\":3111:3115   */\n  dup2\n    /* \"#utility.yul\":2985:3116   */\n  tag_21\n  jump\t// in\ntag_51:\n    /* \"#utility.yul\":2977:3116   */\n  swap1\n  pop\n    /* \"#utility.yul\":3163:3172   */\n  dup2\n    /* \"#utility.yul\":3157:3161   */\n  dup2\n    /* \"#utility.yul\":3153:3173   */\n  sub\n    /* \"#utility.yul\":3148:3150   */\n  0x20\n    /* \"#utility.yul\":3137:3146   */\n  dup4\n    /* \"#utility.yul\":3133:3151   */\n  add\n    /* \"#utility.yul\":3126:3174   */\n  mstore\n    /* \"#utility.yul\":3191:3322   */\n  tag_52\n    /* \"#utility.yul\":3317:3321   */\n  dup2\n    /* \"#utility.yul\":3191:3322   */\n  tag_23\n  jump\t// in\ntag_52:\n    /* \"#utility.yul\":3183:3322   */\n  swap1\n  pop\n    /* \"#utility.yul\":2603:3329   */\n  swap2\n  swap1\n  pop\n  jump\t// out\n    /* \"contracts/DEX.sol\":140:7275  contract DEX {... */\ntag_11:\n  dataSize(sub_0)\n  dup1\n  dataOffset(sub_0)\n  0x00\n  codecopy\n  0x00\n  return\nstop\n\nsub_0: assembly {\n        /* \"contracts/DEX.sol\":140:7275  contract DEX {... */\n      mstore(0x40, 0x80)\n      callvalue\n      dup1\n      iszero\n      tag_1\n      jumpi\n      0x00\n      dup1\n      revert\n    tag_1:\n      pop\n      jumpi(tag_2, lt(calldatasize, 0x04))\n      shr(0xe0, calldataload(0x00))\n      dup1\n      0x5f64b55b\n      gt\n      tag_15\n      jumpi\n      dup1\n      0x5f64b55b\n      eq\n      tag_9\n      jumpi\n      dup1\n      0x5fcbd285\n      eq\n      tag_10\n      jumpi\n      dup1\n      0x68a94844\n      eq\n      tag_11\n      jumpi\n      dup1\n      0x723f916a\n      eq\n      tag_12\n      jumpi\n      dup1\n      0xad56238d\n      eq\n      tag_13\n      jumpi\n      dup1\n      0xdc5fa6c5\n      eq\n      tag_14\n      jumpi\n      jump(tag_2)\n    tag_15:\n      dup1\n      0x0902f1ac\n      eq\n      tag_3\n      jumpi\n      dup1\n      0x0a861f2a\n      eq\n      tag_4\n      jumpi\n      dup1\n      0x0fc63d10\n      eq\n      tag_5\n      jumpi\n      dup1\n      0x19e36f3b\n      eq\n      tag_6\n      jumpi\n      dup1\n      0x34a860e4\n      eq\n      tag_7\n      jumpi\n      dup1\n      0x507b0e6b\n      eq\n      tag_8\n      jumpi\n    tag_2:\n      0x00\n      dup1\n      revert\n        /* \"contracts/DEX.sol\":6739:6867  function getReserves() external view returns (uint256 _reserveA, uint256 _reserveB) {... */\n    tag_3:\n      tag_16\n      tag_17\n      jump\t// in\n    tag_16:\n      mload(0x40)\n      tag_18\n      swap3\n      swap2\n      swap1\n      tag_19\n      jump\t// in\n    tag_18:\n      mload(0x40)\n      dup1\n      swap2\n      sub\n      swap1\n      return\n        /* \"contracts/DEX.sol\":3116:4054  function withdrawLiquidity(uint256 lpAmount) external {... */\n    tag_4:\n      tag_20\n      0x04\n      dup1\n      calldatasize\n      sub\n      dup2\n      add\n      swap1\n      tag_21\n      swap2\n      swap1\n      tag_22\n      jump\t// in\n    tag_21:\n      tag_23\n      jump\t// in\n    tag_20:\n      stop\n        /* \"contracts/DEX.sol\":159:179  IERC20 public tokenA */\n    tag_5:\n      tag_24\n      tag_25\n      jump\t// in\n    tag_24:\n      mload(0x40)\n      tag_26\n      swap2\n      swap1\n      tag_27\n      jump\t// in\n    tag_26:\n      mload(0x40)\n      dup1\n      swap2\n      sub\n      swap1\n      return\n        /* \"contracts/DEX.sol\":324:347  uint256 public reserveB */\n    tag_6:\n      tag_28\n      tag_29\n      jump\t// in\n    tag_28:\n      mload(0x40)\n      tag_30\n      swap2\n      swap1\n      tag_31\n      jump\t// in\n    tag_30:\n      mload(0x40)\n      dup1\n      swap2\n      sub\n      swap1\n      return\n        /* \"contracts/DEX.sol\":1191:3001  function depositLiquidity(uint256 amountA, uint256 amountB) external {... */\n    tag_7:\n      tag_32\n      0x04\n      dup1\n      calldatasize\n      sub\n      dup2\n      add\n      swap1\n      tag_33\n      swap2\n      swap1\n      tag_34\n      jump\t// in\n    tag_33:\n      tag_35\n      jump\t// in\n    tag_32:\n      stop\n        /* \"contracts/DEX.sol\":4209:5199  function swapTokenAForTokenB(uint256 amountAIn) external {... */\n    tag_8:\n      tag_36\n      0x04\n      dup1\n      calldatasize\n      sub\n      dup2\n      add\n      swap1\n      tag_37\n      swap2\n      swap1\n      tag_22\n      jump\t// in\n    tag_37:\n      tag_38\n      jump\t// in\n    tag_36:\n      stop\n        /* \"contracts/DEX.sol\":185:205  IERC20 public tokenB */\n    tag_9:\n      tag_39\n      tag_40\n      jump\t// in\n    tag_39:\n      mload(0x40)\n      tag_41\n      swap2\n      swap1\n      tag_27\n      jump\t// in\n    tag_41:\n      mload(0x40)\n      dup1\n      swap2\n      sub\n      swap1\n      return\n        /* \"contracts/DEX.sol\":211:233  LPToken public lpToken */\n    tag_10:\n      tag_42\n      tag_43\n      jump\t// in\n    tag_42:\n      mload(0x40)\n      tag_44\n      swap2\n      swap1\n      tag_45\n      jump\t// in\n    tag_44:\n      mload(0x40)\n      dup1\n      swap2\n      sub\n      swap1\n      return\n        /* \"contracts/DEX.sol\":6199:6368  function getSpotPriceAinB() external view returns (uint256) {... */\n    tag_11:\n      tag_46\n      tag_47\n      jump\t// in\n    tag_46:\n      mload(0x40)\n      tag_48\n      swap2\n      swap1\n      tag_31\n      jump\t// in\n    tag_48:\n      mload(0x40)\n      dup1\n      swap2\n      sub\n      swap1\n      return\n        /* \"contracts/DEX.sol\":6485:6654  function getSpotPriceBinA() external view returns (uint256) {... */\n    tag_12:\n      tag_49\n      tag_50\n      jump\t// in\n    tag_49:\n      mload(0x40)\n      tag_51\n      swap2\n      swap1\n      tag_31\n      jump\t// in\n    tag_51:\n      mload(0x40)\n      dup1\n      swap2\n      sub\n      swap1\n      return\n        /* \"contracts/DEX.sol\":5354:6082  function swapTokenBForTokenA(uint256 amountBIn) external {... */\n    tag_13:\n      tag_52\n      0x04\n      dup1\n      calldatasize\n      sub\n      dup2\n      add\n      swap1\n      tag_53\n      swap2\n      swap1\n      tag_22\n      jump\t// in\n    tag_53:\n      tag_54\n      jump\t// in\n    tag_52:\n      stop\n        /* \"contracts/DEX.sol\":295:318  uint256 public reserveA */\n    tag_14:\n      tag_55\n      tag_56\n      jump\t// in\n    tag_55:\n      mload(0x40)\n      tag_57\n      swap2\n      swap1\n      tag_31\n      jump\t// in\n    tag_57:\n      mload(0x40)\n      dup1\n      swap2\n      sub\n      swap1\n      return\n        /* \"contracts/DEX.sol\":6739:6867  function getReserves() external view returns (uint256 _reserveA, uint256 _reserveB) {... */\n    tag_17:\n        /* \"contracts/DEX.sol\":6785:6802  uint256 _reserveA */\n      0x00\n        /* \"contracts/DEX.sol\":6804:6821  uint256 _reserveB */\n      dup1\n        /* \"contracts/DEX.sol\":6841:6849  reserveA */\n      sload(0x03)\n        /* \"contracts/DEX.sol\":6851:6859  reserveB */\n      sload(0x04)\n        /* \"contracts/DEX.sol\":6833:6860  return (reserveA, reserveB) */\n      swap2\n      pop\n      swap2\n      pop\n        /* \"contracts/DEX.sol\":6739:6867  function getReserves() external view returns (uint256 _reserveA, uint256 _reserveB) {... */\n      swap1\n      swap2\n      jump\t// out\n        /* \"contracts/DEX.sol\":3116:4054  function withdrawLiquidity(uint256 lpAmount) external {... */\n    tag_23:\n        /* \"contracts/DEX.sol\":3199:3200  0 */\n      0x00\n        /* \"contracts/DEX.sol\":3188:3196  lpAmount */\n      dup2\n        /* \"contracts/DEX.sol\":3188:3200  lpAmount > 0 */\n      gt\n        /* \"contracts/DEX.sol\":3180:3245  require(lpAmount > 0, \"DEX: LP amount must be greater than zero\") */\n      tag_60\n      jumpi\n      mload(0x40)\n      0x08c379a000000000000000000000000000000000000000000000000000000000\n      dup2\n      mstore\n      0x04\n      add\n      tag_61\n      swap1\n      tag_62\n      jump\t// in\n    tag_61:\n      mload(0x40)\n      dup1\n      swap2\n      sub\n      swap1\n      revert\n    tag_60:\n        /* \"contracts/DEX.sol\":3255:3274  uint256 totalSupply */\n      0x00\n        /* \"contracts/DEX.sol\":3277:3284  lpToken */\n      0x02\n      0x00\n      swap1\n      sload\n      swap1\n      0x0100\n      exp\n      swap1\n      div\n      0xffffffffffffffffffffffffffffffffffffffff\n      and\n        /* \"contracts/DEX.sol\":3277:3296  lpToken.totalSupply */\n      0xffffffffffffffffffffffffffffffffffffffff\n      and\n      0x18160ddd\n        /* \"contracts/DEX.sol\":3277:3298  lpToken.totalSupply() */\n      mload(0x40)\n      dup2\n      0xffffffff\n      and\n      0xe0\n      shl\n      dup2\n      mstore\n      0x04\n      add\n      0x20\n      mload(0x40)\n      dup1\n      dup4\n      sub\n      dup2\n      dup7\n      gas\n      staticcall\n      iszero\n      dup1\n      iszero\n      tag_64\n      jumpi\n      returndatasize\n      0x00\n      dup1\n      returndatacopy\n      revert(0x00, returndatasize)\n    tag_64:\n      pop\n      pop\n      pop\n      pop\n      mload(0x40)\n      returndatasize\n      not(0x1f)\n      0x1f\n      dup3\n      add\n      and\n      dup3\n      add\n      dup1\n      0x40\n      mstore\n      pop\n      dup2\n      add\n      swap1\n      tag_65\n      swap2\n      swap1\n      tag_66\n      jump\t// in\n    tag_65:\n        /* \"contracts/DEX.sol\":3255:3298  uint256 totalSupply = lpToken.totalSupply() */\n      swap1\n      pop\n        /* \"contracts/DEX.sol\":3330:3331  0 */\n      0x00\n        /* \"contracts/DEX.sol\":3316:3327  totalSupply */\n      dup2\n        /* \"contracts/DEX.sol\":3316:3331  totalSupply > 0 */\n      gt\n        /* \"contracts/DEX.sol\":3308:3363  require(totalSupply > 0, \"DEX: No liquidity available\") */\n      tag_67\n      jumpi\n      mload(0x40)\n      0x08c379a000000000000000000000000000000000000000000000000000000000\n      dup2\n      mstore\n      0x04\n      add\n      tag_68\n      swap1\n      tag_69\n      jump\t// in\n    tag_68:\n      mload(0x40)\n      dup1\n      swap2\n      sub\n      swap1\n      revert\n    tag_67:\n        /* \"contracts/DEX.sol\":3447:3462  uint256 amountA */\n      0x00\n        /* \"contracts/DEX.sol\":3489:3500  totalSupply */\n      dup2\n        /* \"contracts/DEX.sol\":3477:3485  reserveA */\n      sload(0x03)\n        /* \"contracts/DEX.sol\":3466:3474  lpAmount */\n      dup5\n        /* \"contracts/DEX.sol\":3466:3485  lpAmount * reserveA */\n      tag_70\n      swap2\n      swap1\n      tag_71\n      jump\t// in\n    tag_70:\n        /* \"contracts/DEX.sol\":3465:3500  (lpAmount * reserveA) / totalSupply */\n      tag_72\n      swap2\n      swap1\n      tag_73\n      jump\t// in\n    tag_72:\n        /* \"contracts/DEX.sol\":3447:3500  uint256 amountA = (lpAmount * reserveA) / totalSupply */\n      swap1\n      pop\n        /* \"contracts/DEX.sol\":3510:3525  uint256 amountB */\n      0x00\n        /* \"contracts/DEX.sol\":3552:3563  totalSupply */\n      dup3\n        /* \"contracts/DEX.sol\":3540:3548  reserveB */\n      sload(0x04)\n        /* \"contracts/DEX.sol\":3529:3537  lpAmount */\n      dup6\n        /* \"contracts/DEX.sol\":3529:3548  lpAmount * reserveB */\n      tag_74\n      swap2\n      swap1\n      tag_71\n      jump\t// in\n    tag_74:\n        /* \"contracts/DEX.sol\":3528:3563  (lpAmount * reserveB) / totalSupply */\n      tag_75\n      swap2\n      swap1\n      tag_73\n      jump\t// in\n    tag_75:\n        /* \"contracts/DEX.sol\":3510:3563  uint256 amountB = (lpAmount * reserveB) / totalSupply */\n      swap1\n      pop\n        /* \"contracts/DEX.sol\":3591:3592  0 */\n      0x00\n        /* \"contracts/DEX.sol\":3581:3588  amountA */\n      dup3\n        /* \"contracts/DEX.sol\":3581:3592  amountA > 0 */\n      gt\n        /* \"contracts/DEX.sol\":3581:3607  amountA > 0 && amountB > 0 */\n      dup1\n      iszero\n      tag_76\n      jumpi\n      pop\n        /* \"contracts/DEX.sol\":3606:3607  0 */\n      0x00\n        /* \"contracts/DEX.sol\":3596:3603  amountB */\n      dup2\n        /* \"contracts/DEX.sol\":3596:3607  amountB > 0 */\n      gt\n        /* \"contracts/DEX.sol\":3581:3607  amountA > 0 && amountB > 0 */\n    tag_76:\n        /* \"contracts/DEX.sol\":3573:3642  require(amountA > 0 && amountB > 0, \"DEX: Withdraw amounts are zero\") */\n      tag_77\n      jumpi\n      mload(0x40)\n      0x08c379a000000000000000000000000000000000000000000000000000000000\n      dup2\n      mstore\n      0x04\n      add\n      tag_78\n      swap1\n      tag_79\n      jump\t// in\n    tag_78:\n      mload(0x40)\n      dup1\n      swap2\n      sub\n      swap1\n      revert\n    tag_77:\n        /* \"contracts/DEX.sol\":3698:3705  lpToken */\n      0x02\n      0x00\n      swap1\n      sload\n      swap1\n      0x0100\n      exp\n      swap1\n      div\n      0xffffffffffffffffffffffffffffffffffffffff\n      and\n        /* \"contracts/DEX.sol\":3698:3714  lpToken.burnFrom */\n      0xffffffffffffffffffffffffffffffffffffffff\n      and\n      0x79cc6790\n        /* \"contracts/DEX.sol\":3715:3725  msg.sender */\n      caller\n        /* \"contracts/DEX.sol\":3727:3735  lpAmount */\n      dup7\n        /* \"contracts/DEX.sol\":3698:3736  lpToken.burnFrom(msg.sender, lpAmount) */\n      mload(0x40)\n      dup4\n      0xffffffff\n      and\n      0xe0\n      shl\n      dup2\n      mstore\n      0x04\n      add\n      tag_80\n      swap3\n      swap2\n      swap1\n      tag_81\n      jump\t// in\n    tag_80:\n      0x00\n      mload(0x40)\n      dup1\n      dup4\n      sub\n      dup2\n      0x00\n      dup8\n      dup1\n      extcodesize\n      iszero\n      dup1\n      iszero\n      tag_82\n      jumpi\n      0x00\n      dup1\n      revert\n    tag_82:\n      pop\n      gas\n      call\n      iszero\n      dup1\n      iszero\n      tag_84\n      jumpi\n      returndatasize\n      0x00\n      dup1\n      returndatacopy\n      revert(0x00, returndatasize)\n    tag_84:\n      pop\n      pop\n      pop\n      pop\n        /* \"contracts/DEX.sol\":3787:3794  amountA */\n      dup2\n        /* \"contracts/DEX.sol\":3775:3783  reserveA */\n      0x03\n      0x00\n        /* \"contracts/DEX.sol\":3775:3794  reserveA -= amountA */\n      dup3\n      dup3\n      sload\n      tag_85\n      swap2\n      swap1\n      tag_86\n      jump\t// in\n    tag_85:\n      swap3\n      pop\n      pop\n      dup2\n      swap1\n      sstore\n      pop\n        /* \"contracts/DEX.sol\":3816:3823  amountB */\n      dup1\n        /* \"contracts/DEX.sol\":3804:3812  reserveB */\n      0x04\n      0x00\n        /* \"contracts/DEX.sol\":3804:3823  reserveB -= amountB */\n      dup3\n      dup3\n      sload\n      tag_87\n      swap2\n      swap1\n      tag_86\n      jump\t// in\n    tag_87:\n      swap3\n      pop\n      pop\n      dup2\n      swap1\n      sstore\n      pop\n        /* \"contracts/DEX.sol\":3887:3893  tokenA */\n      0x00\n      dup1\n      sload\n      swap1\n      0x0100\n      exp\n      swap1\n      div\n      0xffffffffffffffffffffffffffffffffffffffff\n      and\n        /* \"contracts/DEX.sol\":3887:3902  tokenA.transfer */\n      0xffffffffffffffffffffffffffffffffffffffff\n      and\n      0xa9059cbb\n        /* \"contracts/DEX.sol\":3903:3913  msg.sender */\n      caller\n        /* \"contracts/DEX.sol\":3915:3922  amountA */\n      dup5\n        /* \"contracts/DEX.sol\":3887:3923  tokenA.transfer(msg.sender, amountA) */\n      mload(0x40)\n      dup4\n      0xffffffff\n      and\n      0xe0\n      shl\n      dup2\n      mstore\n      0x04\n      add\n      tag_88\n      swap3\n      swap2\n      swap1\n      tag_81\n      jump\t// in\n    tag_88:\n      0x20\n      mload(0x40)\n      dup1\n      dup4\n      sub\n      dup2\n      0x00\n      dup8\n      gas\n      call\n      iszero\n      dup1\n      iszero\n      tag_90\n      jumpi\n      returndatasize\n      0x00\n      dup1\n      returndatacopy\n      revert(0x00, returndatasize)\n    tag_90:\n      pop\n      pop\n      pop\n      pop\n      mload(0x40)\n      returndatasize\n      not(0x1f)\n      0x1f\n      dup3\n      add\n      and\n      dup3\n      add\n      dup1\n      0x40\n      mstore\n      pop\n      dup2\n      add\n      swap1\n      tag_91\n      swap2\n      swap1\n      tag_92\n      jump\t// in\n    tag_91:\n        /* \"contracts/DEX.sol\":3879:3958  require(tokenA.transfer(msg.sender, amountA), \"DEX: Transfer of TokenA failed\") */\n      tag_93\n      jumpi\n      mload(0x40)\n      0x08c379a000000000000000000000000000000000000000000000000000000000\n      dup2\n      mstore\n      0x04\n      add\n      tag_94\n      swap1\n      tag_95\n      jump\t// in\n    tag_94:\n      mload(0x40)\n      dup1\n      swap2\n      sub\n      swap1\n      revert\n    tag_93:\n        /* \"contracts/DEX.sol\":3976:3982  tokenB */\n      0x01\n      0x00\n      swap1\n      sload\n      swap1\n      0x0100\n      exp\n      swap1\n      div\n      0xffffffffffffffffffffffffffffffffffffffff\n      and\n        /* \"contracts/DEX.sol\":3976:3991  tokenB.transfer */\n      0xffffffffffffffffffffffffffffffffffffffff\n      and\n      0xa9059cbb\n        /* \"contracts/DEX.sol\":3992:4002  msg.sender */\n      caller\n        /* \"contracts/DEX.sol\":4004:4011  amountB */\n      dup4\n        /* \"contracts/DEX.sol\":3976:4012  tokenB.transfer(msg.sender, amountB) */\n      mload(0x40)\n      dup4\n      0xffffffff\n      and\n      0xe0\n      shl\n      dup2\n      mstore\n      0x04\n      add\n      tag_96\n      swap3\n      swap2\n      swap1\n      tag_81\n      jump\t// in\n    tag_96:\n      0x20\n      mload(0x40)\n      dup1\n      dup4\n      sub\n      dup2\n      0x00\n      dup8\n      gas\n      call\n      iszero\n      dup1\n      iszero\n      tag_98\n      jumpi\n      returndatasize\n      0x00\n      dup1\n      returndatacopy\n      revert(0x00, returndatasize)\n    tag_98:\n      pop\n      pop\n      pop\n      pop\n      mload(0x40)\n      returndatasize\n      not(0x1f)\n      0x1f\n      dup3\n      add\n      and\n      dup3\n      add\n      dup1\n      0x40\n      mstore\n      pop\n      dup2\n      add\n      swap1\n      tag_99\n      swap2\n      swap1\n      tag_92\n      jump\t// in\n    tag_99:\n        /* \"contracts/DEX.sol\":3968:4047  require(tokenB.transfer(msg.sender, amountB), \"DEX: Transfer of TokenB failed\") */\n      tag_100\n      jumpi\n      mload(0x40)\n      0x08c379a000000000000000000000000000000000000000000000000000000000\n      dup2\n      mstore\n      0x04\n      add\n      tag_101\n      swap1\n      tag_102\n      jump\t// in\n    tag_101:\n      mload(0x40)\n      dup1\n      swap2\n      sub\n      swap1\n      revert\n    tag_100:\n        /* \"contracts/DEX.sol\":3170:4054  {... */\n      pop\n      pop\n      pop\n        /* \"contracts/DEX.sol\":3116:4054  function withdrawLiquidity(uint256 lpAmount) external {... */\n      pop\n      jump\t// out\n        /* \"contracts/DEX.sol\":159:179  IERC20 public tokenA */\n    tag_25:\n      0x00\n      dup1\n      sload\n      swap1\n      0x0100\n      exp\n      swap1\n      div\n      0xffffffffffffffffffffffffffffffffffffffff\n      and\n      dup2\n      jump\t// out\n        /* \"contracts/DEX.sol\":324:347  uint256 public reserveB */\n    tag_29:\n      sload(0x04)\n      dup2\n      jump\t// out\n        /* \"contracts/DEX.sol\":1191:3001  function depositLiquidity(uint256 amountA, uint256 amountB) external {... */\n    tag_35:\n        /* \"contracts/DEX.sol\":1288:1289  0 */\n      0x00\n        /* \"contracts/DEX.sol\":1278:1285  amountA */\n      dup3\n        /* \"contracts/DEX.sol\":1278:1289  amountA > 0 */\n      gt\n        /* \"contracts/DEX.sol\":1278:1304  amountA > 0 && amountB > 0 */\n      dup1\n      iszero\n      tag_104\n      jumpi\n      pop\n        /* \"contracts/DEX.sol\":1303:1304  0 */\n      0x00\n        /* \"contracts/DEX.sol\":1293:1300  amountB */\n      dup2\n        /* \"contracts/DEX.sol\":1293:1304  amountB > 0 */\n      gt\n        /* \"contracts/DEX.sol\":1278:1304  amountA > 0 && amountB > 0 */\n    tag_104:\n        /* \"contracts/DEX.sol\":1270:1347  require(amountA > 0 && amountB > 0, \"DEX: Amounts must be greater than zero\") */\n      tag_105\n      jumpi\n      mload(0x40)\n      0x08c379a000000000000000000000000000000000000000000000000000000000\n      dup2\n      mstore\n      0x04\n      add\n      tag_106\n      swap1\n      tag_107\n      jump\t// in\n    tag_106:\n      mload(0x40)\n      dup1\n      swap2\n      sub\n      swap1\n      revert\n    tag_105:\n        /* \"contracts/DEX.sol\":1470:1471  0 */\n      0x00\n        /* \"contracts/DEX.sol\":1459:1467  reserveA */\n      sload(0x03)\n        /* \"contracts/DEX.sol\":1459:1471  reserveA > 0 */\n      gt\n        /* \"contracts/DEX.sol\":1459:1487  reserveA > 0 || reserveB > 0 */\n      dup1\n      tag_108\n      jumpi\n      pop\n        /* \"contracts/DEX.sol\":1486:1487  0 */\n      0x00\n        /* \"contracts/DEX.sol\":1475:1483  reserveB */\n      sload(0x04)\n        /* \"contracts/DEX.sol\":1475:1487  reserveB > 0 */\n      gt\n        /* \"contracts/DEX.sol\":1459:1487  reserveA > 0 || reserveB > 0 */\n    tag_108:\n        /* \"contracts/DEX.sol\":1455:1604  if (reserveA > 0 || reserveB > 0) {... */\n      iszero\n      tag_109\n      jumpi\n        /* \"contracts/DEX.sol\":1544:1551  amountB */\n      dup1\n        /* \"contracts/DEX.sol\":1534:1541  amountA */\n      dup3\n        /* \"contracts/DEX.sol\":1534:1551  amountA / amountB */\n      tag_110\n      swap2\n      swap1\n      tag_73\n      jump\t// in\n    tag_110:\n        /* \"contracts/DEX.sol\":1522:1530  reserveB */\n      sload(0x04)\n        /* \"contracts/DEX.sol\":1511:1519  reserveA */\n      sload(0x03)\n        /* \"contracts/DEX.sol\":1511:1530  reserveA / reserveB */\n      tag_111\n      swap2\n      swap1\n      tag_73\n      jump\t// in\n    tag_111:\n        /* \"contracts/DEX.sol\":1511:1551  reserveA / reserveB == amountA / amountB */\n      eq\n        /* \"contracts/DEX.sol\":1503:1593  require(reserveA / reserveB == amountA / amountB, \"DEX: Deposit must preserve pool ratio\") */\n      tag_112\n      jumpi\n      mload(0x40)\n      0x08c379a000000000000000000000000000000000000000000000000000000000\n      dup2\n      mstore\n      0x04\n      add\n      tag_113\n      swap1\n      tag_114\n      jump\t// in\n    tag_113:\n      mload(0x40)\n      dup1\n      swap2\n      sub\n      swap1\n      revert\n    tag_112:\n        /* \"contracts/DEX.sol\":1455:1604  if (reserveA > 0 || reserveB > 0) {... */\n    tag_109:\n        /* \"contracts/DEX.sol\":1707:1713  tokenA */\n      0x00\n      dup1\n      sload\n      swap1\n      0x0100\n      exp\n      swap1\n      div\n      0xffffffffffffffffffffffffffffffffffffffff\n      and\n        /* \"contracts/DEX.sol\":1707:1726  tokenA.transferFrom */\n      0xffffffffffffffffffffffffffffffffffffffff\n      and\n      0x23b872dd\n        /* \"contracts/DEX.sol\":1727:1737  msg.sender */\n      caller\n        /* \"contracts/DEX.sol\":1747:1751  this */\n      address\n        /* \"contracts/DEX.sol\":1754:1761  amountA */\n      dup6\n        /* \"contracts/DEX.sol\":1707:1762  tokenA.transferFrom(msg.sender, address(this), amountA) */\n      mload(0x40)\n      dup5\n      0xffffffff\n      and\n      0xe0\n      shl\n      dup2\n      mstore\n      0x04\n      add\n      tag_115\n      swap4\n      swap3\n      swap2\n      swap1\n      tag_116\n      jump\t// in\n    tag_115:\n      0x20\n      mload(0x40)\n      dup1\n      dup4\n      sub\n      dup2\n      0x00\n      dup8\n      gas\n      call\n      iszero\n      dup1\n      iszero\n      tag_118\n      jumpi\n      returndatasize\n      0x00\n      dup1\n      returndatacopy\n      revert(0x00, returndatasize)\n    tag_118:\n      pop\n      pop\n      pop\n      pop\n      mload(0x40)\n      returndatasize\n      not(0x1f)\n      0x1f\n      dup3\n      add\n      and\n      dup3\n      add\n      dup1\n      0x40\n      mstore\n      pop\n      dup2\n      add\n      swap1\n      tag_119\n      swap2\n      swap1\n      tag_92\n      jump\t// in\n    tag_119:\n        /* \"contracts/DEX.sol\":1699:1797  require(tokenA.transferFrom(msg.sender, address(this), amountA), \"DEX: Transfer of TokenA failed\") */\n      tag_120\n      jumpi\n      mload(0x40)\n      0x08c379a000000000000000000000000000000000000000000000000000000000\n      dup2\n      mstore\n      0x04\n      add\n      tag_121\n      swap1\n      tag_95\n      jump\t// in\n    tag_121:\n      mload(0x40)\n      dup1\n      swap2\n      sub\n      swap1\n      revert\n    tag_120:\n        /* \"contracts/DEX.sol\":1815:1821  tokenB */\n      0x01\n      0x00\n      swap1\n      sload\n      swap1\n      0x0100\n      exp\n      swap1\n      div\n      0xffffffffffffffffffffffffffffffffffffffff\n      and\n        /* \"contracts/DEX.sol\":1815:1834  tokenB.transferFrom */\n      0xffffffffffffffffffffffffffffffffffffffff\n      and\n      0x23b872dd\n        /* \"contracts/DEX.sol\":1835:1845  msg.sender */\n      caller\n        /* \"contracts/DEX.sol\":1855:1859  this */\n      address\n        /* \"contracts/DEX.sol\":1862:1869  amountB */\n      dup5\n        /* \"contracts/DEX.sol\":1815:1870  tokenB.transferFrom(msg.sender, address(this), amountB) */\n      mload(0x40)\n      dup5\n      0xffffffff\n      and\n      0xe0\n      shl\n      dup2\n      mstore\n      0x04\n      add\n      tag_122\n      swap4\n      swap3\n      swap2\n      swap1\n      tag_116\n      jump\t// in\n    tag_122:\n      0x20\n      mload(0x40)\n      dup1\n      dup4\n      sub\n      dup2\n      0x00\n      dup8\n      gas\n      call\n      iszero\n      dup1\n      iszero\n      tag_124\n      jumpi\n      returndatasize\n      0x00\n      dup1\n      returndatacopy\n      revert(0x00, returndatasize)\n    tag_124:\n      pop\n      pop\n      pop\n      pop\n      mload(0x40)\n      returndatasize\n      not(0x1f)\n      0x1f\n      dup3\n      add\n      and\n      dup3\n      add\n      dup1\n      0x40\n      mstore\n      pop\n      dup2\n      add\n      swap1\n      tag_125\n      swap2\n      swap1\n      tag_92\n      jump\t// in\n    tag_125:\n        /* \"contracts/DEX.sol\":1807:1905  require(tokenB.transferFrom(msg.sender, address(this), amountB), \"DEX: Transfer of TokenB failed\") */\n      tag_126\n      jumpi\n      mload(0x40)\n      0x08c379a000000000000000000000000000000000000000000000000000000000\n      dup2\n      mstore\n      0x04\n      add\n      tag_127\n      swap1\n      tag_102\n      jump\t// in\n    tag_127:\n      mload(0x40)\n      dup1\n      swap2\n      sub\n      swap1\n      revert\n    tag_126:\n        /* \"contracts/DEX.sol\":1916:1933  uint256 liquidity */\n      0x00\n        /* \"contracts/DEX.sol\":1943:1962  uint256 totalSupply */\n      dup1\n        /* \"contracts/DEX.sol\":1965:1972  lpToken */\n      0x02\n      0x00\n      swap1\n      sload\n      swap1\n      0x0100\n      exp\n      swap1\n      div\n      0xffffffffffffffffffffffffffffffffffffffff\n      and\n        /* \"contracts/DEX.sol\":1965:1984  lpToken.totalSupply */\n      0xffffffffffffffffffffffffffffffffffffffff\n      and\n      0x18160ddd\n        /* \"contracts/DEX.sol\":1965:1986  lpToken.totalSupply() */\n      mload(0x40)\n      dup2\n      0xffffffff\n      and\n      0xe0\n      shl\n      dup2\n      mstore\n      0x04\n      add\n      0x20\n      mload(0x40)\n      dup1\n      dup4\n      sub\n      dup2\n      dup7\n      gas\n      staticcall\n      iszero\n      dup1\n      iszero\n      tag_129\n      jumpi\n      returndatasize\n      0x00\n      dup1\n      returndatacopy\n      revert(0x00, returndatasize)\n    tag_129:\n      pop\n      pop\n      pop\n      pop\n      mload(0x40)\n      returndatasize\n      not(0x1f)\n      0x1f\n      dup3\n      add\n      and\n      dup3\n      add\n      dup1\n      0x40\n      mstore\n      pop\n      dup2\n      add\n      swap1\n      tag_130\n      swap2\n      swap1\n      tag_66\n      jump\t// in\n    tag_130:\n        /* \"contracts/DEX.sol\":1943:1986  uint256 totalSupply = lpToken.totalSupply() */\n      swap1\n      pop\n        /* \"contracts/DEX.sol\":2015:2016  0 */\n      0x00\n        /* \"contracts/DEX.sol\":2000:2011  totalSupply */\n      dup2\n        /* \"contracts/DEX.sol\":2000:2016  totalSupply == 0 */\n      sub\n        /* \"contracts/DEX.sol\":1996:2726  if (totalSupply == 0) {... */\n      tag_131\n      jumpi\n        /* \"contracts/DEX.sol\":2133:2156  sqrt(amountA * amountB) */\n      tag_132\n        /* \"contracts/DEX.sol\":2148:2155  amountB */\n      dup4\n        /* \"contracts/DEX.sol\":2138:2145  amountA */\n      dup6\n        /* \"contracts/DEX.sol\":2138:2155  amountA * amountB */\n      tag_133\n      swap2\n      swap1\n      tag_71\n      jump\t// in\n    tag_133:\n        /* \"contracts/DEX.sol\":2133:2137  sqrt */\n      tag_134\n        /* \"contracts/DEX.sol\":2133:2156  sqrt(amountA * amountB) */\n      jump\t// in\n    tag_132:\n        /* \"contracts/DEX.sol\":2121:2156  liquidity = sqrt(amountA * amountB) */\n      swap2\n      pop\n        /* \"contracts/DEX.sol\":1996:2726  if (totalSupply == 0) {... */\n      jump(tag_135)\n    tag_131:\n        /* \"contracts/DEX.sol\":2364:2382  uint256 liquidityA */\n      0x00\n        /* \"contracts/DEX.sol\":2411:2419  reserveA */\n      sload(0x03)\n        /* \"contracts/DEX.sol\":2396:2407  totalSupply */\n      dup3\n        /* \"contracts/DEX.sol\":2386:2393  amountA */\n      dup7\n        /* \"contracts/DEX.sol\":2386:2407  amountA * totalSupply */\n      tag_136\n      swap2\n      swap1\n      tag_71\n      jump\t// in\n    tag_136:\n        /* \"contracts/DEX.sol\":2385:2419  (amountA * totalSupply) / reserveA */\n      tag_137\n      swap2\n      swap1\n      tag_73\n      jump\t// in\n    tag_137:\n        /* \"contracts/DEX.sol\":2364:2419  uint256 liquidityA = (amountA * totalSupply) / reserveA */\n      swap1\n      pop\n        /* \"contracts/DEX.sol\":2433:2451  uint256 liquidityB */\n      0x00\n        /* \"contracts/DEX.sol\":2480:2488  reserveB */\n      sload(0x04)\n        /* \"contracts/DEX.sol\":2465:2476  totalSupply */\n      dup4\n        /* \"contracts/DEX.sol\":2455:2462  amountB */\n      dup7\n        /* \"contracts/DEX.sol\":2455:2476  amountB * totalSupply */\n      tag_138\n      swap2\n      swap1\n      tag_71\n      jump\t// in\n    tag_138:\n        /* \"contracts/DEX.sol\":2454:2488  (amountB * totalSupply) / reserveB */\n      tag_139\n      swap2\n      swap1\n      tag_73\n      jump\t// in\n    tag_139:\n        /* \"contracts/DEX.sol\":2433:2488  uint256 liquidityB = (amountB * totalSupply) / reserveB */\n      swap1\n      pop\n        /* \"contracts/DEX.sol\":2628:2638  liquidityB */\n      dup1\n        /* \"contracts/DEX.sol\":2614:2624  liquidityA */\n      dup3\n        /* \"contracts/DEX.sol\":2614:2638  liquidityA == liquidityB */\n      eq\n        /* \"contracts/DEX.sol\":2606:2679  require(liquidityA == liquidityB, \"DEX: Liquidity calculations mismatch\") */\n      tag_140\n      jumpi\n      mload(0x40)\n      0x08c379a000000000000000000000000000000000000000000000000000000000\n      dup2\n      mstore\n      0x04\n      add\n      tag_141\n      swap1\n      tag_142\n      jump\t// in\n    tag_141:\n      mload(0x40)\n      dup1\n      swap2\n      sub\n      swap1\n      revert\n    tag_140:\n        /* \"contracts/DEX.sol\":2705:2715  liquidityA */\n      dup2\n        /* \"contracts/DEX.sol\":2693:2715  liquidity = liquidityA */\n      swap4\n      pop\n        /* \"contracts/DEX.sol\":2181:2726  {... */\n      pop\n      pop\n        /* \"contracts/DEX.sol\":1996:2726  if (totalSupply == 0) {... */\n    tag_135:\n        /* \"contracts/DEX.sol\":2755:2756  0 */\n      0x00\n        /* \"contracts/DEX.sol\":2743:2752  liquidity */\n      dup3\n        /* \"contracts/DEX.sol\":2743:2756  liquidity > 0 */\n      gt\n        /* \"contracts/DEX.sol\":2735:2795  require(liquidity > 0, \"DEX: Insufficient liquidity minted\") */\n      tag_143\n      jumpi\n      mload(0x40)\n      0x08c379a000000000000000000000000000000000000000000000000000000000\n      dup2\n      mstore\n      0x04\n      add\n      tag_144\n      swap1\n      tag_145\n      jump\t// in\n    tag_144:\n      mload(0x40)\n      dup1\n      swap2\n      sub\n      swap1\n      revert\n    tag_143:\n        /* \"contracts/DEX.sol\":2859:2866  lpToken */\n      0x02\n      0x00\n      swap1\n      sload\n      swap1\n      0x0100\n      exp\n      swap1\n      div\n      0xffffffffffffffffffffffffffffffffffffffff\n      and\n        /* \"contracts/DEX.sol\":2859:2871  lpToken.mint */\n      0xffffffffffffffffffffffffffffffffffffffff\n      and\n      0x40c10f19\n        /* \"contracts/DEX.sol\":2872:2882  msg.sender */\n      caller\n        /* \"contracts/DEX.sol\":2884:2893  liquidity */\n      dup5\n        /* \"contracts/DEX.sol\":2859:2894  lpToken.mint(msg.sender, liquidity) */\n      mload(0x40)\n      dup4\n      0xffffffff\n      and\n      0xe0\n      shl\n      dup2\n      mstore\n      0x04\n      add\n      tag_146\n      swap3\n      swap2\n      swap1\n      tag_81\n      jump\t// in\n    tag_146:\n      0x00\n      mload(0x40)\n      dup1\n      dup4\n      sub\n      dup2\n      0x00\n      dup8\n      dup1\n      extcodesize\n      iszero\n      dup1\n      iszero\n      tag_147\n      jumpi\n      0x00\n      dup1\n      revert\n    tag_147:\n      pop\n      gas\n      call\n      iszero\n      dup1\n      iszero\n      tag_149\n      jumpi\n      returndatasize\n      0x00\n      dup1\n      returndatacopy\n      revert(0x00, returndatasize)\n    tag_149:\n      pop\n      pop\n      pop\n      pop\n        /* \"contracts/DEX.sol\":2958:2965  amountA */\n      dup4\n        /* \"contracts/DEX.sol\":2946:2954  reserveA */\n      0x03\n      0x00\n        /* \"contracts/DEX.sol\":2946:2965  reserveA += amountA */\n      dup3\n      dup3\n      sload\n      tag_150\n      swap2\n      swap1\n      tag_151\n      jump\t// in\n    tag_150:\n      swap3\n      pop\n      pop\n      dup2\n      swap1\n      sstore\n      pop\n        /* \"contracts/DEX.sol\":2987:2994  amountB */\n      dup3\n        /* \"contracts/DEX.sol\":2975:2983  reserveB */\n      0x04\n      0x00\n        /* \"contracts/DEX.sol\":2975:2994  reserveB += amountB */\n      dup3\n      dup3\n      sload\n      tag_152\n      swap2\n      swap1\n      tag_151\n      jump\t// in\n    tag_152:\n      swap3\n      pop\n      pop\n      dup2\n      swap1\n      sstore\n      pop\n        /* \"contracts/DEX.sol\":1260:3001  {... */\n      pop\n      pop\n        /* \"contracts/DEX.sol\":1191:3001  function depositLiquidity(uint256 amountA, uint256 amountB) external {... */\n      pop\n      pop\n      jump\t// out\n        /* \"contracts/DEX.sol\":4209:5199  function swapTokenAForTokenB(uint256 amountAIn) external {... */\n    tag_38:\n        /* \"contracts/DEX.sol\":4296:4297  0 */\n      0x00\n        /* \"contracts/DEX.sol\":4284:4293  amountAIn */\n      dup2\n        /* \"contracts/DEX.sol\":4284:4297  amountAIn > 0 */\n      gt\n        /* \"contracts/DEX.sol\":4276:4345  require(amountAIn > 0, \"DEX: Input amount must be greater than zero\") */\n      tag_154\n      jumpi\n      mload(0x40)\n      0x08c379a000000000000000000000000000000000000000000000000000000000\n      dup2\n      mstore\n      0x04\n      add\n      tag_155\n      swap1\n      tag_156\n      jump\t// in\n    tag_155:\n      mload(0x40)\n      dup1\n      swap2\n      sub\n      swap1\n      revert\n    tag_154:\n        /* \"contracts/DEX.sol\":4363:4369  tokenA */\n      0x00\n      dup1\n      sload\n      swap1\n      0x0100\n      exp\n      swap1\n      div\n      0xffffffffffffffffffffffffffffffffffffffff\n      and\n        /* \"contracts/DEX.sol\":4363:4382  tokenA.transferFrom */\n      0xffffffffffffffffffffffffffffffffffffffff\n      and\n      0x23b872dd\n        /* \"contracts/DEX.sol\":4383:4393  msg.sender */\n      caller\n        /* \"contracts/DEX.sol\":4403:4407  this */\n      address\n        /* \"contracts/DEX.sol\":4410:4419  amountAIn */\n      dup5\n        /* \"contracts/DEX.sol\":4363:4420  tokenA.transferFrom(msg.sender, address(this), amountAIn) */\n      mload(0x40)\n      dup5\n      0xffffffff\n      and\n      0xe0\n      shl\n      dup2\n      mstore\n      0x04\n      add\n      tag_157\n      swap4\n      swap3\n      swap2\n      swap1\n      tag_116\n      jump\t// in\n    tag_157:\n      0x20\n      mload(0x40)\n      dup1\n      dup4\n      sub\n      dup2\n      0x00\n      dup8\n      gas\n      call\n      iszero\n      dup1\n      iszero\n      tag_159\n      jumpi\n      returndatasize\n      0x00\n      dup1\n      returndatacopy\n      revert(0x00, returndatasize)\n    tag_159:\n      pop\n      pop\n      pop\n      pop\n      mload(0x40)\n      returndatasize\n      not(0x1f)\n      0x1f\n      dup3\n      add\n      and\n      dup3\n      add\n      dup1\n      0x40\n      mstore\n      pop\n      dup2\n      add\n      swap1\n      tag_160\n      swap2\n      swap1\n      tag_92\n      jump\t// in\n    tag_160:\n        /* \"contracts/DEX.sol\":4355:4455  require(tokenA.transferFrom(msg.sender, address(this), amountAIn), \"DEX: Transfer of TokenA failed\") */\n      tag_161\n      jumpi\n      mload(0x40)\n      0x08c379a000000000000000000000000000000000000000000000000000000000\n      dup2\n      mstore\n      0x04\n      add\n      tag_162\n      swap1\n      tag_95\n      jump\t// in\n    tag_162:\n      mload(0x40)\n      dup1\n      swap2\n      sub\n      swap1\n      revert\n    tag_161:\n        /* \"contracts/DEX.sol\":4497:4520  uint256 amountInWithFee */\n      0x00\n        /* \"contracts/DEX.sol\":506:510  1000 */\n      0x03e8\n        /* \"contracts/DEX.sol\":454:457  997 */\n      0x03e5\n        /* \"contracts/DEX.sol\":4524:4533  amountAIn */\n      dup4\n        /* \"contracts/DEX.sol\":4524:4549  amountAIn * FEE_NUMERATOR */\n      tag_163\n      swap2\n      swap1\n      tag_71\n      jump\t// in\n    tag_163:\n        /* \"contracts/DEX.sol\":4523:4568  (amountAIn * FEE_NUMERATOR) / FEE_DENOMINATOR */\n      tag_164\n      swap2\n      swap1\n      tag_73\n      jump\t// in\n    tag_164:\n        /* \"contracts/DEX.sol\":4497:4568  uint256 amountInWithFee = (amountAIn * FEE_NUMERATOR) / FEE_DENOMINATOR */\n      swap1\n      pop\n        /* \"contracts/DEX.sol\":4742:4759  uint256 numerator */\n      0x00\n        /* \"contracts/DEX.sol\":4780:4788  reserveB */\n      sload(0x04)\n        /* \"contracts/DEX.sol\":4762:4777  amountInWithFee */\n      dup3\n        /* \"contracts/DEX.sol\":4762:4788  amountInWithFee * reserveB */\n      tag_165\n      swap2\n      swap1\n      tag_71\n      jump\t// in\n    tag_165:\n        /* \"contracts/DEX.sol\":4742:4788  uint256 numerator = amountInWithFee * reserveB */\n      swap1\n      pop\n        /* \"contracts/DEX.sol\":4798:4817  uint256 denominator */\n      0x00\n        /* \"contracts/DEX.sol\":4831:4846  amountInWithFee */\n      dup3\n        /* \"contracts/DEX.sol\":4820:4828  reserveA */\n      sload(0x03)\n        /* \"contracts/DEX.sol\":4820:4846  reserveA + amountInWithFee */\n      tag_166\n      swap2\n      swap1\n      tag_151\n      jump\t// in\n    tag_166:\n        /* \"contracts/DEX.sol\":4798:4846  uint256 denominator = reserveA + amountInWithFee */\n      swap1\n      pop\n        /* \"contracts/DEX.sol\":4856:4874  uint256 amountBOut */\n      0x00\n        /* \"contracts/DEX.sol\":4889:4900  denominator */\n      dup2\n        /* \"contracts/DEX.sol\":4877:4886  numerator */\n      dup4\n        /* \"contracts/DEX.sol\":4877:4900  numerator / denominator */\n      tag_167\n      swap2\n      swap1\n      tag_73\n      jump\t// in\n    tag_167:\n        /* \"contracts/DEX.sol\":4856:4900  uint256 amountBOut = numerator / denominator */\n      swap1\n      pop\n        /* \"contracts/DEX.sol\":4931:4932  0 */\n      0x00\n        /* \"contracts/DEX.sol\":4918:4928  amountBOut */\n      dup2\n        /* \"contracts/DEX.sol\":4918:4932  amountBOut > 0 */\n      gt\n        /* \"contracts/DEX.sol\":4910:4968  require(amountBOut > 0, \"DEX: Insufficient output amount\") */\n      tag_168\n      jumpi\n      mload(0x40)\n      0x08c379a000000000000000000000000000000000000000000000000000000000\n      dup2\n      mstore\n      0x04\n      add\n      tag_169\n      swap1\n      tag_170\n      jump\t// in\n    tag_169:\n      mload(0x40)\n      dup1\n      swap2\n      sub\n      swap1\n      revert\n    tag_168:\n        /* \"contracts/DEX.sol\":5058:5067  amountAIn */\n      dup5\n        /* \"contracts/DEX.sol\":5046:5054  reserveA */\n      0x03\n      0x00\n        /* \"contracts/DEX.sol\":5046:5067  reserveA += amountAIn */\n      dup3\n      dup3\n      sload\n      tag_171\n      swap2\n      swap1\n      tag_151\n      jump\t// in\n    tag_171:\n      swap3\n      pop\n      pop\n      dup2\n      swap1\n      sstore\n      pop\n        /* \"contracts/DEX.sol\":5089:5099  amountBOut */\n      dup1\n        /* \"contracts/DEX.sol\":5077:5085  reserveB */\n      0x04\n      0x00\n        /* \"contracts/DEX.sol\":5077:5099  reserveB -= amountBOut */\n      dup3\n      dup3\n      sload\n      tag_172\n      swap2\n      swap1\n      tag_86\n      jump\t// in\n    tag_172:\n      swap3\n      pop\n      pop\n      dup2\n      swap1\n      sstore\n      pop\n        /* \"contracts/DEX.sol\":5118:5124  tokenB */\n      0x01\n      0x00\n      swap1\n      sload\n      swap1\n      0x0100\n      exp\n      swap1\n      div\n      0xffffffffffffffffffffffffffffffffffffffff\n      and\n        /* \"contracts/DEX.sol\":5118:5133  tokenB.transfer */\n      0xffffffffffffffffffffffffffffffffffffffff\n      and\n      0xa9059cbb\n        /* \"contracts/DEX.sol\":5134:5144  msg.sender */\n      caller\n        /* \"contracts/DEX.sol\":5146:5156  amountBOut */\n      dup4\n        /* \"contracts/DEX.sol\":5118:5157  tokenB.transfer(msg.sender, amountBOut) */\n      mload(0x40)\n      dup4\n      0xffffffff\n      and\n      0xe0\n      shl\n      dup2\n      mstore\n      0x04\n      add\n      tag_173\n      swap3\n      swap2\n      swap1\n      tag_81\n      jump\t// in\n    tag_173:\n      0x20\n      mload(0x40)\n      dup1\n      dup4\n      sub\n      dup2\n      0x00\n      dup8\n      gas\n      call\n      iszero\n      dup1\n      iszero\n      tag_175\n      jumpi\n      returndatasize\n      0x00\n      dup1\n      returndatacopy\n      revert(0x00, returndatasize)\n    tag_175:\n      pop\n      pop\n      pop\n      pop\n      mload(0x40)\n      returndatasize\n      not(0x1f)\n      0x1f\n      dup3\n      add\n      and\n      dup3\n      add\n      dup1\n      0x40\n      mstore\n      pop\n      dup2\n      add\n      swap1\n      tag_176\n      swap2\n      swap1\n      tag_92\n      jump\t// in\n    tag_176:\n        /* \"contracts/DEX.sol\":5110:5192  require(tokenB.transfer(msg.sender, amountBOut), \"DEX: Transfer of TokenB failed\") */\n      tag_177\n      jumpi\n      mload(0x40)\n      0x08c379a000000000000000000000000000000000000000000000000000000000\n      dup2\n      mstore\n      0x04\n      add\n      tag_178\n      swap1\n      tag_102\n      jump\t// in\n    tag_178:\n      mload(0x40)\n      dup1\n      swap2\n      sub\n      swap1\n      revert\n    tag_177:\n        /* \"contracts/DEX.sol\":4266:5199  {... */\n      pop\n      pop\n      pop\n      pop\n        /* \"contracts/DEX.sol\":4209:5199  function swapTokenAForTokenB(uint256 amountAIn) external {... */\n      pop\n      jump\t// out\n        /* \"contracts/DEX.sol\":185:205  IERC20 public tokenB */\n    tag_40:\n      0x01\n      0x00\n      swap1\n      sload\n      swap1\n      0x0100\n      exp\n      swap1\n      div\n      0xffffffffffffffffffffffffffffffffffffffff\n      and\n      dup2\n      jump\t// out\n        /* \"contracts/DEX.sol\":211:233  LPToken public lpToken */\n    tag_43:\n      0x02\n      0x00\n      swap1\n      sload\n      swap1\n      0x0100\n      exp\n      swap1\n      div\n      0xffffffffffffffffffffffffffffffffffffffff\n      and\n      dup2\n      jump\t// out\n        /* \"contracts/DEX.sol\":6199:6368  function getSpotPriceAinB() external view returns (uint256) {... */\n    tag_47:\n        /* \"contracts/DEX.sol\":6250:6257  uint256 */\n      0x00\n        /* \"contracts/DEX.sol\":6288:6289  0 */\n      dup1\n        /* \"contracts/DEX.sol\":6277:6285  reserveA */\n      sload(0x03)\n        /* \"contracts/DEX.sol\":6277:6289  reserveA > 0 */\n      gt\n        /* \"contracts/DEX.sol\":6269:6316  require(reserveA > 0, \"DEX: No TokenA reserve\") */\n      tag_180\n      jumpi\n      mload(0x40)\n      0x08c379a000000000000000000000000000000000000000000000000000000000\n      dup2\n      mstore\n      0x04\n      add\n      tag_181\n      swap1\n      tag_182\n      jump\t// in\n    tag_181:\n      mload(0x40)\n      dup1\n      swap2\n      sub\n      swap1\n      revert\n    tag_180:\n        /* \"contracts/DEX.sol\":6353:6361  reserveA */\n      sload(0x03)\n        /* \"contracts/DEX.sol\":6345:6349  1e18 */\n      0x0de0b6b3a7640000\n        /* \"contracts/DEX.sol\":6334:6342  reserveB */\n      sload(0x04)\n        /* \"contracts/DEX.sol\":6334:6349  reserveB * 1e18 */\n      tag_183\n      swap2\n      swap1\n      tag_71\n      jump\t// in\n    tag_183:\n        /* \"contracts/DEX.sol\":6333:6361  (reserveB * 1e18) / reserveA */\n      tag_184\n      swap2\n      swap1\n      tag_73\n      jump\t// in\n    tag_184:\n        /* \"contracts/DEX.sol\":6326:6361  return (reserveB * 1e18) / reserveA */\n      swap1\n      pop\n        /* \"contracts/DEX.sol\":6199:6368  function getSpotPriceAinB() external view returns (uint256) {... */\n      swap1\n      jump\t// out\n        /* \"contracts/DEX.sol\":6485:6654  function getSpotPriceBinA() external view returns (uint256) {... */\n    tag_50:\n        /* \"contracts/DEX.sol\":6536:6543  uint256 */\n      0x00\n        /* \"contracts/DEX.sol\":6574:6575  0 */\n      dup1\n        /* \"contracts/DEX.sol\":6563:6571  reserveB */\n      sload(0x04)\n        /* \"contracts/DEX.sol\":6563:6575  reserveB > 0 */\n      gt\n        /* \"contracts/DEX.sol\":6555:6602  require(reserveB > 0, \"DEX: No TokenB reserve\") */\n      tag_186\n      jumpi\n      mload(0x40)\n      0x08c379a000000000000000000000000000000000000000000000000000000000\n      dup2\n      mstore\n      0x04\n      add\n      tag_187\n      swap1\n      tag_188\n      jump\t// in\n    tag_187:\n      mload(0x40)\n      dup1\n      swap2\n      sub\n      swap1\n      revert\n    tag_186:\n        /* \"contracts/DEX.sol\":6639:6647  reserveB */\n      sload(0x04)\n        /* \"contracts/DEX.sol\":6631:6635  1e18 */\n      0x0de0b6b3a7640000\n        /* \"contracts/DEX.sol\":6620:6628  reserveA */\n      sload(0x03)\n        /* \"contracts/DEX.sol\":6620:6635  reserveA * 1e18 */\n      tag_189\n      swap2\n      swap1\n      tag_71\n      jump\t// in\n    tag_189:\n        /* \"contracts/DEX.sol\":6619:6647  (reserveA * 1e18) / reserveB */\n      tag_190\n      swap2\n      swap1\n      tag_73\n      jump\t// in\n    tag_190:\n        /* \"contracts/DEX.sol\":6612:6647  return (reserveA * 1e18) / reserveB */\n      swap1\n      pop\n        /* \"contracts/DEX.sol\":6485:6654  function getSpotPriceBinA() external view returns (uint256) {... */\n      swap1\n      jump\t// out\n        /* \"contracts/DEX.sol\":5354:6082  function swapTokenBForTokenA(uint256 amountBIn) external {... */\n    tag_54:\n        /* \"contracts/DEX.sol\":5441:5442  0 */\n      0x00\n        /* \"contracts/DEX.sol\":5429:5438  amountBIn */\n      dup2\n        /* \"contracts/DEX.sol\":5429:5442  amountBIn > 0 */\n      gt\n        /* \"contracts/DEX.sol\":5421:5490  require(amountBIn > 0, \"DEX: Input amount must be greater than zero\") */\n      tag_192\n      jumpi\n      mload(0x40)\n      0x08c379a000000000000000000000000000000000000000000000000000000000\n      dup2\n      mstore\n      0x04\n      add\n      tag_193\n      swap1\n      tag_156\n      jump\t// in\n    tag_193:\n      mload(0x40)\n      dup1\n      swap2\n      sub\n      swap1\n      revert\n    tag_192:\n        /* \"contracts/DEX.sol\":5508:5514  tokenB */\n      0x01\n      0x00\n      swap1\n      sload\n      swap1\n      0x0100\n      exp\n      swap1\n      div\n      0xffffffffffffffffffffffffffffffffffffffff\n      and\n        /* \"contracts/DEX.sol\":5508:5527  tokenB.transferFrom */\n      0xffffffffffffffffffffffffffffffffffffffff\n      and\n      0x23b872dd\n        /* \"contracts/DEX.sol\":5528:5538  msg.sender */\n      caller\n        /* \"contracts/DEX.sol\":5548:5552  this */\n      address\n        /* \"contracts/DEX.sol\":5555:5564  amountBIn */\n      dup5\n        /* \"contracts/DEX.sol\":5508:5565  tokenB.transferFrom(msg.sender, address(this), amountBIn) */\n      mload(0x40)\n      dup5\n      0xffffffff\n      and\n      0xe0\n      shl\n      dup2\n      mstore\n      0x04\n      add\n      tag_194\n      swap4\n      swap3\n      swap2\n      swap1\n      tag_116\n      jump\t// in\n    tag_194:\n      0x20\n      mload(0x40)\n      dup1\n      dup4\n      sub\n      dup2\n      0x00\n      dup8\n      gas\n      call\n      iszero\n      dup1\n      iszero\n      tag_196\n      jumpi\n      returndatasize\n      0x00\n      dup1\n      returndatacopy\n      revert(0x00, returndatasize)\n    tag_196:\n      pop\n      pop\n      pop\n      pop\n      mload(0x40)\n      returndatasize\n      not(0x1f)\n      0x1f\n      dup3\n      add\n      and\n      dup3\n      add\n      dup1\n      0x40\n      mstore\n      pop\n      dup2\n      add\n      swap1\n      tag_197\n      swap2\n      swap1\n      tag_92\n      jump\t// in\n    tag_197:\n        /* \"contracts/DEX.sol\":5500:5600  require(tokenB.transferFrom(msg.sender, address(this), amountBIn), \"DEX: Transfer of TokenB failed\") */\n      tag_198\n      jumpi\n      mload(0x40)\n      0x08c379a000000000000000000000000000000000000000000000000000000000\n      dup2\n      mstore\n      0x04\n      add\n      tag_199\n      swap1\n      tag_102\n      jump\t// in\n    tag_199:\n      mload(0x40)\n      dup1\n      swap2\n      sub\n      swap1\n      revert\n    tag_198:\n        /* \"contracts/DEX.sol\":5611:5634  uint256 amountInWithFee */\n      0x00\n        /* \"contracts/DEX.sol\":506:510  1000 */\n      0x03e8\n        /* \"contracts/DEX.sol\":454:457  997 */\n      0x03e5\n        /* \"contracts/DEX.sol\":5638:5647  amountBIn */\n      dup4\n        /* \"contracts/DEX.sol\":5638:5663  amountBIn * FEE_NUMERATOR */\n      tag_200\n      swap2\n      swap1\n      tag_71\n      jump\t// in\n    tag_200:\n        /* \"contracts/DEX.sol\":5637:5682  (amountBIn * FEE_NUMERATOR) / FEE_DENOMINATOR */\n      tag_201\n      swap2\n      swap1\n      tag_73\n      jump\t// in\n    tag_201:\n        /* \"contracts/DEX.sol\":5611:5682  uint256 amountInWithFee = (amountBIn * FEE_NUMERATOR) / FEE_DENOMINATOR */\n      swap1\n      pop\n        /* \"contracts/DEX.sol\":5692:5709  uint256 numerator */\n      0x00\n        /* \"contracts/DEX.sol\":5730:5738  reserveA */\n      sload(0x03)\n        /* \"contracts/DEX.sol\":5712:5727  amountInWithFee */\n      dup3\n        /* \"contracts/DEX.sol\":5712:5738  amountInWithFee * reserveA */\n      tag_202\n      swap2\n      swap1\n      tag_71\n      jump\t// in\n    tag_202:\n        /* \"contracts/DEX.sol\":5692:5738  uint256 numerator = amountInWithFee * reserveA */\n      swap1\n      pop\n        /* \"contracts/DEX.sol\":5748:5767  uint256 denominator */\n      0x00\n        /* \"contracts/DEX.sol\":5781:5796  amountInWithFee */\n      dup3\n        /* \"contracts/DEX.sol\":5770:5778  reserveB */\n      sload(0x04)\n        /* \"contracts/DEX.sol\":5770:5796  reserveB + amountInWithFee */\n      tag_203\n      swap2\n      swap1\n      tag_151\n      jump\t// in\n    tag_203:\n        /* \"contracts/DEX.sol\":5748:5796  uint256 denominator = reserveB + amountInWithFee */\n      swap1\n      pop\n        /* \"contracts/DEX.sol\":5806:5824  uint256 amountAOut */\n      0x00\n        /* \"contracts/DEX.sol\":5839:5850  denominator */\n      dup2\n        /* \"contracts/DEX.sol\":5827:5836  numerator */\n      dup4\n        /* \"contracts/DEX.sol\":5827:5850  numerator / denominator */\n      tag_204\n      swap2\n      swap1\n      tag_73\n      jump\t// in\n    tag_204:\n        /* \"contracts/DEX.sol\":5806:5850  uint256 amountAOut = numerator / denominator */\n      swap1\n      pop\n        /* \"contracts/DEX.sol\":5881:5882  0 */\n      0x00\n        /* \"contracts/DEX.sol\":5868:5878  amountAOut */\n      dup2\n        /* \"contracts/DEX.sol\":5868:5882  amountAOut > 0 */\n      gt\n        /* \"contracts/DEX.sol\":5860:5918  require(amountAOut > 0, \"DEX: Insufficient output amount\") */\n      tag_205\n      jumpi\n      mload(0x40)\n      0x08c379a000000000000000000000000000000000000000000000000000000000\n      dup2\n      mstore\n      0x04\n      add\n      tag_206\n      swap1\n      tag_170\n      jump\t// in\n    tag_206:\n      mload(0x40)\n      dup1\n      swap2\n      sub\n      swap1\n      revert\n    tag_205:\n        /* \"contracts/DEX.sol\":5941:5950  amountBIn */\n      dup5\n        /* \"contracts/DEX.sol\":5929:5937  reserveB */\n      0x04\n      0x00\n        /* \"contracts/DEX.sol\":5929:5950  reserveB += amountBIn */\n      dup3\n      dup3\n      sload\n      tag_207\n      swap2\n      swap1\n      tag_151\n      jump\t// in\n    tag_207:\n      swap3\n      pop\n      pop\n      dup2\n      swap1\n      sstore\n      pop\n        /* \"contracts/DEX.sol\":5972:5982  amountAOut */\n      dup1\n        /* \"contracts/DEX.sol\":5960:5968  reserveA */\n      0x03\n      0x00\n        /* \"contracts/DEX.sol\":5960:5982  reserveA -= amountAOut */\n      dup3\n      dup3\n      sload\n      tag_208\n      swap2\n      swap1\n      tag_86\n      jump\t// in\n    tag_208:\n      swap3\n      pop\n      pop\n      dup2\n      swap1\n      sstore\n      pop\n        /* \"contracts/DEX.sol\":6001:6007  tokenA */\n      0x00\n      dup1\n      sload\n      swap1\n      0x0100\n      exp\n      swap1\n      div\n      0xffffffffffffffffffffffffffffffffffffffff\n      and\n        /* \"contracts/DEX.sol\":6001:6016  tokenA.transfer */\n      0xffffffffffffffffffffffffffffffffffffffff\n      and\n      0xa9059cbb\n        /* \"contracts/DEX.sol\":6017:6027  msg.sender */\n      caller\n        /* \"contracts/DEX.sol\":6029:6039  amountAOut */\n      dup4\n        /* \"contracts/DEX.sol\":6001:6040  tokenA.transfer(msg.sender, amountAOut) */\n      mload(0x40)\n      dup4\n      0xffffffff\n      and\n      0xe0\n      shl\n      dup2\n      mstore\n      0x04\n      add\n      tag_209\n      swap3\n      swap2\n      swap1\n      tag_81\n      jump\t// in\n    tag_209:\n      0x20\n      mload(0x40)\n      dup1\n      dup4\n      sub\n      dup2\n      0x00\n      dup8\n      gas\n      call\n      iszero\n      dup1\n      iszero\n      tag_211\n      jumpi\n      returndatasize\n      0x00\n      dup1\n      returndatacopy\n      revert(0x00, returndatasize)\n    tag_211:\n      pop\n      pop\n      pop\n      pop\n      mload(0x40)\n      returndatasize\n      not(0x1f)\n      0x1f\n      dup3\n      add\n      and\n      dup3\n      add\n      dup1\n      0x40\n      mstore\n      pop\n      dup2\n      add\n      swap1\n      tag_212\n      swap2\n      swap1\n      tag_92\n      jump\t// in\n    tag_212:\n        /* \"contracts/DEX.sol\":5993:6075  require(tokenA.transfer(msg.sender, amountAOut), \"DEX: Transfer of TokenA failed\") */\n      tag_213\n      jumpi\n      mload(0x40)\n      0x08c379a000000000000000000000000000000000000000000000000000000000\n      dup2\n      mstore\n      0x04\n      add\n      tag_214\n      swap1\n      tag_95\n      jump\t// in\n    tag_214:\n      mload(0x40)\n      dup1\n      swap2\n      sub\n      swap1\n      revert\n    tag_213:\n        /* \"contracts/DEX.sol\":5411:6082  {... */\n      pop\n      pop\n      pop\n      pop\n        /* \"contracts/DEX.sol\":5354:6082  function swapTokenBForTokenA(uint256 amountBIn) external {... */\n      pop\n      jump\t// out\n        /* \"contracts/DEX.sol\":295:318  uint256 public reserveA */\n    tag_56:\n      sload(0x03)\n      dup2\n      jump\t// out\n        /* \"contracts/DEX.sol\":6964:7273  function sqrt(uint256 y) internal pure returns (uint256 z) {... */\n    tag_134:\n        /* \"contracts/DEX.sol\":7012:7021  uint256 z */\n      0x00\n        /* \"contracts/DEX.sol\":7041:7042  3 */\n      0x03\n        /* \"contracts/DEX.sol\":7037:7038  y */\n      dup3\n        /* \"contracts/DEX.sol\":7037:7042  y > 3 */\n      gt\n        /* \"contracts/DEX.sol\":7033:7267  if (y > 3) {... */\n      iszero\n      tag_216\n      jumpi\n        /* \"contracts/DEX.sol\":7062:7063  y */\n      dup2\n        /* \"contracts/DEX.sol\":7058:7063  z = y */\n      swap1\n      pop\n        /* \"contracts/DEX.sol\":7077:7086  uint256 x */\n      0x00\n        /* \"contracts/DEX.sol\":7097:7098  1 */\n      0x01\n        /* \"contracts/DEX.sol\":7093:7094  2 */\n      0x02\n        /* \"contracts/DEX.sol\":7089:7090  y */\n      dup5\n        /* \"contracts/DEX.sol\":7089:7094  y / 2 */\n      tag_217\n      swap2\n      swap1\n      tag_73\n      jump\t// in\n    tag_217:\n        /* \"contracts/DEX.sol\":7089:7098  y / 2 + 1 */\n      tag_218\n      swap2\n      swap1\n      tag_151\n      jump\t// in\n    tag_218:\n        /* \"contracts/DEX.sol\":7077:7098  uint256 x = y / 2 + 1 */\n      swap1\n      pop\n        /* \"contracts/DEX.sol\":7112:7201  while (x < z) {... */\n    tag_219:\n        /* \"contracts/DEX.sol\":7123:7124  z */\n      dup2\n        /* \"contracts/DEX.sol\":7119:7120  x */\n      dup2\n        /* \"contracts/DEX.sol\":7119:7124  x < z */\n      lt\n        /* \"contracts/DEX.sol\":7112:7201  while (x < z) {... */\n      iszero\n      tag_220\n      jumpi\n        /* \"contracts/DEX.sol\":7148:7149  x */\n      dup1\n        /* \"contracts/DEX.sol\":7144:7149  z = x */\n      swap2\n      pop\n        /* \"contracts/DEX.sol\":7185:7186  2 */\n      0x02\n        /* \"contracts/DEX.sol\":7180:7181  x */\n      dup2\n        /* \"contracts/DEX.sol\":7176:7177  x */\n      dup3\n        /* \"contracts/DEX.sol\":7172:7173  y */\n      dup6\n        /* \"contracts/DEX.sol\":7172:7177  y / x */\n      tag_221\n      swap2\n      swap1\n      tag_73\n      jump\t// in\n    tag_221:\n        /* \"contracts/DEX.sol\":7172:7181  y / x + x */\n      tag_222\n      swap2\n      swap1\n      tag_151\n      jump\t// in\n    tag_222:\n        /* \"contracts/DEX.sol\":7171:7186  (y / x + x) / 2 */\n      tag_223\n      swap2\n      swap1\n      tag_73\n      jump\t// in\n    tag_223:\n        /* \"contracts/DEX.sol\":7167:7186  x = (y / x + x) / 2 */\n      swap1\n      pop\n        /* \"contracts/DEX.sol\":7112:7201  while (x < z) {... */\n      jump(tag_219)\n    tag_220:\n        /* \"contracts/DEX.sol\":7044:7211  {... */\n      pop\n        /* \"contracts/DEX.sol\":7033:7267  if (y > 3) {... */\n      jump(tag_224)\n    tag_216:\n        /* \"contracts/DEX.sol\":7234:7235  0 */\n      0x00\n        /* \"contracts/DEX.sol\":7229:7230  y */\n      dup3\n        /* \"contracts/DEX.sol\":7229:7235  y != 0 */\n      eq\n        /* \"contracts/DEX.sol\":7225:7267  if (y != 0) {... */\n      tag_225\n      jumpi\n        /* \"contracts/DEX.sol\":7255:7256  1 */\n      0x01\n        /* \"contracts/DEX.sol\":7251:7256  z = 1 */\n      swap1\n      pop\n        /* \"contracts/DEX.sol\":7225:7267  if (y != 0) {... */\n    tag_225:\n        /* \"contracts/DEX.sol\":7033:7267  if (y > 3) {... */\n    tag_224:\n        /* \"contracts/DEX.sol\":6964:7273  function sqrt(uint256 y) internal pure returns (uint256 z) {... */\n      swap2\n      swap1\n      pop\n      jump\t// out\n        /* \"#utility.yul\":7:84   */\n    tag_226:\n        /* \"#utility.yul\":44:51   */\n      0x00\n        /* \"#utility.yul\":73:78   */\n      dup2\n        /* \"#utility.yul\":62:78   */\n      swap1\n      pop\n        /* \"#utility.yul\":7:84   */\n      swap2\n      swap1\n      pop\n      jump\t// out\n        /* \"#utility.yul\":90:208   */\n    tag_227:\n        /* \"#utility.yul\":177:201   */\n      tag_279\n        /* \"#utility.yul\":195:200   */\n      dup2\n        /* \"#utility.yul\":177:201   */\n      tag_226\n      jump\t// in\n    tag_279:\n        /* \"#utility.yul\":172:175   */\n      dup3\n        /* \"#utility.yul\":165:202   */\n      mstore\n        /* \"#utility.yul\":90:208   */\n      pop\n      pop\n      jump\t// out\n        /* \"#utility.yul\":214:546   */\n    tag_19:\n        /* \"#utility.yul\":335:339   */\n      0x00\n        /* \"#utility.yul\":373:375   */\n      0x40\n        /* \"#utility.yul\":362:371   */\n      dup3\n        /* \"#utility.yul\":358:376   */\n      add\n        /* \"#utility.yul\":350:376   */\n      swap1\n      pop\n        /* \"#utility.yul\":386:457   */\n      tag_281\n        /* \"#utility.yul\":454:455   */\n      0x00\n        /* \"#utility.yul\":443:452   */\n      dup4\n        /* \"#utility.yul\":439:456   */\n      add\n        /* \"#utility.yul\":430:436   */\n      dup6\n        /* \"#utility.yul\":386:457   */\n      tag_227\n      jump\t// in\n    tag_281:\n        /* \"#utility.yul\":467:539   */\n      tag_282\n        /* \"#utility.yul\":535:537   */\n      0x20\n        /* \"#utility.yul\":524:533   */\n      dup4\n        /* \"#utility.yul\":520:538   */\n      add\n        /* \"#utility.yul\":511:517   */\n      dup5\n        /* \"#utility.yul\":467:539   */\n      tag_227\n      jump\t// in\n    tag_282:\n        /* \"#utility.yul\":214:546   */\n      swap4\n      swap3\n      pop\n      pop\n      pop\n      jump\t// out\n        /* \"#utility.yul\":633:750   */\n    tag_229:\n        /* \"#utility.yul\":742:743   */\n      0x00\n        /* \"#utility.yul\":739:740   */\n      dup1\n        /* \"#utility.yul\":732:744   */\n      revert\n        /* \"#utility.yul\":879:1001   */\n    tag_231:\n        /* \"#utility.yul\":952:976   */\n      tag_287\n        /* \"#utility.yul\":970:975   */\n      dup2\n        /* \"#utility.yul\":952:976   */\n      tag_226\n      jump\t// in\n    tag_287:\n        /* \"#utility.yul\":945:950   */\n      dup2\n        /* \"#utility.yul\":942:977   */\n      eq\n        /* \"#utility.yul\":932:995   */\n      tag_288\n      jumpi\n        /* \"#utility.yul\":991:992   */\n      0x00\n        /* \"#utility.yul\":988:989   */\n      dup1\n        /* \"#utility.yul\":981:993   */\n      revert\n        /* \"#utility.yul\":932:995   */\n    tag_288:\n        /* \"#utility.yul\":879:1001   */\n      pop\n      jump\t// out\n        /* \"#utility.yul\":1007:1146   */\n    tag_232:\n        /* \"#utility.yul\":1053:1058   */\n      0x00\n        /* \"#utility.yul\":1091:1097   */\n      dup2\n        /* \"#utility.yul\":1078:1098   */\n      calldataload\n        /* \"#utility.yul\":1069:1098   */\n      swap1\n      pop\n        /* \"#utility.yul\":1107:1140   */\n      tag_290\n        /* \"#utility.yul\":1134:1139   */\n      dup2\n        /* \"#utility.yul\":1107:1140   */\n      tag_231\n      jump\t// in\n    tag_290:\n        /* \"#utility.yul\":1007:1146   */\n      swap3\n      swap2\n      pop\n      pop\n      jump\t// out\n        /* \"#utility.yul\":1152:1481   */\n    tag_22:\n        /* \"#utility.yul\":1211:1217   */\n      0x00\n        /* \"#utility.yul\":1260:1262   */\n      0x20\n        /* \"#utility.yul\":1248:1257   */\n      dup3\n        /* \"#utility.yul\":1239:1246   */\n      dup5\n        /* \"#utility.yul\":1235:1258   */\n      sub\n        /* \"#utility.yul\":1231:1263   */\n      slt\n        /* \"#utility.yul\":1228:1347   */\n      iszero\n      tag_292\n      jumpi\n        /* \"#utility.yul\":1266:1345   */\n      tag_293\n      tag_229\n      jump\t// in\n    tag_293:\n        /* \"#utility.yul\":1228:1347   */\n    tag_292:\n        /* \"#utility.yul\":1386:1387   */\n      0x00\n        /* \"#utility.yul\":1411:1464   */\n      tag_294\n        /* \"#utility.yul\":1456:1463   */\n      dup5\n        /* \"#utility.yul\":1447:1453   */\n      dup3\n        /* \"#utility.yul\":1436:1445   */\n      dup6\n        /* \"#utility.yul\":1432:1454   */\n      add\n        /* \"#utility.yul\":1411:1464   */\n      tag_232\n      jump\t// in\n    tag_294:\n        /* \"#utility.yul\":1401:1464   */\n      swap2\n      pop\n        /* \"#utility.yul\":1357:1474   */\n      pop\n        /* \"#utility.yul\":1152:1481   */\n      swap3\n      swap2\n      pop\n      pop\n      jump\t// out\n        /* \"#utility.yul\":1487:1613   */\n    tag_233:\n        /* \"#utility.yul\":1524:1531   */\n      0x00\n        /* \"#utility.yul\":1564:1606   */\n      0xffffffffffffffffffffffffffffffffffffffff\n        /* \"#utility.yul\":1557:1562   */\n      dup3\n        /* \"#utility.yul\":1553:1607   */\n      and\n        /* \"#utility.yul\":1542:1607   */\n      swap1\n      pop\n        /* \"#utility.yul\":1487:1613   */\n      swap2\n      swap1\n      pop\n      jump\t// out\n        /* \"#utility.yul\":1619:1679   */\n    tag_234:\n        /* \"#utility.yul\":1647:1650   */\n      0x00\n        /* \"#utility.yul\":1668:1673   */\n      dup2\n        /* \"#utility.yul\":1661:1673   */\n      swap1\n      pop\n        /* \"#utility.yul\":1619:1679   */\n      swap2\n      swap1\n      pop\n      jump\t// out\n        /* \"#utility.yul\":1685:1827   */\n    tag_235:\n        /* \"#utility.yul\":1735:1744   */\n      0x00\n        /* \"#utility.yul\":1768:1821   */\n      tag_298\n        /* \"#utility.yul\":1786:1820   */\n      tag_299\n        /* \"#utility.yul\":1795:1819   */\n      tag_300\n        /* \"#utility.yul\":1813:1818   */\n      dup5\n        /* \"#utility.yul\":1795:1819   */\n      tag_233\n      jump\t// in\n    tag_300:\n        /* \"#utility.yul\":1786:1820   */\n      tag_234\n      jump\t// in\n    tag_299:\n        /* \"#utility.yul\":1768:1821   */\n      tag_233\n      jump\t// in\n    tag_298:\n        /* \"#utility.yul\":1755:1821   */\n      swap1\n      pop\n        /* \"#utility.yul\":1685:1827   */\n      swap2\n      swap1\n      pop\n      jump\t// out\n        /* \"#utility.yul\":1833:1959   */\n    tag_236:\n        /* \"#utility.yul\":1883:1892   */\n      0x00\n        /* \"#utility.yul\":1916:1953   */\n      tag_302\n        /* \"#utility.yul\":1947:1952   */\n      dup3\n        /* \"#utility.yul\":1916:1953   */\n      tag_235\n      jump\t// in\n    tag_302:\n        /* \"#utility.yul\":1903:1953   */\n      swap1\n      pop\n        /* \"#utility.yul\":1833:1959   */\n      swap2\n      swap1\n      pop\n      jump\t// out\n        /* \"#utility.yul\":1965:2105   */\n    tag_237:\n        /* \"#utility.yul\":2029:2038   */\n      0x00\n        /* \"#utility.yul\":2062:2099   */\n      tag_304\n        /* \"#utility.yul\":2093:2098   */\n      dup3\n        /* \"#utility.yul\":2062:2099   */\n      tag_236\n      jump\t// in\n    tag_304:\n        /* \"#utility.yul\":2049:2099   */\n      swap1\n      pop\n        /* \"#utility.yul\":1965:2105   */\n      swap2\n      swap1\n      pop\n      jump\t// out\n        /* \"#utility.yul\":2111:2270   */\n    tag_238:\n        /* \"#utility.yul\":2212:2263   */\n      tag_306\n        /* \"#utility.yul\":2257:2262   */\n      dup2\n        /* \"#utility.yul\":2212:2263   */\n      tag_237\n      jump\t// in\n    tag_306:\n        /* \"#utility.yul\":2207:2210   */\n      dup3\n        /* \"#utility.yul\":2200:2264   */\n      mstore\n        /* \"#utility.yul\":2111:2270   */\n      pop\n      pop\n      jump\t// out\n        /* \"#utility.yul\":2276:2526   */\n    tag_27:\n        /* \"#utility.yul\":2383:2387   */\n      0x00\n        /* \"#utility.yul\":2421:2423   */\n      0x20\n        /* \"#utility.yul\":2410:2419   */\n      dup3\n        /* \"#utility.yul\":2406:2424   */\n      add\n        /* \"#utility.yul\":2398:2424   */\n      swap1\n      pop\n        /* \"#utility.yul\":2434:2519   */\n      tag_308\n        /* \"#utility.yul\":2516:2517   */\n      0x00\n        /* \"#utility.yul\":2505:2514   */\n      dup4\n        /* \"#utility.yul\":2501:2518   */\n      add\n        /* \"#utility.yul\":2492:2498   */\n      dup5\n        /* \"#utility.yul\":2434:2519   */\n      tag_238\n      jump\t// in\n    tag_308:\n        /* \"#utility.yul\":2276:2526   */\n      swap3\n      swap2\n      pop\n      pop\n      jump\t// out\n        /* \"#utility.yul\":2532:2754   */\n    tag_31:\n        /* \"#utility.yul\":2625:2629   */\n      0x00\n        /* \"#utility.yul\":2663:2665   */\n      0x20\n        /* \"#utility.yul\":2652:2661   */\n      dup3\n        /* \"#utility.yul\":2648:2666   */\n      add\n        /* \"#utility.yul\":2640:2666   */\n      swap1\n      pop\n        /* \"#utility.yul\":2676:2747   */\n      tag_310\n        /* \"#utility.yul\":2744:2745   */\n      0x00\n        /* \"#utility.yul\":2733:2742   */\n      dup4\n        /* \"#utility.yul\":2729:2746   */\n      add\n        /* \"#utility.yul\":2720:2726   */\n      dup5\n        /* \"#utility.yul\":2676:2747   */\n      tag_227\n      jump\t// in\n    tag_310:\n        /* \"#utility.yul\":2532:2754   */\n      swap3\n      swap2\n      pop\n      pop\n      jump\t// out\n        /* \"#utility.yul\":2760:3234   */\n    tag_34:\n        /* \"#utility.yul\":2828:2834   */\n      0x00\n        /* \"#utility.yul\":2836:2842   */\n      dup1\n        /* \"#utility.yul\":2885:2887   */\n      0x40\n        /* \"#utility.yul\":2873:2882   */\n      dup4\n        /* \"#utility.yul\":2864:2871   */\n      dup6\n        /* \"#utility.yul\":2860:2883   */\n      sub\n        /* \"#utility.yul\":2856:2888   */\n      slt\n        /* \"#utility.yul\":2853:2972   */\n      iszero\n      tag_312\n      jumpi\n        /* \"#utility.yul\":2891:2970   */\n      tag_313\n      tag_229\n      jump\t// in\n    tag_313:\n        /* \"#utility.yul\":2853:2972   */\n    tag_312:\n        /* \"#utility.yul\":3011:3012   */\n      0x00\n        /* \"#utility.yul\":3036:3089   */\n      tag_314\n        /* \"#utility.yul\":3081:3088   */\n      dup6\n        /* \"#utility.yul\":3072:3078   */\n      dup3\n        /* \"#utility.yul\":3061:3070   */\n      dup7\n        /* \"#utility.yul\":3057:3079   */\n      add\n        /* \"#utility.yul\":3036:3089   */\n      tag_232\n      jump\t// in\n    tag_314:\n        /* \"#utility.yul\":3026:3089   */\n      swap3\n      pop\n        /* \"#utility.yul\":2982:3099   */\n      pop\n        /* \"#utility.yul\":3138:3140   */\n      0x20\n        /* \"#utility.yul\":3164:3217   */\n      tag_315\n        /* \"#utility.yul\":3209:3216   */\n      dup6\n        /* \"#utility.yul\":3200:3206   */\n      dup3\n        /* \"#utility.yul\":3189:3198   */\n      dup7\n        /* \"#utility.yul\":3185:3207   */\n      add\n        /* \"#utility.yul\":3164:3217   */\n      tag_232\n      jump\t// in\n    tag_315:\n        /* \"#utility.yul\":3154:3217   */\n      swap2\n      pop\n        /* \"#utility.yul\":3109:3227   */\n      pop\n        /* \"#utility.yul\":2760:3234   */\n      swap3\n      pop\n      swap3\n      swap1\n      pop\n      jump\t// out\n        /* \"#utility.yul\":3240:3382   */\n    tag_239:\n        /* \"#utility.yul\":3306:3315   */\n      0x00\n        /* \"#utility.yul\":3339:3376   */\n      tag_317\n        /* \"#utility.yul\":3370:3375   */\n      dup3\n        /* \"#utility.yul\":3339:3376   */\n      tag_236\n      jump\t// in\n    tag_317:\n        /* \"#utility.yul\":3326:3376   */\n      swap1\n      pop\n        /* \"#utility.yul\":3240:3382   */\n      swap2\n      swap1\n      pop\n      jump\t// out\n        /* \"#utility.yul\":3388:3551   */\n    tag_240:\n        /* \"#utility.yul\":3491:3544   */\n      tag_319\n        /* \"#utility.yul\":3538:3543   */\n      dup2\n        /* \"#utility.yul\":3491:3544   */\n      tag_239\n      jump\t// in\n    tag_319:\n        /* \"#utility.yul\":3486:3489   */\n      dup3\n        /* \"#utility.yul\":3479:3545   */\n      mstore\n        /* \"#utility.yul\":3388:3551   */\n      pop\n      pop\n      jump\t// out\n        /* \"#utility.yul\":3557:3811   */\n    tag_45:\n        /* \"#utility.yul\":3666:3670   */\n      0x00\n        /* \"#utility.yul\":3704:3706   */\n      0x20\n        /* \"#utility.yul\":3693:3702   */\n      dup3\n        /* \"#utility.yul\":3689:3707   */\n      add\n        /* \"#utility.yul\":3681:3707   */\n      swap1\n      pop\n        /* \"#utility.yul\":3717:3804   */\n      tag_321\n        /* \"#utility.yul\":3801:3802   */\n      0x00\n        /* \"#utility.yul\":3790:3799   */\n      dup4\n        /* \"#utility.yul\":3786:3803   */\n      add\n        /* \"#utility.yul\":3777:3783   */\n      dup5\n        /* \"#utility.yul\":3717:3804   */\n      tag_240\n      jump\t// in\n    tag_321:\n        /* \"#utility.yul\":3557:3811   */\n      swap3\n      swap2\n      pop\n      pop\n      jump\t// out\n        /* \"#utility.yul\":3817:3986   */\n    tag_241:\n        /* \"#utility.yul\":3901:3912   */\n      0x00\n        /* \"#utility.yul\":3935:3941   */\n      dup3\n        /* \"#utility.yul\":3930:3933   */\n      dup3\n        /* \"#utility.yul\":3923:3942   */\n      mstore\n        /* \"#utility.yul\":3975:3979   */\n      0x20\n        /* \"#utility.yul\":3970:3973   */\n      dup3\n        /* \"#utility.yul\":3966:3980   */\n      add\n        /* \"#utility.yul\":3951:3980   */\n      swap1\n      pop\n        /* \"#utility.yul\":3817:3986   */\n      swap3\n      swap2\n      pop\n      pop\n      jump\t// out\n        /* \"#utility.yul\":3992:4219   */\n    tag_242:\n        /* \"#utility.yul\":4132:4166   */\n      0x4445583a204c5020616d6f756e74206d75737420626520677265617465722074\n        /* \"#utility.yul\":4128:4129   */\n      0x00\n        /* \"#utility.yul\":4120:4126   */\n      dup3\n        /* \"#utility.yul\":4116:4130   */\n      add\n        /* \"#utility.yul\":4109:4167   */\n      mstore\n        /* \"#utility.yul\":4201:4211   */\n      0x68616e207a65726f000000000000000000000000000000000000000000000000\n        /* \"#utility.yul\":4196:4198   */\n      0x20\n        /* \"#utility.yul\":4188:4194   */\n      dup3\n        /* \"#utility.yul\":4184:4199   */\n      add\n        /* \"#utility.yul\":4177:4212   */\n      mstore\n        /* \"#utility.yul\":3992:4219   */\n      pop\n      jump\t// out\n        /* \"#utility.yul\":4225:4591   */\n    tag_243:\n        /* \"#utility.yul\":4367:4370   */\n      0x00\n        /* \"#utility.yul\":4388:4455   */\n      tag_325\n        /* \"#utility.yul\":4452:4454   */\n      0x28\n        /* \"#utility.yul\":4447:4450   */\n      dup4\n        /* \"#utility.yul\":4388:4455   */\n      tag_241\n      jump\t// in\n    tag_325:\n        /* \"#utility.yul\":4381:4455   */\n      swap2\n      pop\n        /* \"#utility.yul\":4464:4557   */\n      tag_326\n        /* \"#utility.yul\":4553:4556   */\n      dup3\n        /* \"#utility.yul\":4464:4557   */\n      tag_242\n      jump\t// in\n    tag_326:\n        /* \"#utility.yul\":4582:4584   */\n      0x40\n        /* \"#utility.yul\":4577:4580   */\n      dup3\n        /* \"#utility.yul\":4573:4585   */\n      add\n        /* \"#utility.yul\":4566:4585   */\n      swap1\n      pop\n        /* \"#utility.yul\":4225:4591   */\n      swap2\n      swap1\n      pop\n      jump\t// out\n        /* \"#utility.yul\":4597:5016   */\n    tag_62:\n        /* \"#utility.yul\":4763:4767   */\n      0x00\n        /* \"#utility.yul\":4801:4803   */\n      0x20\n        /* \"#utility.yul\":4790:4799   */\n      dup3\n        /* \"#utility.yul\":4786:4804   */\n      add\n        /* \"#utility.yul\":4778:4804   */\n      swap1\n      pop\n        /* \"#utility.yul\":4850:4859   */\n      dup2\n        /* \"#utility.yul\":4844:4848   */\n      dup2\n        /* \"#utility.yul\":4840:4860   */\n      sub\n        /* \"#utility.yul\":4836:4837   */\n      0x00\n        /* \"#utility.yul\":4825:4834   */\n      dup4\n        /* \"#utility.yul\":4821:4838   */\n      add\n        /* \"#utility.yul\":4814:4861   */\n      mstore\n        /* \"#utility.yul\":4878:5009   */\n      tag_328\n        /* \"#utility.yul\":5004:5008   */\n      dup2\n        /* \"#utility.yul\":4878:5009   */\n      tag_243\n      jump\t// in\n    tag_328:\n        /* \"#utility.yul\":4870:5009   */\n      swap1\n      pop\n        /* \"#utility.yul\":4597:5016   */\n      swap2\n      swap1\n      pop\n      jump\t// out\n        /* \"#utility.yul\":5022:5165   */\n    tag_244:\n        /* \"#utility.yul\":5079:5084   */\n      0x00\n        /* \"#utility.yul\":5110:5116   */\n      dup2\n        /* \"#utility.yul\":5104:5117   */\n      mload\n        /* \"#utility.yul\":5095:5117   */\n      swap1\n      pop\n        /* \"#utility.yul\":5126:5159   */\n      tag_330\n        /* \"#utility.yul\":5153:5158   */\n      dup2\n        /* \"#utility.yul\":5126:5159   */\n      tag_231\n      jump\t// in\n    tag_330:\n        /* \"#utility.yul\":5022:5165   */\n      swap3\n      swap2\n      pop\n      pop\n      jump\t// out\n        /* \"#utility.yul\":5171:5522   */\n    tag_66:\n        /* \"#utility.yul\":5241:5247   */\n      0x00\n        /* \"#utility.yul\":5290:5292   */\n      0x20\n        /* \"#utility.yul\":5278:5287   */\n      dup3\n        /* \"#utility.yul\":5269:5276   */\n      dup5\n        /* \"#utility.yul\":5265:5288   */\n      sub\n        /* \"#utility.yul\":5261:5293   */\n      slt\n        /* \"#utility.yul\":5258:5377   */\n      iszero\n      tag_332\n      jumpi\n        /* \"#utility.yul\":5296:5375   */\n      tag_333\n      tag_229\n      jump\t// in\n    tag_333:\n        /* \"#utility.yul\":5258:5377   */\n    tag_332:\n        /* \"#utility.yul\":5416:5417   */\n      0x00\n        /* \"#utility.yul\":5441:5505   */\n      tag_334\n        /* \"#utility.yul\":5497:5504   */\n      dup5\n        /* \"#utility.yul\":5488:5494   */\n      dup3\n        /* \"#utility.yul\":5477:5486   */\n      dup6\n        /* \"#utility.yul\":5473:5495   */\n      add\n        /* \"#utility.yul\":5441:5505   */\n      tag_244\n      jump\t// in\n    tag_334:\n        /* \"#utility.yul\":5431:5505   */\n      swap2\n      pop\n        /* \"#utility.yul\":5387:5515   */\n      pop\n        /* \"#utility.yul\":5171:5522   */\n      swap3\n      swap2\n      pop\n      pop\n      jump\t// out\n        /* \"#utility.yul\":5528:5705   */\n    tag_245:\n        /* \"#utility.yul\":5668:5697   */\n      0x4445583a204e6f206c697175696469747920617661696c61626c650000000000\n        /* \"#utility.yul\":5664:5665   */\n      0x00\n        /* \"#utility.yul\":5656:5662   */\n      dup3\n        /* \"#utility.yul\":5652:5666   */\n      add\n        /* \"#utility.yul\":5645:5698   */\n      mstore\n        /* \"#utility.yul\":5528:5705   */\n      pop\n      jump\t// out\n        /* \"#utility.yul\":5711:6077   */\n    tag_246:\n        /* \"#utility.yul\":5853:5856   */\n      0x00\n        /* \"#utility.yul\":5874:5941   */\n      tag_337\n        /* \"#utility.yul\":5938:5940   */\n      0x1b\n        /* \"#utility.yul\":5933:5936   */\n      dup4\n        /* \"#utility.yul\":5874:5941   */\n      tag_241\n      jump\t// in\n    tag_337:\n        /* \"#utility.yul\":5867:5941   */\n      swap2\n      pop\n        /* \"#utility.yul\":5950:6043   */\n      tag_338\n        /* \"#utility.yul\":6039:6042   */\n      dup3\n        /* \"#utility.yul\":5950:6043   */\n      tag_245\n      jump\t// in\n    tag_338:\n        /* \"#utility.yul\":6068:6070   */\n      0x20\n        /* \"#utility.yul\":6063:6066   */\n      dup3\n        /* \"#utility.yul\":6059:6071   */\n      add\n        /* \"#utility.yul\":6052:6071   */\n      swap1\n      pop\n        /* \"#utility.yul\":5711:6077   */\n      swap2\n      swap1\n      pop\n      jump\t// out\n        /* \"#utility.yul\":6083:6502   */\n    tag_69:\n        /* \"#utility.yul\":6249:6253   */\n      0x00\n        /* \"#utility.yul\":6287:6289   */\n      0x20\n        /* \"#utility.yul\":6276:6285   */\n      dup3\n        /* \"#utility.yul\":6272:6290   */\n      add\n        /* \"#utility.yul\":6264:6290   */\n      swap1\n      pop\n        /* \"#utility.yul\":6336:6345   */\n      dup2\n        /* \"#utility.yul\":6330:6334   */\n      dup2\n        /* \"#utility.yul\":6326:6346   */\n      sub\n        /* \"#utility.yul\":6322:6323   */\n      0x00\n        /* \"#utility.yul\":6311:6320   */\n      dup4\n        /* \"#utility.yul\":6307:6324   */\n      add\n        /* \"#utility.yul\":6300:6347   */\n      mstore\n        /* \"#utility.yul\":6364:6495   */\n      tag_340\n        /* \"#utility.yul\":6490:6494   */\n      dup2\n        /* \"#utility.yul\":6364:6495   */\n      tag_246\n      jump\t// in\n    tag_340:\n        /* \"#utility.yul\":6356:6495   */\n      swap1\n      pop\n        /* \"#utility.yul\":6083:6502   */\n      swap2\n      swap1\n      pop\n      jump\t// out\n        /* \"#utility.yul\":6508:6688   */\n    tag_247:\n        /* \"#utility.yul\":6556:6633   */\n      0x4e487b7100000000000000000000000000000000000000000000000000000000\n        /* \"#utility.yul\":6553:6554   */\n      0x00\n        /* \"#utility.yul\":6546:6634   */\n      mstore\n        /* \"#utility.yul\":6653:6657   */\n      0x11\n        /* \"#utility.yul\":6650:6651   */\n      0x04\n        /* \"#utility.yul\":6643:6658   */\n      mstore\n        /* \"#utility.yul\":6677:6681   */\n      0x24\n        /* \"#utility.yul\":6674:6675   */\n      0x00\n        /* \"#utility.yul\":6667:6682   */\n      revert\n        /* \"#utility.yul\":6694:7104   */\n    tag_71:\n        /* \"#utility.yul\":6734:6741   */\n      0x00\n        /* \"#utility.yul\":6757:6777   */\n      tag_343\n        /* \"#utility.yul\":6775:6776   */\n      dup3\n        /* \"#utility.yul\":6757:6777   */\n      tag_226\n      jump\t// in\n    tag_343:\n        /* \"#utility.yul\":6752:6777   */\n      swap2\n      pop\n        /* \"#utility.yul\":6791:6811   */\n      tag_344\n        /* \"#utility.yul\":6809:6810   */\n      dup4\n        /* \"#utility.yul\":6791:6811   */\n      tag_226\n      jump\t// in\n    tag_344:\n        /* \"#utility.yul\":6786:6811   */\n      swap3\n      pop\n        /* \"#utility.yul\":6846:6847   */\n      dup3\n        /* \"#utility.yul\":6843:6844   */\n      dup3\n        /* \"#utility.yul\":6839:6848   */\n      mul\n        /* \"#utility.yul\":6868:6898   */\n      tag_345\n        /* \"#utility.yul\":6886:6897   */\n      dup2\n        /* \"#utility.yul\":6868:6898   */\n      tag_226\n      jump\t// in\n    tag_345:\n        /* \"#utility.yul\":6857:6898   */\n      swap2\n      pop\n        /* \"#utility.yul\":7047:7048   */\n      dup3\n        /* \"#utility.yul\":7038:7045   */\n      dup3\n        /* \"#utility.yul\":7034:7049   */\n      div\n        /* \"#utility.yul\":7031:7032   */\n      dup5\n        /* \"#utility.yul\":7028:7050   */\n      eq\n        /* \"#utility.yul\":7008:7009   */\n      dup4\n        /* \"#utility.yul\":7001:7010   */\n      iszero\n        /* \"#utility.yul\":6981:7064   */\n      or\n        /* \"#utility.yul\":6958:7097   */\n      tag_346\n      jumpi\n        /* \"#utility.yul\":7077:7095   */\n      tag_347\n      tag_247\n      jump\t// in\n    tag_347:\n        /* \"#utility.yul\":6958:7097   */\n    tag_346:\n        /* \"#utility.yul\":6742:7104   */\n      pop\n        /* \"#utility.yul\":6694:7104   */\n      swap3\n      swap2\n      pop\n      pop\n      jump\t// out\n        /* \"#utility.yul\":7110:7290   */\n    tag_248:\n        /* \"#utility.yul\":7158:7235   */\n      0x4e487b7100000000000000000000000000000000000000000000000000000000\n        /* \"#utility.yul\":7155:7156   */\n      0x00\n        /* \"#utility.yul\":7148:7236   */\n      mstore\n        /* \"#utility.yul\":7255:7259   */\n      0x12\n        /* \"#utility.yul\":7252:7253   */\n      0x04\n        /* \"#utility.yul\":7245:7260   */\n      mstore\n        /* \"#utility.yul\":7279:7283   */\n      0x24\n        /* \"#utility.yul\":7276:7277   */\n      0x00\n        /* \"#utility.yul\":7269:7284   */\n      revert\n        /* \"#utility.yul\":7296:7481   */\n    tag_73:\n        /* \"#utility.yul\":7336:7337   */\n      0x00\n        /* \"#utility.yul\":7353:7373   */\n      tag_350\n        /* \"#utility.yul\":7371:7372   */\n      dup3\n        /* \"#utility.yul\":7353:7373   */\n      tag_226\n      jump\t// in\n    tag_350:\n        /* \"#utility.yul\":7348:7373   */\n      swap2\n      pop\n        /* \"#utility.yul\":7387:7407   */\n      tag_351\n        /* \"#utility.yul\":7405:7406   */\n      dup4\n        /* \"#utility.yul\":7387:7407   */\n      tag_226\n      jump\t// in\n    tag_351:\n        /* \"#utility.yul\":7382:7407   */\n      swap3\n      pop\n        /* \"#utility.yul\":7426:7427   */\n      dup3\n        /* \"#utility.yul\":7416:7451   */\n      tag_352\n      jumpi\n        /* \"#utility.yul\":7431:7449   */\n      tag_353\n      tag_248\n      jump\t// in\n    tag_353:\n        /* \"#utility.yul\":7416:7451   */\n    tag_352:\n        /* \"#utility.yul\":7473:7474   */\n      dup3\n        /* \"#utility.yul\":7470:7471   */\n      dup3\n        /* \"#utility.yul\":7466:7475   */\n      div\n        /* \"#utility.yul\":7461:7475   */\n      swap1\n      pop\n        /* \"#utility.yul\":7296:7481   */\n      swap3\n      swap2\n      pop\n      pop\n      jump\t// out\n        /* \"#utility.yul\":7487:7667   */\n    tag_249:\n        /* \"#utility.yul\":7627:7659   */\n      0x4445583a20576974686472617720616d6f756e747320617265207a65726f0000\n        /* \"#utility.yul\":7623:7624   */\n      0x00\n        /* \"#utility.yul\":7615:7621   */\n      dup3\n        /* \"#utility.yul\":7611:7625   */\n      add\n        /* \"#utility.yul\":7604:7660   */\n      mstore\n        /* \"#utility.yul\":7487:7667   */\n      pop\n      jump\t// out\n        /* \"#utility.yul\":7673:8039   */\n    tag_250:\n        /* \"#utility.yul\":7815:7818   */\n      0x00\n        /* \"#utility.yul\":7836:7903   */\n      tag_356\n        /* \"#utility.yul\":7900:7902   */\n      0x1e\n        /* \"#utility.yul\":7895:7898   */\n      dup4\n        /* \"#utility.yul\":7836:7903   */\n      tag_241\n      jump\t// in\n    tag_356:\n        /* \"#utility.yul\":7829:7903   */\n      swap2\n      pop\n        /* \"#utility.yul\":7912:8005   */\n      tag_357\n        /* \"#utility.yul\":8001:8004   */\n      dup3\n        /* \"#utility.yul\":7912:8005   */\n      tag_249\n      jump\t// in\n    tag_357:\n        /* \"#utility.yul\":8030:8032   */\n      0x20\n        /* \"#utility.yul\":8025:8028   */\n      dup3\n        /* \"#utility.yul\":8021:8033   */\n      add\n        /* \"#utility.yul\":8014:8033   */\n      swap1\n      pop\n        /* \"#utility.yul\":7673:8039   */\n      swap2\n      swap1\n      pop\n      jump\t// out\n        /* \"#utility.yul\":8045:8464   */\n    tag_79:\n        /* \"#utility.yul\":8211:8215   */\n      0x00\n        /* \"#utility.yul\":8249:8251   */\n      0x20\n        /* \"#utility.yul\":8238:8247   */\n      dup3\n        /* \"#utility.yul\":8234:8252   */\n      add\n        /* \"#utility.yul\":8226:8252   */\n      swap1\n      pop\n        /* \"#utility.yul\":8298:8307   */\n      dup2\n        /* \"#utility.yul\":8292:8296   */\n      dup2\n        /* \"#utility.yul\":8288:8308   */\n      sub\n        /* \"#utility.yul\":8284:8285   */\n      0x00\n        /* \"#utility.yul\":8273:8282   */\n      dup4\n        /* \"#utility.yul\":8269:8286   */\n      add\n        /* \"#utility.yul\":8262:8309   */\n      mstore\n        /* \"#utility.yul\":8326:8457   */\n      tag_359\n        /* \"#utility.yul\":8452:8456   */\n      dup2\n        /* \"#utility.yul\":8326:8457   */\n      tag_250\n      jump\t// in\n    tag_359:\n        /* \"#utility.yul\":8318:8457   */\n      swap1\n      pop\n        /* \"#utility.yul\":8045:8464   */\n      swap2\n      swap1\n      pop\n      jump\t// out\n        /* \"#utility.yul\":8470:8566   */\n    tag_251:\n        /* \"#utility.yul\":8507:8514   */\n      0x00\n        /* \"#utility.yul\":8536:8560   */\n      tag_361\n        /* \"#utility.yul\":8554:8559   */\n      dup3\n        /* \"#utility.yul\":8536:8560   */\n      tag_233\n      jump\t// in\n    tag_361:\n        /* \"#utility.yul\":8525:8560   */\n      swap1\n      pop\n        /* \"#utility.yul\":8470:8566   */\n      swap2\n      swap1\n      pop\n      jump\t// out\n        /* \"#utility.yul\":8572:8690   */\n    tag_252:\n        /* \"#utility.yul\":8659:8683   */\n      tag_363\n        /* \"#utility.yul\":8677:8682   */\n      dup2\n        /* \"#utility.yul\":8659:8683   */\n      tag_251\n      jump\t// in\n    tag_363:\n        /* \"#utility.yul\":8654:8657   */\n      dup3\n        /* \"#utility.yul\":8647:8684   */\n      mstore\n        /* \"#utility.yul\":8572:8690   */\n      pop\n      pop\n      jump\t// out\n        /* \"#utility.yul\":8696:9028   */\n    tag_81:\n        /* \"#utility.yul\":8817:8821   */\n      0x00\n        /* \"#utility.yul\":8855:8857   */\n      0x40\n        /* \"#utility.yul\":8844:8853   */\n      dup3\n        /* \"#utility.yul\":8840:8858   */\n      add\n        /* \"#utility.yul\":8832:8858   */\n      swap1\n      pop\n        /* \"#utility.yul\":8868:8939   */\n      tag_365\n        /* \"#utility.yul\":8936:8937   */\n      0x00\n        /* \"#utility.yul\":8925:8934   */\n      dup4\n        /* \"#utility.yul\":8921:8938   */\n      add\n        /* \"#utility.yul\":8912:8918   */\n      dup6\n        /* \"#utility.yul\":8868:8939   */\n      tag_252\n      jump\t// in\n    tag_365:\n        /* \"#utility.yul\":8949:9021   */\n      tag_366\n        /* \"#utility.yul\":9017:9019   */\n      0x20\n        /* \"#utility.yul\":9006:9015   */\n      dup4\n        /* \"#utility.yul\":9002:9020   */\n      add\n        /* \"#utility.yul\":8993:8999   */\n      dup5\n        /* \"#utility.yul\":8949:9021   */\n      tag_227\n      jump\t// in\n    tag_366:\n        /* \"#utility.yul\":8696:9028   */\n      swap4\n      swap3\n      pop\n      pop\n      pop\n      jump\t// out\n        /* \"#utility.yul\":9034:9228   */\n    tag_86:\n        /* \"#utility.yul\":9074:9078   */\n      0x00\n        /* \"#utility.yul\":9094:9114   */\n      tag_368\n        /* \"#utility.yul\":9112:9113   */\n      dup3\n        /* \"#utility.yul\":9094:9114   */\n      tag_226\n      jump\t// in\n    tag_368:\n        /* \"#utility.yul\":9089:9114   */\n      swap2\n      pop\n        /* \"#utility.yul\":9128:9148   */\n      tag_369\n        /* \"#utility.yul\":9146:9147   */\n      dup4\n        /* \"#utility.yul\":9128:9148   */\n      tag_226\n      jump\t// in\n    tag_369:\n        /* \"#utility.yul\":9123:9148   */\n      swap3\n      pop\n        /* \"#utility.yul\":9172:9173   */\n      dup3\n        /* \"#utility.yul\":9169:9170   */\n      dup3\n        /* \"#utility.yul\":9165:9174   */\n      sub\n        /* \"#utility.yul\":9157:9174   */\n      swap1\n      pop\n        /* \"#utility.yul\":9196:9197   */\n      dup2\n        /* \"#utility.yul\":9190:9194   */\n      dup2\n        /* \"#utility.yul\":9187:9198   */\n      gt\n        /* \"#utility.yul\":9184:9221   */\n      iszero\n      tag_370\n      jumpi\n        /* \"#utility.yul\":9201:9219   */\n      tag_371\n      tag_247\n      jump\t// in\n    tag_371:\n        /* \"#utility.yul\":9184:9221   */\n    tag_370:\n        /* \"#utility.yul\":9034:9228   */\n      swap3\n      swap2\n      pop\n      pop\n      jump\t// out\n        /* \"#utility.yul\":9234:9324   */\n    tag_253:\n        /* \"#utility.yul\":9268:9275   */\n      0x00\n        /* \"#utility.yul\":9311:9316   */\n      dup2\n        /* \"#utility.yul\":9304:9317   */\n      iszero\n        /* \"#utility.yul\":9297:9318   */\n      iszero\n        /* \"#utility.yul\":9286:9318   */\n      swap1\n      pop\n        /* \"#utility.yul\":9234:9324   */\n      swap2\n      swap1\n      pop\n      jump\t// out\n        /* \"#utility.yul\":9330:9446   */\n    tag_254:\n        /* \"#utility.yul\":9400:9421   */\n      tag_374\n        /* \"#utility.yul\":9415:9420   */\n      dup2\n        /* \"#utility.yul\":9400:9421   */\n      tag_253\n      jump\t// in\n    tag_374:\n        /* \"#utility.yul\":9393:9398   */\n      dup2\n        /* \"#utility.yul\":9390:9422   */\n      eq\n        /* \"#utility.yul\":9380:9440   */\n      tag_375\n      jumpi\n        /* \"#utility.yul\":9436:9437   */\n      0x00\n        /* \"#utility.yul\":9433:9434   */\n      dup1\n        /* \"#utility.yul\":9426:9438   */\n      revert\n        /* \"#utility.yul\":9380:9440   */\n    tag_375:\n        /* \"#utility.yul\":9330:9446   */\n      pop\n      jump\t// out\n        /* \"#utility.yul\":9452:9589   */\n    tag_255:\n        /* \"#utility.yul\":9506:9511   */\n      0x00\n        /* \"#utility.yul\":9537:9543   */\n      dup2\n        /* \"#utility.yul\":9531:9544   */\n      mload\n        /* \"#utility.yul\":9522:9544   */\n      swap1\n      pop\n        /* \"#utility.yul\":9553:9583   */\n      tag_377\n        /* \"#utility.yul\":9577:9582   */\n      dup2\n        /* \"#utility.yul\":9553:9583   */\n      tag_254\n      jump\t// in\n    tag_377:\n        /* \"#utility.yul\":9452:9589   */\n      swap3\n      swap2\n      pop\n      pop\n      jump\t// out\n        /* \"#utility.yul\":9595:9940   */\n    tag_92:\n        /* \"#utility.yul\":9662:9668   */\n      0x00\n        /* \"#utility.yul\":9711:9713   */\n      0x20\n        /* \"#utility.yul\":9699:9708   */\n      dup3\n        /* \"#utility.yul\":9690:9697   */\n      dup5\n        /* \"#utility.yul\":9686:9709   */\n      sub\n        /* \"#utility.yul\":9682:9714   */\n      slt\n        /* \"#utility.yul\":9679:9798   */\n      iszero\n      tag_379\n      jumpi\n        /* \"#utility.yul\":9717:9796   */\n      tag_380\n      tag_229\n      jump\t// in\n    tag_380:\n        /* \"#utility.yul\":9679:9798   */\n    tag_379:\n        /* \"#utility.yul\":9837:9838   */\n      0x00\n        /* \"#utility.yul\":9862:9923   */\n      tag_381\n        /* \"#utility.yul\":9915:9922   */\n      dup5\n        /* \"#utility.yul\":9906:9912   */\n      dup3\n        /* \"#utility.yul\":9895:9904   */\n      dup6\n        /* \"#utility.yul\":9891:9913   */\n      add\n        /* \"#utility.yul\":9862:9923   */\n      tag_255\n      jump\t// in\n    tag_381:\n        /* \"#utility.yul\":9852:9923   */\n      swap2\n      pop\n        /* \"#utility.yul\":9808:9933   */\n      pop\n        /* \"#utility.yul\":9595:9940   */\n      swap3\n      swap2\n      pop\n      pop\n      jump\t// out\n        /* \"#utility.yul\":9946:10126   */\n    tag_256:\n        /* \"#utility.yul\":10086:10118   */\n      0x4445583a205472616e73666572206f6620546f6b656e41206661696c65640000\n        /* \"#utility.yul\":10082:10083   */\n      0x00\n        /* \"#utility.yul\":10074:10080   */\n      dup3\n        /* \"#utility.yul\":10070:10084   */\n      add\n        /* \"#utility.yul\":10063:10119   */\n      mstore\n        /* \"#utility.yul\":9946:10126   */\n      pop\n      jump\t// out\n        /* \"#utility.yul\":10132:10498   */\n    tag_257:\n        /* \"#utility.yul\":10274:10277   */\n      0x00\n        /* \"#utility.yul\":10295:10362   */\n      tag_384\n        /* \"#utility.yul\":10359:10361   */\n      0x1e\n        /* \"#utility.yul\":10354:10357   */\n      dup4\n        /* \"#utility.yul\":10295:10362   */\n      tag_241\n      jump\t// in\n    tag_384:\n        /* \"#utility.yul\":10288:10362   */\n      swap2\n      pop\n        /* \"#utility.yul\":10371:10464   */\n      tag_385\n        /* \"#utility.yul\":10460:10463   */\n      dup3\n        /* \"#utility.yul\":10371:10464   */\n      tag_256\n      jump\t// in\n    tag_385:\n        /* \"#utility.yul\":10489:10491   */\n      0x20\n        /* \"#utility.yul\":10484:10487   */\n      dup3\n        /* \"#utility.yul\":10480:10492   */\n      add\n        /* \"#utility.yul\":10473:10492   */\n      swap1\n      pop\n        /* \"#utility.yul\":10132:10498   */\n      swap2\n      swap1\n      pop\n      jump\t// out\n        /* \"#utility.yul\":10504:10923   */\n    tag_95:\n        /* \"#utility.yul\":10670:10674   */\n      0x00\n        /* \"#utility.yul\":10708:10710   */\n      0x20\n        /* \"#utility.yul\":10697:10706   */\n      dup3\n        /* \"#utility.yul\":10693:10711   */\n      add\n        /* \"#utility.yul\":10685:10711   */\n      swap1\n      pop\n        /* \"#utility.yul\":10757:10766   */\n      dup2\n        /* \"#utility.yul\":10751:10755   */\n      dup2\n        /* \"#utility.yul\":10747:10767   */\n      sub\n        /* \"#utility.yul\":10743:10744   */\n      0x00\n        /* \"#utility.yul\":10732:10741   */\n      dup4\n        /* \"#utility.yul\":10728:10745   */\n      add\n        /* \"#utility.yul\":10721:10768   */\n      mstore\n        /* \"#utility.yul\":10785:10916   */\n      tag_387\n        /* \"#utility.yul\":10911:10915   */\n      dup2\n        /* \"#utility.yul\":10785:10916   */\n      tag_257\n      jump\t// in\n    tag_387:\n        /* \"#utility.yul\":10777:10916   */\n      swap1\n      pop\n        /* \"#utility.yul\":10504:10923   */\n      swap2\n      swap1\n      pop\n      jump\t// out\n        /* \"#utility.yul\":10929:11109   */\n    tag_258:\n        /* \"#utility.yul\":11069:11101   */\n      0x4445583a205472616e73666572206f6620546f6b656e42206661696c65640000\n        /* \"#utility.yul\":11065:11066   */\n      0x00\n        /* \"#utility.yul\":11057:11063   */\n      dup3\n        /* \"#utility.yul\":11053:11067   */\n      add\n        /* \"#utility.yul\":11046:11102   */\n      mstore\n        /* \"#utility.yul\":10929:11109   */\n      pop\n      jump\t// out\n        /* \"#utility.yul\":11115:11481   */\n    tag_259:\n        /* \"#utility.yul\":11257:11260   */\n      0x00\n        /* \"#utility.yul\":11278:11345   */\n      tag_390\n        /* \"#utility.yul\":11342:11344   */\n      0x1e\n        /* \"#utility.yul\":11337:11340   */\n      dup4\n        /* \"#utility.yul\":11278:11345   */\n      tag_241\n      jump\t// in\n    tag_390:\n        /* \"#utility.yul\":11271:11345   */\n      swap2\n      pop\n        /* \"#utility.yul\":11354:11447   */\n      tag_391\n        /* \"#utility.yul\":11443:11446   */\n      dup3\n        /* \"#utility.yul\":11354:11447   */\n      tag_258\n      jump\t// in\n    tag_391:\n        /* \"#utility.yul\":11472:11474   */\n      0x20\n        /* \"#utility.yul\":11467:11470   */\n      dup3\n        /* \"#utility.yul\":11463:11475   */\n      add\n        /* \"#utility.yul\":11456:11475   */\n      swap1\n      pop\n        /* \"#utility.yul\":11115:11481   */\n      swap2\n      swap1\n      pop\n      jump\t// out\n        /* \"#utility.yul\":11487:11906   */\n    tag_102:\n        /* \"#utility.yul\":11653:11657   */\n      0x00\n        /* \"#utility.yul\":11691:11693   */\n      0x20\n        /* \"#utility.yul\":11680:11689   */\n      dup3\n        /* \"#utility.yul\":11676:11694   */\n      add\n        /* \"#utility.yul\":11668:11694   */\n      swap1\n      pop\n        /* \"#utility.yul\":11740:11749   */\n      dup2\n        /* \"#utility.yul\":11734:11738   */\n      dup2\n        /* \"#utility.yul\":11730:11750   */\n      sub\n        /* \"#utility.yul\":11726:11727   */\n      0x00\n        /* \"#utility.yul\":11715:11724   */\n      dup4\n        /* \"#utility.yul\":11711:11728   */\n      add\n        /* \"#utility.yul\":11704:11751   */\n      mstore\n        /* \"#utility.yul\":11768:11899   */\n      tag_393\n        /* \"#utility.yul\":11894:11898   */\n      dup2\n        /* \"#utility.yul\":11768:11899   */\n      tag_259\n      jump\t// in\n    tag_393:\n        /* \"#utility.yul\":11760:11899   */\n      swap1\n      pop\n        /* \"#utility.yul\":11487:11906   */\n      swap2\n      swap1\n      pop\n      jump\t// out\n        /* \"#utility.yul\":11912:12137   */\n    tag_260:\n        /* \"#utility.yul\":12052:12086   */\n      0x4445583a20416d6f756e7473206d757374206265206772656174657220746861\n        /* \"#utility.yul\":12048:12049   */\n      0x00\n        /* \"#utility.yul\":12040:12046   */\n      dup3\n        /* \"#utility.yul\":12036:12050   */\n      add\n        /* \"#utility.yul\":12029:12087   */\n      mstore\n        /* \"#utility.yul\":12121:12129   */\n      0x6e207a65726f0000000000000000000000000000000000000000000000000000\n        /* \"#utility.yul\":12116:12118   */\n      0x20\n        /* \"#utility.yul\":12108:12114   */\n      dup3\n        /* \"#utility.yul\":12104:12119   */\n      add\n        /* \"#utility.yul\":12097:12130   */\n      mstore\n        /* \"#utility.yul\":11912:12137   */\n      pop\n      jump\t// out\n        /* \"#utility.yul\":12143:12509   */\n    tag_261:\n        /* \"#utility.yul\":12285:12288   */\n      0x00\n        /* \"#utility.yul\":12306:12373   */\n      tag_396\n        /* \"#utility.yul\":12370:12372   */\n      0x26\n        /* \"#utility.yul\":12365:12368   */\n      dup4\n        /* \"#utility.yul\":12306:12373   */\n      tag_241\n      jump\t// in\n    tag_396:\n        /* \"#utility.yul\":12299:12373   */\n      swap2\n      pop\n        /* \"#utility.yul\":12382:12475   */\n      tag_397\n        /* \"#utility.yul\":12471:12474   */\n      dup3\n        /* \"#utility.yul\":12382:12475   */\n      tag_260\n      jump\t// in\n    tag_397:\n        /* \"#utility.yul\":12500:12502   */\n      0x40\n        /* \"#utility.yul\":12495:12498   */\n      dup3\n        /* \"#utility.yul\":12491:12503   */\n      add\n        /* \"#utility.yul\":12484:12503   */\n      swap1\n      pop\n        /* \"#utility.yul\":12143:12509   */\n      swap2\n      swap1\n      pop\n      jump\t// out\n        /* \"#utility.yul\":12515:12934   */\n    tag_107:\n        /* \"#utility.yul\":12681:12685   */\n      0x00\n        /* \"#utility.yul\":12719:12721   */\n      0x20\n        /* \"#utility.yul\":12708:12717   */\n      dup3\n        /* \"#utility.yul\":12704:12722   */\n      add\n        /* \"#utility.yul\":12696:12722   */\n      swap1\n      pop\n        /* \"#utility.yul\":12768:12777   */\n      dup2\n        /* \"#utility.yul\":12762:12766   */\n      dup2\n        /* \"#utility.yul\":12758:12778   */\n      sub\n        /* \"#utility.yul\":12754:12755   */\n      0x00\n        /* \"#utility.yul\":12743:12752   */\n      dup4\n        /* \"#utility.yul\":12739:12756   */\n      add\n        /* \"#utility.yul\":12732:12779   */\n      mstore\n        /* \"#utility.yul\":12796:12927   */\n      tag_399\n        /* \"#utility.yul\":12922:12926   */\n      dup2\n        /* \"#utility.yul\":12796:12927   */\n      tag_261\n      jump\t// in\n    tag_399:\n        /* \"#utility.yul\":12788:12927   */\n      swap1\n      pop\n        /* \"#utility.yul\":12515:12934   */\n      swap2\n      swap1\n      pop\n      jump\t// out\n        /* \"#utility.yul\":12940:13164   */\n    tag_262:\n        /* \"#utility.yul\":13080:13114   */\n      0x4445583a204465706f736974206d75737420707265736572766520706f6f6c20\n        /* \"#utility.yul\":13076:13077   */\n      0x00\n        /* \"#utility.yul\":13068:13074   */\n      dup3\n        /* \"#utility.yul\":13064:13078   */\n      add\n        /* \"#utility.yul\":13057:13115   */\n      mstore\n        /* \"#utility.yul\":13149:13156   */\n      0x726174696f000000000000000000000000000000000000000000000000000000\n        /* \"#utility.yul\":13144:13146   */\n      0x20\n        /* \"#utility.yul\":13136:13142   */\n      dup3\n        /* \"#utility.yul\":13132:13147   */\n      add\n        /* \"#utility.yul\":13125:13157   */\n      mstore\n        /* \"#utility.yul\":12940:13164   */\n      pop\n      jump\t// out\n        /* \"#utility.yul\":13170:13536   */\n    tag_263:\n        /* \"#utility.yul\":13312:13315   */\n      0x00\n        /* \"#utility.yul\":13333:13400   */\n      tag_402\n        /* \"#utility.yul\":13397:13399   */\n      0x25\n        /* \"#utility.yul\":13392:13395   */\n      dup4\n        /* \"#utility.yul\":13333:13400   */\n      tag_241\n      jump\t// in\n    tag_402:\n        /* \"#utility.yul\":13326:13400   */\n      swap2\n      pop\n        /* \"#utility.yul\":13409:13502   */\n      tag_403\n        /* \"#utility.yul\":13498:13501   */\n      dup3\n        /* \"#utility.yul\":13409:13502   */\n      tag_262\n      jump\t// in\n    tag_403:\n        /* \"#utility.yul\":13527:13529   */\n      0x40\n        /* \"#utility.yul\":13522:13525   */\n      dup3\n        /* \"#utility.yul\":13518:13530   */\n      add\n        /* \"#utility.yul\":13511:13530   */\n      swap1\n      pop\n        /* \"#utility.yul\":13170:13536   */\n      swap2\n      swap1\n      pop\n      jump\t// out\n        /* \"#utility.yul\":13542:13961   */\n    tag_114:\n        /* \"#utility.yul\":13708:13712   */\n      0x00\n        /* \"#utility.yul\":13746:13748   */\n      0x20\n        /* \"#utility.yul\":13735:13744   */\n      dup3\n        /* \"#utility.yul\":13731:13749   */\n      add\n        /* \"#utility.yul\":13723:13749   */\n      swap1\n      pop\n        /* \"#utility.yul\":13795:13804   */\n      dup2\n        /* \"#utility.yul\":13789:13793   */\n      dup2\n        /* \"#utility.yul\":13785:13805   */\n      sub\n        /* \"#utility.yul\":13781:13782   */\n      0x00\n        /* \"#utility.yul\":13770:13779   */\n      dup4\n        /* \"#utility.yul\":13766:13783   */\n      add\n        /* \"#utility.yul\":13759:13806   */\n      mstore\n        /* \"#utility.yul\":13823:13954   */\n      tag_405\n        /* \"#utility.yul\":13949:13953   */\n      dup2\n        /* \"#utility.yul\":13823:13954   */\n      tag_263\n      jump\t// in\n    tag_405:\n        /* \"#utility.yul\":13815:13954   */\n      swap1\n      pop\n        /* \"#utility.yul\":13542:13961   */\n      swap2\n      swap1\n      pop\n      jump\t// out\n        /* \"#utility.yul\":13967:14409   */\n    tag_116:\n        /* \"#utility.yul\":14116:14120   */\n      0x00\n        /* \"#utility.yul\":14154:14156   */\n      0x60\n        /* \"#utility.yul\":14143:14152   */\n      dup3\n        /* \"#utility.yul\":14139:14157   */\n      add\n        /* \"#utility.yul\":14131:14157   */\n      swap1\n      pop\n        /* \"#utility.yul\":14167:14238   */\n      tag_407\n        /* \"#utility.yul\":14235:14236   */\n      0x00\n        /* \"#utility.yul\":14224:14233   */\n      dup4\n        /* \"#utility.yul\":14220:14237   */\n      add\n        /* \"#utility.yul\":14211:14217   */\n      dup7\n        /* \"#utility.yul\":14167:14238   */\n      tag_252\n      jump\t// in\n    tag_407:\n        /* \"#utility.yul\":14248:14320   */\n      tag_408\n        /* \"#utility.yul\":14316:14318   */\n      0x20\n        /* \"#utility.yul\":14305:14314   */\n      dup4\n        /* \"#utility.yul\":14301:14319   */\n      add\n        /* \"#utility.yul\":14292:14298   */\n      dup6\n        /* \"#utility.yul\":14248:14320   */\n      tag_252\n      jump\t// in\n    tag_408:\n        /* \"#utility.yul\":14330:14402   */\n      tag_409\n        /* \"#utility.yul\":14398:14400   */\n      0x40\n        /* \"#utility.yul\":14387:14396   */\n      dup4\n        /* \"#utility.yul\":14383:14401   */\n      add\n        /* \"#utility.yul\":14374:14380   */\n      dup5\n        /* \"#utility.yul\":14330:14402   */\n      tag_227\n      jump\t// in\n    tag_409:\n        /* \"#utility.yul\":13967:14409   */\n      swap5\n      swap4\n      pop\n      pop\n      pop\n      pop\n      jump\t// out\n        /* \"#utility.yul\":14415:14638   */\n    tag_264:\n        /* \"#utility.yul\":14555:14589   */\n      0x4445583a204c69717569646974792063616c63756c6174696f6e73206d69736d\n        /* \"#utility.yul\":14551:14552   */\n      0x00\n        /* \"#utility.yul\":14543:14549   */\n      dup3\n        /* \"#utility.yul\":14539:14553   */\n      add\n        /* \"#utility.yul\":14532:14590   */\n      mstore\n        /* \"#utility.yul\":14624:14630   */\n      0x6174636800000000000000000000000000000000000000000000000000000000\n        /* \"#utility.yul\":14619:14621   */\n      0x20\n        /* \"#utility.yul\":14611:14617   */\n      dup3\n        /* \"#utility.yul\":14607:14622   */\n      add\n        /* \"#utility.yul\":14600:14631   */\n      mstore\n        /* \"#utility.yul\":14415:14638   */\n      pop\n      jump\t// out\n        /* \"#utility.yul\":14644:15010   */\n    tag_265:\n        /* \"#utility.yul\":14786:14789   */\n      0x00\n        /* \"#utility.yul\":14807:14874   */\n      tag_412\n        /* \"#utility.yul\":14871:14873   */\n      0x24\n        /* \"#utility.yul\":14866:14869   */\n      dup4\n        /* \"#utility.yul\":14807:14874   */\n      tag_241\n      jump\t// in\n    tag_412:\n        /* \"#utility.yul\":14800:14874   */\n      swap2\n      pop\n        /* \"#utility.yul\":14883:14976   */\n      tag_413\n        /* \"#utility.yul\":14972:14975   */\n      dup3\n        /* \"#utility.yul\":14883:14976   */\n      tag_264\n      jump\t// in\n    tag_413:\n        /* \"#utility.yul\":15001:15003   */\n      0x40\n        /* \"#utility.yul\":14996:14999   */\n      dup3\n        /* \"#utility.yul\":14992:15004   */\n      add\n        /* \"#utility.yul\":14985:15004   */\n      swap1\n      pop\n        /* \"#utility.yul\":14644:15010   */\n      swap2\n      swap1\n      pop\n      jump\t// out\n        /* \"#utility.yul\":15016:15435   */\n    tag_142:\n        /* \"#utility.yul\":15182:15186   */\n      0x00\n        /* \"#utility.yul\":15220:15222   */\n      0x20\n        /* \"#utility.yul\":15209:15218   */\n      dup3\n        /* \"#utility.yul\":15205:15223   */\n      add\n        /* \"#utility.yul\":15197:15223   */\n      swap1\n      pop\n        /* \"#utility.yul\":15269:15278   */\n      dup2\n        /* \"#utility.yul\":15263:15267   */\n      dup2\n        /* \"#utility.yul\":15259:15279   */\n      sub\n        /* \"#utility.yul\":15255:15256   */\n      0x00\n        /* \"#utility.yul\":15244:15253   */\n      dup4\n        /* \"#utility.yul\":15240:15257   */\n      add\n        /* \"#utility.yul\":15233:15280   */\n      mstore\n        /* \"#utility.yul\":15297:15428   */\n      tag_415\n        /* \"#utility.yul\":15423:15427   */\n      dup2\n        /* \"#utility.yul\":15297:15428   */\n      tag_265\n      jump\t// in\n    tag_415:\n        /* \"#utility.yul\":15289:15428   */\n      swap1\n      pop\n        /* \"#utility.yul\":15016:15435   */\n      swap2\n      swap1\n      pop\n      jump\t// out\n        /* \"#utility.yul\":15441:15662   */\n    tag_266:\n        /* \"#utility.yul\":15581:15615   */\n      0x4445583a20496e73756666696369656e74206c6971756964697479206d696e74\n        /* \"#utility.yul\":15577:15578   */\n      0x00\n        /* \"#utility.yul\":15569:15575   */\n      dup3\n        /* \"#utility.yul\":15565:15579   */\n      add\n        /* \"#utility.yul\":15558:15616   */\n      mstore\n        /* \"#utility.yul\":15650:15654   */\n      0x6564000000000000000000000000000000000000000000000000000000000000\n        /* \"#utility.yul\":15645:15647   */\n      0x20\n        /* \"#utility.yul\":15637:15643   */\n      dup3\n        /* \"#utility.yul\":15633:15648   */\n      add\n        /* \"#utility.yul\":15626:15655   */\n      mstore\n        /* \"#utility.yul\":15441:15662   */\n      pop\n      jump\t// out\n        /* \"#utility.yul\":15668:16034   */\n    tag_267:\n        /* \"#utility.yul\":15810:15813   */\n      0x00\n        /* \"#utility.yul\":15831:15898   */\n      tag_418\n        /* \"#utility.yul\":15895:15897   */\n      0x22\n        /* \"#utility.yul\":15890:15893   */\n      dup4\n        /* \"#utility.yul\":15831:15898   */\n      tag_241\n      jump\t// in\n    tag_418:\n        /* \"#utility.yul\":15824:15898   */\n      swap2\n      pop\n        /* \"#utility.yul\":15907:16000   */\n      tag_419\n        /* \"#utility.yul\":15996:15999   */\n      dup3\n        /* \"#utility.yul\":15907:16000   */\n      tag_266\n      jump\t// in\n    tag_419:\n        /* \"#utility.yul\":16025:16027   */\n      0x40\n        /* \"#utility.yul\":16020:16023   */\n      dup3\n        /* \"#utility.yul\":16016:16028   */\n      add\n        /* \"#utility.yul\":16009:16028   */\n      swap1\n      pop\n        /* \"#utility.yul\":15668:16034   */\n      swap2\n      swap1\n      pop\n      jump\t// out\n        /* \"#utility.yul\":16040:16459   */\n    tag_145:\n        /* \"#utility.yul\":16206:16210   */\n      0x00\n        /* \"#utility.yul\":16244:16246   */\n      0x20\n        /* \"#utility.yul\":16233:16242   */\n      dup3\n        /* \"#utility.yul\":16229:16247   */\n      add\n        /* \"#utility.yul\":16221:16247   */\n      swap1\n      pop\n        /* \"#utility.yul\":16293:16302   */\n      dup2\n        /* \"#utility.yul\":16287:16291   */\n      dup2\n        /* \"#utility.yul\":16283:16303   */\n      sub\n        /* \"#utility.yul\":16279:16280   */\n      0x00\n        /* \"#utility.yul\":16268:16277   */\n      dup4\n        /* \"#utility.yul\":16264:16281   */\n      add\n        /* \"#utility.yul\":16257:16304   */\n      mstore\n        /* \"#utility.yul\":16321:16452   */\n      tag_421\n        /* \"#utility.yul\":16447:16451   */\n      dup2\n        /* \"#utility.yul\":16321:16452   */\n      tag_267\n      jump\t// in\n    tag_421:\n        /* \"#utility.yul\":16313:16452   */\n      swap1\n      pop\n        /* \"#utility.yul\":16040:16459   */\n      swap2\n      swap1\n      pop\n      jump\t// out\n        /* \"#utility.yul\":16465:16656   */\n    tag_151:\n        /* \"#utility.yul\":16505:16508   */\n      0x00\n        /* \"#utility.yul\":16524:16544   */\n      tag_423\n        /* \"#utility.yul\":16542:16543   */\n      dup3\n        /* \"#utility.yul\":16524:16544   */\n      tag_226\n      jump\t// in\n    tag_423:\n        /* \"#utility.yul\":16519:16544   */\n      swap2\n      pop\n        /* \"#utility.yul\":16558:16578   */\n      tag_424\n        /* \"#utility.yul\":16576:16577   */\n      dup4\n        /* \"#utility.yul\":16558:16578   */\n      tag_226\n      jump\t// in\n    tag_424:\n        /* \"#utility.yul\":16553:16578   */\n      swap3\n      pop\n        /* \"#utility.yul\":16601:16602   */\n      dup3\n        /* \"#utility.yul\":16598:16599   */\n      dup3\n        /* \"#utility.yul\":16594:16603   */\n      add\n        /* \"#utility.yul\":16587:16603   */\n      swap1\n      pop\n        /* \"#utility.yul\":16622:16625   */\n      dup1\n        /* \"#utility.yul\":16619:16620   */\n      dup3\n        /* \"#utility.yul\":16616:16626   */\n      gt\n        /* \"#utility.yul\":16613:16649   */\n      iszero\n      tag_425\n      jumpi\n        /* \"#utility.yul\":16629:16647   */\n      tag_426\n      tag_247\n      jump\t// in\n    tag_426:\n        /* \"#utility.yul\":16613:16649   */\n    tag_425:\n        /* \"#utility.yul\":16465:16656   */\n      swap3\n      swap2\n      pop\n      pop\n      jump\t// out\n        /* \"#utility.yul\":16662:16892   */\n    tag_268:\n        /* \"#utility.yul\":16802:16836   */\n      0x4445583a20496e70757420616d6f756e74206d75737420626520677265617465\n        /* \"#utility.yul\":16798:16799   */\n      0x00\n        /* \"#utility.yul\":16790:16796   */\n      dup3\n        /* \"#utility.yul\":16786:16800   */\n      add\n        /* \"#utility.yul\":16779:16837   */\n      mstore\n        /* \"#utility.yul\":16871:16884   */\n      0x72207468616e207a65726f000000000000000000000000000000000000000000\n        /* \"#utility.yul\":16866:16868   */\n      0x20\n        /* \"#utility.yul\":16858:16864   */\n      dup3\n        /* \"#utility.yul\":16854:16869   */\n      add\n        /* \"#utility.yul\":16847:16885   */\n      mstore\n        /* \"#utility.yul\":16662:16892   */\n      pop\n      jump\t// out\n        /* \"#utility.yul\":16898:17264   */\n    tag_269:\n        /* \"#utility.yul\":17040:17043   */\n      0x00\n        /* \"#utility.yul\":17061:17128   */\n      tag_429\n        /* \"#utility.yul\":17125:17127   */\n      0x2b\n        /* \"#utility.yul\":17120:17123   */\n      dup4\n        /* \"#utility.yul\":17061:17128   */\n      tag_241\n      jump\t// in\n    tag_429:\n        /* \"#utility.yul\":17054:17128   */\n      swap2\n      pop\n        /* \"#utility.yul\":17137:17230   */\n      tag_430\n        /* \"#utility.yul\":17226:17229   */\n      dup3\n        /* \"#utility.yul\":17137:17230   */\n      tag_268\n      jump\t// in\n    tag_430:\n        /* \"#utility.yul\":17255:17257   */\n      0x40\n        /* \"#utility.yul\":17250:17253   */\n      dup3\n        /* \"#utility.yul\":17246:17258   */\n      add\n        /* \"#utility.yul\":17239:17258   */\n      swap1\n      pop\n        /* \"#utility.yul\":16898:17264   */\n      swap2\n      swap1\n      pop\n      jump\t// out\n        /* \"#utility.yul\":17270:17689   */\n    tag_156:\n        /* \"#utility.yul\":17436:17440   */\n      0x00\n        /* \"#utility.yul\":17474:17476   */\n      0x20\n        /* \"#utility.yul\":17463:17472   */\n      dup3\n        /* \"#utility.yul\":17459:17477   */\n      add\n        /* \"#utility.yul\":17451:17477   */\n      swap1\n      pop\n        /* \"#utility.yul\":17523:17532   */\n      dup2\n        /* \"#utility.yul\":17517:17521   */\n      dup2\n        /* \"#utility.yul\":17513:17533   */\n      sub\n        /* \"#utility.yul\":17509:17510   */\n      0x00\n        /* \"#utility.yul\":17498:17507   */\n      dup4\n        /* \"#utility.yul\":17494:17511   */\n      add\n        /* \"#utility.yul\":17487:17534   */\n      mstore\n        /* \"#utility.yul\":17551:17682   */\n      tag_432\n        /* \"#utility.yul\":17677:17681   */\n      dup2\n        /* \"#utility.yul\":17551:17682   */\n      tag_269\n      jump\t// in\n    tag_432:\n        /* \"#utility.yul\":17543:17682   */\n      swap1\n      pop\n        /* \"#utility.yul\":17270:17689   */\n      swap2\n      swap1\n      pop\n      jump\t// out\n        /* \"#utility.yul\":17695:17876   */\n    tag_270:\n        /* \"#utility.yul\":17835:17868   */\n      0x4445583a20496e73756666696369656e74206f757470757420616d6f756e7400\n        /* \"#utility.yul\":17831:17832   */\n      0x00\n        /* \"#utility.yul\":17823:17829   */\n      dup3\n        /* \"#utility.yul\":17819:17833   */\n      add\n        /* \"#utility.yul\":17812:17869   */\n      mstore\n        /* \"#utility.yul\":17695:17876   */\n      pop\n      jump\t// out\n        /* \"#utility.yul\":17882:18248   */\n    tag_271:\n        /* \"#utility.yul\":18024:18027   */\n      0x00\n        /* \"#utility.yul\":18045:18112   */\n      tag_435\n        /* \"#utility.yul\":18109:18111   */\n      0x1f\n        /* \"#utility.yul\":18104:18107   */\n      dup4\n        /* \"#utility.yul\":18045:18112   */\n      tag_241\n      jump\t// in\n    tag_435:\n        /* \"#utility.yul\":18038:18112   */\n      swap2\n      pop\n        /* \"#utility.yul\":18121:18214   */\n      tag_436\n        /* \"#utility.yul\":18210:18213   */\n      dup3\n        /* \"#utility.yul\":18121:18214   */\n      tag_270\n      jump\t// in\n    tag_436:\n        /* \"#utility.yul\":18239:18241   */\n      0x20\n        /* \"#utility.yul\":18234:18237   */\n      dup3\n        /* \"#utility.yul\":18230:18242   */\n      add\n        /* \"#utility.yul\":18223:18242   */\n      swap1\n      pop\n        /* \"#utility.yul\":17882:18248   */\n      swap2\n      swap1\n      pop\n      jump\t// out\n        /* \"#utility.yul\":18254:18673   */\n    tag_170:\n        /* \"#utility.yul\":18420:18424   */\n      0x00\n        /* \"#utility.yul\":18458:18460   */\n      0x20\n        /* \"#utility.yul\":18447:18456   */\n      dup3\n        /* \"#utility.yul\":18443:18461   */\n      add\n        /* \"#utility.yul\":18435:18461   */\n      swap1\n      pop\n        /* \"#utility.yul\":18507:18516   */\n      dup2\n        /* \"#utility.yul\":18501:18505   */\n      dup2\n        /* \"#utility.yul\":18497:18517   */\n      sub\n        /* \"#utility.yul\":18493:18494   */\n      0x00\n        /* \"#utility.yul\":18482:18491   */\n      dup4\n        /* \"#utility.yul\":18478:18495   */\n      add\n        /* \"#utility.yul\":18471:18518   */\n      mstore\n        /* \"#utility.yul\":18535:18666   */\n      tag_438\n        /* \"#utility.yul\":18661:18665   */\n      dup2\n        /* \"#utility.yul\":18535:18666   */\n      tag_271\n      jump\t// in\n    tag_438:\n        /* \"#utility.yul\":18527:18666   */\n      swap1\n      pop\n        /* \"#utility.yul\":18254:18673   */\n      swap2\n      swap1\n      pop\n      jump\t// out\n        /* \"#utility.yul\":18679:18851   */\n    tag_272:\n        /* \"#utility.yul\":18819:18843   */\n      0x4445583a204e6f20546f6b656e41207265736572766500000000000000000000\n        /* \"#utility.yul\":18815:18816   */\n      0x00\n        /* \"#utility.yul\":18807:18813   */\n      dup3\n        /* \"#utility.yul\":18803:18817   */\n      add\n        /* \"#utility.yul\":18796:18844   */\n      mstore\n        /* \"#utility.yul\":18679:18851   */\n      pop\n      jump\t// out\n        /* \"#utility.yul\":18857:19223   */\n    tag_273:\n        /* \"#utility.yul\":18999:19002   */\n      0x00\n        /* \"#utility.yul\":19020:19087   */\n      tag_441\n        /* \"#utility.yul\":19084:19086   */\n      0x16\n        /* \"#utility.yul\":19079:19082   */\n      dup4\n        /* \"#utility.yul\":19020:19087   */\n      tag_241\n      jump\t// in\n    tag_441:\n        /* \"#utility.yul\":19013:19087   */\n      swap2\n      pop\n        /* \"#utility.yul\":19096:19189   */\n      tag_442\n        /* \"#utility.yul\":19185:19188   */\n      dup3\n        /* \"#utility.yul\":19096:19189   */\n      tag_272\n      jump\t// in\n    tag_442:\n        /* \"#utility.yul\":19214:19216   */\n      0x20\n        /* \"#utility.yul\":19209:19212   */\n      dup3\n        /* \"#utility.yul\":19205:19217   */\n      add\n        /* \"#utility.yul\":19198:19217   */\n      swap1\n      pop\n        /* \"#utility.yul\":18857:19223   */\n      swap2\n      swap1\n      pop\n      jump\t// out\n        /* \"#utility.yul\":19229:19648   */\n    tag_182:\n        /* \"#utility.yul\":19395:19399   */\n      0x00\n        /* \"#utility.yul\":19433:19435   */\n      0x20\n        /* \"#utility.yul\":19422:19431   */\n      dup3\n        /* \"#utility.yul\":19418:19436   */\n      add\n        /* \"#utility.yul\":19410:19436   */\n      swap1\n      pop\n        /* \"#utility.yul\":19482:19491   */\n      dup2\n        /* \"#utility.yul\":19476:19480   */\n      dup2\n        /* \"#utility.yul\":19472:19492   */\n      sub\n        /* \"#utility.yul\":19468:19469   */\n      0x00\n        /* \"#utility.yul\":19457:19466   */\n      dup4\n        /* \"#utility.yul\":19453:19470   */\n      add\n        /* \"#utility.yul\":19446:19493   */\n      mstore\n        /* \"#utility.yul\":19510:19641   */\n      tag_444\n        /* \"#utility.yul\":19636:19640   */\n      dup2\n        /* \"#utility.yul\":19510:19641   */\n      tag_273\n      jump\t// in\n    tag_444:\n        /* \"#utility.yul\":19502:19641   */\n      swap1\n      pop\n        /* \"#utility.yul\":19229:19648   */\n      swap2\n      swap1\n      pop\n      jump\t// out\n        /* \"#utility.yul\":19654:19826   */\n    tag_274:\n        /* \"#utility.yul\":19794:19818   */\n      0x4445583a204e6f20546f6b656e42207265736572766500000000000000000000\n        /* \"#utility.yul\":19790:19791   */\n      0x00\n        /* \"#utility.yul\":19782:19788   */\n      dup3\n        /* \"#utility.yul\":19778:19792   */\n      add\n        /* \"#utility.yul\":19771:19819   */\n      mstore\n        /* \"#utility.yul\":19654:19826   */\n      pop\n      jump\t// out\n        /* \"#utility.yul\":19832:20198   */\n    tag_275:\n        /* \"#utility.yul\":19974:19977   */\n      0x00\n        /* \"#utility.yul\":19995:20062   */\n      tag_447\n        /* \"#utility.yul\":20059:20061   */\n      0x16\n        /* \"#utility.yul\":20054:20057   */\n      dup4\n        /* \"#utility.yul\":19995:20062   */\n      tag_241\n      jump\t// in\n    tag_447:\n        /* \"#utility.yul\":19988:20062   */\n      swap2\n      pop\n        /* \"#utility.yul\":20071:20164   */\n      tag_448\n        /* \"#utility.yul\":20160:20163   */\n      dup3\n        /* \"#utility.yul\":20071:20164   */\n      tag_274\n      jump\t// in\n    tag_448:\n        /* \"#utility.yul\":20189:20191   */\n      0x20\n        /* \"#utility.yul\":20184:20187   */\n      dup3\n        /* \"#utility.yul\":20180:20192   */\n      add\n        /* \"#utility.yul\":20173:20192   */\n      swap1\n      pop\n        /* \"#utility.yul\":19832:20198   */\n      swap2\n      swap1\n      pop\n      jump\t// out\n        /* \"#utility.yul\":20204:20623   */\n    tag_188:\n        /* \"#utility.yul\":20370:20374   */\n      0x00\n        /* \"#utility.yul\":20408:20410   */\n      0x20\n        /* \"#utility.yul\":20397:20406   */\n      dup3\n        /* \"#utility.yul\":20393:20411   */\n      add\n        /* \"#utility.yul\":20385:20411   */\n      swap1\n      pop\n        /* \"#utility.yul\":20457:20466   */\n      dup2\n        /* \"#utility.yul\":20451:20455   */\n      dup2\n        /* \"#utility.yul\":20447:20467   */\n      sub\n        /* \"#utility.yul\":20443:20444   */\n      0x00\n        /* \"#utility.yul\":20432:20441   */\n      dup4\n        /* \"#utility.yul\":20428:20445   */\n      add\n        /* \"#utility.yul\":20421:20468   */\n      mstore\n        /* \"#utility.yul\":20485:20616   */\n      tag_450\n        /* \"#utility.yul\":20611:20615   */\n      dup2\n        /* \"#utility.yul\":20485:20616   */\n      tag_275\n      jump\t// in\n    tag_450:\n        /* \"#utility.yul\":20477:20616   */\n      swap1\n      pop\n        /* \"#utility.yul\":20204:20623   */\n      swap2\n      swap1\n      pop\n      jump\t// out\n\n    auxdata: 0xa2646970667358221220d6ed53ac29c90552e5901492f2dde03ec3b60c82f100c2c8826bbf3474975f6e64736f6c634300081a0033\n}\n\nsub_1: assembly {\n        /* \"contracts/LPToken.sol\":115:1062  contract LPToken is ERC20 {... */\n      mstore(0x40, 0x80)\n        /* \"contracts/LPToken.sol\":248:355  constructor(string memory name, string memory symbol) ERC20(name, symbol) {... */\n      callvalue\n      dup1\n      iszero\n      tag_1\n      jumpi\n      0x00\n      dup1\n      revert\n    tag_1:\n      pop\n      mload(0x40)\n      sub(codesize, bytecodeSize)\n      dup1\n      bytecodeSize\n      dup4\n      codecopy\n      dup2\n      dup2\n      add\n      0x40\n      mstore\n      dup2\n      add\n      swap1\n      tag_2\n      swap2\n      swap1\n      tag_3\n      jump\t// in\n    tag_2:\n        /* \"contracts/LPToken.sol\":308:312  name */\n      dup2\n        /* \"contracts/LPToken.sol\":314:320  symbol */\n      dup2\n        /* \"@openzeppelin/contracts/token/ERC20/ERC20.sol\":1656:1661  name_ */\n      dup2\n        /* \"@openzeppelin/contracts/token/ERC20/ERC20.sol\":1648:1653  _name */\n      0x03\n        /* \"@openzeppelin/contracts/token/ERC20/ERC20.sol\":1648:1661  _name = name_ */\n      swap1\n      dup2\n      tag_7\n      swap2\n      swap1\n      tag_8\n      jump\t// in\n    tag_7:\n      pop\n        /* \"@openzeppelin/contracts/token/ERC20/ERC20.sol\":1681:1688  symbol_ */\n      dup1\n        /* \"@openzeppelin/contracts/token/ERC20/ERC20.sol\":1671:1678  _symbol */\n      0x04\n        /* \"@openzeppelin/contracts/token/ERC20/ERC20.sol\":1671:1688  _symbol = symbol_ */\n      swap1\n      dup2\n      tag_9\n      swap2\n      swap1\n      tag_8\n      jump\t// in\n    tag_9:\n      pop\n        /* \"@openzeppelin/contracts/token/ERC20/ERC20.sol\":1582:1695  constructor(string memory name_, string memory symbol_) {... */\n      pop\n      pop\n        /* \"contracts/LPToken.sol\":338:348  msg.sender */\n      caller\n        /* \"contracts/LPToken.sol\":332:335  dex */\n      0x05\n      0x00\n        /* \"contracts/LPToken.sol\":332:348  dex = msg.sender */\n      0x0100\n      exp\n      dup2\n      sload\n      dup2\n      0xffffffffffffffffffffffffffffffffffffffff\n      mul\n      not\n      and\n      swap1\n      dup4\n      0xffffffffffffffffffffffffffffffffffffffff\n      and\n      mul\n      or\n      swap1\n      sstore\n      pop\n        /* \"contracts/LPToken.sol\":248:355  constructor(string memory name, string memory symbol) ERC20(name, symbol) {... */\n      pop\n      pop\n        /* \"contracts/LPToken.sol\":115:1062  contract LPToken is ERC20 {... */\n      jump(tag_11)\n        /* \"#utility.yul\":7:82   */\n    tag_12:\n        /* \"#utility.yul\":40:46   */\n      0x00\n        /* \"#utility.yul\":73:75   */\n      0x40\n        /* \"#utility.yul\":67:76   */\n      mload\n        /* \"#utility.yul\":57:76   */\n      swap1\n      pop\n        /* \"#utility.yul\":7:82   */\n      swap1\n      jump\t// out\n        /* \"#utility.yul\":88:205   */\n    tag_13:\n        /* \"#utility.yul\":197:198   */\n      0x00\n        /* \"#utility.yul\":194:195   */\n      dup1\n        /* \"#utility.yul\":187:199   */\n      revert\n        /* \"#utility.yul\":211:328   */\n    tag_14:\n        /* \"#utility.yul\":320:321   */\n      0x00\n        /* \"#utility.yul\":317:318   */\n      dup1\n        /* \"#utility.yul\":310:322   */\n      revert\n        /* \"#utility.yul\":334:451   */\n    tag_15:\n        /* \"#utility.yul\":443:444   */\n      0x00\n        /* \"#utility.yul\":440:441   */\n      dup1\n        /* \"#utility.yul\":433:445   */\n      revert\n        /* \"#utility.yul\":457:574   */\n    tag_16:\n        /* \"#utility.yul\":566:567   */\n      0x00\n        /* \"#utility.yul\":563:564   */\n      dup1\n        /* \"#utility.yul\":556:568   */\n      revert\n        /* \"#utility.yul\":580:682   */\n    tag_17:\n        /* \"#utility.yul\":621:627   */\n      0x00\n        /* \"#utility.yul\":672:674   */\n      0x1f\n        /* \"#utility.yul\":668:675   */\n      not\n        /* \"#utility.yul\":663:665   */\n      0x1f\n        /* \"#utility.yul\":656:661   */\n      dup4\n        /* \"#utility.yul\":652:666   */\n      add\n        /* \"#utility.yul\":648:676   */\n      and\n        /* \"#utility.yul\":638:676   */\n      swap1\n      pop\n        /* \"#utility.yul\":580:682   */\n      swap2\n      swap1\n      pop\n      jump\t// out\n        /* \"#utility.yul\":688:868   */\n    tag_18:\n        /* \"#utility.yul\":736:813   */\n      0x4e487b7100000000000000000000000000000000000000000000000000000000\n        /* \"#utility.yul\":733:734   */\n      0x00\n        /* \"#utility.yul\":726:814   */\n      mstore\n        /* \"#utility.yul\":833:837   */\n      0x41\n        /* \"#utility.yul\":830:831   */\n      0x04\n        /* \"#utility.yul\":823:838   */\n      mstore\n        /* \"#utility.yul\":857:861   */\n      0x24\n        /* \"#utility.yul\":854:855   */\n      0x00\n        /* \"#utility.yul\":847:862   */\n      revert\n        /* \"#utility.yul\":874:1155   */\n    tag_19:\n        /* \"#utility.yul\":957:984   */\n      tag_53\n        /* \"#utility.yul\":979:983   */\n      dup3\n        /* \"#utility.yul\":957:984   */\n      tag_17\n      jump\t// in\n    tag_53:\n        /* \"#utility.yul\":949:955   */\n      dup2\n        /* \"#utility.yul\":945:985   */\n      add\n        /* \"#utility.yul\":1087:1093   */\n      dup2\n        /* \"#utility.yul\":1075:1085   */\n      dup2\n        /* \"#utility.yul\":1072:1094   */\n      lt\n        /* \"#utility.yul\":1051:1069   */\n      0xffffffffffffffff\n        /* \"#utility.yul\":1039:1049   */\n      dup3\n        /* \"#utility.yul\":1036:1070   */\n      gt\n        /* \"#utility.yul\":1033:1095   */\n      or\n        /* \"#utility.yul\":1030:1118   */\n      iszero\n      tag_54\n      jumpi\n        /* \"#utility.yul\":1098:1116   */\n      tag_55\n      tag_18\n      jump\t// in\n    tag_55:\n        /* \"#utility.yul\":1030:1118   */\n    tag_54:\n        /* \"#utility.yul\":1138:1148   */\n      dup1\n        /* \"#utility.yul\":1134:1136   */\n      0x40\n        /* \"#utility.yul\":1127:1149   */\n      mstore\n        /* \"#utility.yul\":917:1155   */\n      pop\n        /* \"#utility.yul\":874:1155   */\n      pop\n      pop\n      jump\t// out\n        /* \"#utility.yul\":1161:1290   */\n    tag_20:\n        /* \"#utility.yul\":1195:1201   */\n      0x00\n        /* \"#utility.yul\":1222:1242   */\n      tag_57\n      tag_12\n      jump\t// in\n    tag_57:\n        /* \"#utility.yul\":1212:1242   */\n      swap1\n      pop\n        /* \"#utility.yul\":1251:1284   */\n      tag_58\n        /* \"#utility.yul\":1279:1283   */\n      dup3\n        /* \"#utility.yul\":1271:1277   */\n      dup3\n        /* \"#utility.yul\":1251:1284   */\n      tag_19\n      jump\t// in\n    tag_58:\n        /* \"#utility.yul\":1161:1290   */\n      swap2\n      swap1\n      pop\n      jump\t// out\n        /* \"#utility.yul\":1296:1604   */\n    tag_21:\n        /* \"#utility.yul\":1358:1362   */\n      0x00\n        /* \"#utility.yul\":1448:1466   */\n      0xffffffffffffffff\n        /* \"#utility.yul\":1440:1446   */\n      dup3\n        /* \"#utility.yul\":1437:1467   */\n      gt\n        /* \"#utility.yul\":1434:1490   */\n      iszero\n      tag_60\n      jumpi\n        /* \"#utility.yul\":1470:1488   */\n      tag_61\n      tag_18\n      jump\t// in\n    tag_61:\n        /* \"#utility.yul\":1434:1490   */\n    tag_60:\n        /* \"#utility.yul\":1508:1537   */\n      tag_62\n        /* \"#utility.yul\":1530:1536   */\n      dup3\n        /* \"#utility.yul\":1508:1537   */\n      tag_17\n      jump\t// in\n    tag_62:\n        /* \"#utility.yul\":1500:1537   */\n      swap1\n      pop\n        /* \"#utility.yul\":1592:1596   */\n      0x20\n        /* \"#utility.yul\":1586:1590   */\n      dup2\n        /* \"#utility.yul\":1582:1597   */\n      add\n        /* \"#utility.yul\":1574:1597   */\n      swap1\n      pop\n        /* \"#utility.yul\":1296:1604   */\n      swap2\n      swap1\n      pop\n      jump\t// out\n        /* \"#utility.yul\":1610:1749   */\n    tag_22:\n        /* \"#utility.yul\":1699:1705   */\n      dup3\n        /* \"#utility.yul\":1694:1697   */\n      dup2\n        /* \"#utility.yul\":1689:1692   */\n      dup4\n        /* \"#utility.yul\":1683:1706   */\n      mcopy\n        /* \"#utility.yul\":1740:1741   */\n      0x00\n        /* \"#utility.yul\":1731:1737   */\n      dup4\n        /* \"#utility.yul\":1726:1729   */\n      dup4\n        /* \"#utility.yul\":1722:1738   */\n      add\n        /* \"#utility.yul\":1715:1742   */\n      mstore\n        /* \"#utility.yul\":1610:1749   */\n      pop\n      pop\n      pop\n      jump\t// out\n        /* \"#utility.yul\":1755:2189   */\n    tag_23:\n        /* \"#utility.yul\":1844:1849   */\n      0x00\n        /* \"#utility.yul\":1869:1935   */\n      tag_65\n        /* \"#utility.yul\":1885:1934   */\n      tag_66\n        /* \"#utility.yul\":1927:1933   */\n      dup5\n        /* \"#utility.yul\":1885:1934   */\n      tag_21\n      jump\t// in\n    tag_66:\n        /* \"#utility.yul\":1869:1935   */\n      tag_20\n      jump\t// in\n    tag_65:\n        /* \"#utility.yul\":1860:1935   */\n      swap1\n      pop\n        /* \"#utility.yul\":1958:1964   */\n      dup3\n        /* \"#utility.yul\":1951:1956   */\n      dup2\n        /* \"#utility.yul\":1944:1965   */\n      mstore\n        /* \"#utility.yul\":1996:2000   */\n      0x20\n        /* \"#utility.yul\":1989:1994   */\n      dup2\n        /* \"#utility.yul\":1985:2001   */\n      add\n        /* \"#utility.yul\":2034:2037   */\n      dup5\n        /* \"#utility.yul\":2025:2031   */\n      dup5\n        /* \"#utility.yul\":2020:2023   */\n      dup5\n        /* \"#utility.yul\":2016:2032   */\n      add\n        /* \"#utility.yul\":2013:2038   */\n      gt\n        /* \"#utility.yul\":2010:2122   */\n      iszero\n      tag_67\n      jumpi\n        /* \"#utility.yul\":2041:2120   */\n      tag_68\n      tag_16\n      jump\t// in\n    tag_68:\n        /* \"#utility.yul\":2010:2122   */\n    tag_67:\n        /* \"#utility.yul\":2131:2183   */\n      tag_69\n        /* \"#utility.yul\":2176:2182   */\n      dup5\n        /* \"#utility.yul\":2171:2174   */\n      dup3\n        /* \"#utility.yul\":2166:2169   */\n      dup6\n        /* \"#utility.yul\":2131:2183   */\n      tag_22\n      jump\t// in\n    tag_69:\n        /* \"#utility.yul\":1850:2189   */\n      pop\n        /* \"#utility.yul\":1755:2189   */\n      swap4\n      swap3\n      pop\n      pop\n      pop\n      jump\t// out\n        /* \"#utility.yul\":2209:2564   */\n    tag_24:\n        /* \"#utility.yul\":2276:2281   */\n      0x00\n        /* \"#utility.yul\":2325:2328   */\n      dup3\n        /* \"#utility.yul\":2318:2322   */\n      0x1f\n        /* \"#utility.yul\":2310:2316   */\n      dup4\n        /* \"#utility.yul\":2306:2323   */\n      add\n        /* \"#utility.yul\":2302:2329   */\n      slt\n        /* \"#utility.yul\":2292:2414   */\n      tag_71\n      jumpi\n        /* \"#utility.yul\":2333:2412   */\n      tag_72\n      tag_15\n      jump\t// in\n    tag_72:\n        /* \"#utility.yul\":2292:2414   */\n    tag_71:\n        /* \"#utility.yul\":2443:2449   */\n      dup2\n        /* \"#utility.yul\":2437:2450   */\n      mload\n        /* \"#utility.yul\":2468:2558   */\n      tag_73\n        /* \"#utility.yul\":2554:2557   */\n      dup5\n        /* \"#utility.yul\":2546:2552   */\n      dup3\n        /* \"#utility.yul\":2539:2543   */\n      0x20\n        /* \"#utility.yul\":2531:2537   */\n      dup7\n        /* \"#utility.yul\":2527:2544   */\n      add\n        /* \"#utility.yul\":2468:2558   */\n      tag_23\n      jump\t// in\n    tag_73:\n        /* \"#utility.yul\":2459:2558   */\n      swap2\n      pop\n        /* \"#utility.yul\":2282:2564   */\n      pop\n        /* \"#utility.yul\":2209:2564   */\n      swap3\n      swap2\n      pop\n      pop\n      jump\t// out\n        /* \"#utility.yul\":2570:3423   */\n    tag_3:\n        /* \"#utility.yul\":2669:2675   */\n      0x00\n        /* \"#utility.yul\":2677:2683   */\n      dup1\n        /* \"#utility.yul\":2726:2728   */\n      0x40\n        /* \"#utility.yul\":2714:2723   */\n      dup4\n        /* \"#utility.yul\":2705:2712   */\n      dup6\n        /* \"#utility.yul\":2701:2724   */\n      sub\n        /* \"#utility.yul\":2697:2729   */\n      slt\n        /* \"#utility.yul\":2694:2813   */\n      iszero\n      tag_75\n      jumpi\n        /* \"#utility.yul\":2732:2811   */\n      tag_76\n      tag_13\n      jump\t// in\n    tag_76:\n        /* \"#utility.yul\":2694:2813   */\n    tag_75:\n        /* \"#utility.yul\":2873:2874   */\n      0x00\n        /* \"#utility.yul\":2862:2871   */\n      dup4\n        /* \"#utility.yul\":2858:2875   */\n      add\n        /* \"#utility.yul\":2852:2876   */\n      mload\n        /* \"#utility.yul\":2903:2921   */\n      0xffffffffffffffff\n        /* \"#utility.yul\":2895:2901   */\n      dup2\n        /* \"#utility.yul\":2892:2922   */\n      gt\n        /* \"#utility.yul\":2889:3006   */\n      iszero\n      tag_77\n      jumpi\n        /* \"#utility.yul\":2925:3004   */\n      tag_78\n      tag_14\n      jump\t// in\n    tag_78:\n        /* \"#utility.yul\":2889:3006   */\n    tag_77:\n        /* \"#utility.yul\":3030:3104   */\n      tag_79\n        /* \"#utility.yul\":3096:3103   */\n      dup6\n        /* \"#utility.yul\":3087:3093   */\n      dup3\n        /* \"#utility.yul\":3076:3085   */\n      dup7\n        /* \"#utility.yul\":3072:3094   */\n      add\n        /* \"#utility.yul\":3030:3104   */\n      tag_24\n      jump\t// in\n    tag_79:\n        /* \"#utility.yul\":3020:3104   */\n      swap3\n      pop\n        /* \"#utility.yul\":2823:3114   */\n      pop\n        /* \"#utility.yul\":3174:3176   */\n      0x20\n        /* \"#utility.yul\":3163:3172   */\n      dup4\n        /* \"#utility.yul\":3159:3177   */\n      add\n        /* \"#utility.yul\":3153:3178   */\n      mload\n        /* \"#utility.yul\":3205:3223   */\n      0xffffffffffffffff\n        /* \"#utility.yul\":3197:3203   */\n      dup2\n        /* \"#utility.yul\":3194:3224   */\n      gt\n        /* \"#utility.yul\":3191:3308   */\n      iszero\n      tag_80\n      jumpi\n        /* \"#utility.yul\":3227:3306   */\n      tag_81\n      tag_14\n      jump\t// in\n    tag_81:\n        /* \"#utility.yul\":3191:3308   */\n    tag_80:\n        /* \"#utility.yul\":3332:3406   */\n      tag_82\n        /* \"#utility.yul\":3398:3405   */\n      dup6\n        /* \"#utility.yul\":3389:3395   */\n      dup3\n        /* \"#utility.yul\":3378:3387   */\n      dup7\n        /* \"#utility.yul\":3374:3396   */\n      add\n        /* \"#utility.yul\":3332:3406   */\n      tag_24\n      jump\t// in\n    tag_82:\n        /* \"#utility.yul\":3322:3406   */\n      swap2\n      pop\n        /* \"#utility.yul\":3124:3416   */\n      pop\n        /* \"#utility.yul\":2570:3423   */\n      swap3\n      pop\n      swap3\n      swap1\n      pop\n      jump\t// out\n        /* \"#utility.yul\":3429:3528   */\n    tag_25:\n        /* \"#utility.yul\":3481:3487   */\n      0x00\n        /* \"#utility.yul\":3515:3520   */\n      dup2\n        /* \"#utility.yul\":3509:3521   */\n      mload\n        /* \"#utility.yul\":3499:3521   */\n      swap1\n      pop\n        /* \"#utility.yul\":3429:3528   */\n      swap2\n      swap1\n      pop\n      jump\t// out\n        /* \"#utility.yul\":3534:3714   */\n    tag_26:\n        /* \"#utility.yul\":3582:3659   */\n      0x4e487b7100000000000000000000000000000000000000000000000000000000\n        /* \"#utility.yul\":3579:3580   */\n      0x00\n        /* \"#utility.yul\":3572:3660   */\n      mstore\n        /* \"#utility.yul\":3679:3683   */\n      0x22\n        /* \"#utility.yul\":3676:3677   */\n      0x04\n        /* \"#utility.yul\":3669:3684   */\n      mstore\n        /* \"#utility.yul\":3703:3707   */\n      0x24\n        /* \"#utility.yul\":3700:3701   */\n      0x00\n        /* \"#utility.yul\":3693:3708   */\n      revert\n        /* \"#utility.yul\":3720:4040   */\n    tag_27:\n        /* \"#utility.yul\":3764:3770   */\n      0x00\n        /* \"#utility.yul\":3801:3802   */\n      0x02\n        /* \"#utility.yul\":3795:3799   */\n      dup3\n        /* \"#utility.yul\":3791:3803   */\n      div\n        /* \"#utility.yul\":3781:3803   */\n      swap1\n      pop\n        /* \"#utility.yul\":3848:3849   */\n      0x01\n        /* \"#utility.yul\":3842:3846   */\n      dup3\n        /* \"#utility.yul\":3838:3850   */\n      and\n        /* \"#utility.yul\":3869:3887   */\n      dup1\n        /* \"#utility.yul\":3859:3940   */\n      tag_86\n      jumpi\n        /* \"#utility.yul\":3925:3929   */\n      0x7f\n        /* \"#utility.yul\":3917:3923   */\n      dup3\n        /* \"#utility.yul\":3913:3930   */\n      and\n        /* \"#utility.yul\":3903:3930   */\n      swap2\n      pop\n        /* \"#utility.yul\":3859:3940   */\n    tag_86:\n        /* \"#utility.yul\":3987:3989   */\n      0x20\n        /* \"#utility.yul\":3979:3985   */\n      dup3\n        /* \"#utility.yul\":3976:3990   */\n      lt\n        /* \"#utility.yul\":3956:3974   */\n      dup2\n        /* \"#utility.yul\":3953:3991   */\n      sub\n        /* \"#utility.yul\":3950:4034   */\n      tag_87\n      jumpi\n        /* \"#utility.yul\":4006:4024   */\n      tag_88\n      tag_26\n      jump\t// in\n    tag_88:\n        /* \"#utility.yul\":3950:4034   */\n    tag_87:\n        /* \"#utility.yul\":3771:4040   */\n      pop\n        /* \"#utility.yul\":3720:4040   */\n      swap2\n      swap1\n      pop\n      jump\t// out\n        /* \"#utility.yul\":4046:4187   */\n    tag_28:\n        /* \"#utility.yul\":4095:4099   */\n      0x00\n        /* \"#utility.yul\":4118:4121   */\n      dup2\n        /* \"#utility.yul\":4110:4121   */\n      swap1\n      pop\n        /* \"#utility.yul\":4141:4144   */\n      dup2\n        /* \"#utility.yul\":4138:4139   */\n      0x00\n        /* \"#utility.yul\":4131:4145   */\n      mstore\n        /* \"#utility.yul\":4175:4179   */\n      0x20\n        /* \"#utility.yul\":4172:4173   */\n      0x00\n        /* \"#utility.yul\":4162:4180   */\n      keccak256\n        /* \"#utility.yul\":4154:4180   */\n      swap1\n      pop\n        /* \"#utility.yul\":4046:4187   */\n      swap2\n      swap1\n      pop\n      jump\t// out\n        /* \"#utility.yul\":4193:4286   */\n    tag_29:\n        /* \"#utility.yul\":4230:4236   */\n      0x00\n        /* \"#utility.yul\":4277:4279   */\n      0x20\n        /* \"#utility.yul\":4272:4274   */\n      0x1f\n        /* \"#utility.yul\":4265:4270   */\n      dup4\n        /* \"#utility.yul\":4261:4275   */\n      add\n        /* \"#utility.yul\":4257:4280   */\n      div\n        /* \"#utility.yul\":4247:4280   */\n      swap1\n      pop\n        /* \"#utility.yul\":4193:4286   */\n      swap2\n      swap1\n      pop\n      jump\t// out\n        /* \"#utility.yul\":4292:4399   */\n    tag_30:\n        /* \"#utility.yul\":4336:4344   */\n      0x00\n        /* \"#utility.yul\":4386:4391   */\n      dup3\n        /* \"#utility.yul\":4380:4384   */\n      dup3\n        /* \"#utility.yul\":4376:4392   */\n      shl\n        /* \"#utility.yul\":4355:4392   */\n      swap1\n      pop\n        /* \"#utility.yul\":4292:4399   */\n      swap3\n      swap2\n      pop\n      pop\n      jump\t// out\n        /* \"#utility.yul\":4405:4798   */\n    tag_31:\n        /* \"#utility.yul\":4474:4480   */\n      0x00\n        /* \"#utility.yul\":4524:4525   */\n      0x08\n        /* \"#utility.yul\":4512:4522   */\n      dup4\n        /* \"#utility.yul\":4508:4526   */\n      mul\n        /* \"#utility.yul\":4547:4644   */\n      tag_93\n        /* \"#utility.yul\":4577:4643   */\n      0xffffffffffffffffffffffffffffffffffffffffffffffffffffffffffffffff\n        /* \"#utility.yul\":4566:4575   */\n      dup3\n        /* \"#utility.yul\":4547:4644   */\n      tag_30\n      jump\t// in\n    tag_93:\n        /* \"#utility.yul\":4665:4704   */\n      tag_94\n        /* \"#utility.yul\":4695:4703   */\n      dup7\n        /* \"#utility.yul\":4684:4693   */\n      dup4\n        /* \"#utility.yul\":4665:4704   */\n      tag_30\n      jump\t// in\n    tag_94:\n        /* \"#utility.yul\":4653:4704   */\n      swap6\n      pop\n        /* \"#utility.yul\":4737:4741   */\n      dup1\n        /* \"#utility.yul\":4733:4742   */\n      not\n        /* \"#utility.yul\":4726:4731   */\n      dup5\n        /* \"#utility.yul\":4722:4743   */\n      and\n        /* \"#utility.yul\":4713:4743   */\n      swap4\n      pop\n        /* \"#utility.yul\":4786:4790   */\n      dup1\n        /* \"#utility.yul\":4776:4784   */\n      dup7\n        /* \"#utility.yul\":4772:4791   */\n      and\n        /* \"#utility.yul\":4765:4770   */\n      dup5\n        /* \"#utility.yul\":4762:4792   */\n      or\n        /* \"#utility.yul\":4752:4792   */\n      swap3\n      pop\n        /* \"#utility.yul\":4481:4798   */\n      pop\n      pop\n        /* \"#utility.yul\":4405:4798   */\n      swap4\n      swap3\n      pop\n      pop\n      pop\n      jump\t// out\n        /* \"#utility.yul\":4804:4881   */\n    tag_32:\n        /* \"#utility.yul\":4841:4848   */\n      0x00\n        /* \"#utility.yul\":4870:4875   */\n      dup2\n        /* \"#utility.yul\":4859:4875   */\n      swap1\n      pop\n        /* \"#utility.yul\":4804:4881   */\n      swap2\n      swap1\n      pop\n      jump\t// out\n        /* \"#utility.yul\":4887:4947   */\n    tag_33:\n        /* \"#utility.yul\":4915:4918   */\n      0x00\n        /* \"#utility.yul\":4936:4941   */\n      dup2\n        /* \"#utility.yul\":4929:4941   */\n      swap1\n      pop\n        /* \"#utility.yul\":4887:4947   */\n      swap2\n      swap1\n      pop\n      jump\t// out\n        /* \"#utility.yul\":4953:5095   */\n    tag_34:\n        /* \"#utility.yul\":5003:5012   */\n      0x00\n        /* \"#utility.yul\":5036:5089   */\n      tag_98\n        /* \"#utility.yul\":5054:5088   */\n      tag_99\n        /* \"#utility.yul\":5063:5087   */\n      tag_100\n        /* \"#utility.yul\":5081:5086   */\n      dup5\n        /* \"#utility.yul\":5063:5087   */\n      tag_32\n      jump\t// in\n    tag_100:\n        /* \"#utility.yul\":5054:5088   */\n      tag_33\n      jump\t// in\n    tag_99:\n        /* \"#utility.yul\":5036:5089   */\n      tag_32\n      jump\t// in\n    tag_98:\n        /* \"#utility.yul\":5023:5089   */\n      swap1\n      pop\n        /* \"#utility.yul\":4953:5095   */\n      swap2\n      swap1\n      pop\n      jump\t// out\n        /* \"#utility.yul\":5101:5176   */\n    tag_35:\n        /* \"#utility.yul\":5144:5147   */\n      0x00\n        /* \"#utility.yul\":5165:5170   */\n      dup2\n        /* \"#utility.yul\":5158:5170   */\n      swap1\n      pop\n        /* \"#utility.yul\":5101:5176   */\n      swap2\n      swap1\n      pop\n      jump\t// out\n        /* \"#utility.yul\":5182:5451   */\n    tag_36:\n        /* \"#utility.yul\":5292:5331   */\n      tag_103\n        /* \"#utility.yul\":5323:5330   */\n      dup4\n        /* \"#utility.yul\":5292:5331   */\n      tag_34\n      jump\t// in\n    tag_103:\n        /* \"#utility.yul\":5353:5444   */\n      tag_104\n        /* \"#utility.yul\":5402:5443   */\n      tag_105\n        /* \"#utility.yul\":5426:5442   */\n      dup3\n        /* \"#utility.yul\":5402:5443   */\n      tag_35\n      jump\t// in\n    tag_105:\n        /* \"#utility.yul\":5394:5400   */\n      dup5\n        /* \"#utility.yul\":5387:5391   */\n      dup5\n        /* \"#utility.yul\":5381:5392   */\n      sload\n        /* \"#utility.yul\":5353:5444   */\n      tag_31\n      jump\t// in\n    tag_104:\n        /* \"#utility.yul\":5347:5351   */\n      dup3\n        /* \"#utility.yul\":5340:5445   */\n      sstore\n        /* \"#utility.yul\":5258:5451   */\n      pop\n        /* \"#utility.yul\":5182:5451   */\n      pop\n      pop\n      pop\n      jump\t// out\n        /* \"#utility.yul\":5457:5530   */\n    tag_37:\n        /* \"#utility.yul\":5502:5505   */\n      0x00\n        /* \"#utility.yul\":5457:5530   */\n      swap1\n      jump\t// out\n        /* \"#utility.yul\":5536:5725   */\n    tag_38:\n        /* \"#utility.yul\":5613:5645   */\n      tag_108\n      tag_37\n      jump\t// in\n    tag_108:\n        /* \"#utility.yul\":5654:5719   */\n      tag_109\n        /* \"#utility.yul\":5712:5718   */\n      dup2\n        /* \"#utility.yul\":5704:5710   */\n      dup5\n        /* \"#utility.yul\":5698:5702   */\n      dup5\n        /* \"#utility.yul\":5654:5719   */\n      tag_36\n      jump\t// in\n    tag_109:\n        /* \"#utility.yul\":5589:5725   */\n      pop\n        /* \"#utility.yul\":5536:5725   */\n      pop\n      pop\n      jump\t// out\n        /* \"#utility.yul\":5731:5917   */\n    tag_39:\n        /* \"#utility.yul\":5791:5911   */\n    tag_111:\n        /* \"#utility.yul\":5808:5811   */\n      dup2\n        /* \"#utility.yul\":5801:5806   */\n      dup2\n        /* \"#utility.yul\":5798:5812   */\n      lt\n        /* \"#utility.yul\":5791:5911   */\n      iszero\n      tag_113\n      jumpi\n        /* \"#utility.yul\":5862:5901   */\n      tag_114\n        /* \"#utility.yul\":5899:5900   */\n      0x00\n        /* \"#utility.yul\":5892:5897   */\n      dup3\n        /* \"#utility.yul\":5862:5901   */\n      tag_38\n      jump\t// in\n    tag_114:\n        /* \"#utility.yul\":5835:5836   */\n      0x01\n        /* \"#utility.yul\":5828:5833   */\n      dup2\n        /* \"#utility.yul\":5824:5837   */\n      add\n        /* \"#utility.yul\":5815:5837   */\n      swap1\n      pop\n        /* \"#utility.yul\":5791:5911   */\n      jump(tag_111)\n    tag_113:\n        /* \"#utility.yul\":5731:5917   */\n      pop\n      pop\n      jump\t// out\n        /* \"#utility.yul\":5923:6466   */\n    tag_40:\n        /* \"#utility.yul\":6024:6026   */\n      0x1f\n        /* \"#utility.yul\":6019:6022   */\n      dup3\n        /* \"#utility.yul\":6016:6027   */\n      gt\n        /* \"#utility.yul\":6013:6459   */\n      iszero\n      tag_116\n      jumpi\n        /* \"#utility.yul\":6058:6096   */\n      tag_117\n        /* \"#utility.yul\":6090:6095   */\n      dup2\n        /* \"#utility.yul\":6058:6096   */\n      tag_28\n      jump\t// in\n    tag_117:\n        /* \"#utility.yul\":6142:6171   */\n      tag_118\n        /* \"#utility.yul\":6160:6170   */\n      dup5\n        /* \"#utility.yul\":6142:6171   */\n      tag_29\n      jump\t// in\n    tag_118:\n        /* \"#utility.yul\":6132:6140   */\n      dup2\n        /* \"#utility.yul\":6128:6172   */\n      add\n        /* \"#utility.yul\":6325:6327   */\n      0x20\n        /* \"#utility.yul\":6313:6323   */\n      dup6\n        /* \"#utility.yul\":6310:6328   */\n      lt\n        /* \"#utility.yul\":6307:6356   */\n      iszero\n      tag_119\n      jumpi\n        /* \"#utility.yul\":6346:6354   */\n      dup2\n        /* \"#utility.yul\":6331:6354   */\n      swap1\n      pop\n        /* \"#utility.yul\":6307:6356   */\n    tag_119:\n        /* \"#utility.yul\":6369:6449   */\n      tag_120\n        /* \"#utility.yul\":6425:6447   */\n      tag_121\n        /* \"#utility.yul\":6443:6446   */\n      dup6\n        /* \"#utility.yul\":6425:6447   */\n      tag_29\n      jump\t// in\n    tag_121:\n        /* \"#utility.yul\":6415:6423   */\n      dup4\n        /* \"#utility.yul\":6411:6448   */\n      add\n        /* \"#utility.yul\":6398:6409   */\n      dup3\n        /* \"#utility.yul\":6369:6449   */\n      tag_39\n      jump\t// in\n    tag_120:\n        /* \"#utility.yul\":6028:6459   */\n      pop\n      pop\n        /* \"#utility.yul\":6013:6459   */\n    tag_116:\n        /* \"#utility.yul\":5923:6466   */\n      pop\n      pop\n      pop\n      jump\t// out\n        /* \"#utility.yul\":6472:6589   */\n    tag_41:\n        /* \"#utility.yul\":6526:6534   */\n      0x00\n        /* \"#utility.yul\":6576:6581   */\n      dup3\n        /* \"#utility.yul\":6570:6574   */\n      dup3\n        /* \"#utility.yul\":6566:6582   */\n      shr\n        /* \"#utility.yul\":6545:6582   */\n      swap1\n      pop\n        /* \"#utility.yul\":6472:6589   */\n      swap3\n      swap2\n      pop\n      pop\n      jump\t// out\n        /* \"#utility.yul\":6595:6764   */\n    tag_42:\n        /* \"#utility.yul\":6639:6645   */\n      0x00\n        /* \"#utility.yul\":6672:6723   */\n      tag_124\n        /* \"#utility.yul\":6720:6721   */\n      0x00\n        /* \"#utility.yul\":6716:6722   */\n      not\n        /* \"#utility.yul\":6708:6713   */\n      dup5\n        /* \"#utility.yul\":6705:6706   */\n      0x08\n        /* \"#utility.yul\":6701:6714   */\n      mul\n        /* \"#utility.yul\":6672:6723   */\n      tag_41\n      jump\t// in\n    tag_124:\n        /* \"#utility.yul\":6668:6724   */\n      not\n        /* \"#utility.yul\":6753:6757   */\n      dup1\n        /* \"#utility.yul\":6747:6751   */\n      dup4\n        /* \"#utility.yul\":6743:6758   */\n      and\n        /* \"#utility.yul\":6733:6758   */\n      swap2\n      pop\n        /* \"#utility.yul\":6646:6764   */\n      pop\n        /* \"#utility.yul\":6595:6764   */\n      swap3\n      swap2\n      pop\n      pop\n      jump\t// out\n        /* \"#utility.yul\":6769:7064   */\n    tag_43:\n        /* \"#utility.yul\":6845:6849   */\n      0x00\n        /* \"#utility.yul\":6991:7020   */\n      tag_126\n        /* \"#utility.yul\":7016:7019   */\n      dup4\n        /* \"#utility.yul\":7010:7014   */\n      dup4\n        /* \"#utility.yul\":6991:7020   */\n      tag_42\n      jump\t// in\n    tag_126:\n        /* \"#utility.yul\":6983:7020   */\n      swap2\n      pop\n        /* \"#utility.yul\":7053:7056   */\n      dup3\n        /* \"#utility.yul\":7050:7051   */\n      0x02\n        /* \"#utility.yul\":7046:7057   */\n      mul\n        /* \"#utility.yul\":7040:7044   */\n      dup3\n        /* \"#utility.yul\":7037:7058   */\n      or\n        /* \"#utility.yul\":7029:7058   */\n      swap1\n      pop\n        /* \"#utility.yul\":6769:7064   */\n      swap3\n      swap2\n      pop\n      pop\n      jump\t// out\n        /* \"#utility.yul\":7069:8464   */\n    tag_8:\n        /* \"#utility.yul\":7186:7223   */\n      tag_128\n        /* \"#utility.yul\":7219:7222   */\n      dup3\n        /* \"#utility.yul\":7186:7223   */\n      tag_25\n      jump\t// in\n    tag_128:\n        /* \"#utility.yul\":7288:7306   */\n      0xffffffffffffffff\n        /* \"#utility.yul\":7280:7286   */\n      dup2\n        /* \"#utility.yul\":7277:7307   */\n      gt\n        /* \"#utility.yul\":7274:7330   */\n      iszero\n      tag_129\n      jumpi\n        /* \"#utility.yul\":7310:7328   */\n      tag_130\n      tag_18\n      jump\t// in\n    tag_130:\n        /* \"#utility.yul\":7274:7330   */\n    tag_129:\n        /* \"#utility.yul\":7354:7392   */\n      tag_131\n        /* \"#utility.yul\":7386:7390   */\n      dup3\n        /* \"#utility.yul\":7380:7391   */\n      sload\n        /* \"#utility.yul\":7354:7392   */\n      tag_27\n      jump\t// in\n    tag_131:\n        /* \"#utility.yul\":7439:7506   */\n      tag_132\n        /* \"#utility.yul\":7499:7505   */\n      dup3\n        /* \"#utility.yul\":7491:7497   */\n      dup3\n        /* \"#utility.yul\":7485:7489   */\n      dup6\n        /* \"#utility.yul\":7439:7506   */\n      tag_40\n      jump\t// in\n    tag_132:\n        /* \"#utility.yul\":7533:7534   */\n      0x00\n        /* \"#utility.yul\":7557:7561   */\n      0x20\n        /* \"#utility.yul\":7544:7561   */\n      swap1\n      pop\n        /* \"#utility.yul\":7589:7591   */\n      0x1f\n        /* \"#utility.yul\":7581:7587   */\n      dup4\n        /* \"#utility.yul\":7578:7592   */\n      gt\n        /* \"#utility.yul\":7606:7607   */\n      0x01\n        /* \"#utility.yul\":7601:8219   */\n      dup2\n      eq\n      tag_134\n      jumpi\n        /* \"#utility.yul\":8263:8264   */\n      0x00\n        /* \"#utility.yul\":8280:8286   */\n      dup5\n        /* \"#utility.yul\":8277:8354   */\n      iszero\n      tag_135\n      jumpi\n        /* \"#utility.yul\":8329:8338   */\n      dup3\n        /* \"#utility.yul\":8324:8327   */\n      dup8\n        /* \"#utility.yul\":8320:8339   */\n      add\n        /* \"#utility.yul\":8314:8340   */\n      mload\n        /* \"#utility.yul\":8305:8340   */\n      swap1\n      pop\n        /* \"#utility.yul\":8277:8354   */\n    tag_135:\n        /* \"#utility.yul\":8380:8447   */\n      tag_136\n        /* \"#utility.yul\":8440:8446   */\n      dup6\n        /* \"#utility.yul\":8433:8438   */\n      dup3\n        /* \"#utility.yul\":8380:8447   */\n      tag_43\n      jump\t// in\n    tag_136:\n        /* \"#utility.yul\":8374:8378   */\n      dup7\n        /* \"#utility.yul\":8367:8448   */\n      sstore\n        /* \"#utility.yul\":8236:8458   */\n      pop\n        /* \"#utility.yul\":7571:8458   */\n      jump(tag_133)\n        /* \"#utility.yul\":7601:8219   */\n    tag_134:\n        /* \"#utility.yul\":7653:7657   */\n      0x1f\n        /* \"#utility.yul\":7649:7658   */\n      not\n        /* \"#utility.yul\":7641:7647   */\n      dup5\n        /* \"#utility.yul\":7637:7659   */\n      and\n        /* \"#utility.yul\":7687:7724   */\n      tag_137\n        /* \"#utility.yul\":7719:7723   */\n      dup7\n        /* \"#utility.yul\":7687:7724   */\n      tag_28\n      jump\t// in\n    tag_137:\n        /* \"#utility.yul\":7746:7747   */\n      0x00\n        /* \"#utility.yul\":7760:7968   */\n    tag_138:\n        /* \"#utility.yul\":7774:7781   */\n      dup3\n        /* \"#utility.yul\":7771:7772   */\n      dup2\n        /* \"#utility.yul\":7768:7782   */\n      lt\n        /* \"#utility.yul\":7760:7968   */\n      iszero\n      tag_140\n      jumpi\n        /* \"#utility.yul\":7853:7862   */\n      dup5\n        /* \"#utility.yul\":7848:7851   */\n      dup10\n        /* \"#utility.yul\":7844:7863   */\n      add\n        /* \"#utility.yul\":7838:7864   */\n      mload\n        /* \"#utility.yul\":7830:7836   */\n      dup3\n        /* \"#utility.yul\":7823:7865   */\n      sstore\n        /* \"#utility.yul\":7904:7905   */\n      0x01\n        /* \"#utility.yul\":7896:7902   */\n      dup3\n        /* \"#utility.yul\":7892:7906   */\n      add\n        /* \"#utility.yul\":7882:7906   */\n      swap2\n      pop\n        /* \"#utility.yul\":7951:7953   */\n      0x20\n        /* \"#utility.yul\":7940:7949   */\n      dup6\n        /* \"#utility.yul\":7936:7954   */\n      add\n        /* \"#utility.yul\":7923:7954   */\n      swap5\n      pop\n        /* \"#utility.yul\":7797:7801   */\n      0x20\n        /* \"#utility.yul\":7794:7795   */\n      dup2\n        /* \"#utility.yul\":7790:7802   */\n      add\n        /* \"#utility.yul\":7785:7802   */\n      swap1\n      pop\n        /* \"#utility.yul\":7760:7968   */\n      jump(tag_138)\n    tag_140:\n        /* \"#utility.yul\":7996:8002   */\n      dup7\n        /* \"#utility.yul\":7987:7994   */\n      dup4\n        /* \"#utility.yul\":7984:8003   */\n      lt\n        /* \"#utility.yul\":7981:8160   */\n      iszero\n      tag_141\n      jumpi\n        /* \"#utility.yul\":8054:8063   */\n      dup5\n        /* \"#utility.yul\":8049:8052   */\n      dup10\n        /* \"#utility.yul\":8045:8064   */\n      add\n        /* \"#utility.yul\":8039:8065   */\n      mload\n        /* \"#utility.yul\":8097:8145   */\n      tag_142\n        /* \"#utility.yul\":8139:8143   */\n      0x1f\n        /* \"#utility.yul\":8131:8137   */\n      dup10\n        /* \"#utility.yul\":8127:8144   */\n      and\n        /* \"#utility.yul\":8116:8125   */\n      dup3\n        /* \"#utility.yul\":8097:8145   */\n      tag_42\n      jump\t// in\n    tag_142:\n        /* \"#utility.yul\":8089:8095   */\n      dup4\n        /* \"#utility.yul\":8082:8146   */\n      sstore\n        /* \"#utility.yul\":8004:8160   */\n      pop\n        /* \"#utility.yul\":7981:8160   */\n    tag_141:\n        /* \"#utility.yul\":8206:8207   */\n      0x01\n        /* \"#utility.yul\":8202:8203   */\n      0x02\n        /* \"#utility.yul\":8194:8200   */\n      dup9\n        /* \"#utility.yul\":8190:8204   */\n      mul\n        /* \"#utility.yul\":8186:8208   */\n      add\n        /* \"#utility.yul\":8180:8184   */\n      dup9\n        /* \"#utility.yul\":8173:8209   */\n      sstore\n        /* \"#utility.yul\":7608:8219   */\n      pop\n      pop\n      pop\n        /* \"#utility.yul\":7571:8458   */\n    tag_133:\n      pop\n        /* \"#utility.yul\":7161:8464   */\n      pop\n      pop\n      pop\n        /* \"#utility.yul\":7069:8464   */\n      pop\n      pop\n      jump\t// out\n        /* \"contracts/LPToken.sol\":115:1062  contract LPToken is ERC20 {... */\n    tag_11:\n      dataSize(sub_0)\n      dup1\n      dataOffset(sub_0)\n      0x00\n      codecopy\n      0x00\n      return\n    stop\n\n    sub_0: assembly {\n            /* \"contracts/LPToken.sol\":115:1062  contract LPToken is ERC20 {... */\n          mstore(0x40, 0x80)\n          callvalue\n          dup1\n          iszero\n          tag_1\n          jumpi\n          0x00\n          dup1\n          revert\n        tag_1:\n          pop\n          jumpi(tag_2, lt(calldatasize, 0x04))\n          shr(0xe0, calldataload(0x00))\n          dup1\n          0x692058c2\n          gt\n          tag_15\n          jumpi\n          dup1\n          0x692058c2\n          eq\n          tag_9\n          jumpi\n          dup1\n          0x70a08231\n          eq\n          tag_10\n          jumpi\n          dup1\n          0x79cc6790\n          eq\n          tag_11\n          jumpi\n          dup1\n          0x95d89b41\n          eq\n          tag_12\n          jumpi\n          dup1\n          0xa9059cbb\n          eq\n          tag_13\n          jumpi\n          dup1\n          0xdd62ed3e\n          eq\n          tag_14\n          jumpi\n          jump(tag_2)\n        tag_15:\n          dup1\n          0x06fdde03\n          eq\n          tag_3\n          jumpi\n          dup1\n          0x095ea7b3\n          eq\n          tag_4\n          jumpi\n          dup1\n          0x18160ddd\n          eq\n          tag_5\n          jumpi\n          dup1\n          0x23b872dd\n          eq\n          tag_6\n          jumpi\n          dup1\n          0x313ce567\n          eq\n          tag_7\n          jumpi\n          dup1\n          0x40c10f19\n          eq\n          tag_8\n          jumpi\n        tag_2:\n          0x00\n          dup1\n          revert\n            /* \"@openzeppelin/contracts/token/ERC20/ERC20.sol\":1760:1849  function name() public view virtual returns (string memory) {... */\n        tag_3:\n          tag_16\n          tag_17\n          jump\t// in\n        tag_16:\n          mload(0x40)\n          tag_18\n          swap2\n          swap1\n          tag_19\n          jump\t// in\n        tag_18:\n          mload(0x40)\n          dup1\n          swap2\n          sub\n          swap1\n          return\n            /* \"@openzeppelin/contracts/token/ERC20/ERC20.sol\":3979:4165  function approve(address spender, uint256 value) public virtual returns (bool) {... */\n        tag_4:\n          tag_20\n          0x04\n          dup1\n          calldatasize\n          sub\n          dup2\n          add\n          swap1\n          tag_21\n          swap2\n          swap1\n          tag_22\n          jump\t// in\n        tag_21:\n          tag_23\n          jump\t// in\n        tag_20:\n          mload(0x40)\n          tag_24\n          swap2\n          swap1\n          tag_25\n          jump\t// in\n        tag_24:\n          mload(0x40)\n          dup1\n          swap2\n          sub\n          swap1\n          return\n            /* \"@openzeppelin/contracts/token/ERC20/ERC20.sol\":2830:2927  function totalSupply() public view virtual returns (uint256) {... */\n        tag_5:\n          tag_26\n          tag_27\n          jump\t// in\n        tag_26:\n          mload(0x40)\n          tag_28\n          swap2\n          swap1\n          tag_29\n          jump\t// in\n        tag_28:\n          mload(0x40)\n          dup1\n          swap2\n          sub\n          swap1\n          return\n            /* \"@openzeppelin/contracts/token/ERC20/ERC20.sol\":4757:5001  function transferFrom(address from, address to, uint256 value) public virtual returns (bool) {... */\n        tag_6:\n          tag_30\n          0x04\n          dup1\n          calldatasize\n          sub\n          dup2\n          add\n          swap1\n          tag_31\n          swap2\n          swap1\n          tag_32\n          jump\t// in\n        tag_31:\n          tag_33\n          jump\t// in\n        tag_30:\n          mload(0x40)\n          tag_34\n          swap2\n          swap1\n          tag_25\n          jump\t// in\n        tag_34:\n          mload(0x40)\n          dup1\n          swap2\n          sub\n          swap1\n          return\n            /* \"@openzeppelin/contracts/token/ERC20/ERC20.sol\":2688:2770  function decimals() public view virtual returns (uint8) {... */\n        tag_7:\n          tag_35\n          tag_36\n          jump\t// in\n        tag_35:\n          mload(0x40)\n          tag_37\n          swap2\n          swap1\n          tag_38\n          jump\t// in\n        tag_37:\n          mload(0x40)\n          dup1\n          swap2\n          sub\n          swap1\n          return\n            /* \"contracts/LPToken.sol\":542:703  function mint(address account, uint256 amount) external {... */\n        tag_8:\n          tag_39\n          0x04\n          dup1\n          calldatasize\n          sub\n          dup2\n          add\n          swap1\n          tag_40\n          swap2\n          swap1\n          tag_22\n          jump\t// in\n        tag_40:\n          tag_41\n          jump\t// in\n        tag_39:\n          stop\n            /* \"contracts/LPToken.sol\":223:241  address public dex */\n        tag_9:\n          tag_42\n          tag_43\n          jump\t// in\n        tag_42:\n          mload(0x40)\n          tag_44\n          swap2\n          swap1\n          tag_45\n          jump\t// in\n        tag_44:\n          mload(0x40)\n          dup1\n          swap2\n          sub\n          swap1\n          return\n            /* \"@openzeppelin/contracts/token/ERC20/ERC20.sol\":2985:3101  function balanceOf(address account) public view virtual returns (uint256) {... */\n        tag_10:\n          tag_46\n          0x04\n          dup1\n          calldatasize\n          sub\n          dup2\n          add\n          swap1\n          tag_47\n          swap2\n          swap1\n          tag_48\n          jump\t// in\n        tag_47:\n          tag_49\n          jump\t// in\n        tag_46:\n          mload(0x40)\n          tag_50\n          swap2\n          swap1\n          tag_29\n          jump\t// in\n        tag_50:\n          mload(0x40)\n          dup1\n          swap2\n          sub\n          swap1\n          return\n            /* \"contracts/LPToken.sol\":895:1060  function burnFrom(address account, uint256 amount) external {... */\n        tag_11:\n          tag_51\n          0x04\n          dup1\n          calldatasize\n          sub\n          dup2\n          add\n          swap1\n          tag_52\n          swap2\n          swap1\n          tag_22\n          jump\t// in\n        tag_52:\n          tag_53\n          jump\t// in\n        tag_51:\n          stop\n            /* \"@openzeppelin/contracts/token/ERC20/ERC20.sol\":1962:2055  function symbol() public view virtual returns (string memory) {... */\n        tag_12:\n          tag_54\n          tag_55\n          jump\t// in\n        tag_54:\n          mload(0x40)\n          tag_56\n          swap2\n          swap1\n          tag_19\n          jump\t// in\n        tag_56:\n          mload(0x40)\n          dup1\n          swap2\n          sub\n          swap1\n          return\n            /* \"@openzeppelin/contracts/token/ERC20/ERC20.sol\":3296:3474  function transfer(address to, uint256 value) public virtual returns (bool) {... */\n        tag_13:\n          tag_57\n          0x04\n          dup1\n          calldatasize\n          sub\n          dup2\n          add\n          swap1\n          tag_58\n          swap2\n          swap1\n          tag_22\n          jump\t// in\n        tag_58:\n          tag_59\n          jump\t// in\n        tag_57:\n          mload(0x40)\n          tag_60\n          swap2\n          swap1\n          tag_25\n          jump\t// in\n        tag_60:\n          mload(0x40)\n          dup1\n          swap2\n          sub\n          swap1\n          return\n            /* \"@openzeppelin/contracts/token/ERC20/ERC20.sol\":3532:3672  function allowance(address owner, address spender) public view virtual returns (uint256) {... */\n        tag_14:\n          tag_61\n          0x04\n          dup1\n          calldatasize\n          sub\n          dup2\n          add\n          swap1\n          tag_62\n          swap2\n          swap1\n          tag_63\n          jump\t// in\n        tag_62:\n          tag_64\n          jump\t// in\n        tag_61:\n          mload(0x40)\n          tag_65\n          swap2\n          swap1\n          tag_29\n          jump\t// in\n        tag_65:\n          mload(0x40)\n          dup1\n          swap2\n          sub\n          swap1\n          return\n            /* \"@openzeppelin/contracts/token/ERC20/ERC20.sol\":1760:1849  function name() public view virtual returns (string memory) {... */\n        tag_17:\n            /* \"@openzeppelin/contracts/token/ERC20/ERC20.sol\":1805:1818  string memory */\n          0x60\n            /* \"@openzeppelin/contracts/token/ERC20/ERC20.sol\":1837:1842  _name */\n          0x03\n            /* \"@openzeppelin/contracts/token/ERC20/ERC20.sol\":1830:1842  return _name */\n          dup1\n          sload\n          tag_67\n          swap1\n          tag_68\n          jump\t// in\n        tag_67:\n          dup1\n          0x1f\n          add\n          0x20\n          dup1\n          swap2\n          div\n          mul\n          0x20\n          add\n          mload(0x40)\n          swap1\n          dup2\n          add\n          0x40\n          mstore\n          dup1\n          swap3\n          swap2\n          swap1\n          dup2\n          dup2\n          mstore\n          0x20\n          add\n          dup3\n          dup1\n          sload\n          tag_69\n          swap1\n          tag_68\n          jump\t// in\n        tag_69:\n          dup1\n          iszero\n          tag_70\n          jumpi\n          dup1\n          0x1f\n          lt\n          tag_71\n          jumpi\n          0x0100\n          dup1\n          dup4\n          sload\n          div\n          mul\n          dup4\n          mstore\n          swap2\n          0x20\n          add\n          swap2\n          jump(tag_70)\n        tag_71:\n          dup3\n          add\n          swap2\n          swap1\n          0x00\n          mstore\n          keccak256(0x00, 0x20)\n          swap1\n        tag_72:\n          dup2\n          sload\n          dup2\n          mstore\n          swap1\n          0x01\n          add\n          swap1\n          0x20\n          add\n          dup1\n          dup4\n          gt\n          tag_72\n          jumpi\n          dup3\n          swap1\n          sub\n          0x1f\n          and\n          dup3\n          add\n          swap2\n        tag_70:\n          pop\n          pop\n          pop\n          pop\n          pop\n          swap1\n          pop\n            /* \"@openzeppelin/contracts/token/ERC20/ERC20.sol\":1760:1849  function name() public view virtual returns (string memory) {... */\n          swap1\n          jump\t// out\n            /* \"@openzeppelin/contracts/token/ERC20/ERC20.sol\":3979:4165  function approve(address spender, uint256 value) public virtual returns (bool) {... */\n        tag_23:\n            /* \"@openzeppelin/contracts/token/ERC20/ERC20.sol\":4052:4056  bool */\n          0x00\n            /* \"@openzeppelin/contracts/token/ERC20/ERC20.sol\":4068:4081  address owner */\n          dup1\n            /* \"@openzeppelin/contracts/token/ERC20/ERC20.sol\":4084:4096  _msgSender() */\n          tag_74\n            /* \"@openzeppelin/contracts/token/ERC20/ERC20.sol\":4084:4094  _msgSender */\n          tag_75\n            /* \"@openzeppelin/contracts/token/ERC20/ERC20.sol\":4084:4096  _msgSender() */\n          jump\t// in\n        tag_74:\n            /* \"@openzeppelin/contracts/token/ERC20/ERC20.sol\":4068:4096  address owner = _msgSender() */\n          swap1\n          pop\n            /* \"@openzeppelin/contracts/token/ERC20/ERC20.sol\":4106:4137  _approve(owner, spender, value) */\n          tag_76\n            /* \"@openzeppelin/contracts/token/ERC20/ERC20.sol\":4115:4120  owner */\n          dup2\n            /* \"@openzeppelin/contracts/token/ERC20/ERC20.sol\":4122:4129  spender */\n          dup6\n            /* \"@openzeppelin/contracts/token/ERC20/ERC20.sol\":4131:4136  value */\n          dup6\n            /* \"@openzeppelin/contracts/token/ERC20/ERC20.sol\":4106:4114  _approve */\n          tag_77\n            /* \"@openzeppelin/contracts/token/ERC20/ERC20.sol\":4106:4137  _approve(owner, spender, value) */\n          jump\t// in\n        tag_76:\n            /* \"@openzeppelin/contracts/token/ERC20/ERC20.sol\":4154:4158  true */\n          0x01\n            /* \"@openzeppelin/contracts/token/ERC20/ERC20.sol\":4147:4158  return true */\n          swap2\n          pop\n          pop\n            /* \"@openzeppelin/contracts/token/ERC20/ERC20.sol\":3979:4165  function approve(address spender, uint256 value) public virtual returns (bool) {... */\n          swap3\n          swap2\n          pop\n          pop\n          jump\t// out\n            /* \"@openzeppelin/contracts/token/ERC20/ERC20.sol\":2830:2927  function totalSupply() public view virtual returns (uint256) {... */\n        tag_27:\n            /* \"@openzeppelin/contracts/token/ERC20/ERC20.sol\":2882:2889  uint256 */\n          0x00\n            /* \"@openzeppelin/contracts/token/ERC20/ERC20.sol\":2908:2920  _totalSupply */\n          sload(0x02)\n            /* \"@openzeppelin/contracts/token/ERC20/ERC20.sol\":2901:2920  return _totalSupply */\n          swap1\n          pop\n            /* \"@openzeppelin/contracts/token/ERC20/ERC20.sol\":2830:2927  function totalSupply() public view virtual returns (uint256) {... */\n          swap1\n          jump\t// out\n            /* \"@openzeppelin/contracts/token/ERC20/ERC20.sol\":4757:5001  function transferFrom(address from, address to, uint256 value) public virtual returns (bool) {... */\n        tag_33:\n            /* \"@openzeppelin/contracts/token/ERC20/ERC20.sol\":4844:4848  bool */\n          0x00\n            /* \"@openzeppelin/contracts/token/ERC20/ERC20.sol\":4860:4875  address spender */\n          dup1\n            /* \"@openzeppelin/contracts/token/ERC20/ERC20.sol\":4878:4890  _msgSender() */\n          tag_80\n            /* \"@openzeppelin/contracts/token/ERC20/ERC20.sol\":4878:4888  _msgSender */\n          tag_75\n            /* \"@openzeppelin/contracts/token/ERC20/ERC20.sol\":4878:4890  _msgSender() */\n          jump\t// in\n        tag_80:\n            /* \"@openzeppelin/contracts/token/ERC20/ERC20.sol\":4860:4890  address spender = _msgSender() */\n          swap1\n          pop\n            /* \"@openzeppelin/contracts/token/ERC20/ERC20.sol\":4900:4937  _spendAllowance(from, spender, value) */\n          tag_81\n            /* \"@openzeppelin/contracts/token/ERC20/ERC20.sol\":4916:4920  from */\n          dup6\n            /* \"@openzeppelin/contracts/token/ERC20/ERC20.sol\":4922:4929  spender */\n          dup3\n            /* \"@openzeppelin/contracts/token/ERC20/ERC20.sol\":4931:4936  value */\n          dup6\n            /* \"@openzeppelin/contracts/token/ERC20/ERC20.sol\":4900:4915  _spendAllowance */\n          tag_82\n            /* \"@openzeppelin/contracts/token/ERC20/ERC20.sol\":4900:4937  _spendAllowance(from, spender, value) */\n          jump\t// in\n        tag_81:\n            /* \"@openzeppelin/contracts/token/ERC20/ERC20.sol\":4947:4973  _transfer(from, to, value) */\n          tag_83\n            /* \"@openzeppelin/contracts/token/ERC20/ERC20.sol\":4957:4961  from */\n          dup6\n            /* \"@openzeppelin/contracts/token/ERC20/ERC20.sol\":4963:4965  to */\n          dup6\n            /* \"@openzeppelin/contracts/token/ERC20/ERC20.sol\":4967:4972  value */\n          dup6\n            /* \"@openzeppelin/contracts/token/ERC20/ERC20.sol\":4947:4956  _transfer */\n          tag_84\n            /* \"@openzeppelin/contracts/token/ERC20/ERC20.sol\":4947:4973  _transfer(from, to, value) */\n          jump\t// in\n        tag_83:\n            /* \"@openzeppelin/contracts/token/ERC20/ERC20.sol\":4990:4994  true */\n          0x01\n            /* \"@openzeppelin/contracts/token/ERC20/ERC20.sol\":4983:4994  return true */\n          swap2\n          pop\n          pop\n            /* \"@openzeppelin/contracts/token/ERC20/ERC20.sol\":4757:5001  function transferFrom(address from, address to, uint256 value) public virtual returns (bool) {... */\n          swap4\n          swap3\n          pop\n          pop\n          pop\n          jump\t// out\n            /* \"@openzeppelin/contracts/token/ERC20/ERC20.sol\":2688:2770  function decimals() public view virtual returns (uint8) {... */\n        tag_36:\n            /* \"@openzeppelin/contracts/token/ERC20/ERC20.sol\":2737:2742  uint8 */\n          0x00\n            /* \"@openzeppelin/contracts/token/ERC20/ERC20.sol\":2761:2763  18 */\n          0x12\n            /* \"@openzeppelin/contracts/token/ERC20/ERC20.sol\":2754:2763  return 18 */\n          swap1\n          pop\n            /* \"@openzeppelin/contracts/token/ERC20/ERC20.sol\":2688:2770  function decimals() public view virtual returns (uint8) {... */\n          swap1\n          jump\t// out\n            /* \"contracts/LPToken.sol\":542:703  function mint(address account, uint256 amount) external {... */\n        tag_41:\n            /* \"contracts/LPToken.sol\":630:633  dex */\n          0x05\n          0x00\n          swap1\n          sload\n          swap1\n          0x0100\n          exp\n          swap1\n          div\n          0xffffffffffffffffffffffffffffffffffffffff\n          and\n            /* \"contracts/LPToken.sol\":616:633  msg.sender == dex */\n          0xffffffffffffffffffffffffffffffffffffffff\n          and\n            /* \"contracts/LPToken.sol\":616:626  msg.sender */\n          caller\n            /* \"contracts/LPToken.sol\":616:633  msg.sender == dex */\n          0xffffffffffffffffffffffffffffffffffffffff\n          and\n          eq\n            /* \"contracts/LPToken.sol\":608:664  require(msg.sender == dex, \"LPToken: Only DEX can mint\") */\n          tag_87\n          jumpi\n          mload(0x40)\n          0x08c379a000000000000000000000000000000000000000000000000000000000\n          dup2\n          mstore\n          0x04\n          add\n          tag_88\n          swap1\n          tag_89\n          jump\t// in\n        tag_88:\n          mload(0x40)\n          dup1\n          swap2\n          sub\n          swap1\n          revert\n        tag_87:\n            /* \"contracts/LPToken.sol\":674:696  _mint(account, amount) */\n          tag_90\n            /* \"contracts/LPToken.sol\":680:687  account */\n          dup3\n            /* \"contracts/LPToken.sol\":689:695  amount */\n          dup3\n            /* \"contracts/LPToken.sol\":674:679  _mint */\n          tag_91\n            /* \"contracts/LPToken.sol\":674:696  _mint(account, amount) */\n          jump\t// in\n        tag_90:\n            /* \"contracts/LPToken.sol\":542:703  function mint(address account, uint256 amount) external {... */\n          pop\n          pop\n          jump\t// out\n            /* \"contracts/LPToken.sol\":223:241  address public dex */\n        tag_43:\n          0x05\n          0x00\n          swap1\n          sload\n          swap1\n          0x0100\n          exp\n          swap1\n          div\n          0xffffffffffffffffffffffffffffffffffffffff\n          and\n          dup2\n          jump\t// out\n            /* \"@openzeppelin/contracts/token/ERC20/ERC20.sol\":2985:3101  function balanceOf(address account) public view virtual returns (uint256) {... */\n        tag_49:\n            /* \"@openzeppelin/contracts/token/ERC20/ERC20.sol\":3050:3057  uint256 */\n          0x00\n            /* \"@openzeppelin/contracts/token/ERC20/ERC20.sol\":3076:3085  _balances */\n          dup1\n            /* \"@openzeppelin/contracts/token/ERC20/ERC20.sol\":3076:3094  _balances[account] */\n          0x00\n            /* \"@openzeppelin/contracts/token/ERC20/ERC20.sol\":3086:3093  account */\n          dup4\n            /* \"@openzeppelin/contracts/token/ERC20/ERC20.sol\":3076:3094  _balances[account] */\n          0xffffffffffffffffffffffffffffffffffffffff\n          and\n          0xffffffffffffffffffffffffffffffffffffffff\n          and\n          dup2\n          mstore\n          0x20\n          add\n          swap1\n          dup2\n          mstore\n          0x20\n          add\n          0x00\n          keccak256\n          sload\n            /* \"@openzeppelin/contracts/token/ERC20/ERC20.sol\":3069:3094  return _balances[account] */\n          swap1\n          pop\n            /* \"@openzeppelin/contracts/token/ERC20/ERC20.sol\":2985:3101  function balanceOf(address account) public view virtual returns (uint256) {... */\n          swap2\n          swap1\n          pop\n          jump\t// out\n            /* \"contracts/LPToken.sol\":895:1060  function burnFrom(address account, uint256 amount) external {... */\n        tag_53:\n            /* \"contracts/LPToken.sol\":987:990  dex */\n          0x05\n          0x00\n          swap1\n          sload\n          swap1\n          0x0100\n          exp\n          swap1\n          div\n          0xffffffffffffffffffffffffffffffffffffffff\n          and\n            /* \"contracts/LPToken.sol\":973:990  msg.sender == dex */\n          0xffffffffffffffffffffffffffffffffffffffff\n          and\n            /* \"contracts/LPToken.sol\":973:983  msg.sender */\n          caller\n            /* \"contracts/LPToken.sol\":973:990  msg.sender == dex */\n          0xffffffffffffffffffffffffffffffffffffffff\n          and\n          eq\n            /* \"contracts/LPToken.sol\":965:1021  require(msg.sender == dex, \"LPToken: Only DEX can burn\") */\n          tag_94\n          jumpi\n          mload(0x40)\n          0x08c379a000000000000000000000000000000000000000000000000000000000\n          dup2\n          mstore\n          0x04\n          add\n          tag_95\n          swap1\n          tag_96\n          jump\t// in\n        tag_95:\n          mload(0x40)\n          dup1\n          swap2\n          sub\n          swap1\n          revert\n        tag_94:\n            /* \"contracts/LPToken.sol\":1031:1053  _burn(account, amount) */\n          tag_97\n            /* \"contracts/LPToken.sol\":1037:1044  account */\n          dup3\n            /* \"contracts/LPToken.sol\":1046:1052  amount */\n          dup3\n            /* \"contracts/LPToken.sol\":1031:1036  _burn */\n          tag_98\n            /* \"contracts/LPToken.sol\":1031:1053  _burn(account, amount) */\n          jump\t// in\n        tag_97:\n            /* \"contracts/LPToken.sol\":895:1060  function burnFrom(address account, uint256 amount) external {... */\n          pop\n          pop\n          jump\t// out\n            /* \"@openzeppelin/contracts/token/ERC20/ERC20.sol\":1962:2055  function symbol() public view virtual returns (string memory) {... */\n        tag_55:\n            /* \"@openzeppelin/contracts/token/ERC20/ERC20.sol\":2009:2022  string memory */\n          0x60\n            /* \"@openzeppelin/contracts/token/ERC20/ERC20.sol\":2041:2048  _symbol */\n          0x04\n            /* \"@openzeppelin/contracts/token/ERC20/ERC20.sol\":2034:2048  return _symbol */\n          dup1\n          sload\n          tag_100\n          swap1\n          tag_68\n          jump\t// in\n        tag_100:\n          dup1\n          0x1f\n          add\n          0x20\n          dup1\n          swap2\n          div\n          mul\n          0x20\n          add\n          mload(0x40)\n          swap1\n          dup2\n          add\n          0x40\n          mstore\n          dup1\n          swap3\n          swap2\n          swap1\n          dup2\n          dup2\n          mstore\n          0x20\n          add\n          dup3\n          dup1\n          sload\n          tag_101\n          swap1\n          tag_68\n          jump\t// in\n        tag_101:\n          dup1\n          iszero\n          tag_102\n          jumpi\n          dup1\n          0x1f\n          lt\n          tag_103\n          jumpi\n          0x0100\n          dup1\n          dup4\n          sload\n          div\n          mul\n          dup4\n          mstore\n          swap2\n          0x20\n          add\n          swap2\n          jump(tag_102)\n        tag_103:\n          dup3\n          add\n          swap2\n          swap1\n          0x00\n          mstore\n          keccak256(0x00, 0x20)\n          swap1\n        tag_104:\n          dup2\n          sload\n          dup2\n          mstore\n          swap1\n          0x01\n          add\n          swap1\n          0x20\n          add\n          dup1\n          dup4\n          gt\n          tag_104\n          jumpi\n          dup3\n          swap1\n          sub\n          0x1f\n          and\n          dup3\n          add\n          swap2\n        tag_102:\n          pop\n          pop\n          pop\n          pop\n          pop\n          swap1\n          pop\n            /* \"@openzeppelin/contracts/token/ERC20/ERC20.sol\":1962:2055  function symbol() public view virtual returns (string memory) {... */\n          swap1\n          jump\t// out\n            /* \"@openzeppelin/contracts/token/ERC20/ERC20.sol\":3296:3474  function transfer(address to, uint256 value) public virtual returns (bool) {... */\n        tag_59:\n            /* \"@openzeppelin/contracts/token/ERC20/ERC20.sol\":3365:3369  bool */\n          0x00\n            /* \"@openzeppelin/contracts/token/ERC20/ERC20.sol\":3381:3394  address owner */\n          dup1\n            /* \"@openzeppelin/contracts/token/ERC20/ERC20.sol\":3397:3409  _msgSender() */\n          tag_106\n            /* \"@openzeppelin/contracts/token/ERC20/ERC20.sol\":3397:3407  _msgSender */\n          tag_75\n            /* \"@openzeppelin/contracts/token/ERC20/ERC20.sol\":3397:3409  _msgSender() */\n          jump\t// in\n        tag_106:\n            /* \"@openzeppelin/contracts/token/ERC20/ERC20.sol\":3381:3409  address owner = _msgSender() */\n          swap1\n          pop\n            /* \"@openzeppelin/contracts/token/ERC20/ERC20.sol\":3419:3446  _transfer(owner, to, value) */\n          tag_107\n            /* \"@openzeppelin/contracts/token/ERC20/ERC20.sol\":3429:3434  owner */\n          dup2\n            /* \"@openzeppelin/contracts/token/ERC20/ERC20.sol\":3436:3438  to */\n          dup6\n            /* \"@openzeppelin/contracts/token/ERC20/ERC20.sol\":3440:3445  value */\n          dup6\n            /* \"@openzeppelin/contracts/token/ERC20/ERC20.sol\":3419:3428  _transfer */\n          tag_84\n            /* \"@openzeppelin/contracts/token/ERC20/ERC20.sol\":3419:3446  _transfer(owner, to, value) */\n          jump\t// in\n        tag_107:\n            /* \"@openzeppelin/contracts/token/ERC20/ERC20.sol\":3463:3467  true */\n          0x01\n            /* \"@openzeppelin/contracts/token/ERC20/ERC20.sol\":3456:3467  return true */\n          swap2\n          pop\n          pop\n            /* \"@openzeppelin/contracts/token/ERC20/ERC20.sol\":3296:3474  function transfer(address to, uint256 value) public virtual returns (bool) {... */\n          swap3\n          swap2\n          pop\n          pop\n          jump\t// out\n            /* \"@openzeppelin/contracts/token/ERC20/ERC20.sol\":3532:3672  function allowance(address owner, address spender) public view virtual returns (uint256) {... */\n        tag_64:\n            /* \"@openzeppelin/contracts/token/ERC20/ERC20.sol\":3612:3619  uint256 */\n          0x00\n            /* \"@openzeppelin/contracts/token/ERC20/ERC20.sol\":3638:3649  _allowances */\n          0x01\n            /* \"@openzeppelin/contracts/token/ERC20/ERC20.sol\":3638:3656  _allowances[owner] */\n          0x00\n            /* \"@openzeppelin/contracts/token/ERC20/ERC20.sol\":3650:3655  owner */\n          dup5\n            /* \"@openzeppelin/contracts/token/ERC20/ERC20.sol\":3638:3656  _allowances[owner] */\n          0xffffffffffffffffffffffffffffffffffffffff\n          and\n          0xffffffffffffffffffffffffffffffffffffffff\n          and\n          dup2\n          mstore\n          0x20\n          add\n          swap1\n          dup2\n          mstore\n          0x20\n          add\n          0x00\n          keccak256\n            /* \"@openzeppelin/contracts/token/ERC20/ERC20.sol\":3638:3665  _allowances[owner][spender] */\n          0x00\n            /* \"@openzeppelin/contracts/token/ERC20/ERC20.sol\":3657:3664  spender */\n          dup4\n            /* \"@openzeppelin/contracts/token/ERC20/ERC20.sol\":3638:3665  _allowances[owner][spender] */\n          0xffffffffffffffffffffffffffffffffffffffff\n          and\n          0xffffffffffffffffffffffffffffffffffffffff\n          and\n          dup2\n          mstore\n          0x20\n          add\n          swap1\n          dup2\n          mstore\n          0x20\n          add\n          0x00\n          keccak256\n          sload\n            /* \"@openzeppelin/contracts/token/ERC20/ERC20.sol\":3631:3665  return _allowances[owner][spender] */\n          swap1\n          pop\n            /* \"@openzeppelin/contracts/token/ERC20/ERC20.sol\":3532:3672  function allowance(address owner, address spender) public view virtual returns (uint256) {... */\n          swap3\n          swap2\n          pop\n          pop\n          jump\t// out\n            /* \"@openzeppelin/contracts/utils/Context.sol\":656:752  function _msgSender() internal view virtual returns (address) {... */\n        tag_75:\n            /* \"@openzeppelin/contracts/utils/Context.sol\":709:716  address */\n          0x00\n            /* \"@openzeppelin/contracts/utils/Context.sol\":735:745  msg.sender */\n          caller\n            /* \"@openzeppelin/contracts/utils/Context.sol\":728:745  return msg.sender */\n          swap1\n          pop\n            /* \"@openzeppelin/contracts/utils/Context.sol\":656:752  function _msgSender() internal view virtual returns (address) {... */\n          swap1\n          jump\t// out\n            /* \"@openzeppelin/contracts/token/ERC20/ERC20.sol\":8707:8835  function _approve(address owner, address spender, uint256 value) internal {... */\n        tag_77:\n            /* \"@openzeppelin/contracts/token/ERC20/ERC20.sol\":8791:8828  _approve(owner, spender, value, true) */\n          tag_111\n            /* \"@openzeppelin/contracts/token/ERC20/ERC20.sol\":8800:8805  owner */\n          dup4\n            /* \"@openzeppelin/contracts/token/ERC20/ERC20.sol\":8807:8814  spender */\n          dup4\n            /* \"@openzeppelin/contracts/token/ERC20/ERC20.sol\":8816:8821  value */\n          dup4\n            /* \"@openzeppelin/contracts/token/ERC20/ERC20.sol\":8823:8827  true */\n          0x01\n            /* \"@openzeppelin/contracts/token/ERC20/ERC20.sol\":8791:8799  _approve */\n          tag_112\n            /* \"@openzeppelin/contracts/token/ERC20/ERC20.sol\":8791:8828  _approve(owner, spender, value, true) */\n          jump\t// in\n        tag_111:\n            /* \"@openzeppelin/contracts/token/ERC20/ERC20.sol\":8707:8835  function _approve(address owner, address spender, uint256 value) internal {... */\n          pop\n          pop\n          pop\n          jump\t// out\n            /* \"@openzeppelin/contracts/token/ERC20/ERC20.sol\":10396:10872  function _spendAllowance(address owner, address spender, uint256 value) internal virtual {... */\n        tag_82:\n            /* \"@openzeppelin/contracts/token/ERC20/ERC20.sol\":10495:10519  uint256 currentAllowance */\n          0x00\n            /* \"@openzeppelin/contracts/token/ERC20/ERC20.sol\":10522:10547  allowance(owner, spender) */\n          tag_114\n            /* \"@openzeppelin/contracts/token/ERC20/ERC20.sol\":10532:10537  owner */\n          dup5\n            /* \"@openzeppelin/contracts/token/ERC20/ERC20.sol\":10539:10546  spender */\n          dup5\n            /* \"@openzeppelin/contracts/token/ERC20/ERC20.sol\":10522:10531  allowance */\n          tag_64\n            /* \"@openzeppelin/contracts/token/ERC20/ERC20.sol\":10522:10547  allowance(owner, spender) */\n          jump\t// in\n        tag_114:\n            /* \"@openzeppelin/contracts/token/ERC20/ERC20.sol\":10495:10547  uint256 currentAllowance = allowance(owner, spender) */\n          swap1\n          pop\n            /* \"@openzeppelin/contracts/token/ERC20/ERC20.sol\":10580:10597  type(uint256).max */\n          0xffffffffffffffffffffffffffffffffffffffffffffffffffffffffffffffff\n            /* \"@openzeppelin/contracts/token/ERC20/ERC20.sol\":10561:10577  currentAllowance */\n          dup2\n            /* \"@openzeppelin/contracts/token/ERC20/ERC20.sol\":10561:10597  currentAllowance < type(uint256).max */\n          lt\n            /* \"@openzeppelin/contracts/token/ERC20/ERC20.sol\":10557:10866  if (currentAllowance < type(uint256).max) {... */\n          iszero\n          tag_115\n          jumpi\n            /* \"@openzeppelin/contracts/token/ERC20/ERC20.sol\":10636:10641  value */\n          dup2\n            /* \"@openzeppelin/contracts/token/ERC20/ERC20.sol\":10617:10633  currentAllowance */\n          dup2\n            /* \"@openzeppelin/contracts/token/ERC20/ERC20.sol\":10617:10641  currentAllowance < value */\n          lt\n            /* \"@openzeppelin/contracts/token/ERC20/ERC20.sol\":10613:10743  if (currentAllowance < value) {... */\n          iszero\n          tag_116\n          jumpi\n            /* \"@openzeppelin/contracts/token/ERC20/ERC20.sol\":10695:10702  spender */\n          dup3\n            /* \"@openzeppelin/contracts/token/ERC20/ERC20.sol\":10704:10720  currentAllowance */\n          dup2\n            /* \"@openzeppelin/contracts/token/ERC20/ERC20.sol\":10722:10727  value */\n          dup4\n            /* \"@openzeppelin/contracts/token/ERC20/ERC20.sol\":10668:10728  ERC20InsufficientAllowance(spender, currentAllowance, value) */\n          mload(0x40)\n          0xfb8f41b200000000000000000000000000000000000000000000000000000000\n          dup2\n          mstore\n          0x04\n          add\n          tag_117\n          swap4\n          swap3\n          swap2\n          swap1\n          tag_118\n          jump\t// in\n        tag_117:\n          mload(0x40)\n          dup1\n          swap2\n          sub\n          swap1\n          revert\n            /* \"@openzeppelin/contracts/token/ERC20/ERC20.sol\":10613:10743  if (currentAllowance < value) {... */\n        tag_116:\n            /* \"@openzeppelin/contracts/token/ERC20/ERC20.sol\":10784:10841  _approve(owner, spender, currentAllowance - value, false) */\n          tag_119\n            /* \"@openzeppelin/contracts/token/ERC20/ERC20.sol\":10793:10798  owner */\n          dup5\n            /* \"@openzeppelin/contracts/token/ERC20/ERC20.sol\":10800:10807  spender */\n          dup5\n            /* \"@openzeppelin/contracts/token/ERC20/ERC20.sol\":10828:10833  value */\n          dup5\n            /* \"@openzeppelin/contracts/token/ERC20/ERC20.sol\":10809:10825  currentAllowance */\n          dup5\n            /* \"@openzeppelin/contracts/token/ERC20/ERC20.sol\":10809:10833  currentAllowance - value */\n          sub\n            /* \"@openzeppelin/contracts/token/ERC20/ERC20.sol\":10835:10840  false */\n          0x00\n            /* \"@openzeppelin/contracts/token/ERC20/ERC20.sol\":10784:10792  _approve */\n          tag_112\n            /* \"@openzeppelin/contracts/token/ERC20/ERC20.sol\":10784:10841  _approve(owner, spender, currentAllowance - value, false) */\n          jump\t// in\n        tag_119:\n            /* \"@openzeppelin/contracts/token/ERC20/ERC20.sol\":10557:10866  if (currentAllowance < type(uint256).max) {... */\n        tag_115:\n            /* \"@openzeppelin/contracts/token/ERC20/ERC20.sol\":10485:10872  {... */\n          pop\n            /* \"@openzeppelin/contracts/token/ERC20/ERC20.sol\":10396:10872  function _spendAllowance(address owner, address spender, uint256 value) internal virtual {... */\n          pop\n          pop\n          pop\n          jump\t// out\n            /* \"@openzeppelin/contracts/token/ERC20/ERC20.sol\":5374:5674  function _transfer(address from, address to, uint256 value) internal {... */\n        tag_84:\n            /* \"@openzeppelin/contracts/token/ERC20/ERC20.sol\":5473:5474  0 */\n          0x00\n            /* \"@openzeppelin/contracts/token/ERC20/ERC20.sol\":5457:5475  from == address(0) */\n          0xffffffffffffffffffffffffffffffffffffffff\n          and\n            /* \"@openzeppelin/contracts/token/ERC20/ERC20.sol\":5457:5461  from */\n          dup4\n            /* \"@openzeppelin/contracts/token/ERC20/ERC20.sol\":5457:5475  from == address(0) */\n          0xffffffffffffffffffffffffffffffffffffffff\n          and\n          sub\n            /* \"@openzeppelin/contracts/token/ERC20/ERC20.sol\":5453:5539  if (from == address(0)) {... */\n          tag_121\n          jumpi\n            /* \"@openzeppelin/contracts/token/ERC20/ERC20.sol\":5525:5526  0 */\n          0x00\n            /* \"@openzeppelin/contracts/token/ERC20/ERC20.sol\":5498:5528  ERC20InvalidSender(address(0)) */\n          mload(0x40)\n          0x96c6fd1e00000000000000000000000000000000000000000000000000000000\n          dup2\n          mstore\n          0x04\n          add\n          tag_122\n          swap2\n          swap1\n          tag_45\n          jump\t// in\n        tag_122:\n          mload(0x40)\n          dup1\n          swap2\n          sub\n          swap1\n          revert\n            /* \"@openzeppelin/contracts/token/ERC20/ERC20.sol\":5453:5539  if (from == address(0)) {... */\n        tag_121:\n            /* \"@openzeppelin/contracts/token/ERC20/ERC20.sol\":5566:5567  0 */\n          0x00\n            /* \"@openzeppelin/contracts/token/ERC20/ERC20.sol\":5552:5568  to == address(0) */\n          0xffffffffffffffffffffffffffffffffffffffff\n          and\n            /* \"@openzeppelin/contracts/token/ERC20/ERC20.sol\":5552:5554  to */\n          dup3\n            /* \"@openzeppelin/contracts/token/ERC20/ERC20.sol\":5552:5568  to == address(0) */\n          0xffffffffffffffffffffffffffffffffffffffff\n          and\n          sub\n            /* \"@openzeppelin/contracts/token/ERC20/ERC20.sol\":5548:5634  if (to == address(0)) {... */\n          tag_123\n          jumpi\n            /* \"@openzeppelin/contracts/token/ERC20/ERC20.sol\":5620:5621  0 */\n          0x00\n            /* \"@openzeppelin/contracts/token/ERC20/ERC20.sol\":5591:5623  ERC20InvalidReceiver(address(0)) */\n          mload(0x40)\n          0xec442f0500000000000000000000000000000000000000000000000000000000\n          dup2\n          mstore\n          0x04\n          add\n          tag_124\n          swap2\n          swap1\n          tag_45\n          jump\t// in\n        tag_124:\n          mload(0x40)\n          dup1\n          swap2\n          sub\n          swap1\n          revert\n            /* \"@openzeppelin/contracts/token/ERC20/ERC20.sol\":5548:5634  if (to == address(0)) {... */\n        tag_123:\n            /* \"@openzeppelin/contracts/token/ERC20/ERC20.sol\":5643:5667  _update(from, to, value) */\n          tag_125\n            /* \"@openzeppelin/contracts/token/ERC20/ERC20.sol\":5651:5655  from */\n          dup4\n            /* \"@openzeppelin/contracts/token/ERC20/ERC20.sol\":5657:5659  to */\n          dup4\n            /* \"@openzeppelin/contracts/token/ERC20/ERC20.sol\":5661:5666  value */\n          dup4\n            /* \"@openzeppelin/contracts/token/ERC20/ERC20.sol\":5643:5650  _update */\n          tag_126\n            /* \"@openzeppelin/contracts/token/ERC20/ERC20.sol\":5643:5667  _update(from, to, value) */\n          jump\t// in\n        tag_125:\n            /* \"@openzeppelin/contracts/token/ERC20/ERC20.sol\":5374:5674  function _transfer(address from, address to, uint256 value) internal {... */\n          pop\n          pop\n          pop\n          jump\t// out\n            /* \"@openzeppelin/contracts/token/ERC20/ERC20.sol\":7439:7647  function _mint(address account, uint256 value) internal {... */\n        tag_91:\n            /* \"@openzeppelin/contracts/token/ERC20/ERC20.sol\":7528:7529  0 */\n          0x00\n            /* \"@openzeppelin/contracts/token/ERC20/ERC20.sol\":7509:7530  account == address(0) */\n          0xffffffffffffffffffffffffffffffffffffffff\n          and\n            /* \"@openzeppelin/contracts/token/ERC20/ERC20.sol\":7509:7516  account */\n          dup3\n            /* \"@openzeppelin/contracts/token/ERC20/ERC20.sol\":7509:7530  account == address(0) */\n          0xffffffffffffffffffffffffffffffffffffffff\n          and\n          sub\n            /* \"@openzeppelin/contracts/token/ERC20/ERC20.sol\":7505:7596  if (account == address(0)) {... */\n          tag_128\n          jumpi\n            /* \"@openzeppelin/contracts/token/ERC20/ERC20.sol\":7582:7583  0 */\n          0x00\n            /* \"@openzeppelin/contracts/token/ERC20/ERC20.sol\":7553:7585  ERC20InvalidReceiver(address(0)) */\n          mload(0x40)\n          0xec442f0500000000000000000000000000000000000000000000000000000000\n          dup2\n          mstore\n          0x04\n          add\n          tag_129\n          swap2\n          swap1\n          tag_45\n          jump\t// in\n        tag_129:\n          mload(0x40)\n          dup1\n          swap2\n          sub\n          swap1\n          revert\n            /* \"@openzeppelin/contracts/token/ERC20/ERC20.sol\":7505:7596  if (account == address(0)) {... */\n        tag_128:\n            /* \"@openzeppelin/contracts/token/ERC20/ERC20.sol\":7605:7640  _update(address(0), account, value) */\n          tag_130\n            /* \"@openzeppelin/contracts/token/ERC20/ERC20.sol\":7621:7622  0 */\n          0x00\n            /* \"@openzeppelin/contracts/token/ERC20/ERC20.sol\":7625:7632  account */\n          dup4\n            /* \"@openzeppelin/contracts/token/ERC20/ERC20.sol\":7634:7639  value */\n          dup4\n            /* \"@openzeppelin/contracts/token/ERC20/ERC20.sol\":7605:7612  _update */\n          tag_126\n            /* \"@openzeppelin/contracts/token/ERC20/ERC20.sol\":7605:7640  _update(address(0), account, value) */\n          jump\t// in\n        tag_130:\n            /* \"@openzeppelin/contracts/token/ERC20/ERC20.sol\":7439:7647  function _mint(address account, uint256 value) internal {... */\n          pop\n          pop\n          jump\t// out\n            /* \"@openzeppelin/contracts/token/ERC20/ERC20.sol\":7965:8171  function _burn(address account, uint256 value) internal {... */\n        tag_98:\n            /* \"@openzeppelin/contracts/token/ERC20/ERC20.sol\":8054:8055  0 */\n          0x00\n            /* \"@openzeppelin/contracts/token/ERC20/ERC20.sol\":8035:8056  account == address(0) */\n          0xffffffffffffffffffffffffffffffffffffffff\n          and\n            /* \"@openzeppelin/contracts/token/ERC20/ERC20.sol\":8035:8042  account */\n          dup3\n            /* \"@openzeppelin/contracts/token/ERC20/ERC20.sol\":8035:8056  account == address(0) */\n          0xffffffffffffffffffffffffffffffffffffffff\n          and\n          sub\n            /* \"@openzeppelin/contracts/token/ERC20/ERC20.sol\":8031:8120  if (account == address(0)) {... */\n          tag_132\n          jumpi\n            /* \"@openzeppelin/contracts/token/ERC20/ERC20.sol\":8106:8107  0 */\n          0x00\n            /* \"@openzeppelin/contracts/token/ERC20/ERC20.sol\":8079:8109  ERC20InvalidSender(address(0)) */\n          mload(0x40)\n          0x96c6fd1e00000000000000000000000000000000000000000000000000000000\n          dup2\n          mstore\n          0x04\n          add\n          tag_133\n          swap2\n          swap1\n          tag_45\n          jump\t// in\n        tag_133:\n          mload(0x40)\n          dup1\n          swap2\n          sub\n          swap1\n          revert\n            /* \"@openzeppelin/contracts/token/ERC20/ERC20.sol\":8031:8120  if (account == address(0)) {... */\n        tag_132:\n            /* \"@openzeppelin/contracts/token/ERC20/ERC20.sol\":8129:8164  _update(account, address(0), value) */\n          tag_134\n            /* \"@openzeppelin/contracts/token/ERC20/ERC20.sol\":8137:8144  account */\n          dup3\n            /* \"@openzeppelin/contracts/token/ERC20/ERC20.sol\":8154:8155  0 */\n          0x00\n            /* \"@openzeppelin/contracts/token/ERC20/ERC20.sol\":8158:8163  value */\n          dup4\n            /* \"@openzeppelin/contracts/token/ERC20/ERC20.sol\":8129:8136  _update */\n          tag_126\n            /* \"@openzeppelin/contracts/token/ERC20/ERC20.sol\":8129:8164  _update(account, address(0), value) */\n          jump\t// in\n        tag_134:\n            /* \"@openzeppelin/contracts/token/ERC20/ERC20.sol\":7965:8171  function _burn(address account, uint256 value) internal {... */\n          pop\n          pop\n          jump\t// out\n            /* \"@openzeppelin/contracts/token/ERC20/ERC20.sol\":9682:10114  function _approve(address owner, address spender, uint256 value, bool emitEvent) internal virtual {... */\n        tag_112:\n            /* \"@openzeppelin/contracts/token/ERC20/ERC20.sol\":9811:9812  0 */\n          0x00\n            /* \"@openzeppelin/contracts/token/ERC20/ERC20.sol\":9794:9813  owner == address(0) */\n          0xffffffffffffffffffffffffffffffffffffffff\n          and\n            /* \"@openzeppelin/contracts/token/ERC20/ERC20.sol\":9794:9799  owner */\n          dup5\n            /* \"@openzeppelin/contracts/token/ERC20/ERC20.sol\":9794:9813  owner == address(0) */\n          0xffffffffffffffffffffffffffffffffffffffff\n          and\n          sub\n            /* \"@openzeppelin/contracts/token/ERC20/ERC20.sol\":9790:9879  if (owner == address(0)) {... */\n          tag_136\n          jumpi\n            /* \"@openzeppelin/contracts/token/ERC20/ERC20.sol\":9865:9866  0 */\n          0x00\n            /* \"@openzeppelin/contracts/token/ERC20/ERC20.sol\":9836:9868  ERC20InvalidApprover(address(0)) */\n          mload(0x40)\n          0xe602df0500000000000000000000000000000000000000000000000000000000\n          dup2\n          mstore\n          0x04\n          add\n          tag_137\n          swap2\n          swap1\n          tag_45\n          jump\t// in\n        tag_137:\n          mload(0x40)\n          dup1\n          swap2\n          sub\n          swap1\n          revert\n            /* \"@openzeppelin/contracts/token/ERC20/ERC20.sol\":9790:9879  if (owner == address(0)) {... */\n        tag_136:\n            /* \"@openzeppelin/contracts/token/ERC20/ERC20.sol\":9911:9912  0 */\n          0x00\n            /* \"@openzeppelin/contracts/token/ERC20/ERC20.sol\":9892:9913  spender == address(0) */\n          0xffffffffffffffffffffffffffffffffffffffff\n          and\n            /* \"@openzeppelin/contracts/token/ERC20/ERC20.sol\":9892:9899  spender */\n          dup4\n            /* \"@openzeppelin/contracts/token/ERC20/ERC20.sol\":9892:9913  spender == address(0) */\n          0xffffffffffffffffffffffffffffffffffffffff\n          and\n          sub\n            /* \"@openzeppelin/contracts/token/ERC20/ERC20.sol\":9888:9978  if (spender == address(0)) {... */\n          tag_138\n          jumpi\n            /* \"@openzeppelin/contracts/token/ERC20/ERC20.sol\":9964:9965  0 */\n          0x00\n            /* \"@openzeppelin/contracts/token/ERC20/ERC20.sol\":9936:9967  ERC20InvalidSpender(address(0)) */\n          mload(0x40)\n          0x94280d6200000000000000000000000000000000000000000000000000000000\n          dup2\n          mstore\n          0x04\n          add\n          tag_139\n          swap2\n          swap1\n          tag_45\n          jump\t// in\n        tag_139:\n          mload(0x40)\n          dup1\n          swap2\n          sub\n          swap1\n          revert\n            /* \"@openzeppelin/contracts/token/ERC20/ERC20.sol\":9888:9978  if (spender == address(0)) {... */\n        tag_138:\n            /* \"@openzeppelin/contracts/token/ERC20/ERC20.sol\":10017:10022  value */\n          dup2\n            /* \"@openzeppelin/contracts/token/ERC20/ERC20.sol\":9987:9998  _allowances */\n          0x01\n            /* \"@openzeppelin/contracts/token/ERC20/ERC20.sol\":9987:10005  _allowances[owner] */\n          0x00\n            /* \"@openzeppelin/contracts/token/ERC20/ERC20.sol\":9999:10004  owner */\n          dup7\n            /* \"@openzeppelin/contracts/token/ERC20/ERC20.sol\":9987:10005  _allowances[owner] */\n          0xffffffffffffffffffffffffffffffffffffffff\n          and\n          0xffffffffffffffffffffffffffffffffffffffff\n          and\n          dup2\n          mstore\n          0x20\n          add\n          swap1\n          dup2\n          mstore\n          0x20\n          add\n          0x00\n          keccak256\n            /* \"@openzeppelin/contracts/token/ERC20/ERC20.sol\":9987:10014  _allowances[owner][spender] */\n          0x00\n            /* \"@openzeppelin/contracts/token/ERC20/ERC20.sol\":10006:10013  spender */\n          dup6\n            /* \"@openzeppelin/contracts/token/ERC20/ERC20.sol\":9987:10014  _allowances[owner][spender] */\n          0xffffffffffffffffffffffffffffffffffffffff\n          and\n          0xffffffffffffffffffffffffffffffffffffffff\n          and\n          dup2\n          mstore\n          0x20\n          add\n          swap1\n          dup2\n          mstore\n          0x20\n          add\n          0x00\n          keccak256\n            /* \"@openzeppelin/contracts/token/ERC20/ERC20.sol\":9987:10022  _allowances[owner][spender] = value */\n          dup2\n          swap1\n          sstore\n          pop\n            /* \"@openzeppelin/contracts/token/ERC20/ERC20.sol\":10036:10045  emitEvent */\n          dup1\n            /* \"@openzeppelin/contracts/token/ERC20/ERC20.sol\":10032:10108  if (emitEvent) {... */\n          iszero\n          tag_140\n          jumpi\n            /* \"@openzeppelin/contracts/token/ERC20/ERC20.sol\":10082:10089  spender */\n          dup3\n            /* \"@openzeppelin/contracts/token/ERC20/ERC20.sol\":10066:10097  Approval(owner, spender, value) */\n          0xffffffffffffffffffffffffffffffffffffffff\n          and\n            /* \"@openzeppelin/contracts/token/ERC20/ERC20.sol\":10075:10080  owner */\n          dup5\n            /* \"@openzeppelin/contracts/token/ERC20/ERC20.sol\":10066:10097  Approval(owner, spender, value) */\n          0xffffffffffffffffffffffffffffffffffffffff\n          and\n          0x8c5be1e5ebec7d5bd14f71427d1e84f3dd0314c0f7b2291e5b200ac8c7c3b925\n            /* \"@openzeppelin/contracts/token/ERC20/ERC20.sol\":10091:10096  value */\n          dup5\n            /* \"@openzeppelin/contracts/token/ERC20/ERC20.sol\":10066:10097  Approval(owner, spender, value) */\n          mload(0x40)\n          tag_141\n          swap2\n          swap1\n          tag_29\n          jump\t// in\n        tag_141:\n          mload(0x40)\n          dup1\n          swap2\n          sub\n          swap1\n          log3\n            /* \"@openzeppelin/contracts/token/ERC20/ERC20.sol\":10032:10108  if (emitEvent) {... */\n        tag_140:\n            /* \"@openzeppelin/contracts/token/ERC20/ERC20.sol\":9682:10114  function _approve(address owner, address spender, uint256 value, bool emitEvent) internal virtual {... */\n          pop\n          pop\n          pop\n          pop\n          jump\t// out\n            /* \"@openzeppelin/contracts/token/ERC20/ERC20.sol\":5989:7096  function _update(address from, address to, uint256 value) internal virtual {... */\n        tag_126:\n            /* \"@openzeppelin/contracts/token/ERC20/ERC20.sol\":6094:6095  0 */\n          0x00\n            /* \"@openzeppelin/contracts/token/ERC20/ERC20.sol\":6078:6096  from == address(0) */\n          0xffffffffffffffffffffffffffffffffffffffff\n          and\n            /* \"@openzeppelin/contracts/token/ERC20/ERC20.sol\":6078:6082  from */\n          dup4\n            /* \"@openzeppelin/contracts/token/ERC20/ERC20.sol\":6078:6096  from == address(0) */\n          0xffffffffffffffffffffffffffffffffffffffff\n          and\n          sub\n            /* \"@openzeppelin/contracts/token/ERC20/ERC20.sol\":6074:6614  if (from == address(0)) {... */\n          tag_143\n          jumpi\n            /* \"@openzeppelin/contracts/token/ERC20/ERC20.sol\":6230:6235  value */\n          dup1\n            /* \"@openzeppelin/contracts/token/ERC20/ERC20.sol\":6214:6226  _totalSupply */\n          0x02\n          0x00\n            /* \"@openzeppelin/contracts/token/ERC20/ERC20.sol\":6214:6235  _totalSupply += value */\n          dup3\n          dup3\n          sload\n          tag_144\n          swap2\n          swap1\n          tag_145\n          jump\t// in\n        tag_144:\n          swap3\n          pop\n          pop\n          dup2\n          swap1\n          sstore\n          pop\n            /* \"@openzeppelin/contracts/token/ERC20/ERC20.sol\":6074:6614  if (from == address(0)) {... */\n          jump(tag_146)\n        tag_143:\n            /* \"@openzeppelin/contracts/token/ERC20/ERC20.sol\":6266:6285  uint256 fromBalance */\n          0x00\n            /* \"@openzeppelin/contracts/token/ERC20/ERC20.sol\":6288:6297  _balances */\n          dup1\n            /* \"@openzeppelin/contracts/token/ERC20/ERC20.sol\":6288:6303  _balances[from] */\n          0x00\n            /* \"@openzeppelin/contracts/token/ERC20/ERC20.sol\":6298:6302  from */\n          dup6\n            /* \"@openzeppelin/contracts/token/ERC20/ERC20.sol\":6288:6303  _balances[from] */\n          0xffffffffffffffffffffffffffffffffffffffff\n          and\n          0xffffffffffffffffffffffffffffffffffffffff\n          and\n          dup2\n          mstore\n          0x20\n          add\n          swap1\n          dup2\n          mstore\n          0x20\n          add\n          0x00\n          keccak256\n          sload\n            /* \"@openzeppelin/contracts/token/ERC20/ERC20.sol\":6266:6303  uint256 fromBalance = _balances[from] */\n          swap1\n          pop\n            /* \"@openzeppelin/contracts/token/ERC20/ERC20.sol\":6335:6340  value */\n          dup2\n            /* \"@openzeppelin/contracts/token/ERC20/ERC20.sol\":6321:6332  fromBalance */\n          dup2\n            /* \"@openzeppelin/contracts/token/ERC20/ERC20.sol\":6321:6340  fromBalance < value */\n          lt\n            /* \"@openzeppelin/contracts/token/ERC20/ERC20.sol\":6317:6432  if (fromBalance < value) {... */\n          iszero\n          tag_147\n          jumpi\n            /* \"@openzeppelin/contracts/token/ERC20/ERC20.sol\":6392:6396  from */\n          dup4\n            /* \"@openzeppelin/contracts/token/ERC20/ERC20.sol\":6398:6409  fromBalance */\n          dup2\n            /* \"@openzeppelin/contracts/token/ERC20/ERC20.sol\":6411:6416  value */\n          dup4\n            /* \"@openzeppelin/contracts/token/ERC20/ERC20.sol\":6367:6417  ERC20InsufficientBalance(from, fromBalance, value) */\n          mload(0x40)\n          0xe450d38c00000000000000000000000000000000000000000000000000000000\n          dup2\n          mstore\n          0x04\n          add\n          tag_148\n          swap4\n          swap3\n          swap2\n          swap1\n          tag_118\n          jump\t// in\n        tag_148:\n          mload(0x40)\n          dup1\n          swap2\n          sub\n          swap1\n          revert\n            /* \"@openzeppelin/contracts/token/ERC20/ERC20.sol\":6317:6432  if (fromBalance < value) {... */\n        tag_147:\n            /* \"@openzeppelin/contracts/token/ERC20/ERC20.sol\":6584:6589  value */\n          dup2\n            /* \"@openzeppelin/contracts/token/ERC20/ERC20.sol\":6570:6581  fromBalance */\n          dup2\n            /* \"@openzeppelin/contracts/token/ERC20/ERC20.sol\":6570:6589  fromBalance - value */\n          sub\n            /* \"@openzeppelin/contracts/token/ERC20/ERC20.sol\":6552:6561  _balances */\n          0x00\n            /* \"@openzeppelin/contracts/token/ERC20/ERC20.sol\":6552:6567  _balances[from] */\n          dup1\n            /* \"@openzeppelin/contracts/token/ERC20/ERC20.sol\":6562:6566  from */\n          dup7\n            /* \"@openzeppelin/contracts/token/ERC20/ERC20.sol\":6552:6567  _balances[from] */\n          0xffffffffffffffffffffffffffffffffffffffff\n          and\n          0xffffffffffffffffffffffffffffffffffffffff\n          and\n          dup2\n          mstore\n          0x20\n          add\n          swap1\n          dup2\n          mstore\n          0x20\n          add\n          0x00\n          keccak256\n            /* \"@openzeppelin/contracts/token/ERC20/ERC20.sol\":6552:6589  _balances[from] = fromBalance - value */\n          dup2\n          swap1\n          sstore\n          pop\n            /* \"@openzeppelin/contracts/token/ERC20/ERC20.sol\":6252:6614  {... */\n          pop\n            /* \"@openzeppelin/contracts/token/ERC20/ERC20.sol\":6074:6614  if (from == address(0)) {... */\n        tag_146:\n            /* \"@openzeppelin/contracts/token/ERC20/ERC20.sol\":6642:6643  0 */\n          0x00\n            /* \"@openzeppelin/contracts/token/ERC20/ERC20.sol\":6628:6644  to == address(0) */\n          0xffffffffffffffffffffffffffffffffffffffff\n          and\n            /* \"@openzeppelin/contracts/token/ERC20/ERC20.sol\":6628:6630  to */\n          dup3\n            /* \"@openzeppelin/contracts/token/ERC20/ERC20.sol\":6628:6644  to == address(0) */\n          0xffffffffffffffffffffffffffffffffffffffff\n          and\n          sub\n            /* \"@openzeppelin/contracts/token/ERC20/ERC20.sol\":6624:7049  if (to == address(0)) {... */\n          tag_149\n          jumpi\n            /* \"@openzeppelin/contracts/token/ERC20/ERC20.sol\":6807:6812  value */\n          dup1\n            /* \"@openzeppelin/contracts/token/ERC20/ERC20.sol\":6791:6803  _totalSupply */\n          0x02\n          0x00\n            /* \"@openzeppelin/contracts/token/ERC20/ERC20.sol\":6791:6812  _totalSupply -= value */\n          dup3\n          dup3\n          sload\n          sub\n          swap3\n          pop\n          pop\n          dup2\n          swap1\n          sstore\n          pop\n            /* \"@openzeppelin/contracts/token/ERC20/ERC20.sol\":6624:7049  if (to == address(0)) {... */\n          jump(tag_150)\n        tag_149:\n            /* \"@openzeppelin/contracts/token/ERC20/ERC20.sol\":7019:7024  value */\n          dup1\n            /* \"@openzeppelin/contracts/token/ERC20/ERC20.sol\":7002:7011  _balances */\n          0x00\n            /* \"@openzeppelin/contracts/token/ERC20/ERC20.sol\":7002:7015  _balances[to] */\n          dup1\n            /* \"@openzeppelin/contracts/token/ERC20/ERC20.sol\":7012:7014  to */\n          dup5\n            /* \"@openzeppelin/contracts/token/ERC20/ERC20.sol\":7002:7015  _balances[to] */\n          0xffffffffffffffffffffffffffffffffffffffff\n          and\n          0xffffffffffffffffffffffffffffffffffffffff\n          and\n          dup2\n          mstore\n          0x20\n          add\n          swap1\n          dup2\n          mstore\n          0x20\n          add\n          0x00\n          keccak256\n          0x00\n            /* \"@openzeppelin/contracts/token/ERC20/ERC20.sol\":7002:7024  _balances[to] += value */\n          dup3\n          dup3\n          sload\n          add\n          swap3\n          pop\n          pop\n          dup2\n          swap1\n          sstore\n          pop\n            /* \"@openzeppelin/contracts/token/ERC20/ERC20.sol\":6624:7049  if (to == address(0)) {... */\n        tag_150:\n            /* \"@openzeppelin/contracts/token/ERC20/ERC20.sol\":7079:7081  to */\n          dup2\n            /* \"@openzeppelin/contracts/token/ERC20/ERC20.sol\":7064:7089  Transfer(from, to, value) */\n          0xffffffffffffffffffffffffffffffffffffffff\n          and\n            /* \"@openzeppelin/contracts/token/ERC20/ERC20.sol\":7073:7077  from */\n          dup4\n            /* \"@openzeppelin/contracts/token/ERC20/ERC20.sol\":7064:7089  Transfer(from, to, value) */\n          0xffffffffffffffffffffffffffffffffffffffff\n          and\n          0xddf252ad1be2c89b69c2b068fc378daa952ba7f163c4a11628f55a4df523b3ef\n            /* \"@openzeppelin/contracts/token/ERC20/ERC20.sol\":7083:7088  value */\n          dup4\n            /* \"@openzeppelin/contracts/token/ERC20/ERC20.sol\":7064:7089  Transfer(from, to, value) */\n          mload(0x40)\n          tag_151\n          swap2\n          swap1\n          tag_29\n          jump\t// in\n        tag_151:\n          mload(0x40)\n          dup1\n          swap2\n          sub\n          swap1\n          log3\n            /* \"@openzeppelin/contracts/token/ERC20/ERC20.sol\":5989:7096  function _update(address from, address to, uint256 value) internal virtual {... */\n          pop\n          pop\n          pop\n          jump\t// out\n            /* \"#utility.yul\":7:106   */\n        tag_152:\n            /* \"#utility.yul\":59:65   */\n          0x00\n            /* \"#utility.yul\":93:98   */\n          dup2\n            /* \"#utility.yul\":87:99   */\n          mload\n            /* \"#utility.yul\":77:99   */\n          swap1\n          pop\n            /* \"#utility.yul\":7:106   */\n          swap2\n          swap1\n          pop\n          jump\t// out\n            /* \"#utility.yul\":112:281   */\n        tag_153:\n            /* \"#utility.yul\":196:207   */\n          0x00\n            /* \"#utility.yul\":230:236   */\n          dup3\n            /* \"#utility.yul\":225:228   */\n          dup3\n            /* \"#utility.yul\":218:237   */\n          mstore\n            /* \"#utility.yul\":270:274   */\n          0x20\n            /* \"#utility.yul\":265:268   */\n          dup3\n            /* \"#utility.yul\":261:275   */\n          add\n            /* \"#utility.yul\":246:275   */\n          swap1\n          pop\n            /* \"#utility.yul\":112:281   */\n          swap3\n          swap2\n          pop\n          pop\n          jump\t// out\n            /* \"#utility.yul\":287:426   */\n        tag_154:\n            /* \"#utility.yul\":376:382   */\n          dup3\n            /* \"#utility.yul\":371:374   */\n          dup2\n            /* \"#utility.yul\":366:369   */\n          dup4\n            /* \"#utility.yul\":360:383   */\n          mcopy\n            /* \"#utility.yul\":417:418   */\n          0x00\n            /* \"#utility.yul\":408:414   */\n          dup4\n            /* \"#utility.yul\":403:406   */\n          dup4\n            /* \"#utility.yul\":399:415   */\n          add\n            /* \"#utility.yul\":392:419   */\n          mstore\n            /* \"#utility.yul\":287:426   */\n          pop\n          pop\n          pop\n          jump\t// out\n            /* \"#utility.yul\":432:534   */\n        tag_155:\n            /* \"#utility.yul\":473:479   */\n          0x00\n            /* \"#utility.yul\":524:526   */\n          0x1f\n            /* \"#utility.yul\":520:527   */\n          not\n            /* \"#utility.yul\":515:517   */\n          0x1f\n            /* \"#utility.yul\":508:513   */\n          dup4\n            /* \"#utility.yul\":504:518   */\n          add\n            /* \"#utility.yul\":500:528   */\n          and\n            /* \"#utility.yul\":490:528   */\n          swap1\n          pop\n            /* \"#utility.yul\":432:534   */\n          swap2\n          swap1\n          pop\n          jump\t// out\n            /* \"#utility.yul\":540:917   */\n        tag_156:\n            /* \"#utility.yul\":628:631   */\n          0x00\n            /* \"#utility.yul\":656:695   */\n          tag_185\n            /* \"#utility.yul\":689:694   */\n          dup3\n            /* \"#utility.yul\":656:695   */\n          tag_152\n          jump\t// in\n        tag_185:\n            /* \"#utility.yul\":711:782   */\n          tag_186\n            /* \"#utility.yul\":775:781   */\n          dup2\n            /* \"#utility.yul\":770:773   */\n          dup6\n            /* \"#utility.yul\":711:782   */\n          tag_153\n          jump\t// in\n        tag_186:\n            /* \"#utility.yul\":704:782   */\n          swap4\n          pop\n            /* \"#utility.yul\":791:856   */\n          tag_187\n            /* \"#utility.yul\":849:855   */\n          dup2\n            /* \"#utility.yul\":844:847   */\n          dup6\n            /* \"#utility.yul\":837:841   */\n          0x20\n            /* \"#utility.yul\":830:835   */\n          dup7\n            /* \"#utility.yul\":826:842   */\n          add\n            /* \"#utility.yul\":791:856   */\n          tag_154\n          jump\t// in\n        tag_187:\n            /* \"#utility.yul\":881:910   */\n          tag_188\n            /* \"#utility.yul\":903:909   */\n          dup2\n            /* \"#utility.yul\":881:910   */\n          tag_155\n          jump\t// in\n        tag_188:\n            /* \"#utility.yul\":876:879   */\n          dup5\n            /* \"#utility.yul\":872:911   */\n          add\n            /* \"#utility.yul\":865:911   */\n          swap2\n          pop\n            /* \"#utility.yul\":632:917   */\n          pop\n            /* \"#utility.yul\":540:917   */\n          swap3\n          swap2\n          pop\n          pop\n          jump\t// out\n            /* \"#utility.yul\":923:1236   */\n        tag_19:\n            /* \"#utility.yul\":1036:1040   */\n          0x00\n            /* \"#utility.yul\":1074:1076   */\n          0x20\n            /* \"#utility.yul\":1063:1072   */\n          dup3\n            /* \"#utility.yul\":1059:1077   */\n          add\n            /* \"#utility.yul\":1051:1077   */\n          swap1\n          pop\n            /* \"#utility.yul\":1123:1132   */\n          dup2\n            /* \"#utility.yul\":1117:1121   */\n          dup2\n            /* \"#utility.yul\":1113:1133   */\n          sub\n            /* \"#utility.yul\":1109:1110   */\n          0x00\n            /* \"#utility.yul\":1098:1107   */\n          dup4\n            /* \"#utility.yul\":1094:1111   */\n          add\n            /* \"#utility.yul\":1087:1134   */\n          mstore\n            /* \"#utility.yul\":1151:1229   */\n          tag_190\n            /* \"#utility.yul\":1224:1228   */\n          dup2\n            /* \"#utility.yul\":1215:1221   */\n          dup5\n            /* \"#utility.yul\":1151:1229   */\n          tag_156\n          jump\t// in\n        tag_190:\n            /* \"#utility.yul\":1143:1229   */\n          swap1\n          pop\n            /* \"#utility.yul\":923:1236   */\n          swap3\n          swap2\n          pop\n          pop\n          jump\t// out\n            /* \"#utility.yul\":1323:1440   */\n        tag_158:\n            /* \"#utility.yul\":1432:1433   */\n          0x00\n            /* \"#utility.yul\":1429:1430   */\n          dup1\n            /* \"#utility.yul\":1422:1434   */\n          revert\n            /* \"#utility.yul\":1569:1695   */\n        tag_160:\n            /* \"#utility.yul\":1606:1613   */\n          0x00\n            /* \"#utility.yul\":1646:1688   */\n          0xffffffffffffffffffffffffffffffffffffffff\n            /* \"#utility.yul\":1639:1644   */\n          dup3\n            /* \"#utility.yul\":1635:1689   */\n          and\n            /* \"#utility.yul\":1624:1689   */\n          swap1\n          pop\n            /* \"#utility.yul\":1569:1695   */\n          swap2\n          swap1\n          pop\n          jump\t// out\n            /* \"#utility.yul\":1701:1797   */\n        tag_161:\n            /* \"#utility.yul\":1738:1745   */\n          0x00\n            /* \"#utility.yul\":1767:1791   */\n          tag_196\n            /* \"#utility.yul\":1785:1790   */\n          dup3\n            /* \"#utility.yul\":1767:1791   */\n          tag_160\n          jump\t// in\n        tag_196:\n            /* \"#utility.yul\":1756:1791   */\n          swap1\n          pop\n            /* \"#utility.yul\":1701:1797   */\n          swap2\n          swap1\n          pop\n          jump\t// out\n            /* \"#utility.yul\":1803:1925   */\n        tag_162:\n            /* \"#utility.yul\":1876:1900   */\n          tag_198\n            /* \"#utility.yul\":1894:1899   */\n          dup2\n            /* \"#utility.yul\":1876:1900   */\n          tag_161\n          jump\t// in\n        tag_198:\n            /* \"#utility.yul\":1869:1874   */\n          dup2\n            /* \"#utility.yul\":1866:1901   */\n          eq\n            /* \"#utility.yul\":1856:1919   */\n          tag_199\n          jumpi\n            /* \"#utility.yul\":1915:1916   */\n          0x00\n            /* \"#utility.yul\":1912:1913   */\n          dup1\n            /* \"#utility.yul\":1905:1917   */\n          revert\n            /* \"#utility.yul\":1856:1919   */\n        tag_199:\n            /* \"#utility.yul\":1803:1925   */\n          pop\n          jump\t// out\n            /* \"#utility.yul\":1931:2070   */\n        tag_163:\n            /* \"#utility.yul\":1977:1982   */\n          0x00\n            /* \"#utility.yul\":2015:2021   */\n          dup2\n            /* \"#utility.yul\":2002:2022   */\n          calldataload\n            /* \"#utility.yul\":1993:2022   */\n          swap1\n          pop\n            /* \"#utility.yul\":2031:2064   */\n          tag_201\n            /* \"#utility.yul\":2058:2063   */\n          dup2\n            /* \"#utility.yul\":2031:2064   */\n          tag_162\n          jump\t// in\n        tag_201:\n            /* \"#utility.yul\":1931:2070   */\n          swap3\n          swap2\n          pop\n          pop\n          jump\t// out\n            /* \"#utility.yul\":2076:2153   */\n        tag_164:\n            /* \"#utility.yul\":2113:2120   */\n          0x00\n            /* \"#utility.yul\":2142:2147   */\n          dup2\n            /* \"#utility.yul\":2131:2147   */\n          swap1\n          pop\n            /* \"#utility.yul\":2076:2153   */\n          swap2\n          swap1\n          pop\n          jump\t// out\n            /* \"#utility.yul\":2159:2281   */\n        tag_165:\n            /* \"#utility.yul\":2232:2256   */\n          tag_204\n            /* \"#utility.yul\":2250:2255   */\n          dup2\n            /* \"#utility.yul\":2232:2256   */\n          tag_164\n          jump\t// in\n        tag_204:\n            /* \"#utility.yul\":2225:2230   */\n          dup2\n            /* \"#utility.yul\":2222:2257   */\n          eq\n            /* \"#utility.yul\":2212:2275   */\n          tag_205\n          jumpi\n            /* \"#utility.yul\":2271:2272   */\n          0x00\n            /* \"#utility.yul\":2268:2269   */\n          dup1\n            /* \"#utility.yul\":2261:2273   */\n          revert\n            /* \"#utility.yul\":2212:2275   */\n        tag_205:\n            /* \"#utility.yul\":2159:2281   */\n          pop\n          jump\t// out\n            /* \"#utility.yul\":2287:2426   */\n        tag_166:\n            /* \"#utility.yul\":2333:2338   */\n          0x00\n            /* \"#utility.yul\":2371:2377   */\n          dup2\n            /* \"#utility.yul\":2358:2378   */\n          calldataload\n            /* \"#utility.yul\":2349:2378   */\n          swap1\n          pop\n            /* \"#utility.yul\":2387:2420   */\n          tag_207\n            /* \"#utility.yul\":2414:2419   */\n          dup2\n            /* \"#utility.yul\":2387:2420   */\n          tag_165\n          jump\t// in\n        tag_207:\n            /* \"#utility.yul\":2287:2426   */\n          swap3\n          swap2\n          pop\n          pop\n          jump\t// out\n            /* \"#utility.yul\":2432:2906   */\n        tag_22:\n            /* \"#utility.yul\":2500:2506   */\n          0x00\n            /* \"#utility.yul\":2508:2514   */\n          dup1\n            /* \"#utility.yul\":2557:2559   */\n          0x40\n            /* \"#utility.yul\":2545:2554   */\n          dup4\n            /* \"#utility.yul\":2536:2543   */\n          dup6\n            /* \"#utility.yul\":2532:2555   */\n          sub\n            /* \"#utility.yul\":2528:2560   */\n          slt\n            /* \"#utility.yul\":2525:2644   */\n          iszero\n          tag_209\n          jumpi\n            /* \"#utility.yul\":2563:2642   */\n          tag_210\n          tag_158\n          jump\t// in\n        tag_210:\n            /* \"#utility.yul\":2525:2644   */\n        tag_209:\n            /* \"#utility.yul\":2683:2684   */\n          0x00\n            /* \"#utility.yul\":2708:2761   */\n          tag_211\n            /* \"#utility.yul\":2753:2760   */\n          dup6\n            /* \"#utility.yul\":2744:2750   */\n          dup3\n            /* \"#utility.yul\":2733:2742   */\n          dup7\n            /* \"#utility.yul\":2729:2751   */\n          add\n            /* \"#utility.yul\":2708:2761   */\n          tag_163\n          jump\t// in\n        tag_211:\n            /* \"#utility.yul\":2698:2761   */\n          swap3\n          pop\n            /* \"#utility.yul\":2654:2771   */\n          pop\n            /* \"#utility.yul\":2810:2812   */\n          0x20\n            /* \"#utility.yul\":2836:2889   */\n          tag_212\n            /* \"#utility.yul\":2881:2888   */\n          dup6\n            /* \"#utility.yul\":2872:2878   */\n          dup3\n            /* \"#utility.yul\":2861:2870   */\n          dup7\n            /* \"#utility.yul\":2857:2879   */\n          add\n            /* \"#utility.yul\":2836:2889   */\n          tag_166\n          jump\t// in\n        tag_212:\n            /* \"#utility.yul\":2826:2889   */\n          swap2\n          pop\n            /* \"#utility.yul\":2781:2899   */\n          pop\n            /* \"#utility.yul\":2432:2906   */\n          swap3\n          pop\n          swap3\n          swap1\n          pop\n          jump\t// out\n            /* \"#utility.yul\":2912:3002   */\n        tag_167:\n            /* \"#utility.yul\":2946:2953   */\n          0x00\n            /* \"#utility.yul\":2989:2994   */\n          dup2\n            /* \"#utility.yul\":2982:2995   */\n          iszero\n            /* \"#utility.yul\":2975:2996   */\n          iszero\n            /* \"#utility.yul\":2964:2996   */\n          swap1\n          pop\n            /* \"#utility.yul\":2912:3002   */\n          swap2\n          swap1\n          pop\n          jump\t// out\n            /* \"#utility.yul\":3008:3117   */\n        tag_168:\n            /* \"#utility.yul\":3089:3110   */\n          tag_215\n            /* \"#utility.yul\":3104:3109   */\n          dup2\n            /* \"#utility.yul\":3089:3110   */\n          tag_167\n          jump\t// in\n        tag_215:\n            /* \"#utility.yul\":3084:3087   */\n          dup3\n            /* \"#utility.yul\":3077:3111   */\n          mstore\n            /* \"#utility.yul\":3008:3117   */\n          pop\n          pop\n          jump\t// out\n            /* \"#utility.yul\":3123:3333   */\n        tag_25:\n            /* \"#utility.yul\":3210:3214   */\n          0x00\n            /* \"#utility.yul\":3248:3250   */\n          0x20\n            /* \"#utility.yul\":3237:3246   */\n          dup3\n            /* \"#utility.yul\":3233:3251   */\n          add\n            /* \"#utility.yul\":3225:3251   */\n          swap1\n          pop\n            /* \"#utility.yul\":3261:3326   */\n          tag_217\n            /* \"#utility.yul\":3323:3324   */\n          0x00\n            /* \"#utility.yul\":3312:3321   */\n          dup4\n            /* \"#utility.yul\":3308:3325   */\n          add\n            /* \"#utility.yul\":3299:3305   */\n          dup5\n            /* \"#utility.yul\":3261:3326   */\n          tag_168\n          jump\t// in\n        tag_217:\n            /* \"#utility.yul\":3123:3333   */\n          swap3\n          swap2\n          pop\n          pop\n          jump\t// out\n            /* \"#utility.yul\":3339:3457   */\n        tag_169:\n            /* \"#utility.yul\":3426:3450   */\n          tag_219\n            /* \"#utility.yul\":3444:3449   */\n          dup2\n            /* \"#utility.yul\":3426:3450   */\n          tag_164\n          jump\t// in\n        tag_219:\n            /* \"#utility.yul\":3421:3424   */\n          dup3\n            /* \"#utility.yul\":3414:3451   */\n          mstore\n            /* \"#utility.yul\":3339:3457   */\n          pop\n          pop\n          jump\t// out\n            /* \"#utility.yul\":3463:3685   */\n        tag_29:\n            /* \"#utility.yul\":3556:3560   */\n          0x00\n            /* \"#utility.yul\":3594:3596   */\n          0x20\n            /* \"#utility.yul\":3583:3592   */\n          dup3\n            /* \"#utility.yul\":3579:3597   */\n          add\n            /* \"#utility.yul\":3571:3597   */\n          swap1\n          pop\n            /* \"#utility.yul\":3607:3678   */\n          tag_221\n            /* \"#utility.yul\":3675:3676   */\n          0x00\n            /* \"#utility.yul\":3664:3673   */\n          dup4\n            /* \"#utility.yul\":3660:3677   */\n          add\n            /* \"#utility.yul\":3651:3657   */\n          dup5\n            /* \"#utility.yul\":3607:3678   */\n          tag_169\n          jump\t// in\n        tag_221:\n            /* \"#utility.yul\":3463:3685   */\n          swap3\n          swap2\n          pop\n          pop\n          jump\t// out\n            /* \"#utility.yul\":3691:4310   */\n        tag_32:\n            /* \"#utility.yul\":3768:3774   */\n          0x00\n            /* \"#utility.yul\":3776:3782   */\n          dup1\n            /* \"#utility.yul\":3784:3790   */\n          0x00\n            /* \"#utility.yul\":3833:3835   */\n          0x60\n            /* \"#utility.yul\":3821:3830   */\n          dup5\n            /* \"#utility.yul\":3812:3819   */\n          dup7\n            /* \"#utility.yul\":3808:3831   */\n          sub\n            /* \"#utility.yul\":3804:3836   */\n          slt\n            /* \"#utility.yul\":3801:3920   */\n          iszero\n          tag_223\n          jumpi\n            /* \"#utility.yul\":3839:3918   */\n          tag_224\n          tag_158\n          jump\t// in\n        tag_224:\n            /* \"#utility.yul\":3801:3920   */\n        tag_223:\n            /* \"#utility.yul\":3959:3960   */\n          0x00\n            /* \"#utility.yul\":3984:4037   */\n          tag_225\n            /* \"#utility.yul\":4029:4036   */\n          dup7\n            /* \"#utility.yul\":4020:4026   */\n          dup3\n            /* \"#utility.yul\":4009:4018   */\n          dup8\n            /* \"#utility.yul\":4005:4027   */\n          add\n            /* \"#utility.yul\":3984:4037   */\n          tag_163\n          jump\t// in\n        tag_225:\n            /* \"#utility.yul\":3974:4037   */\n          swap4\n          pop\n            /* \"#utility.yul\":3930:4047   */\n          pop\n            /* \"#utility.yul\":4086:4088   */\n          0x20\n            /* \"#utility.yul\":4112:4165   */\n          tag_226\n            /* \"#utility.yul\":4157:4164   */\n          dup7\n            /* \"#utility.yul\":4148:4154   */\n          dup3\n            /* \"#utility.yul\":4137:4146   */\n          dup8\n            /* \"#utility.yul\":4133:4155   */\n          add\n            /* \"#utility.yul\":4112:4165   */\n          tag_163\n          jump\t// in\n        tag_226:\n            /* \"#utility.yul\":4102:4165   */\n          swap3\n          pop\n            /* \"#utility.yul\":4057:4175   */\n          pop\n            /* \"#utility.yul\":4214:4216   */\n          0x40\n            /* \"#utility.yul\":4240:4293   */\n          tag_227\n            /* \"#utility.yul\":4285:4292   */\n          dup7\n            /* \"#utility.yul\":4276:4282   */\n          dup3\n            /* \"#utility.yul\":4265:4274   */\n          dup8\n            /* \"#utility.yul\":4261:4283   */\n          add\n            /* \"#utility.yul\":4240:4293   */\n          tag_166\n          jump\t// in\n        tag_227:\n            /* \"#utility.yul\":4230:4293   */\n          swap2\n          pop\n            /* \"#utility.yul\":4185:4303   */\n          pop\n            /* \"#utility.yul\":3691:4310   */\n          swap3\n          pop\n          swap3\n          pop\n          swap3\n          jump\t// out\n            /* \"#utility.yul\":4316:4402   */\n        tag_170:\n            /* \"#utility.yul\":4351:4358   */\n          0x00\n            /* \"#utility.yul\":4391:4395   */\n          0xff\n            /* \"#utility.yul\":4384:4389   */\n          dup3\n            /* \"#utility.yul\":4380:4396   */\n          and\n            /* \"#utility.yul\":4369:4396   */\n          swap1\n          pop\n            /* \"#utility.yul\":4316:4402   */\n          swap2\n          swap1\n          pop\n          jump\t// out\n            /* \"#utility.yul\":4408:4520   */\n        tag_171:\n            /* \"#utility.yul\":4491:4513   */\n          tag_230\n            /* \"#utility.yul\":4507:4512   */\n          dup2\n            /* \"#utility.yul\":4491:4513   */\n          tag_170\n          jump\t// in\n        tag_230:\n            /* \"#utility.yul\":4486:4489   */\n          dup3\n            /* \"#utility.yul\":4479:4514   */\n          mstore\n            /* \"#utility.yul\":4408:4520   */\n          pop\n          pop\n          jump\t// out\n            /* \"#utility.yul\":4526:4740   */\n        tag_38:\n            /* \"#utility.yul\":4615:4619   */\n          0x00\n            /* \"#utility.yul\":4653:4655   */\n          0x20\n            /* \"#utility.yul\":4642:4651   */\n          dup3\n            /* \"#utility.yul\":4638:4656   */\n          add\n            /* \"#utility.yul\":4630:4656   */\n          swap1\n          pop\n            /* \"#utility.yul\":4666:4733   */\n          tag_232\n            /* \"#utility.yul\":4730:4731   */\n          0x00\n            /* \"#utility.yul\":4719:4728   */\n          dup4\n            /* \"#utility.yul\":4715:4732   */\n          add\n            /* \"#utility.yul\":4706:4712   */\n          dup5\n            /* \"#utility.yul\":4666:4733   */\n          tag_171\n          jump\t// in\n        tag_232:\n            /* \"#utility.yul\":4526:4740   */\n          swap3\n          swap2\n          pop\n          pop\n          jump\t// out\n            /* \"#utility.yul\":4746:4864   */\n        tag_172:\n            /* \"#utility.yul\":4833:4857   */\n          tag_234\n            /* \"#utility.yul\":4851:4856   */\n          dup2\n            /* \"#utility.yul\":4833:4857   */\n          tag_161\n          jump\t// in\n        tag_234:\n            /* \"#utility.yul\":4828:4831   */\n          dup3\n            /* \"#utility.yul\":4821:4858   */\n          mstore\n            /* \"#utility.yul\":4746:4864   */\n          pop\n          pop\n          jump\t// out\n            /* \"#utility.yul\":4870:5092   */\n        tag_45:\n            /* \"#utility.yul\":4963:4967   */\n          0x00\n            /* \"#utility.yul\":5001:5003   */\n          0x20\n            /* \"#utility.yul\":4990:4999   */\n          dup3\n            /* \"#utility.yul\":4986:5004   */\n          add\n            /* \"#utility.yul\":4978:5004   */\n          swap1\n          pop\n            /* \"#utility.yul\":5014:5085   */\n          tag_236\n            /* \"#utility.yul\":5082:5083   */\n          0x00\n            /* \"#utility.yul\":5071:5080   */\n          dup4\n            /* \"#utility.yul\":5067:5084   */\n          add\n            /* \"#utility.yul\":5058:5064   */\n          dup5\n            /* \"#utility.yul\":5014:5085   */\n          tag_172\n          jump\t// in\n        tag_236:\n            /* \"#utility.yul\":4870:5092   */\n          swap3\n          swap2\n          pop\n          pop\n          jump\t// out\n            /* \"#utility.yul\":5098:5427   */\n        tag_48:\n            /* \"#utility.yul\":5157:5163   */\n          0x00\n            /* \"#utility.yul\":5206:5208   */\n          0x20\n            /* \"#utility.yul\":5194:5203   */\n          dup3\n            /* \"#utility.yul\":5185:5192   */\n          dup5\n            /* \"#utility.yul\":5181:5204   */\n          sub\n            /* \"#utility.yul\":5177:5209   */\n          slt\n            /* \"#utility.yul\":5174:5293   */\n          iszero\n          tag_238\n          jumpi\n            /* \"#utility.yul\":5212:5291   */\n          tag_239\n          tag_158\n          jump\t// in\n        tag_239:\n            /* \"#utility.yul\":5174:5293   */\n        tag_238:\n            /* \"#utility.yul\":5332:5333   */\n          0x00\n            /* \"#utility.yul\":5357:5410   */\n          tag_240\n            /* \"#utility.yul\":5402:5409   */\n          dup5\n            /* \"#utility.yul\":5393:5399   */\n          dup3\n            /* \"#utility.yul\":5382:5391   */\n          dup6\n            /* \"#utility.yul\":5378:5400   */\n          add\n            /* \"#utility.yul\":5357:5410   */\n          tag_163\n          jump\t// in\n        tag_240:\n            /* \"#utility.yul\":5347:5410   */\n          swap2\n          pop\n            /* \"#utility.yul\":5303:5420   */\n          pop\n            /* \"#utility.yul\":5098:5427   */\n          swap3\n          swap2\n          pop\n          pop\n          jump\t// out\n            /* \"#utility.yul\":5433:5907   */\n        tag_63:\n            /* \"#utility.yul\":5501:5507   */\n          0x00\n            /* \"#utility.yul\":5509:5515   */\n          dup1\n            /* \"#utility.yul\":5558:5560   */\n          0x40\n            /* \"#utility.yul\":5546:5555   */\n          dup4\n            /* \"#utility.yul\":5537:5544   */\n          dup6\n            /* \"#utility.yul\":5533:5556   */\n          sub\n            /* \"#utility.yul\":5529:5561   */\n          slt\n            /* \"#utility.yul\":5526:5645   */\n          iszero\n          tag_242\n          jumpi\n            /* \"#utility.yul\":5564:5643   */\n          tag_243\n          tag_158\n          jump\t// in\n        tag_243:\n            /* \"#utility.yul\":5526:5645   */\n        tag_242:\n            /* \"#utility.yul\":5684:5685   */\n          0x00\n            /* \"#utility.yul\":5709:5762   */\n          tag_244\n            /* \"#utility.yul\":5754:5761   */\n          dup6\n            /* \"#utility.yul\":5745:5751   */\n          dup3\n            /* \"#utility.yul\":5734:5743   */\n          dup7\n            /* \"#utility.yul\":5730:5752   */\n          add\n            /* \"#utility.yul\":5709:5762   */\n          tag_163\n          jump\t// in\n        tag_244:\n            /* \"#utility.yul\":5699:5762   */\n          swap3\n          pop\n            /* \"#utility.yul\":5655:5772   */\n          pop\n            /* \"#utility.yul\":5811:5813   */\n          0x20\n            /* \"#utility.yul\":5837:5890   */\n          tag_245\n            /* \"#utility.yul\":5882:5889   */\n          dup6\n            /* \"#utility.yul\":5873:5879   */\n          dup3\n            /* \"#utility.yul\":5862:5871   */\n          dup7\n            /* \"#utility.yul\":5858:5880   */\n          add\n            /* \"#utility.yul\":5837:5890   */\n          tag_163\n          jump\t// in\n        tag_245:\n            /* \"#utility.yul\":5827:5890   */\n          swap2\n          pop\n            /* \"#utility.yul\":5782:5900   */\n          pop\n            /* \"#utility.yul\":5433:5907   */\n          swap3\n          pop\n          swap3\n          swap1\n          pop\n          jump\t// out\n            /* \"#utility.yul\":5913:6093   */\n        tag_173:\n            /* \"#utility.yul\":5961:6038   */\n          0x4e487b7100000000000000000000000000000000000000000000000000000000\n            /* \"#utility.yul\":5958:5959   */\n          0x00\n            /* \"#utility.yul\":5951:6039   */\n          mstore\n            /* \"#utility.yul\":6058:6062   */\n          0x22\n            /* \"#utility.yul\":6055:6056   */\n          0x04\n            /* \"#utility.yul\":6048:6063   */\n          mstore\n            /* \"#utility.yul\":6082:6086   */\n          0x24\n            /* \"#utility.yul\":6079:6080   */\n          0x00\n            /* \"#utility.yul\":6072:6087   */\n          revert\n            /* \"#utility.yul\":6099:6419   */\n        tag_68:\n            /* \"#utility.yul\":6143:6149   */\n          0x00\n            /* \"#utility.yul\":6180:6181   */\n          0x02\n            /* \"#utility.yul\":6174:6178   */\n          dup3\n            /* \"#utility.yul\":6170:6182   */\n          div\n            /* \"#utility.yul\":6160:6182   */\n          swap1\n          pop\n            /* \"#utility.yul\":6227:6228   */\n          0x01\n            /* \"#utility.yul\":6221:6225   */\n          dup3\n            /* \"#utility.yul\":6217:6229   */\n          and\n            /* \"#utility.yul\":6248:6266   */\n          dup1\n            /* \"#utility.yul\":6238:6319   */\n          tag_248\n          jumpi\n            /* \"#utility.yul\":6304:6308   */\n          0x7f\n            /* \"#utility.yul\":6296:6302   */\n          dup3\n            /* \"#utility.yul\":6292:6309   */\n          and\n            /* \"#utility.yul\":6282:6309   */\n          swap2\n          pop\n            /* \"#utility.yul\":6238:6319   */\n        tag_248:\n            /* \"#utility.yul\":6366:6368   */\n          0x20\n            /* \"#utility.yul\":6358:6364   */\n          dup3\n            /* \"#utility.yul\":6355:6369   */\n          lt\n            /* \"#utility.yul\":6335:6353   */\n          dup2\n            /* \"#utility.yul\":6332:6370   */\n          sub\n            /* \"#utility.yul\":6329:6413   */\n          tag_249\n          jumpi\n            /* \"#utility.yul\":6385:6403   */\n          tag_250\n          tag_173\n          jump\t// in\n        tag_250:\n            /* \"#utility.yul\":6329:6413   */\n        tag_249:\n            /* \"#utility.yul\":6150:6419   */\n          pop\n            /* \"#utility.yul\":6099:6419   */\n          swap2\n          swap1\n          pop\n          jump\t// out\n            /* \"#utility.yul\":6425:6601   */\n        tag_174:\n            /* \"#utility.yul\":6565:6593   */\n          0x4c50546f6b656e3a204f6e6c79204445582063616e206d696e74000000000000\n            /* \"#utility.yul\":6561:6562   */\n          0x00\n            /* \"#utility.yul\":6553:6559   */\n          dup3\n            /* \"#utility.yul\":6549:6563   */\n          add\n            /* \"#utility.yul\":6542:6594   */\n          mstore\n            /* \"#utility.yul\":6425:6601   */\n          pop\n          jump\t// out\n            /* \"#utility.yul\":6607:6973   */\n        tag_175:\n            /* \"#utility.yul\":6749:6752   */\n          0x00\n            /* \"#utility.yul\":6770:6837   */\n          tag_253\n            /* \"#utility.yul\":6834:6836   */\n          0x1a\n            /* \"#utility.yul\":6829:6832   */\n          dup4\n            /* \"#utility.yul\":6770:6837   */\n          tag_153\n          jump\t// in\n        tag_253:\n            /* \"#utility.yul\":6763:6837   */\n          swap2\n          pop\n            /* \"#utility.yul\":6846:6939   */\n          tag_254\n            /* \"#utility.yul\":6935:6938   */\n          dup3\n            /* \"#utility.yul\":6846:6939   */\n          tag_174\n          jump\t// in\n        tag_254:\n            /* \"#utility.yul\":6964:6966   */\n          0x20\n            /* \"#utility.yul\":6959:6962   */\n          dup3\n            /* \"#utility.yul\":6955:6967   */\n          add\n            /* \"#utility.yul\":6948:6967   */\n          swap1\n          pop\n            /* \"#utility.yul\":6607:6973   */\n          swap2\n          swap1\n          pop\n          jump\t// out\n            /* \"#utility.yul\":6979:7398   */\n        tag_89:\n            /* \"#utility.yul\":7145:7149   */\n          0x00\n            /* \"#utility.yul\":7183:7185   */\n          0x20\n            /* \"#utility.yul\":7172:7181   */\n          dup3\n            /* \"#utility.yul\":7168:7186   */\n          add\n            /* \"#utility.yul\":7160:7186   */\n          swap1\n          pop\n            /* \"#utility.yul\":7232:7241   */\n          dup2\n            /* \"#utility.yul\":7226:7230   */\n          dup2\n            /* \"#utility.yul\":7222:7242   */\n          sub\n            /* \"#utility.yul\":7218:7219   */\n          0x00\n            /* \"#utility.yul\":7207:7216   */\n          dup4\n            /* \"#utility.yul\":7203:7220   */\n          add\n            /* \"#utility.yul\":7196:7243   */\n          mstore\n            /* \"#utility.yul\":7260:7391   */\n          tag_256\n            /* \"#utility.yul\":7386:7390   */\n          dup2\n            /* \"#utility.yul\":7260:7391   */\n          tag_175\n          jump\t// in\n        tag_256:\n            /* \"#utility.yul\":7252:7391   */\n          swap1\n          pop\n            /* \"#utility.yul\":6979:7398   */\n          swap2\n          swap1\n          pop\n          jump\t// out\n            /* \"#utility.yul\":7404:7580   */\n        tag_176:\n            /* \"#utility.yul\":7544:7572   */\n          0x4c50546f6b656e3a204f6e6c79204445582063616e206275726e000000000000\n            /* \"#utility.yul\":7540:7541   */\n          0x00\n            /* \"#utility.yul\":7532:7538   */\n          dup3\n            /* \"#utility.yul\":7528:7542   */\n          add\n            /* \"#utility.yul\":7521:7573   */\n          mstore\n            /* \"#utility.yul\":7404:7580   */\n          pop\n          jump\t// out\n            /* \"#utility.yul\":7586:7952   */\n        tag_177:\n            /* \"#utility.yul\":7728:7731   */\n          0x00\n            /* \"#utility.yul\":7749:7816   */\n          tag_259\n            /* \"#utility.yul\":7813:7815   */\n          0x1a\n            /* \"#utility.yul\":7808:7811   */\n          dup4\n            /* \"#utility.yul\":7749:7816   */\n          tag_153\n          jump\t// in\n        tag_259:\n            /* \"#utility.yul\":7742:7816   */\n          swap2\n          pop\n            /* \"#utility.yul\":7825:7918   */\n          tag_260\n            /* \"#utility.yul\":7914:7917   */\n          dup3\n            /* \"#utility.yul\":7825:7918   */\n          tag_176\n          jump\t// in\n        tag_260:\n            /* \"#utility.yul\":7943:7945   */\n          0x20\n            /* \"#utility.yul\":7938:7941   */\n          dup3\n            /* \"#utility.yul\":7934:7946   */\n          add\n            /* \"#utility.yul\":7927:7946   */\n          swap1\n          pop\n            /* \"#utility.yul\":7586:7952   */\n          swap2\n          swap1\n          pop\n          jump\t// out\n            /* \"#utility.yul\":7958:8377   */\n        tag_96:\n            /* \"#utility.yul\":8124:8128   */\n          0x00\n            /* \"#utility.yul\":8162:8164   */\n          0x20\n            /* \"#utility.yul\":8151:8160   */\n          dup3\n            /* \"#utility.yul\":8147:8165   */\n          add\n            /* \"#utility.yul\":8139:8165   */\n          swap1\n          pop\n            /* \"#utility.yul\":8211:8220   */\n          dup2\n            /* \"#utility.yul\":8205:8209   */\n          dup2\n            /* \"#utility.yul\":8201:8221   */\n          sub\n            /* \"#utility.yul\":8197:8198   */\n          0x00\n            /* \"#utility.yul\":8186:8195   */\n          dup4\n            /* \"#utility.yul\":8182:8199   */\n          add\n            /* \"#utility.yul\":8175:8222   */\n          mstore\n            /* \"#utility.yul\":8239:8370   */\n          tag_262\n            /* \"#utility.yul\":8365:8369   */\n          dup2\n            /* \"#utility.yul\":8239:8370   */\n          tag_177\n          jump\t// in\n        tag_262:\n            /* \"#utility.yul\":8231:8370   */\n          swap1\n          pop\n            /* \"#utility.yul\":7958:8377   */\n          swap2\n          swap1\n          pop\n          jump\t// out\n            /* \"#utility.yul\":8383:8825   */\n        tag_118:\n            /* \"#utility.yul\":8532:8536   */\n          0x00\n            /* \"#utility.yul\":8570:8572   */\n          0x60\n            /* \"#utility.yul\":8559:8568   */\n          dup3\n            /* \"#utility.yul\":8555:8573   */\n          add\n            /* \"#utility.yul\":8547:8573   */\n          swap1\n          pop\n            /* \"#utility.yul\":8583:8654   */\n          tag_264\n            /* \"#utility.yul\":8651:8652   */\n          0x00\n            /* \"#utility.yul\":8640:8649   */\n          dup4\n            /* \"#utility.yul\":8636:8653   */\n          add\n            /* \"#utility.yul\":8627:8633   */\n          dup7\n            /* \"#utility.yul\":8583:8654   */\n          tag_172\n          jump\t// in\n        tag_264:\n            /* \"#utility.yul\":8664:8736   */\n          tag_265\n            /* \"#utility.yul\":8732:8734   */\n          0x20\n            /* \"#utility.yul\":8721:8730   */\n          dup4\n            /* \"#utility.yul\":8717:8735   */\n          add\n            /* \"#utility.yul\":8708:8714   */\n          dup6\n            /* \"#utility.yul\":8664:8736   */\n          tag_169\n          jump\t// in\n        tag_265:\n            /* \"#utility.yul\":8746:8818   */\n          tag_266\n            /* \"#utility.yul\":8814:8816   */\n          0x40\n            /* \"#utility.yul\":8803:8812   */\n          dup4\n            /* \"#utility.yul\":8799:8817   */\n          add\n            /* \"#utility.yul\":8790:8796   */\n          dup5\n            /* \"#utility.yul\":8746:8818   */\n          tag_169\n          jump\t// in\n        tag_266:\n            /* \"#utility.yul\":8383:8825   */\n          swap5\n          swap4\n          pop\n          pop\n          pop\n          pop\n          jump\t// out\n            /* \"#utility.yul\":8831:9011   */\n        tag_178:\n            /* \"#utility.yul\":8879:8956   */\n          0x4e487b7100000000000000000000000000000000000000000000000000000000\n            /* \"#utility.yul\":8876:8877   */\n          0x00\n            /* \"#utility.yul\":8869:8957   */\n          mstore\n            /* \"#utility.yul\":8976:8980   */\n          0x11\n            /* \"#utility.yul\":8973:8974   */\n          0x04\n            /* \"#utility.yul\":8966:8981   */\n          mstore\n            /* \"#utility.yul\":9000:9004   */\n          0x24\n            /* \"#utility.yul\":8997:8998   */\n          0x00\n            /* \"#utility.yul\":8990:9005   */\n          revert\n            /* \"#utility.yul\":9017:9208   */\n        tag_145:\n            /* \"#utility.yul\":9057:9060   */\n          0x00\n            /* \"#utility.yul\":9076:9096   */\n          tag_269\n            /* \"#utility.yul\":9094:9095   */\n          dup3\n            /* \"#utility.yul\":9076:9096   */\n          tag_164\n          jump\t// in\n        tag_269:\n            /* \"#utility.yul\":9071:9096   */\n          swap2\n          pop\n            /* \"#utility.yul\":9110:9130   */\n          tag_270\n            /* \"#utility.yul\":9128:9129   */\n          dup4\n            /* \"#utility.yul\":9110:9130   */\n          tag_164\n          jump\t// in\n        tag_270:\n            /* \"#utility.yul\":9105:9130   */\n          swap3\n          pop\n            /* \"#utility.yul\":9153:9154   */\n          dup3\n            /* \"#utility.yul\":9150:9151   */\n          dup3\n            /* \"#utility.yul\":9146:9155   */\n          add\n            /* \"#utility.yul\":9139:9155   */\n          swap1\n          pop\n            /* \"#utility.yul\":9174:9177   */\n          dup1\n            /* \"#utility.yul\":9171:9172   */\n          dup3\n            /* \"#utility.yul\":9168:9178   */\n          gt\n            /* \"#utility.yul\":9165:9201   */\n          iszero\n          tag_271\n          jumpi\n            /* \"#utility.yul\":9181:9199   */\n          tag_272\n          tag_178\n          jump\t// in\n        tag_272:\n            /* \"#utility.yul\":9165:9201   */\n        tag_271:\n            /* \"#utility.yul\":9017:9208   */\n          swap3\n          swap2\n          pop\n          pop\n          jump\t// out\n\n        auxdata: 0xa26469706673582212206e4411a21cb1df315a0815fceee83a451b17d146cbb20103495af652841d629a64736f6c634300081a0033\n    }\n}\n",
				"bytecode": {
					"linkReferences": {},
					"object": "608060405234801561000f575f80fd5b5060405161362238038061362283398181016040528101906100319190610190565b815f806101000a81548173ffffffffffffffffffffffffffffffffffffffff021916908373ffffffffffffffffffffffffffffffffffffffff1602179055508060015f6101000a81548173ffffffffffffffffffffffffffffffffffffffff021916908373ffffffffffffffffffffffffffffffffffffffff1602179055506040516100bc90610125565b6100c590610272565b604051809103905ff0801580156100de573d5f803e3d5ffd5b5060025f6101000a81548173ffffffffffffffffffffffffffffffffffffffff021916908373ffffffffffffffffffffffffffffffffffffffff16021790555050506102a3565b6116ce80611f5483390190565b5f80fd5b5f73ffffffffffffffffffffffffffffffffffffffff82169050919050565b5f61015f82610136565b9050919050565b61016f81610155565b8114610179575f80fd5b50565b5f8151905061018a81610166565b92915050565b5f80604083850312156101a6576101a5610132565b5b5f6101b38582860161017c565b92505060206101c48582860161017c565b9150509250929050565b5f82825260208201905092915050565b7f444558204c5020546f6b656e00000000000000000000000000000000000000005f82015250565b5f610212600c836101ce565b915061021d826101de565b602082019050919050565b7f444c5000000000000000000000000000000000000000000000000000000000005f82015250565b5f61025c6003836101ce565b915061026782610228565b602082019050919050565b5f6040820190508181035f83015261028981610206565b9050818103602083015261029c81610250565b9050919050565b611ca4806102b05f395ff3fe608060405234801561000f575f80fd5b50600436106100b2575f3560e01c80635f64b55b1161006f5780635f64b55b146101655780635fcbd2851461018357806368a94844146101a1578063723f916a146101bf578063ad56238d146101dd578063dc5fa6c5146101f9576100b2565b80630902f1ac146100b65780630a861f2a146100d55780630fc63d10146100f157806319e36f3b1461010f57806334a860e41461012d578063507b0e6b14610149575b5f80fd5b6100be610217565b6040516100cc929190611243565b60405180910390f35b6100ef60048036038101906100ea9190611298565b610227565b005b6100f9610634565b604051610106919061133d565b60405180910390f35b610117610657565b6040516101249190611356565b60405180910390f35b6101476004803603810190610142919061136f565b61065d565b005b610163600480360381019061015e9190611298565b610b0a565b005b61016d610dca565b60405161017a919061133d565b60405180910390f35b61018b610def565b60405161019891906113cd565b60405180910390f35b6101a9610e14565b6040516101b69190611356565b60405180910390f35b6101c7610e81565b6040516101d49190611356565b60405180910390f35b6101f760048036038101906101f29190611298565b610eee565b005b6102016111ae565b60405161020e9190611356565b60405180910390f35b5f80600354600454915091509091565b5f8111610269576040517f08c379a000000000000000000000000000000000000000000000000000000000815260040161026090611466565b60405180910390fd5b5f60025f9054906101000a900473ffffffffffffffffffffffffffffffffffffffff1673ffffffffffffffffffffffffffffffffffffffff166318160ddd6040518163ffffffff1660e01b8152600401602060405180830381865afa1580156102d4573d5f803e3d5ffd5b505050506040513d601f19601f820116820180604052508101906102f89190611498565b90505f811161033c576040517f08c379a00000000000000000000000000000000000000000000000000000000081526004016103339061150d565b60405180910390fd5b5f816003548461034c9190611558565b61035691906115c6565b90505f82600454856103689190611558565b61037291906115c6565b90505f8211801561038257505f81115b6103c1576040517f08c379a00000000000000000000000000000000000000000000000000000000081526004016103b890611640565b60405180910390fd5b60025f9054906101000a900473ffffffffffffffffffffffffffffffffffffffff1673ffffffffffffffffffffffffffffffffffffffff166379cc679033866040518363ffffffff1660e01b815260040161041d92919061167e565b5f604051808303815f87803b158015610434575f80fd5b505af1158015610446573d5f803e3d5ffd5b505050508160035f82825461045b91906116a5565b925050819055508060045f82825461047391906116a5565b925050819055505f8054906101000a900473ffffffffffffffffffffffffffffffffffffffff1673ffffffffffffffffffffffffffffffffffffffff1663a9059cbb33846040518363ffffffff1660e01b81526004016104d492919061167e565b6020604051808303815f875af11580156104f0573d5f803e3d5ffd5b505050506040513d601f19601f82011682018060405250810190610514919061170d565b610553576040517f08c379a000000000000000000000000000000000000000000000000000000000815260040161054a90611782565b60405180910390fd5b60015f9054906101000a900473ffffffffffffffffffffffffffffffffffffffff1673ffffffffffffffffffffffffffffffffffffffff1663a9059cbb33836040518363ffffffff1660e01b81526004016105af92919061167e565b6020604051808303815f875af11580156105cb573d5f803e3d5ffd5b505050506040513d601f19601f820116820180604052508101906105ef919061170d565b61062e576040517f08c379a0000000000000000000000000000000000000000000000000000000008152600401610625906117ea565b60405180910390fd5b50505050565b5f8054906101000a900473ffffffffffffffffffffffffffffffffffffffff1681565b60045481565b5f8211801561066b57505f81115b6106aa576040517f08c379a00000000000000000000000000000000000000000000000000000000081526004016106a190611878565b60405180910390fd5b5f60035411806106bb57505f600454115b1561071d5780826106cc91906115c6565b6004546003546106dc91906115c6565b1461071c576040517f08c379a000000000000000000000000000000000000000000000000000000000815260040161071390611906565b60405180910390fd5b5b5f8054906101000a900473ffffffffffffffffffffffffffffffffffffffff1673ffffffffffffffffffffffffffffffffffffffff166323b872dd3330856040518463ffffffff1660e01b815260040161077993929190611924565b6020604051808303815f875af1158015610795573d5f803e3d5ffd5b505050506040513d601f19601f820116820180604052508101906107b9919061170d565b6107f8576040517f08c379a00000000000000000000000000000000000000000000000000000000081526004016107ef90611782565b60405180910390fd5b60015f9054906101000a900473ffffffffffffffffffffffffffffffffffffffff1673ffffffffffffffffffffffffffffffffffffffff166323b872dd3330846040518463ffffffff1660e01b815260040161085693929190611924565b6020604051808303815f875af1158015610872573d5f803e3d5ffd5b505050506040513d601f19601f82011682018060405250810190610896919061170d565b6108d5576040517f08c379a00000000000000000000000000000000000000000000000000000000081526004016108cc906117ea565b60405180910390fd5b5f8060025f9054906101000a900473ffffffffffffffffffffffffffffffffffffffff1673ffffffffffffffffffffffffffffffffffffffff166318160ddd6040518163ffffffff1660e01b8152600401602060405180830381865afa158015610941573d5f803e3d5ffd5b505050506040513d601f19601f820116820180604052508101906109659190611498565b90505f810361098957610982838561097d9190611558565b6111b4565b9150610a09565b5f60035482866109999190611558565b6109a391906115c6565b90505f60045483866109b59190611558565b6109bf91906115c6565b9050808214610a03576040517f08c379a00000000000000000000000000000000000000000000000000000000081526004016109fa906119c9565b60405180910390fd5b81935050505b5f8211610a4b576040517f08c379a0000000000000000000000000000000000000000000000000000000008152600401610a4290611a57565b60405180910390fd5b60025f9054906101000a900473ffffffffffffffffffffffffffffffffffffffff1673ffffffffffffffffffffffffffffffffffffffff166340c10f1933846040518363ffffffff1660e01b8152600401610aa792919061167e565b5f604051808303815f87803b158015610abe575f80fd5b505af1158015610ad0573d5f803e3d5ffd5b505050508360035f828254610ae59190611a75565b925050819055508260045f828254610afd9190611a75565b9250508190555050505050565b5f8111610b4c576040517f08c379a0000000000000000000000000000000000000000000000000000000008152600401610b4390611b18565b60405180910390fd5b5f8054906101000a900473ffffffffffffffffffffffffffffffffffffffff1673ffffffffffffffffffffffffffffffffffffffff166323b872dd3330846040518463ffffffff1660e01b8152600401610ba893929190611924565b6020604051808303815f875af1158015610bc4573d5f803e3d5ffd5b505050506040513d601f19601f82011682018060405250810190610be8919061170d565b610c27576040517f08c379a0000000000000000000000000000000000000000000000000000000008152600401610c1e90611782565b60405180910390fd5b5f6103e86103e583610c399190611558565b610c4391906115c6565b90505f60045482610c549190611558565b90505f82600354610c659190611a75565b90505f8183610c7491906115c6565b90505f8111610cb8576040517f08c379a0000000000000000000000000000000000000000000000000000000008152600401610caf90611b80565b60405180910390fd5b8460035f828254610cc99190611a75565b925050819055508060045f828254610ce191906116a5565b9250508190555060015f9054906101000a900473ffffffffffffffffffffffffffffffffffffffff1673ffffffffffffffffffffffffffffffffffffffff1663a9059cbb33836040518363ffffffff1660e01b8152600401610d4492919061167e565b6020604051808303815f875af1158015610d60573d5f803e3d5ffd5b505050506040513d601f19601f82011682018060405250810190610d84919061170d565b610dc3576040517f08c379a0000000000000000000000000000000000000000000000000000000008152600401610dba906117ea565b60405180910390fd5b5050505050565b60015f9054906101000a900473ffffffffffffffffffffffffffffffffffffffff1681565b60025f9054906101000a900473ffffffffffffffffffffffffffffffffffffffff1681565b5f8060035411610e59576040517f08c379a0000000000000000000000000000000000000000000000000000000008152600401610e5090611be8565b60405180910390fd5b600354670de0b6b3a7640000600454610e729190611558565b610e7c91906115c6565b905090565b5f8060045411610ec6576040517f08c379a0000000000000000000000000000000000000000000000000000000008152600401610ebd90611c50565b60405180910390fd5b600454670de0b6b3a7640000600354610edf9190611558565b610ee991906115c6565b905090565b5f8111610f30576040517f08c379a0000000000000000000000000000000000000000000000000000000008152600401610f2790611b18565b60405180910390fd5b60015f9054906101000a900473ffffffffffffffffffffffffffffffffffffffff1673ffffffffffffffffffffffffffffffffffffffff166323b872dd3330846040518463ffffffff1660e01b8152600401610f8e93929190611924565b6020604051808303815f875af1158015610faa573d5f803e3d5ffd5b505050506040513d601f19601f82011682018060405250810190610fce919061170d565b61100d576040517f08c379a0000000000000000000000000000000000000000000000000000000008152600401611004906117ea565b60405180910390fd5b5f6103e86103e58361101f9190611558565b61102991906115c6565b90505f6003548261103a9190611558565b90505f8260045461104b9190611a75565b90505f818361105a91906115c6565b90505f811161109e576040517f08c379a000000000000000000000000000000000000000000000000000000000815260040161109590611b80565b60405180910390fd5b8460045f8282546110af9190611a75565b925050819055508060035f8282546110c791906116a5565b925050819055505f8054906101000a900473ffffffffffffffffffffffffffffffffffffffff1673ffffffffffffffffffffffffffffffffffffffff1663a9059cbb33836040518363ffffffff1660e01b815260040161112892919061167e565b6020604051808303815f875af1158015611144573d5f803e3d5ffd5b505050506040513d601f19601f82011682018060405250810190611168919061170d565b6111a7576040517f08c379a000000000000000000000000000000000000000000000000000000000815260040161119e90611782565b60405180910390fd5b5050505050565b60035481565b5f6003821115611219578190505f60016002846111d191906115c6565b6111db9190611a75565b90505b818110156112135780915060028182856111f891906115c6565b6112029190611a75565b61120c91906115c6565b90506111de565b50611226565b5f821461122557600190505b5b919050565b5f819050919050565b61123d8161122b565b82525050565b5f6040820190506112565f830185611234565b6112636020830184611234565b9392505050565b5f80fd5b6112778161122b565b8114611281575f80fd5b50565b5f813590506112928161126e565b92915050565b5f602082840312156112ad576112ac61126a565b5b5f6112ba84828501611284565b91505092915050565b5f73ffffffffffffffffffffffffffffffffffffffff82169050919050565b5f819050919050565b5f6113056113006112fb846112c3565b6112e2565b6112c3565b9050919050565b5f611316826112eb565b9050919050565b5f6113278261130c565b9050919050565b6113378161131d565b82525050565b5f6020820190506113505f83018461132e565b92915050565b5f6020820190506113695f830184611234565b92915050565b5f80604083850312156113855761138461126a565b5b5f61139285828601611284565b92505060206113a385828601611284565b9150509250929050565b5f6113b78261130c565b9050919050565b6113c7816113ad565b82525050565b5f6020820190506113e05f8301846113be565b92915050565b5f82825260208201905092915050565b7f4445583a204c5020616d6f756e74206d757374206265206772656174657220745f8201527f68616e207a65726f000000000000000000000000000000000000000000000000602082015250565b5f6114506028836113e6565b915061145b826113f6565b604082019050919050565b5f6020820190508181035f83015261147d81611444565b9050919050565b5f815190506114928161126e565b92915050565b5f602082840312156114ad576114ac61126a565b5b5f6114ba84828501611484565b91505092915050565b7f4445583a204e6f206c697175696469747920617661696c61626c6500000000005f82015250565b5f6114f7601b836113e6565b9150611502826114c3565b602082019050919050565b5f6020820190508181035f830152611524816114eb565b9050919050565b7f4e487b71000000000000000000000000000000000000000000000000000000005f52601160045260245ffd5b5f6115628261122b565b915061156d8361122b565b925082820261157b8161122b565b915082820484148315176115925761159161152b565b5b5092915050565b7f4e487b71000000000000000000000000000000000000000000000000000000005f52601260045260245ffd5b5f6115d08261122b565b91506115db8361122b565b9250826115eb576115ea611599565b5b828204905092915050565b7f4445583a20576974686472617720616d6f756e747320617265207a65726f00005f82015250565b5f61162a601e836113e6565b9150611635826115f6565b602082019050919050565b5f6020820190508181035f8301526116578161161e565b9050919050565b5f611668826112c3565b9050919050565b6116788161165e565b82525050565b5f6040820190506116915f83018561166f565b61169e6020830184611234565b9392505050565b5f6116af8261122b565b91506116ba8361122b565b92508282039050818111156116d2576116d161152b565b5b92915050565b5f8115159050919050565b6116ec816116d8565b81146116f6575f80fd5b50565b5f81519050611707816116e3565b92915050565b5f602082840312156117225761172161126a565b5b5f61172f848285016116f9565b91505092915050565b7f4445583a205472616e73666572206f6620546f6b656e41206661696c656400005f82015250565b5f61176c601e836113e6565b915061177782611738565b602082019050919050565b5f6020820190508181035f83015261179981611760565b9050919050565b7f4445583a205472616e73666572206f6620546f6b656e42206661696c656400005f82015250565b5f6117d4601e836113e6565b91506117df826117a0565b602082019050919050565b5f6020820190508181035f830152611801816117c8565b9050919050565b7f4445583a20416d6f756e7473206d7573742062652067726561746572207468615f8201527f6e207a65726f0000000000000000000000000000000000000000000000000000602082015250565b5f6118626026836113e6565b915061186d82611808565b604082019050919050565b5f6020820190508181035f83015261188f81611856565b9050919050565b7f4445583a204465706f736974206d75737420707265736572766520706f6f6c205f8201527f726174696f000000000000000000000000000000000000000000000000000000602082015250565b5f6118f06025836113e6565b91506118fb82611896565b604082019050919050565b5f6020820190508181035f83015261191d816118e4565b9050919050565b5f6060820190506119375f83018661166f565b611944602083018561166f565b6119516040830184611234565b949350505050565b7f4445583a204c69717569646974792063616c63756c6174696f6e73206d69736d5f8201527f6174636800000000000000000000000000000000000000000000000000000000602082015250565b5f6119b36024836113e6565b91506119be82611959565b604082019050919050565b5f6020820190508181035f8301526119e0816119a7565b9050919050565b7f4445583a20496e73756666696369656e74206c6971756964697479206d696e745f8201527f6564000000000000000000000000000000000000000000000000000000000000602082015250565b5f611a416022836113e6565b9150611a4c826119e7565b604082019050919050565b5f6020820190508181035f830152611a6e81611a35565b9050919050565b5f611a7f8261122b565b9150611a8a8361122b565b9250828201905080821115611aa257611aa161152b565b5b92915050565b7f4445583a20496e70757420616d6f756e74206d757374206265206772656174655f8201527f72207468616e207a65726f000000000000000000000000000000000000000000602082015250565b5f611b02602b836113e6565b9150611b0d82611aa8565b604082019050919050565b5f6020820190508181035f830152611b2f81611af6565b9050919050565b7f4445583a20496e73756666696369656e74206f757470757420616d6f756e74005f82015250565b5f611b6a601f836113e6565b9150611b7582611b36565b602082019050919050565b5f6020820190508181035f830152611b9781611b5e565b9050919050565b7f4445583a204e6f20546f6b656e412072657365727665000000000000000000005f82015250565b5f611bd26016836113e6565b9150611bdd82611b9e565b602082019050919050565b5f6020820190508181035f830152611bff81611bc6565b9050919050565b7f4445583a204e6f20546f6b656e422072657365727665000000000000000000005f82015250565b5f611c3a6016836113e6565b9150611c4582611c06565b602082019050919050565b5f6020820190508181035f830152611c6781611c2e565b905091905056fea2646970667358221220d6ed53ac29c90552e5901492f2dde03ec3b60c82f100c2c8826bbf3474975f6e64736f6c634300081a0033608060405234801561000f575f80fd5b506040516116ce3803806116ce833981810160405281019061003191906101e9565b81818160039081610042919061046c565b508060049081610052919061046c565b5050503360055f6101000a81548173ffffffffffffffffffffffffffffffffffffffff021916908373ffffffffffffffffffffffffffffffffffffffff160217905550505061053b565b5f604051905090565b5f80fd5b5f80fd5b5f80fd5b5f80fd5b5f601f19601f8301169050919050565b7f4e487b71000000000000000000000000000000000000000000000000000000005f52604160045260245ffd5b6100fb826100b5565b810181811067ffffffffffffffff8211171561011a576101196100c5565b5b80604052505050565b5f61012c61009c565b905061013882826100f2565b919050565b5f67ffffffffffffffff821115610157576101566100c5565b5b610160826100b5565b9050602081019050919050565b8281835e5f83830152505050565b5f61018d6101888461013d565b610123565b9050828152602081018484840111156101a9576101a86100b1565b5b6101b484828561016d565b509392505050565b5f82601f8301126101d0576101cf6100ad565b5b81516101e084826020860161017b565b91505092915050565b5f80604083850312156101ff576101fe6100a5565b5b5f83015167ffffffffffffffff81111561021c5761021b6100a9565b5b610228858286016101bc565b925050602083015167ffffffffffffffff811115610249576102486100a9565b5b610255858286016101bc565b9150509250929050565b5f81519050919050565b7f4e487b71000000000000000000000000000000000000000000000000000000005f52602260045260245ffd5b5f60028204905060018216806102ad57607f821691505b6020821081036102c0576102bf610269565b5b50919050565b5f819050815f5260205f209050919050565b5f6020601f8301049050919050565b5f82821b905092915050565b5f600883026103227fffffffffffffffffffffffffffffffffffffffffffffffffffffffffffffffff826102e7565b61032c86836102e7565b95508019841693508086168417925050509392505050565b5f819050919050565b5f819050919050565b5f61037061036b61036684610344565b61034d565b610344565b9050919050565b5f819050919050565b61038983610356565b61039d61039582610377565b8484546102f3565b825550505050565b5f90565b6103b16103a5565b6103bc818484610380565b505050565b5b818110156103df576103d45f826103a9565b6001810190506103c2565b5050565b601f821115610424576103f5816102c6565b6103fe846102d8565b8101602085101561040d578190505b610421610419856102d8565b8301826103c1565b50505b505050565b5f82821c905092915050565b5f6104445f1984600802610429565b1980831691505092915050565b5f61045c8383610435565b9150826002028217905092915050565b6104758261025f565b67ffffffffffffffff81111561048e5761048d6100c5565b5b6104988254610296565b6104a38282856103e3565b5f60209050601f8311600181146104d4575f84156104c2578287015190505b6104cc8582610451565b865550610533565b601f1984166104e2866102c6565b5f5b82811015610509578489015182556001820191506020850194506020810190506104e4565b868310156105265784890151610522601f891682610435565b8355505b6001600288020188555050505b505050505050565b611186806105485f395ff3fe608060405234801561000f575f80fd5b50600436106100b2575f3560e01c8063692058c21161006f578063692058c21461018c57806370a08231146101aa57806379cc6790146101da57806395d89b41146101f6578063a9059cbb14610214578063dd62ed3e14610244576100b2565b806306fdde03146100b6578063095ea7b3146100d457806318160ddd1461010457806323b872dd14610122578063313ce5671461015257806340c10f1914610170575b5f80fd5b6100be610274565b6040516100cb9190610d2f565b60405180910390f35b6100ee60048036038101906100e99190610de0565b610304565b6040516100fb9190610e38565b60405180910390f35b61010c610326565b6040516101199190610e60565b60405180910390f35b61013c60048036038101906101379190610e79565b61032f565b6040516101499190610e38565b60405180910390f35b61015a61035d565b6040516101679190610ee4565b60405180910390f35b61018a60048036038101906101859190610de0565b610365565b005b610194610402565b6040516101a19190610f0c565b60405180910390f35b6101c460048036038101906101bf9190610f25565b610427565b6040516101d19190610e60565b60405180910390f35b6101f460048036038101906101ef9190610de0565b61046c565b005b6101fe610509565b60405161020b9190610d2f565b60405180910390f35b61022e60048036038101906102299190610de0565b610599565b60405161023b9190610e38565b60405180910390f35b61025e60048036038101906102599190610f50565b6105bb565b60405161026b9190610e60565b60405180910390f35b60606003805461028390610fbb565b80601f01602080910402602001604051908101604052809291908181526020018280546102af90610fbb565b80156102fa5780601f106102d1576101008083540402835291602001916102fa565b820191905f5260205f20905b8154815290600101906020018083116102dd57829003601f168201915b5050505050905090565b5f8061030e61063d565b905061031b818585610644565b600191505092915050565b5f600254905090565b5f8061033961063d565b9050610346858285610656565b6103518585856106e9565b60019150509392505050565b5f6012905090565b60055f9054906101000a900473ffffffffffffffffffffffffffffffffffffffff1673ffffffffffffffffffffffffffffffffffffffff163373ffffffffffffffffffffffffffffffffffffffff16146103f4576040517f08c379a00000000000000000000000000000000000000000000000000000000081526004016103eb90611035565b60405180910390fd5b6103fe82826107d9565b5050565b60055f9054906101000a900473ffffffffffffffffffffffffffffffffffffffff1681565b5f805f8373ffffffffffffffffffffffffffffffffffffffff1673ffffffffffffffffffffffffffffffffffffffff1681526020019081526020015f20549050919050565b60055f9054906101000a900473ffffffffffffffffffffffffffffffffffffffff1673ffffffffffffffffffffffffffffffffffffffff163373ffffffffffffffffffffffffffffffffffffffff16146104fb576040517f08c379a00000000000000000000000000000000000000000000000000000000081526004016104f29061109d565b60405180910390fd5b6105058282610858565b5050565b60606004805461051890610fbb565b80601f016020809104026020016040519081016040528092919081815260200182805461054490610fbb565b801561058f5780601f106105665761010080835404028352916020019161058f565b820191905f5260205f20905b81548152906001019060200180831161057257829003601f168201915b5050505050905090565b5f806105a361063d565b90506105b08185856106e9565b600191505092915050565b5f60015f8473ffffffffffffffffffffffffffffffffffffffff1673ffffffffffffffffffffffffffffffffffffffff1681526020019081526020015f205f8373ffffffffffffffffffffffffffffffffffffffff1673ffffffffffffffffffffffffffffffffffffffff1681526020019081526020015f2054905092915050565b5f33905090565b61065183838360016108d7565b505050565b5f61066184846105bb565b90507fffffffffffffffffffffffffffffffffffffffffffffffffffffffffffffffff8110156106e357818110156106d4578281836040517ffb8f41b20000000000000000000000000000000000000000000000000000000081526004016106cb939291906110bb565b60405180910390fd5b6106e284848484035f6108d7565b5b50505050565b5f73ffffffffffffffffffffffffffffffffffffffff168373ffffffffffffffffffffffffffffffffffffffff1603610759575f6040517f96c6fd1e0000000000000000000000000000000000000000000000000000000081526004016107509190610f0c565b60405180910390fd5b5f73ffffffffffffffffffffffffffffffffffffffff168273ffffffffffffffffffffffffffffffffffffffff16036107c9575f6040517fec442f050000000000000000000000000000000000000000000000000000000081526004016107c09190610f0c565b60405180910390fd5b6107d4838383610aa6565b505050565b5f73ffffffffffffffffffffffffffffffffffffffff168273ffffffffffffffffffffffffffffffffffffffff1603610849575f6040517fec442f050000000000000000000000000000000000000000000000000000000081526004016108409190610f0c565b60405180910390fd5b6108545f8383610aa6565b5050565b5f73ffffffffffffffffffffffffffffffffffffffff168273ffffffffffffffffffffffffffffffffffffffff16036108c8575f6040517f96c6fd1e0000000000000000000000000000000000000000000000000000000081526004016108bf9190610f0c565b60405180910390fd5b6108d3825f83610aa6565b5050565b5f73ffffffffffffffffffffffffffffffffffffffff168473ffffffffffffffffffffffffffffffffffffffff1603610947575f6040517fe602df0500000000000000000000000000000000000000000000000000000000815260040161093e9190610f0c565b60405180910390fd5b5f73ffffffffffffffffffffffffffffffffffffffff168373ffffffffffffffffffffffffffffffffffffffff16036109b7575f6040517f94280d620000000000000000000000000000000000000000000000000000000081526004016109ae9190610f0c565b60405180910390fd5b8160015f8673ffffffffffffffffffffffffffffffffffffffff1673ffffffffffffffffffffffffffffffffffffffff1681526020019081526020015f205f8573ffffffffffffffffffffffffffffffffffffffff1673ffffffffffffffffffffffffffffffffffffffff1681526020019081526020015f20819055508015610aa0578273ffffffffffffffffffffffffffffffffffffffff168473ffffffffffffffffffffffffffffffffffffffff167f8c5be1e5ebec7d5bd14f71427d1e84f3dd0314c0f7b2291e5b200ac8c7c3b92584604051610a979190610e60565b60405180910390a35b50505050565b5f73ffffffffffffffffffffffffffffffffffffffff168373ffffffffffffffffffffffffffffffffffffffff1603610af6578060025f828254610aea919061111d565b92505081905550610bc4565b5f805f8573ffffffffffffffffffffffffffffffffffffffff1673ffffffffffffffffffffffffffffffffffffffff1681526020019081526020015f2054905081811015610b7f578381836040517fe450d38c000000000000000000000000000000000000000000000000000000008152600401610b76939291906110bb565b60405180910390fd5b8181035f808673ffffffffffffffffffffffffffffffffffffffff1673ffffffffffffffffffffffffffffffffffffffff1681526020019081526020015f2081905550505b5f73ffffffffffffffffffffffffffffffffffffffff168273ffffffffffffffffffffffffffffffffffffffff1603610c0b578060025f8282540392505081905550610c55565b805f808473ffffffffffffffffffffffffffffffffffffffff1673ffffffffffffffffffffffffffffffffffffffff1681526020019081526020015f205f82825401925050819055505b8173ffffffffffffffffffffffffffffffffffffffff168373ffffffffffffffffffffffffffffffffffffffff167fddf252ad1be2c89b69c2b068fc378daa952ba7f163c4a11628f55a4df523b3ef83604051610cb29190610e60565b60405180910390a3505050565b5f81519050919050565b5f82825260208201905092915050565b8281835e5f83830152505050565b5f601f19601f8301169050919050565b5f610d0182610cbf565b610d0b8185610cc9565b9350610d1b818560208601610cd9565b610d2481610ce7565b840191505092915050565b5f6020820190508181035f830152610d478184610cf7565b905092915050565b5f80fd5b5f73ffffffffffffffffffffffffffffffffffffffff82169050919050565b5f610d7c82610d53565b9050919050565b610d8c81610d72565b8114610d96575f80fd5b50565b5f81359050610da781610d83565b92915050565b5f819050919050565b610dbf81610dad565b8114610dc9575f80fd5b50565b5f81359050610dda81610db6565b92915050565b5f8060408385031215610df657610df5610d4f565b5b5f610e0385828601610d99565b9250506020610e1485828601610dcc565b9150509250929050565b5f8115159050919050565b610e3281610e1e565b82525050565b5f602082019050610e4b5f830184610e29565b92915050565b610e5a81610dad565b82525050565b5f602082019050610e735f830184610e51565b92915050565b5f805f60608486031215610e9057610e8f610d4f565b5b5f610e9d86828701610d99565b9350506020610eae86828701610d99565b9250506040610ebf86828701610dcc565b9150509250925092565b5f60ff82169050919050565b610ede81610ec9565b82525050565b5f602082019050610ef75f830184610ed5565b92915050565b610f0681610d72565b82525050565b5f602082019050610f1f5f830184610efd565b92915050565b5f60208284031215610f3a57610f39610d4f565b5b5f610f4784828501610d99565b91505092915050565b5f8060408385031215610f6657610f65610d4f565b5b5f610f7385828601610d99565b9250506020610f8485828601610d99565b9150509250929050565b7f4e487b71000000000000000000000000000000000000000000000000000000005f52602260045260245ffd5b5f6002820490506001821680610fd257607f821691505b602082108103610fe557610fe4610f8e565b5b50919050565b7f4c50546f6b656e3a204f6e6c79204445582063616e206d696e740000000000005f82015250565b5f61101f601a83610cc9565b915061102a82610feb565b602082019050919050565b5f6020820190508181035f83015261104c81611013565b9050919050565b7f4c50546f6b656e3a204f6e6c79204445582063616e206275726e0000000000005f82015250565b5f611087601a83610cc9565b915061109282611053565b602082019050919050565b5f6020820190508181035f8301526110b48161107b565b9050919050565b5f6060820190506110ce5f830186610efd565b6110db6020830185610e51565b6110e86040830184610e51565b949350505050565b7f4e487b71000000000000000000000000000000000000000000000000000000005f52601160045260245ffd5b5f61112782610dad565b915061113283610dad565b925082820190508082111561114a576111496110f0565b5b9291505056fea26469706673582212206e4411a21cb1df315a0815fceee83a451b17d146cbb20103495af652841d629a64736f6c634300081a0033",
					"opcodes": "PUSH1 0x80 PUSH1 0x40 MSTORE CALLVALUE DUP1 ISZERO PUSH2 0xF JUMPI PUSH0 DUP1 REVERT JUMPDEST POP PUSH1 0x40 MLOAD PUSH2 0x3622 CODESIZE SUB DUP1 PUSH2 0x3622 DUP4 CODECOPY DUP2 DUP2 ADD PUSH1 0x40 MSTORE DUP2 ADD SWAP1 PUSH2 0x31 SWAP2 SWAP1 PUSH2 0x190 JUMP JUMPDEST DUP2 PUSH0 DUP1 PUSH2 0x100 EXP DUP2 SLOAD DUP2 PUSH20 0xFFFFFFFFFFFFFFFFFFFFFFFFFFFFFFFFFFFFFFFF MUL NOT AND SWAP1 DUP4 PUSH20 0xFFFFFFFFFFFFFFFFFFFFFFFFFFFFFFFFFFFFFFFF AND MUL OR SWAP1 SSTORE POP DUP1 PUSH1 0x1 PUSH0 PUSH2 0x100 EXP DUP2 SLOAD DUP2 PUSH20 0xFFFFFFFFFFFFFFFFFFFFFFFFFFFFFFFFFFFFFFFF MUL NOT AND SWAP1 DUP4 PUSH20 0xFFFFFFFFFFFFFFFFFFFFFFFFFFFFFFFFFFFFFFFF AND MUL OR SWAP1 SSTORE POP PUSH1 0x40 MLOAD PUSH2 0xBC SWAP1 PUSH2 0x125 JUMP JUMPDEST PUSH2 0xC5 SWAP1 PUSH2 0x272 JUMP JUMPDEST PUSH1 0x40 MLOAD DUP1 SWAP2 SUB SWAP1 PUSH0 CREATE DUP1 ISZERO DUP1 ISZERO PUSH2 0xDE JUMPI RETURNDATASIZE PUSH0 DUP1 RETURNDATACOPY RETURNDATASIZE PUSH0 REVERT JUMPDEST POP PUSH1 0x2 PUSH0 PUSH2 0x100 EXP DUP2 SLOAD DUP2 PUSH20 0xFFFFFFFFFFFFFFFFFFFFFFFFFFFFFFFFFFFFFFFF MUL NOT AND SWAP1 DUP4 PUSH20 0xFFFFFFFFFFFFFFFFFFFFFFFFFFFFFFFFFFFFFFFF AND MUL OR SWAP1 SSTORE POP POP POP PUSH2 0x2A3 JUMP JUMPDEST PUSH2 0x16CE DUP1 PUSH2 0x1F54 DUP4 CODECOPY ADD SWAP1 JUMP JUMPDEST PUSH0 DUP1 REVERT JUMPDEST PUSH0 PUSH20 0xFFFFFFFFFFFFFFFFFFFFFFFFFFFFFFFFFFFFFFFF DUP3 AND SWAP1 POP SWAP2 SWAP1 POP JUMP JUMPDEST PUSH0 PUSH2 0x15F DUP3 PUSH2 0x136 JUMP JUMPDEST SWAP1 POP SWAP2 SWAP1 POP JUMP JUMPDEST PUSH2 0x16F DUP2 PUSH2 0x155 JUMP JUMPDEST DUP2 EQ PUSH2 0x179 JUMPI PUSH0 DUP1 REVERT JUMPDEST POP JUMP JUMPDEST PUSH0 DUP2 MLOAD SWAP1 POP PUSH2 0x18A DUP2 PUSH2 0x166 JUMP JUMPDEST SWAP3 SWAP2 POP POP JUMP JUMPDEST PUSH0 DUP1 PUSH1 0x40 DUP4 DUP6 SUB SLT ISZERO PUSH2 0x1A6 JUMPI PUSH2 0x1A5 PUSH2 0x132 JUMP JUMPDEST JUMPDEST PUSH0 PUSH2 0x1B3 DUP6 DUP3 DUP7 ADD PUSH2 0x17C JUMP JUMPDEST SWAP3 POP POP PUSH1 0x20 PUSH2 0x1C4 DUP6 DUP3 DUP7 ADD PUSH2 0x17C JUMP JUMPDEST SWAP2 POP POP SWAP3 POP SWAP3 SWAP1 POP JUMP JUMPDEST PUSH0 DUP3 DUP3 MSTORE PUSH1 0x20 DUP3 ADD SWAP1 POP SWAP3 SWAP2 POP POP JUMP JUMPDEST PUSH32 0x444558204C5020546F6B656E0000000000000000000000000000000000000000 PUSH0 DUP3 ADD MSTORE POP JUMP JUMPDEST PUSH0 PUSH2 0x212 PUSH1 0xC DUP4 PUSH2 0x1CE JUMP JUMPDEST SWAP2 POP PUSH2 0x21D DUP3 PUSH2 0x1DE JUMP JUMPDEST PUSH1 0x20 DUP3 ADD SWAP1 POP SWAP2 SWAP1 POP JUMP JUMPDEST PUSH32 0x444C500000000000000000000000000000000000000000000000000000000000 PUSH0 DUP3 ADD MSTORE POP JUMP JUMPDEST PUSH0 PUSH2 0x25C PUSH1 0x3 DUP4 PUSH2 0x1CE JUMP JUMPDEST SWAP2 POP PUSH2 0x267 DUP3 PUSH2 0x228 JUMP JUMPDEST PUSH1 0x20 DUP3 ADD SWAP1 POP SWAP2 SWAP1 POP JUMP JUMPDEST PUSH0 PUSH1 0x40 DUP3 ADD SWAP1 POP DUP2 DUP2 SUB PUSH0 DUP4 ADD MSTORE PUSH2 0x289 DUP2 PUSH2 0x206 JUMP JUMPDEST SWAP1 POP DUP2 DUP2 SUB PUSH1 0x20 DUP4 ADD MSTORE PUSH2 0x29C DUP2 PUSH2 0x250 JUMP JUMPDEST SWAP1 POP SWAP2 SWAP1 POP JUMP JUMPDEST PUSH2 0x1CA4 DUP1 PUSH2 0x2B0 PUSH0 CODECOPY PUSH0 RETURN INVALID PUSH1 0x80 PUSH1 0x40 MSTORE CALLVALUE DUP1 ISZERO PUSH2 0xF JUMPI PUSH0 DUP1 REVERT JUMPDEST POP PUSH1 0x4 CALLDATASIZE LT PUSH2 0xB2 JUMPI PUSH0 CALLDATALOAD PUSH1 0xE0 SHR DUP1 PUSH4 0x5F64B55B GT PUSH2 0x6F JUMPI DUP1 PUSH4 0x5F64B55B EQ PUSH2 0x165 JUMPI DUP1 PUSH4 0x5FCBD285 EQ PUSH2 0x183 JUMPI DUP1 PUSH4 0x68A94844 EQ PUSH2 0x1A1 JUMPI DUP1 PUSH4 0x723F916A EQ PUSH2 0x1BF JUMPI DUP1 PUSH4 0xAD56238D EQ PUSH2 0x1DD JUMPI DUP1 PUSH4 0xDC5FA6C5 EQ PUSH2 0x1F9 JUMPI PUSH2 0xB2 JUMP JUMPDEST DUP1 PUSH4 0x902F1AC EQ PUSH2 0xB6 JUMPI DUP1 PUSH4 0xA861F2A EQ PUSH2 0xD5 JUMPI DUP1 PUSH4 0xFC63D10 EQ PUSH2 0xF1 JUMPI DUP1 PUSH4 0x19E36F3B EQ PUSH2 0x10F JUMPI DUP1 PUSH4 0x34A860E4 EQ PUSH2 0x12D JUMPI DUP1 PUSH4 0x507B0E6B EQ PUSH2 0x149 JUMPI JUMPDEST PUSH0 DUP1 REVERT JUMPDEST PUSH2 0xBE PUSH2 0x217 JUMP JUMPDEST PUSH1 0x40 MLOAD PUSH2 0xCC SWAP3 SWAP2 SWAP1 PUSH2 0x1243 JUMP JUMPDEST PUSH1 0x40 MLOAD DUP1 SWAP2 SUB SWAP1 RETURN JUMPDEST PUSH2 0xEF PUSH1 0x4 DUP1 CALLDATASIZE SUB DUP2 ADD SWAP1 PUSH2 0xEA SWAP2 SWAP1 PUSH2 0x1298 JUMP JUMPDEST PUSH2 0x227 JUMP JUMPDEST STOP JUMPDEST PUSH2 0xF9 PUSH2 0x634 JUMP JUMPDEST PUSH1 0x40 MLOAD PUSH2 0x106 SWAP2 SWAP1 PUSH2 0x133D JUMP JUMPDEST PUSH1 0x40 MLOAD DUP1 SWAP2 SUB SWAP1 RETURN JUMPDEST PUSH2 0x117 PUSH2 0x657 JUMP JUMPDEST PUSH1 0x40 MLOAD PUSH2 0x124 SWAP2 SWAP1 PUSH2 0x1356 JUMP JUMPDEST PUSH1 0x40 MLOAD DUP1 SWAP2 SUB SWAP1 RETURN JUMPDEST PUSH2 0x147 PUSH1 0x4 DUP1 CALLDATASIZE SUB DUP2 ADD SWAP1 PUSH2 0x142 SWAP2 SWAP1 PUSH2 0x136F JUMP JUMPDEST PUSH2 0x65D JUMP JUMPDEST STOP JUMPDEST PUSH2 0x163 PUSH1 0x4 DUP1 CALLDATASIZE SUB DUP2 ADD SWAP1 PUSH2 0x15E SWAP2 SWAP1 PUSH2 0x1298 JUMP JUMPDEST PUSH2 0xB0A JUMP JUMPDEST STOP JUMPDEST PUSH2 0x16D PUSH2 0xDCA JUMP JUMPDEST PUSH1 0x40 MLOAD PUSH2 0x17A SWAP2 SWAP1 PUSH2 0x133D JUMP JUMPDEST PUSH1 0x40 MLOAD DUP1 SWAP2 SUB SWAP1 RETURN JUMPDEST PUSH2 0x18B PUSH2 0xDEF JUMP JUMPDEST PUSH1 0x40 MLOAD PUSH2 0x198 SWAP2 SWAP1 PUSH2 0x13CD JUMP JUMPDEST PUSH1 0x40 MLOAD DUP1 SWAP2 SUB SWAP1 RETURN JUMPDEST PUSH2 0x1A9 PUSH2 0xE14 JUMP JUMPDEST PUSH1 0x40 MLOAD PUSH2 0x1B6 SWAP2 SWAP1 PUSH2 0x1356 JUMP JUMPDEST PUSH1 0x40 MLOAD DUP1 SWAP2 SUB SWAP1 RETURN JUMPDEST PUSH2 0x1C7 PUSH2 0xE81 JUMP JUMPDEST PUSH1 0x40 MLOAD PUSH2 0x1D4 SWAP2 SWAP1 PUSH2 0x1356 JUMP JUMPDEST PUSH1 0x40 MLOAD DUP1 SWAP2 SUB SWAP1 RETURN JUMPDEST PUSH2 0x1F7 PUSH1 0x4 DUP1 CALLDATASIZE SUB DUP2 ADD SWAP1 PUSH2 0x1F2 SWAP2 SWAP1 PUSH2 0x1298 JUMP JUMPDEST PUSH2 0xEEE JUMP JUMPDEST STOP JUMPDEST PUSH2 0x201 PUSH2 0x11AE JUMP JUMPDEST PUSH1 0x40 MLOAD PUSH2 0x20E SWAP2 SWAP1 PUSH2 0x1356 JUMP JUMPDEST PUSH1 0x40 MLOAD DUP1 SWAP2 SUB SWAP1 RETURN JUMPDEST PUSH0 DUP1 PUSH1 0x3 SLOAD PUSH1 0x4 SLOAD SWAP2 POP SWAP2 POP SWAP1 SWAP2 JUMP JUMPDEST PUSH0 DUP2 GT PUSH2 0x269 JUMPI PUSH1 0x40 MLOAD PUSH32 0x8C379A000000000000000000000000000000000000000000000000000000000 DUP2 MSTORE PUSH1 0x4 ADD PUSH2 0x260 SWAP1 PUSH2 0x1466 JUMP JUMPDEST PUSH1 0x40 MLOAD DUP1 SWAP2 SUB SWAP1 REVERT JUMPDEST PUSH0 PUSH1 0x2 PUSH0 SWAP1 SLOAD SWAP1 PUSH2 0x100 EXP SWAP1 DIV PUSH20 0xFFFFFFFFFFFFFFFFFFFFFFFFFFFFFFFFFFFFFFFF AND PUSH20 0xFFFFFFFFFFFFFFFFFFFFFFFFFFFFFFFFFFFFFFFF AND PUSH4 0x18160DDD PUSH1 0x40 MLOAD DUP2 PUSH4 0xFFFFFFFF AND PUSH1 0xE0 SHL DUP2 MSTORE PUSH1 0x4 ADD PUSH1 0x20 PUSH1 0x40 MLOAD DUP1 DUP4 SUB DUP2 DUP7 GAS STATICCALL ISZERO DUP1 ISZERO PUSH2 0x2D4 JUMPI RETURNDATASIZE PUSH0 DUP1 RETURNDATACOPY RETURNDATASIZE PUSH0 REVERT JUMPDEST POP POP POP POP PUSH1 0x40 MLOAD RETURNDATASIZE PUSH1 0x1F NOT PUSH1 0x1F DUP3 ADD AND DUP3 ADD DUP1 PUSH1 0x40 MSTORE POP DUP2 ADD SWAP1 PUSH2 0x2F8 SWAP2 SWAP1 PUSH2 0x1498 JUMP JUMPDEST SWAP1 POP PUSH0 DUP2 GT PUSH2 0x33C JUMPI PUSH1 0x40 MLOAD PUSH32 0x8C379A000000000000000000000000000000000000000000000000000000000 DUP2 MSTORE PUSH1 0x4 ADD PUSH2 0x333 SWAP1 PUSH2 0x150D JUMP JUMPDEST PUSH1 0x40 MLOAD DUP1 SWAP2 SUB SWAP1 REVERT JUMPDEST PUSH0 DUP2 PUSH1 0x3 SLOAD DUP5 PUSH2 0x34C SWAP2 SWAP1 PUSH2 0x1558 JUMP JUMPDEST PUSH2 0x356 SWAP2 SWAP1 PUSH2 0x15C6 JUMP JUMPDEST SWAP1 POP PUSH0 DUP3 PUSH1 0x4 SLOAD DUP6 PUSH2 0x368 SWAP2 SWAP1 PUSH2 0x1558 JUMP JUMPDEST PUSH2 0x372 SWAP2 SWAP1 PUSH2 0x15C6 JUMP JUMPDEST SWAP1 POP PUSH0 DUP3 GT DUP1 ISZERO PUSH2 0x382 JUMPI POP PUSH0 DUP2 GT JUMPDEST PUSH2 0x3C1 JUMPI PUSH1 0x40 MLOAD PUSH32 0x8C379A000000000000000000000000000000000000000000000000000000000 DUP2 MSTORE PUSH1 0x4 ADD PUSH2 0x3B8 SWAP1 PUSH2 0x1640 JUMP JUMPDEST PUSH1 0x40 MLOAD DUP1 SWAP2 SUB SWAP1 REVERT JUMPDEST PUSH1 0x2 PUSH0 SWAP1 SLOAD SWAP1 PUSH2 0x100 EXP SWAP1 DIV PUSH20 0xFFFFFFFFFFFFFFFFFFFFFFFFFFFFFFFFFFFFFFFF AND PUSH20 0xFFFFFFFFFFFFFFFFFFFFFFFFFFFFFFFFFFFFFFFF AND PUSH4 0x79CC6790 CALLER DUP7 PUSH1 0x40 MLOAD DUP4 PUSH4 0xFFFFFFFF AND PUSH1 0xE0 SHL DUP2 MSTORE PUSH1 0x4 ADD PUSH2 0x41D SWAP3 SWAP2 SWAP1 PUSH2 0x167E JUMP JUMPDEST PUSH0 PUSH1 0x40 MLOAD DUP1 DUP4 SUB DUP2 PUSH0 DUP8 DUP1 EXTCODESIZE ISZERO DUP1 ISZERO PUSH2 0x434 JUMPI PUSH0 DUP1 REVERT JUMPDEST POP GAS CALL ISZERO DUP1 ISZERO PUSH2 0x446 JUMPI RETURNDATASIZE PUSH0 DUP1 RETURNDATACOPY RETURNDATASIZE PUSH0 REVERT JUMPDEST POP POP POP POP DUP2 PUSH1 0x3 PUSH0 DUP3 DUP3 SLOAD PUSH2 0x45B SWAP2 SWAP1 PUSH2 0x16A5 JUMP JUMPDEST SWAP3 POP POP DUP2 SWAP1 SSTORE POP DUP1 PUSH1 0x4 PUSH0 DUP3 DUP3 SLOAD PUSH2 0x473 SWAP2 SWAP1 PUSH2 0x16A5 JUMP JUMPDEST SWAP3 POP POP DUP2 SWAP1 SSTORE POP PUSH0 DUP1 SLOAD SWAP1 PUSH2 0x100 EXP SWAP1 DIV PUSH20 0xFFFFFFFFFFFFFFFFFFFFFFFFFFFFFFFFFFFFFFFF AND PUSH20 0xFFFFFFFFFFFFFFFFFFFFFFFFFFFFFFFFFFFFFFFF AND PUSH4 0xA9059CBB CALLER DUP5 PUSH1 0x40 MLOAD DUP4 PUSH4 0xFFFFFFFF AND PUSH1 0xE0 SHL DUP2 MSTORE PUSH1 0x4 ADD PUSH2 0x4D4 SWAP3 SWAP2 SWAP1 PUSH2 0x167E JUMP JUMPDEST PUSH1 0x20 PUSH1 0x40 MLOAD DUP1 DUP4 SUB DUP2 PUSH0 DUP8 GAS CALL ISZERO DUP1 ISZERO PUSH2 0x4F0 JUMPI RETURNDATASIZE PUSH0 DUP1 RETURNDATACOPY RETURNDATASIZE PUSH0 REVERT JUMPDEST POP POP POP POP PUSH1 0x40 MLOAD RETURNDATASIZE PUSH1 0x1F NOT PUSH1 0x1F DUP3 ADD AND DUP3 ADD DUP1 PUSH1 0x40 MSTORE POP DUP2 ADD SWAP1 PUSH2 0x514 SWAP2 SWAP1 PUSH2 0x170D JUMP JUMPDEST PUSH2 0x553 JUMPI PUSH1 0x40 MLOAD PUSH32 0x8C379A000000000000000000000000000000000000000000000000000000000 DUP2 MSTORE PUSH1 0x4 ADD PUSH2 0x54A SWAP1 PUSH2 0x1782 JUMP JUMPDEST PUSH1 0x40 MLOAD DUP1 SWAP2 SUB SWAP1 REVERT JUMPDEST PUSH1 0x1 PUSH0 SWAP1 SLOAD SWAP1 PUSH2 0x100 EXP SWAP1 DIV PUSH20 0xFFFFFFFFFFFFFFFFFFFFFFFFFFFFFFFFFFFFFFFF AND PUSH20 0xFFFFFFFFFFFFFFFFFFFFFFFFFFFFFFFFFFFFFFFF AND PUSH4 0xA9059CBB CALLER DUP4 PUSH1 0x40 MLOAD DUP4 PUSH4 0xFFFFFFFF AND PUSH1 0xE0 SHL DUP2 MSTORE PUSH1 0x4 ADD PUSH2 0x5AF SWAP3 SWAP2 SWAP1 PUSH2 0x167E JUMP JUMPDEST PUSH1 0x20 PUSH1 0x40 MLOAD DUP1 DUP4 SUB DUP2 PUSH0 DUP8 GAS CALL ISZERO DUP1 ISZERO PUSH2 0x5CB JUMPI RETURNDATASIZE PUSH0 DUP1 RETURNDATACOPY RETURNDATASIZE PUSH0 REVERT JUMPDEST POP POP POP POP PUSH1 0x40 MLOAD RETURNDATASIZE PUSH1 0x1F NOT PUSH1 0x1F DUP3 ADD AND DUP3 ADD DUP1 PUSH1 0x40 MSTORE POP DUP2 ADD SWAP1 PUSH2 0x5EF SWAP2 SWAP1 PUSH2 0x170D JUMP JUMPDEST PUSH2 0x62E JUMPI PUSH1 0x40 MLOAD PUSH32 0x8C379A000000000000000000000000000000000000000000000000000000000 DUP2 MSTORE PUSH1 0x4 ADD PUSH2 0x625 SWAP1 PUSH2 0x17EA JUMP JUMPDEST PUSH1 0x40 MLOAD DUP1 SWAP2 SUB SWAP1 REVERT JUMPDEST POP POP POP POP JUMP JUMPDEST PUSH0 DUP1 SLOAD SWAP1 PUSH2 0x100 EXP SWAP1 DIV PUSH20 0xFFFFFFFFFFFFFFFFFFFFFFFFFFFFFFFFFFFFFFFF AND DUP2 JUMP JUMPDEST PUSH1 0x4 SLOAD DUP2 JUMP JUMPDEST PUSH0 DUP3 GT DUP1 ISZERO PUSH2 0x66B JUMPI POP PUSH0 DUP2 GT JUMPDEST PUSH2 0x6AA JUMPI PUSH1 0x40 MLOAD PUSH32 0x8C379A000000000000000000000000000000000000000000000000000000000 DUP2 MSTORE PUSH1 0x4 ADD PUSH2 0x6A1 SWAP1 PUSH2 0x1878 JUMP JUMPDEST PUSH1 0x40 MLOAD DUP1 SWAP2 SUB SWAP1 REVERT JUMPDEST PUSH0 PUSH1 0x3 SLOAD GT DUP1 PUSH2 0x6BB JUMPI POP PUSH0 PUSH1 0x4 SLOAD GT JUMPDEST ISZERO PUSH2 0x71D JUMPI DUP1 DUP3 PUSH2 0x6CC SWAP2 SWAP1 PUSH2 0x15C6 JUMP JUMPDEST PUSH1 0x4 SLOAD PUSH1 0x3 SLOAD PUSH2 0x6DC SWAP2 SWAP1 PUSH2 0x15C6 JUMP JUMPDEST EQ PUSH2 0x71C JUMPI PUSH1 0x40 MLOAD PUSH32 0x8C379A000000000000000000000000000000000000000000000000000000000 DUP2 MSTORE PUSH1 0x4 ADD PUSH2 0x713 SWAP1 PUSH2 0x1906 JUMP JUMPDEST PUSH1 0x40 MLOAD DUP1 SWAP2 SUB SWAP1 REVERT JUMPDEST JUMPDEST PUSH0 DUP1 SLOAD SWAP1 PUSH2 0x100 EXP SWAP1 DIV PUSH20 0xFFFFFFFFFFFFFFFFFFFFFFFFFFFFFFFFFFFFFFFF AND PUSH20 0xFFFFFFFFFFFFFFFFFFFFFFFFFFFFFFFFFFFFFFFF AND PUSH4 0x23B872DD CALLER ADDRESS DUP6 PUSH1 0x40 MLOAD DUP5 PUSH4 0xFFFFFFFF AND PUSH1 0xE0 SHL DUP2 MSTORE PUSH1 0x4 ADD PUSH2 0x779 SWAP4 SWAP3 SWAP2 SWAP1 PUSH2 0x1924 JUMP JUMPDEST PUSH1 0x20 PUSH1 0x40 MLOAD DUP1 DUP4 SUB DUP2 PUSH0 DUP8 GAS CALL ISZERO DUP1 ISZERO PUSH2 0x795 JUMPI RETURNDATASIZE PUSH0 DUP1 RETURNDATACOPY RETURNDATASIZE PUSH0 REVERT JUMPDEST POP POP POP POP PUSH1 0x40 MLOAD RETURNDATASIZE PUSH1 0x1F NOT PUSH1 0x1F DUP3 ADD AND DUP3 ADD DUP1 PUSH1 0x40 MSTORE POP DUP2 ADD SWAP1 PUSH2 0x7B9 SWAP2 SWAP1 PUSH2 0x170D JUMP JUMPDEST PUSH2 0x7F8 JUMPI PUSH1 0x40 MLOAD PUSH32 0x8C379A000000000000000000000000000000000000000000000000000000000 DUP2 MSTORE PUSH1 0x4 ADD PUSH2 0x7EF SWAP1 PUSH2 0x1782 JUMP JUMPDEST PUSH1 0x40 MLOAD DUP1 SWAP2 SUB SWAP1 REVERT JUMPDEST PUSH1 0x1 PUSH0 SWAP1 SLOAD SWAP1 PUSH2 0x100 EXP SWAP1 DIV PUSH20 0xFFFFFFFFFFFFFFFFFFFFFFFFFFFFFFFFFFFFFFFF AND PUSH20 0xFFFFFFFFFFFFFFFFFFFFFFFFFFFFFFFFFFFFFFFF AND PUSH4 0x23B872DD CALLER ADDRESS DUP5 PUSH1 0x40 MLOAD DUP5 PUSH4 0xFFFFFFFF AND PUSH1 0xE0 SHL DUP2 MSTORE PUSH1 0x4 ADD PUSH2 0x856 SWAP4 SWAP3 SWAP2 SWAP1 PUSH2 0x1924 JUMP JUMPDEST PUSH1 0x20 PUSH1 0x40 MLOAD DUP1 DUP4 SUB DUP2 PUSH0 DUP8 GAS CALL ISZERO DUP1 ISZERO PUSH2 0x872 JUMPI RETURNDATASIZE PUSH0 DUP1 RETURNDATACOPY RETURNDATASIZE PUSH0 REVERT JUMPDEST POP POP POP POP PUSH1 0x40 MLOAD RETURNDATASIZE PUSH1 0x1F NOT PUSH1 0x1F DUP3 ADD AND DUP3 ADD DUP1 PUSH1 0x40 MSTORE POP DUP2 ADD SWAP1 PUSH2 0x896 SWAP2 SWAP1 PUSH2 0x170D JUMP JUMPDEST PUSH2 0x8D5 JUMPI PUSH1 0x40 MLOAD PUSH32 0x8C379A000000000000000000000000000000000000000000000000000000000 DUP2 MSTORE PUSH1 0x4 ADD PUSH2 0x8CC SWAP1 PUSH2 0x17EA JUMP JUMPDEST PUSH1 0x40 MLOAD DUP1 SWAP2 SUB SWAP1 REVERT JUMPDEST PUSH0 DUP1 PUSH1 0x2 PUSH0 SWAP1 SLOAD SWAP1 PUSH2 0x100 EXP SWAP1 DIV PUSH20 0xFFFFFFFFFFFFFFFFFFFFFFFFFFFFFFFFFFFFFFFF AND PUSH20 0xFFFFFFFFFFFFFFFFFFFFFFFFFFFFFFFFFFFFFFFF AND PUSH4 0x18160DDD PUSH1 0x40 MLOAD DUP2 PUSH4 0xFFFFFFFF AND PUSH1 0xE0 SHL DUP2 MSTORE PUSH1 0x4 ADD PUSH1 0x20 PUSH1 0x40 MLOAD DUP1 DUP4 SUB DUP2 DUP7 GAS STATICCALL ISZERO DUP1 ISZERO PUSH2 0x941 JUMPI RETURNDATASIZE PUSH0 DUP1 RETURNDATACOPY RETURNDATASIZE PUSH0 REVERT JUMPDEST POP POP POP POP PUSH1 0x40 MLOAD RETURNDATASIZE PUSH1 0x1F NOT PUSH1 0x1F DUP3 ADD AND DUP3 ADD DUP1 PUSH1 0x40 MSTORE POP DUP2 ADD SWAP1 PUSH2 0x965 SWAP2 SWAP1 PUSH2 0x1498 JUMP JUMPDEST SWAP1 POP PUSH0 DUP2 SUB PUSH2 0x989 JUMPI PUSH2 0x982 DUP4 DUP6 PUSH2 0x97D SWAP2 SWAP1 PUSH2 0x1558 JUMP JUMPDEST PUSH2 0x11B4 JUMP JUMPDEST SWAP2 POP PUSH2 0xA09 JUMP JUMPDEST PUSH0 PUSH1 0x3 SLOAD DUP3 DUP7 PUSH2 0x999 SWAP2 SWAP1 PUSH2 0x1558 JUMP JUMPDEST PUSH2 0x9A3 SWAP2 SWAP1 PUSH2 0x15C6 JUMP JUMPDEST SWAP1 POP PUSH0 PUSH1 0x4 SLOAD DUP4 DUP7 PUSH2 0x9B5 SWAP2 SWAP1 PUSH2 0x1558 JUMP JUMPDEST PUSH2 0x9BF SWAP2 SWAP1 PUSH2 0x15C6 JUMP JUMPDEST SWAP1 POP DUP1 DUP3 EQ PUSH2 0xA03 JUMPI PUSH1 0x40 MLOAD PUSH32 0x8C379A000000000000000000000000000000000000000000000000000000000 DUP2 MSTORE PUSH1 0x4 ADD PUSH2 0x9FA SWAP1 PUSH2 0x19C9 JUMP JUMPDEST PUSH1 0x40 MLOAD DUP1 SWAP2 SUB SWAP1 REVERT JUMPDEST DUP2 SWAP4 POP POP POP JUMPDEST PUSH0 DUP3 GT PUSH2 0xA4B JUMPI PUSH1 0x40 MLOAD PUSH32 0x8C379A000000000000000000000000000000000000000000000000000000000 DUP2 MSTORE PUSH1 0x4 ADD PUSH2 0xA42 SWAP1 PUSH2 0x1A57 JUMP JUMPDEST PUSH1 0x40 MLOAD DUP1 SWAP2 SUB SWAP1 REVERT JUMPDEST PUSH1 0x2 PUSH0 SWAP1 SLOAD SWAP1 PUSH2 0x100 EXP SWAP1 DIV PUSH20 0xFFFFFFFFFFFFFFFFFFFFFFFFFFFFFFFFFFFFFFFF AND PUSH20 0xFFFFFFFFFFFFFFFFFFFFFFFFFFFFFFFFFFFFFFFF AND PUSH4 0x40C10F19 CALLER DUP5 PUSH1 0x40 MLOAD DUP4 PUSH4 0xFFFFFFFF AND PUSH1 0xE0 SHL DUP2 MSTORE PUSH1 0x4 ADD PUSH2 0xAA7 SWAP3 SWAP2 SWAP1 PUSH2 0x167E JUMP JUMPDEST PUSH0 PUSH1 0x40 MLOAD DUP1 DUP4 SUB DUP2 PUSH0 DUP8 DUP1 EXTCODESIZE ISZERO DUP1 ISZERO PUSH2 0xABE JUMPI PUSH0 DUP1 REVERT JUMPDEST POP GAS CALL ISZERO DUP1 ISZERO PUSH2 0xAD0 JUMPI RETURNDATASIZE PUSH0 DUP1 RETURNDATACOPY RETURNDATASIZE PUSH0 REVERT JUMPDEST POP POP POP POP DUP4 PUSH1 0x3 PUSH0 DUP3 DUP3 SLOAD PUSH2 0xAE5 SWAP2 SWAP1 PUSH2 0x1A75 JUMP JUMPDEST SWAP3 POP POP DUP2 SWAP1 SSTORE POP DUP3 PUSH1 0x4 PUSH0 DUP3 DUP3 SLOAD PUSH2 0xAFD SWAP2 SWAP1 PUSH2 0x1A75 JUMP JUMPDEST SWAP3 POP POP DUP2 SWAP1 SSTORE POP POP POP POP POP JUMP JUMPDEST PUSH0 DUP2 GT PUSH2 0xB4C JUMPI PUSH1 0x40 MLOAD PUSH32 0x8C379A000000000000000000000000000000000000000000000000000000000 DUP2 MSTORE PUSH1 0x4 ADD PUSH2 0xB43 SWAP1 PUSH2 0x1B18 JUMP JUMPDEST PUSH1 0x40 MLOAD DUP1 SWAP2 SUB SWAP1 REVERT JUMPDEST PUSH0 DUP1 SLOAD SWAP1 PUSH2 0x100 EXP SWAP1 DIV PUSH20 0xFFFFFFFFFFFFFFFFFFFFFFFFFFFFFFFFFFFFFFFF AND PUSH20 0xFFFFFFFFFFFFFFFFFFFFFFFFFFFFFFFFFFFFFFFF AND PUSH4 0x23B872DD CALLER ADDRESS DUP5 PUSH1 0x40 MLOAD DUP5 PUSH4 0xFFFFFFFF AND PUSH1 0xE0 SHL DUP2 MSTORE PUSH1 0x4 ADD PUSH2 0xBA8 SWAP4 SWAP3 SWAP2 SWAP1 PUSH2 0x1924 JUMP JUMPDEST PUSH1 0x20 PUSH1 0x40 MLOAD DUP1 DUP4 SUB DUP2 PUSH0 DUP8 GAS CALL ISZERO DUP1 ISZERO PUSH2 0xBC4 JUMPI RETURNDATASIZE PUSH0 DUP1 RETURNDATACOPY RETURNDATASIZE PUSH0 REVERT JUMPDEST POP POP POP POP PUSH1 0x40 MLOAD RETURNDATASIZE PUSH1 0x1F NOT PUSH1 0x1F DUP3 ADD AND DUP3 ADD DUP1 PUSH1 0x40 MSTORE POP DUP2 ADD SWAP1 PUSH2 0xBE8 SWAP2 SWAP1 PUSH2 0x170D JUMP JUMPDEST PUSH2 0xC27 JUMPI PUSH1 0x40 MLOAD PUSH32 0x8C379A000000000000000000000000000000000000000000000000000000000 DUP2 MSTORE PUSH1 0x4 ADD PUSH2 0xC1E SWAP1 PUSH2 0x1782 JUMP JUMPDEST PUSH1 0x40 MLOAD DUP1 SWAP2 SUB SWAP1 REVERT JUMPDEST PUSH0 PUSH2 0x3E8 PUSH2 0x3E5 DUP4 PUSH2 0xC39 SWAP2 SWAP1 PUSH2 0x1558 JUMP JUMPDEST PUSH2 0xC43 SWAP2 SWAP1 PUSH2 0x15C6 JUMP JUMPDEST SWAP1 POP PUSH0 PUSH1 0x4 SLOAD DUP3 PUSH2 0xC54 SWAP2 SWAP1 PUSH2 0x1558 JUMP JUMPDEST SWAP1 POP PUSH0 DUP3 PUSH1 0x3 SLOAD PUSH2 0xC65 SWAP2 SWAP1 PUSH2 0x1A75 JUMP JUMPDEST SWAP1 POP PUSH0 DUP2 DUP4 PUSH2 0xC74 SWAP2 SWAP1 PUSH2 0x15C6 JUMP JUMPDEST SWAP1 POP PUSH0 DUP2 GT PUSH2 0xCB8 JUMPI PUSH1 0x40 MLOAD PUSH32 0x8C379A000000000000000000000000000000000000000000000000000000000 DUP2 MSTORE PUSH1 0x4 ADD PUSH2 0xCAF SWAP1 PUSH2 0x1B80 JUMP JUMPDEST PUSH1 0x40 MLOAD DUP1 SWAP2 SUB SWAP1 REVERT JUMPDEST DUP5 PUSH1 0x3 PUSH0 DUP3 DUP3 SLOAD PUSH2 0xCC9 SWAP2 SWAP1 PUSH2 0x1A75 JUMP JUMPDEST SWAP3 POP POP DUP2 SWAP1 SSTORE POP DUP1 PUSH1 0x4 PUSH0 DUP3 DUP3 SLOAD PUSH2 0xCE1 SWAP2 SWAP1 PUSH2 0x16A5 JUMP JUMPDEST SWAP3 POP POP DUP2 SWAP1 SSTORE POP PUSH1 0x1 PUSH0 SWAP1 SLOAD SWAP1 PUSH2 0x100 EXP SWAP1 DIV PUSH20 0xFFFFFFFFFFFFFFFFFFFFFFFFFFFFFFFFFFFFFFFF AND PUSH20 0xFFFFFFFFFFFFFFFFFFFFFFFFFFFFFFFFFFFFFFFF AND PUSH4 0xA9059CBB CALLER DUP4 PUSH1 0x40 MLOAD DUP4 PUSH4 0xFFFFFFFF AND PUSH1 0xE0 SHL DUP2 MSTORE PUSH1 0x4 ADD PUSH2 0xD44 SWAP3 SWAP2 SWAP1 PUSH2 0x167E JUMP JUMPDEST PUSH1 0x20 PUSH1 0x40 MLOAD DUP1 DUP4 SUB DUP2 PUSH0 DUP8 GAS CALL ISZERO DUP1 ISZERO PUSH2 0xD60 JUMPI RETURNDATASIZE PUSH0 DUP1 RETURNDATACOPY RETURNDATASIZE PUSH0 REVERT JUMPDEST POP POP POP POP PUSH1 0x40 MLOAD RETURNDATASIZE PUSH1 0x1F NOT PUSH1 0x1F DUP3 ADD AND DUP3 ADD DUP1 PUSH1 0x40 MSTORE POP DUP2 ADD SWAP1 PUSH2 0xD84 SWAP2 SWAP1 PUSH2 0x170D JUMP JUMPDEST PUSH2 0xDC3 JUMPI PUSH1 0x40 MLOAD PUSH32 0x8C379A000000000000000000000000000000000000000000000000000000000 DUP2 MSTORE PUSH1 0x4 ADD PUSH2 0xDBA SWAP1 PUSH2 0x17EA JUMP JUMPDEST PUSH1 0x40 MLOAD DUP1 SWAP2 SUB SWAP1 REVERT JUMPDEST POP POP POP POP POP JUMP JUMPDEST PUSH1 0x1 PUSH0 SWAP1 SLOAD SWAP1 PUSH2 0x100 EXP SWAP1 DIV PUSH20 0xFFFFFFFFFFFFFFFFFFFFFFFFFFFFFFFFFFFFFFFF AND DUP2 JUMP JUMPDEST PUSH1 0x2 PUSH0 SWAP1 SLOAD SWAP1 PUSH2 0x100 EXP SWAP1 DIV PUSH20 0xFFFFFFFFFFFFFFFFFFFFFFFFFFFFFFFFFFFFFFFF AND DUP2 JUMP JUMPDEST PUSH0 DUP1 PUSH1 0x3 SLOAD GT PUSH2 0xE59 JUMPI PUSH1 0x40 MLOAD PUSH32 0x8C379A000000000000000000000000000000000000000000000000000000000 DUP2 MSTORE PUSH1 0x4 ADD PUSH2 0xE50 SWAP1 PUSH2 0x1BE8 JUMP JUMPDEST PUSH1 0x40 MLOAD DUP1 SWAP2 SUB SWAP1 REVERT JUMPDEST PUSH1 0x3 SLOAD PUSH8 0xDE0B6B3A7640000 PUSH1 0x4 SLOAD PUSH2 0xE72 SWAP2 SWAP1 PUSH2 0x1558 JUMP JUMPDEST PUSH2 0xE7C SWAP2 SWAP1 PUSH2 0x15C6 JUMP JUMPDEST SWAP1 POP SWAP1 JUMP JUMPDEST PUSH0 DUP1 PUSH1 0x4 SLOAD GT PUSH2 0xEC6 JUMPI PUSH1 0x40 MLOAD PUSH32 0x8C379A000000000000000000000000000000000000000000000000000000000 DUP2 MSTORE PUSH1 0x4 ADD PUSH2 0xEBD SWAP1 PUSH2 0x1C50 JUMP JUMPDEST PUSH1 0x40 MLOAD DUP1 SWAP2 SUB SWAP1 REVERT JUMPDEST PUSH1 0x4 SLOAD PUSH8 0xDE0B6B3A7640000 PUSH1 0x3 SLOAD PUSH2 0xEDF SWAP2 SWAP1 PUSH2 0x1558 JUMP JUMPDEST PUSH2 0xEE9 SWAP2 SWAP1 PUSH2 0x15C6 JUMP JUMPDEST SWAP1 POP SWAP1 JUMP JUMPDEST PUSH0 DUP2 GT PUSH2 0xF30 JUMPI PUSH1 0x40 MLOAD PUSH32 0x8C379A000000000000000000000000000000000000000000000000000000000 DUP2 MSTORE PUSH1 0x4 ADD PUSH2 0xF27 SWAP1 PUSH2 0x1B18 JUMP JUMPDEST PUSH1 0x40 MLOAD DUP1 SWAP2 SUB SWAP1 REVERT JUMPDEST PUSH1 0x1 PUSH0 SWAP1 SLOAD SWAP1 PUSH2 0x100 EXP SWAP1 DIV PUSH20 0xFFFFFFFFFFFFFFFFFFFFFFFFFFFFFFFFFFFFFFFF AND PUSH20 0xFFFFFFFFFFFFFFFFFFFFFFFFFFFFFFFFFFFFFFFF AND PUSH4 0x23B872DD CALLER ADDRESS DUP5 PUSH1 0x40 MLOAD DUP5 PUSH4 0xFFFFFFFF AND PUSH1 0xE0 SHL DUP2 MSTORE PUSH1 0x4 ADD PUSH2 0xF8E SWAP4 SWAP3 SWAP2 SWAP1 PUSH2 0x1924 JUMP JUMPDEST PUSH1 0x20 PUSH1 0x40 MLOAD DUP1 DUP4 SUB DUP2 PUSH0 DUP8 GAS CALL ISZERO DUP1 ISZERO PUSH2 0xFAA JUMPI RETURNDATASIZE PUSH0 DUP1 RETURNDATACOPY RETURNDATASIZE PUSH0 REVERT JUMPDEST POP POP POP POP PUSH1 0x40 MLOAD RETURNDATASIZE PUSH1 0x1F NOT PUSH1 0x1F DUP3 ADD AND DUP3 ADD DUP1 PUSH1 0x40 MSTORE POP DUP2 ADD SWAP1 PUSH2 0xFCE SWAP2 SWAP1 PUSH2 0x170D JUMP JUMPDEST PUSH2 0x100D JUMPI PUSH1 0x40 MLOAD PUSH32 0x8C379A000000000000000000000000000000000000000000000000000000000 DUP2 MSTORE PUSH1 0x4 ADD PUSH2 0x1004 SWAP1 PUSH2 0x17EA JUMP JUMPDEST PUSH1 0x40 MLOAD DUP1 SWAP2 SUB SWAP1 REVERT JUMPDEST PUSH0 PUSH2 0x3E8 PUSH2 0x3E5 DUP4 PUSH2 0x101F SWAP2 SWAP1 PUSH2 0x1558 JUMP JUMPDEST PUSH2 0x1029 SWAP2 SWAP1 PUSH2 0x15C6 JUMP JUMPDEST SWAP1 POP PUSH0 PUSH1 0x3 SLOAD DUP3 PUSH2 0x103A SWAP2 SWAP1 PUSH2 0x1558 JUMP JUMPDEST SWAP1 POP PUSH0 DUP3 PUSH1 0x4 SLOAD PUSH2 0x104B SWAP2 SWAP1 PUSH2 0x1A75 JUMP JUMPDEST SWAP1 POP PUSH0 DUP2 DUP4 PUSH2 0x105A SWAP2 SWAP1 PUSH2 0x15C6 JUMP JUMPDEST SWAP1 POP PUSH0 DUP2 GT PUSH2 0x109E JUMPI PUSH1 0x40 MLOAD PUSH32 0x8C379A000000000000000000000000000000000000000000000000000000000 DUP2 MSTORE PUSH1 0x4 ADD PUSH2 0x1095 SWAP1 PUSH2 0x1B80 JUMP JUMPDEST PUSH1 0x40 MLOAD DUP1 SWAP2 SUB SWAP1 REVERT JUMPDEST DUP5 PUSH1 0x4 PUSH0 DUP3 DUP3 SLOAD PUSH2 0x10AF SWAP2 SWAP1 PUSH2 0x1A75 JUMP JUMPDEST SWAP3 POP POP DUP2 SWAP1 SSTORE POP DUP1 PUSH1 0x3 PUSH0 DUP3 DUP3 SLOAD PUSH2 0x10C7 SWAP2 SWAP1 PUSH2 0x16A5 JUMP JUMPDEST SWAP3 POP POP DUP2 SWAP1 SSTORE POP PUSH0 DUP1 SLOAD SWAP1 PUSH2 0x100 EXP SWAP1 DIV PUSH20 0xFFFFFFFFFFFFFFFFFFFFFFFFFFFFFFFFFFFFFFFF AND PUSH20 0xFFFFFFFFFFFFFFFFFFFFFFFFFFFFFFFFFFFFFFFF AND PUSH4 0xA9059CBB CALLER DUP4 PUSH1 0x40 MLOAD DUP4 PUSH4 0xFFFFFFFF AND PUSH1 0xE0 SHL DUP2 MSTORE PUSH1 0x4 ADD PUSH2 0x1128 SWAP3 SWAP2 SWAP1 PUSH2 0x167E JUMP JUMPDEST PUSH1 0x20 PUSH1 0x40 MLOAD DUP1 DUP4 SUB DUP2 PUSH0 DUP8 GAS CALL ISZERO DUP1 ISZERO PUSH2 0x1144 JUMPI RETURNDATASIZE PUSH0 DUP1 RETURNDATACOPY RETURNDATASIZE PUSH0 REVERT JUMPDEST POP POP POP POP PUSH1 0x40 MLOAD RETURNDATASIZE PUSH1 0x1F NOT PUSH1 0x1F DUP3 ADD AND DUP3 ADD DUP1 PUSH1 0x40 MSTORE POP DUP2 ADD SWAP1 PUSH2 0x1168 SWAP2 SWAP1 PUSH2 0x170D JUMP JUMPDEST PUSH2 0x11A7 JUMPI PUSH1 0x40 MLOAD PUSH32 0x8C379A000000000000000000000000000000000000000000000000000000000 DUP2 MSTORE PUSH1 0x4 ADD PUSH2 0x119E SWAP1 PUSH2 0x1782 JUMP JUMPDEST PUSH1 0x40 MLOAD DUP1 SWAP2 SUB SWAP1 REVERT JUMPDEST POP POP POP POP POP JUMP JUMPDEST PUSH1 0x3 SLOAD DUP2 JUMP JUMPDEST PUSH0 PUSH1 0x3 DUP3 GT ISZERO PUSH2 0x1219 JUMPI DUP2 SWAP1 POP PUSH0 PUSH1 0x1 PUSH1 0x2 DUP5 PUSH2 0x11D1 SWAP2 SWAP1 PUSH2 0x15C6 JUMP JUMPDEST PUSH2 0x11DB SWAP2 SWAP1 PUSH2 0x1A75 JUMP JUMPDEST SWAP1 POP JUMPDEST DUP2 DUP2 LT ISZERO PUSH2 0x1213 JUMPI DUP1 SWAP2 POP PUSH1 0x2 DUP2 DUP3 DUP6 PUSH2 0x11F8 SWAP2 SWAP1 PUSH2 0x15C6 JUMP JUMPDEST PUSH2 0x1202 SWAP2 SWAP1 PUSH2 0x1A75 JUMP JUMPDEST PUSH2 0x120C SWAP2 SWAP1 PUSH2 0x15C6 JUMP JUMPDEST SWAP1 POP PUSH2 0x11DE JUMP JUMPDEST POP PUSH2 0x1226 JUMP JUMPDEST PUSH0 DUP3 EQ PUSH2 0x1225 JUMPI PUSH1 0x1 SWAP1 POP JUMPDEST JUMPDEST SWAP2 SWAP1 POP JUMP JUMPDEST PUSH0 DUP2 SWAP1 POP SWAP2 SWAP1 POP JUMP JUMPDEST PUSH2 0x123D DUP2 PUSH2 0x122B JUMP JUMPDEST DUP3 MSTORE POP POP JUMP JUMPDEST PUSH0 PUSH1 0x40 DUP3 ADD SWAP1 POP PUSH2 0x1256 PUSH0 DUP4 ADD DUP6 PUSH2 0x1234 JUMP JUMPDEST PUSH2 0x1263 PUSH1 0x20 DUP4 ADD DUP5 PUSH2 0x1234 JUMP JUMPDEST SWAP4 SWAP3 POP POP POP JUMP JUMPDEST PUSH0 DUP1 REVERT JUMPDEST PUSH2 0x1277 DUP2 PUSH2 0x122B JUMP JUMPDEST DUP2 EQ PUSH2 0x1281 JUMPI PUSH0 DUP1 REVERT JUMPDEST POP JUMP JUMPDEST PUSH0 DUP2 CALLDATALOAD SWAP1 POP PUSH2 0x1292 DUP2 PUSH2 0x126E JUMP JUMPDEST SWAP3 SWAP2 POP POP JUMP JUMPDEST PUSH0 PUSH1 0x20 DUP3 DUP5 SUB SLT ISZERO PUSH2 0x12AD JUMPI PUSH2 0x12AC PUSH2 0x126A JUMP JUMPDEST JUMPDEST PUSH0 PUSH2 0x12BA DUP5 DUP3 DUP6 ADD PUSH2 0x1284 JUMP JUMPDEST SWAP2 POP POP SWAP3 SWAP2 POP POP JUMP JUMPDEST PUSH0 PUSH20 0xFFFFFFFFFFFFFFFFFFFFFFFFFFFFFFFFFFFFFFFF DUP3 AND SWAP1 POP SWAP2 SWAP1 POP JUMP JUMPDEST PUSH0 DUP2 SWAP1 POP SWAP2 SWAP1 POP JUMP JUMPDEST PUSH0 PUSH2 0x1305 PUSH2 0x1300 PUSH2 0x12FB DUP5 PUSH2 0x12C3 JUMP JUMPDEST PUSH2 0x12E2 JUMP JUMPDEST PUSH2 0x12C3 JUMP JUMPDEST SWAP1 POP SWAP2 SWAP1 POP JUMP JUMPDEST PUSH0 PUSH2 0x1316 DUP3 PUSH2 0x12EB JUMP JUMPDEST SWAP1 POP SWAP2 SWAP1 POP JUMP JUMPDEST PUSH0 PUSH2 0x1327 DUP3 PUSH2 0x130C JUMP JUMPDEST SWAP1 POP SWAP2 SWAP1 POP JUMP JUMPDEST PUSH2 0x1337 DUP2 PUSH2 0x131D JUMP JUMPDEST DUP3 MSTORE POP POP JUMP JUMPDEST PUSH0 PUSH1 0x20 DUP3 ADD SWAP1 POP PUSH2 0x1350 PUSH0 DUP4 ADD DUP5 PUSH2 0x132E JUMP JUMPDEST SWAP3 SWAP2 POP POP JUMP JUMPDEST PUSH0 PUSH1 0x20 DUP3 ADD SWAP1 POP PUSH2 0x1369 PUSH0 DUP4 ADD DUP5 PUSH2 0x1234 JUMP JUMPDEST SWAP3 SWAP2 POP POP JUMP JUMPDEST PUSH0 DUP1 PUSH1 0x40 DUP4 DUP6 SUB SLT ISZERO PUSH2 0x1385 JUMPI PUSH2 0x1384 PUSH2 0x126A JUMP JUMPDEST JUMPDEST PUSH0 PUSH2 0x1392 DUP6 DUP3 DUP7 ADD PUSH2 0x1284 JUMP JUMPDEST SWAP3 POP POP PUSH1 0x20 PUSH2 0x13A3 DUP6 DUP3 DUP7 ADD PUSH2 0x1284 JUMP JUMPDEST SWAP2 POP POP SWAP3 POP SWAP3 SWAP1 POP JUMP JUMPDEST PUSH0 PUSH2 0x13B7 DUP3 PUSH2 0x130C JUMP JUMPDEST SWAP1 POP SWAP2 SWAP1 POP JUMP JUMPDEST PUSH2 0x13C7 DUP2 PUSH2 0x13AD JUMP JUMPDEST DUP3 MSTORE POP POP JUMP JUMPDEST PUSH0 PUSH1 0x20 DUP3 ADD SWAP1 POP PUSH2 0x13E0 PUSH0 DUP4 ADD DUP5 PUSH2 0x13BE JUMP JUMPDEST SWAP3 SWAP2 POP POP JUMP JUMPDEST PUSH0 DUP3 DUP3 MSTORE PUSH1 0x20 DUP3 ADD SWAP1 POP SWAP3 SWAP2 POP POP JUMP JUMPDEST PUSH32 0x4445583A204C5020616D6F756E74206D75737420626520677265617465722074 PUSH0 DUP3 ADD MSTORE PUSH32 0x68616E207A65726F000000000000000000000000000000000000000000000000 PUSH1 0x20 DUP3 ADD MSTORE POP JUMP JUMPDEST PUSH0 PUSH2 0x1450 PUSH1 0x28 DUP4 PUSH2 0x13E6 JUMP JUMPDEST SWAP2 POP PUSH2 0x145B DUP3 PUSH2 0x13F6 JUMP JUMPDEST PUSH1 0x40 DUP3 ADD SWAP1 POP SWAP2 SWAP1 POP JUMP JUMPDEST PUSH0 PUSH1 0x20 DUP3 ADD SWAP1 POP DUP2 DUP2 SUB PUSH0 DUP4 ADD MSTORE PUSH2 0x147D DUP2 PUSH2 0x1444 JUMP JUMPDEST SWAP1 POP SWAP2 SWAP1 POP JUMP JUMPDEST PUSH0 DUP2 MLOAD SWAP1 POP PUSH2 0x1492 DUP2 PUSH2 0x126E JUMP JUMPDEST SWAP3 SWAP2 POP POP JUMP JUMPDEST PUSH0 PUSH1 0x20 DUP3 DUP5 SUB SLT ISZERO PUSH2 0x14AD JUMPI PUSH2 0x14AC PUSH2 0x126A JUMP JUMPDEST JUMPDEST PUSH0 PUSH2 0x14BA DUP5 DUP3 DUP6 ADD PUSH2 0x1484 JUMP JUMPDEST SWAP2 POP POP SWAP3 SWAP2 POP POP JUMP JUMPDEST PUSH32 0x4445583A204E6F206C697175696469747920617661696C61626C650000000000 PUSH0 DUP3 ADD MSTORE POP JUMP JUMPDEST PUSH0 PUSH2 0x14F7 PUSH1 0x1B DUP4 PUSH2 0x13E6 JUMP JUMPDEST SWAP2 POP PUSH2 0x1502 DUP3 PUSH2 0x14C3 JUMP JUMPDEST PUSH1 0x20 DUP3 ADD SWAP1 POP SWAP2 SWAP1 POP JUMP JUMPDEST PUSH0 PUSH1 0x20 DUP3 ADD SWAP1 POP DUP2 DUP2 SUB PUSH0 DUP4 ADD MSTORE PUSH2 0x1524 DUP2 PUSH2 0x14EB JUMP JUMPDEST SWAP1 POP SWAP2 SWAP1 POP JUMP JUMPDEST PUSH32 0x4E487B7100000000000000000000000000000000000000000000000000000000 PUSH0 MSTORE PUSH1 0x11 PUSH1 0x4 MSTORE PUSH1 0x24 PUSH0 REVERT JUMPDEST PUSH0 PUSH2 0x1562 DUP3 PUSH2 0x122B JUMP JUMPDEST SWAP2 POP PUSH2 0x156D DUP4 PUSH2 0x122B JUMP JUMPDEST SWAP3 POP DUP3 DUP3 MUL PUSH2 0x157B DUP2 PUSH2 0x122B JUMP JUMPDEST SWAP2 POP DUP3 DUP3 DIV DUP5 EQ DUP4 ISZERO OR PUSH2 0x1592 JUMPI PUSH2 0x1591 PUSH2 0x152B JUMP JUMPDEST JUMPDEST POP SWAP3 SWAP2 POP POP JUMP JUMPDEST PUSH32 0x4E487B7100000000000000000000000000000000000000000000000000000000 PUSH0 MSTORE PUSH1 0x12 PUSH1 0x4 MSTORE PUSH1 0x24 PUSH0 REVERT JUMPDEST PUSH0 PUSH2 0x15D0 DUP3 PUSH2 0x122B JUMP JUMPDEST SWAP2 POP PUSH2 0x15DB DUP4 PUSH2 0x122B JUMP JUMPDEST SWAP3 POP DUP3 PUSH2 0x15EB JUMPI PUSH2 0x15EA PUSH2 0x1599 JUMP JUMPDEST JUMPDEST DUP3 DUP3 DIV SWAP1 POP SWAP3 SWAP2 POP POP JUMP JUMPDEST PUSH32 0x4445583A20576974686472617720616D6F756E747320617265207A65726F0000 PUSH0 DUP3 ADD MSTORE POP JUMP JUMPDEST PUSH0 PUSH2 0x162A PUSH1 0x1E DUP4 PUSH2 0x13E6 JUMP JUMPDEST SWAP2 POP PUSH2 0x1635 DUP3 PUSH2 0x15F6 JUMP JUMPDEST PUSH1 0x20 DUP3 ADD SWAP1 POP SWAP2 SWAP1 POP JUMP JUMPDEST PUSH0 PUSH1 0x20 DUP3 ADD SWAP1 POP DUP2 DUP2 SUB PUSH0 DUP4 ADD MSTORE PUSH2 0x1657 DUP2 PUSH2 0x161E JUMP JUMPDEST SWAP1 POP SWAP2 SWAP1 POP JUMP JUMPDEST PUSH0 PUSH2 0x1668 DUP3 PUSH2 0x12C3 JUMP JUMPDEST SWAP1 POP SWAP2 SWAP1 POP JUMP JUMPDEST PUSH2 0x1678 DUP2 PUSH2 0x165E JUMP JUMPDEST DUP3 MSTORE POP POP JUMP JUMPDEST PUSH0 PUSH1 0x40 DUP3 ADD SWAP1 POP PUSH2 0x1691 PUSH0 DUP4 ADD DUP6 PUSH2 0x166F JUMP JUMPDEST PUSH2 0x169E PUSH1 0x20 DUP4 ADD DUP5 PUSH2 0x1234 JUMP JUMPDEST SWAP4 SWAP3 POP POP POP JUMP JUMPDEST PUSH0 PUSH2 0x16AF DUP3 PUSH2 0x122B JUMP JUMPDEST SWAP2 POP PUSH2 0x16BA DUP4 PUSH2 0x122B JUMP JUMPDEST SWAP3 POP DUP3 DUP3 SUB SWAP1 POP DUP2 DUP2 GT ISZERO PUSH2 0x16D2 JUMPI PUSH2 0x16D1 PUSH2 0x152B JUMP JUMPDEST JUMPDEST SWAP3 SWAP2 POP POP JUMP JUMPDEST PUSH0 DUP2 ISZERO ISZERO SWAP1 POP SWAP2 SWAP1 POP JUMP JUMPDEST PUSH2 0x16EC DUP2 PUSH2 0x16D8 JUMP JUMPDEST DUP2 EQ PUSH2 0x16F6 JUMPI PUSH0 DUP1 REVERT JUMPDEST POP JUMP JUMPDEST PUSH0 DUP2 MLOAD SWAP1 POP PUSH2 0x1707 DUP2 PUSH2 0x16E3 JUMP JUMPDEST SWAP3 SWAP2 POP POP JUMP JUMPDEST PUSH0 PUSH1 0x20 DUP3 DUP5 SUB SLT ISZERO PUSH2 0x1722 JUMPI PUSH2 0x1721 PUSH2 0x126A JUMP JUMPDEST JUMPDEST PUSH0 PUSH2 0x172F DUP5 DUP3 DUP6 ADD PUSH2 0x16F9 JUMP JUMPDEST SWAP2 POP POP SWAP3 SWAP2 POP POP JUMP JUMPDEST PUSH32 0x4445583A205472616E73666572206F6620546F6B656E41206661696C65640000 PUSH0 DUP3 ADD MSTORE POP JUMP JUMPDEST PUSH0 PUSH2 0x176C PUSH1 0x1E DUP4 PUSH2 0x13E6 JUMP JUMPDEST SWAP2 POP PUSH2 0x1777 DUP3 PUSH2 0x1738 JUMP JUMPDEST PUSH1 0x20 DUP3 ADD SWAP1 POP SWAP2 SWAP1 POP JUMP JUMPDEST PUSH0 PUSH1 0x20 DUP3 ADD SWAP1 POP DUP2 DUP2 SUB PUSH0 DUP4 ADD MSTORE PUSH2 0x1799 DUP2 PUSH2 0x1760 JUMP JUMPDEST SWAP1 POP SWAP2 SWAP1 POP JUMP JUMPDEST PUSH32 0x4445583A205472616E73666572206F6620546F6B656E42206661696C65640000 PUSH0 DUP3 ADD MSTORE POP JUMP JUMPDEST PUSH0 PUSH2 0x17D4 PUSH1 0x1E DUP4 PUSH2 0x13E6 JUMP JUMPDEST SWAP2 POP PUSH2 0x17DF DUP3 PUSH2 0x17A0 JUMP JUMPDEST PUSH1 0x20 DUP3 ADD SWAP1 POP SWAP2 SWAP1 POP JUMP JUMPDEST PUSH0 PUSH1 0x20 DUP3 ADD SWAP1 POP DUP2 DUP2 SUB PUSH0 DUP4 ADD MSTORE PUSH2 0x1801 DUP2 PUSH2 0x17C8 JUMP JUMPDEST SWAP1 POP SWAP2 SWAP1 POP JUMP JUMPDEST PUSH32 0x4445583A20416D6F756E7473206D757374206265206772656174657220746861 PUSH0 DUP3 ADD MSTORE PUSH32 0x6E207A65726F0000000000000000000000000000000000000000000000000000 PUSH1 0x20 DUP3 ADD MSTORE POP JUMP JUMPDEST PUSH0 PUSH2 0x1862 PUSH1 0x26 DUP4 PUSH2 0x13E6 JUMP JUMPDEST SWAP2 POP PUSH2 0x186D DUP3 PUSH2 0x1808 JUMP JUMPDEST PUSH1 0x40 DUP3 ADD SWAP1 POP SWAP2 SWAP1 POP JUMP JUMPDEST PUSH0 PUSH1 0x20 DUP3 ADD SWAP1 POP DUP2 DUP2 SUB PUSH0 DUP4 ADD MSTORE PUSH2 0x188F DUP2 PUSH2 0x1856 JUMP JUMPDEST SWAP1 POP SWAP2 SWAP1 POP JUMP JUMPDEST PUSH32 0x4445583A204465706F736974206D75737420707265736572766520706F6F6C20 PUSH0 DUP3 ADD MSTORE PUSH32 0x726174696F000000000000000000000000000000000000000000000000000000 PUSH1 0x20 DUP3 ADD MSTORE POP JUMP JUMPDEST PUSH0 PUSH2 0x18F0 PUSH1 0x25 DUP4 PUSH2 0x13E6 JUMP JUMPDEST SWAP2 POP PUSH2 0x18FB DUP3 PUSH2 0x1896 JUMP JUMPDEST PUSH1 0x40 DUP3 ADD SWAP1 POP SWAP2 SWAP1 POP JUMP JUMPDEST PUSH0 PUSH1 0x20 DUP3 ADD SWAP1 POP DUP2 DUP2 SUB PUSH0 DUP4 ADD MSTORE PUSH2 0x191D DUP2 PUSH2 0x18E4 JUMP JUMPDEST SWAP1 POP SWAP2 SWAP1 POP JUMP JUMPDEST PUSH0 PUSH1 0x60 DUP3 ADD SWAP1 POP PUSH2 0x1937 PUSH0 DUP4 ADD DUP7 PUSH2 0x166F JUMP JUMPDEST PUSH2 0x1944 PUSH1 0x20 DUP4 ADD DUP6 PUSH2 0x166F JUMP JUMPDEST PUSH2 0x1951 PUSH1 0x40 DUP4 ADD DUP5 PUSH2 0x1234 JUMP JUMPDEST SWAP5 SWAP4 POP POP POP POP JUMP JUMPDEST PUSH32 0x4445583A204C69717569646974792063616C63756C6174696F6E73206D69736D PUSH0 DUP3 ADD MSTORE PUSH32 0x6174636800000000000000000000000000000000000000000000000000000000 PUSH1 0x20 DUP3 ADD MSTORE POP JUMP JUMPDEST PUSH0 PUSH2 0x19B3 PUSH1 0x24 DUP4 PUSH2 0x13E6 JUMP JUMPDEST SWAP2 POP PUSH2 0x19BE DUP3 PUSH2 0x1959 JUMP JUMPDEST PUSH1 0x40 DUP3 ADD SWAP1 POP SWAP2 SWAP1 POP JUMP JUMPDEST PUSH0 PUSH1 0x20 DUP3 ADD SWAP1 POP DUP2 DUP2 SUB PUSH0 DUP4 ADD MSTORE PUSH2 0x19E0 DUP2 PUSH2 0x19A7 JUMP JUMPDEST SWAP1 POP SWAP2 SWAP1 POP JUMP JUMPDEST PUSH32 0x4445583A20496E73756666696369656E74206C6971756964697479206D696E74 PUSH0 DUP3 ADD MSTORE PUSH32 0x6564000000000000000000000000000000000000000000000000000000000000 PUSH1 0x20 DUP3 ADD MSTORE POP JUMP JUMPDEST PUSH0 PUSH2 0x1A41 PUSH1 0x22 DUP4 PUSH2 0x13E6 JUMP JUMPDEST SWAP2 POP PUSH2 0x1A4C DUP3 PUSH2 0x19E7 JUMP JUMPDEST PUSH1 0x40 DUP3 ADD SWAP1 POP SWAP2 SWAP1 POP JUMP JUMPDEST PUSH0 PUSH1 0x20 DUP3 ADD SWAP1 POP DUP2 DUP2 SUB PUSH0 DUP4 ADD MSTORE PUSH2 0x1A6E DUP2 PUSH2 0x1A35 JUMP JUMPDEST SWAP1 POP SWAP2 SWAP1 POP JUMP JUMPDEST PUSH0 PUSH2 0x1A7F DUP3 PUSH2 0x122B JUMP JUMPDEST SWAP2 POP PUSH2 0x1A8A DUP4 PUSH2 0x122B JUMP JUMPDEST SWAP3 POP DUP3 DUP3 ADD SWAP1 POP DUP1 DUP3 GT ISZERO PUSH2 0x1AA2 JUMPI PUSH2 0x1AA1 PUSH2 0x152B JUMP JUMPDEST JUMPDEST SWAP3 SWAP2 POP POP JUMP JUMPDEST PUSH32 0x4445583A20496E70757420616D6F756E74206D75737420626520677265617465 PUSH0 DUP3 ADD MSTORE PUSH32 0x72207468616E207A65726F000000000000000000000000000000000000000000 PUSH1 0x20 DUP3 ADD MSTORE POP JUMP JUMPDEST PUSH0 PUSH2 0x1B02 PUSH1 0x2B DUP4 PUSH2 0x13E6 JUMP JUMPDEST SWAP2 POP PUSH2 0x1B0D DUP3 PUSH2 0x1AA8 JUMP JUMPDEST PUSH1 0x40 DUP3 ADD SWAP1 POP SWAP2 SWAP1 POP JUMP JUMPDEST PUSH0 PUSH1 0x20 DUP3 ADD SWAP1 POP DUP2 DUP2 SUB PUSH0 DUP4 ADD MSTORE PUSH2 0x1B2F DUP2 PUSH2 0x1AF6 JUMP JUMPDEST SWAP1 POP SWAP2 SWAP1 POP JUMP JUMPDEST PUSH32 0x4445583A20496E73756666696369656E74206F757470757420616D6F756E7400 PUSH0 DUP3 ADD MSTORE POP JUMP JUMPDEST PUSH0 PUSH2 0x1B6A PUSH1 0x1F DUP4 PUSH2 0x13E6 JUMP JUMPDEST SWAP2 POP PUSH2 0x1B75 DUP3 PUSH2 0x1B36 JUMP JUMPDEST PUSH1 0x20 DUP3 ADD SWAP1 POP SWAP2 SWAP1 POP JUMP JUMPDEST PUSH0 PUSH1 0x20 DUP3 ADD SWAP1 POP DUP2 DUP2 SUB PUSH0 DUP4 ADD MSTORE PUSH2 0x1B97 DUP2 PUSH2 0x1B5E JUMP JUMPDEST SWAP1 POP SWAP2 SWAP1 POP JUMP JUMPDEST PUSH32 0x4445583A204E6F20546F6B656E41207265736572766500000000000000000000 PUSH0 DUP3 ADD MSTORE POP JUMP JUMPDEST PUSH0 PUSH2 0x1BD2 PUSH1 0x16 DUP4 PUSH2 0x13E6 JUMP JUMPDEST SWAP2 POP PUSH2 0x1BDD DUP3 PUSH2 0x1B9E JUMP JUMPDEST PUSH1 0x20 DUP3 ADD SWAP1 POP SWAP2 SWAP1 POP JUMP JUMPDEST PUSH0 PUSH1 0x20 DUP3 ADD SWAP1 POP DUP2 DUP2 SUB PUSH0 DUP4 ADD MSTORE PUSH2 0x1BFF DUP2 PUSH2 0x1BC6 JUMP JUMPDEST SWAP1 POP SWAP2 SWAP1 POP JUMP JUMPDEST PUSH32 0x4445583A204E6F20546F6B656E42207265736572766500000000000000000000 PUSH0 DUP3 ADD MSTORE POP JUMP JUMPDEST PUSH0 PUSH2 0x1C3A PUSH1 0x16 DUP4 PUSH2 0x13E6 JUMP JUMPDEST SWAP2 POP PUSH2 0x1C45 DUP3 PUSH2 0x1C06 JUMP JUMPDEST PUSH1 0x20 DUP3 ADD SWAP1 POP SWAP2 SWAP1 POP JUMP JUMPDEST PUSH0 PUSH1 0x20 DUP3 ADD SWAP1 POP DUP2 DUP2 SUB PUSH0 DUP4 ADD MSTORE PUSH2 0x1C67 DUP2 PUSH2 0x1C2E JUMP JUMPDEST SWAP1 POP SWAP2 SWAP1 POP JUMP INVALID LOG2 PUSH5 0x6970667358 0x22 SLT KECCAK256 0xD6 0xED MSTORE8 0xAC 0x29 0xC9 SDIV MSTORE 0xE5 SWAP1 EQ SWAP3 CALLCODE 0xDD 0xE0 RETURNDATACOPY 0xC3 0xB6 0xC DUP3 CALL STOP 0xC2 0xC8 DUP3 PUSH12 0xBF3474975F6E64736F6C6343 STOP ADDMOD BYTE STOP CALLER PUSH1 0x80 PUSH1 0x40 MSTORE CALLVALUE DUP1 ISZERO PUSH2 0xF JUMPI PUSH0 DUP1 REVERT JUMPDEST POP PUSH1 0x40 MLOAD PUSH2 0x16CE CODESIZE SUB DUP1 PUSH2 0x16CE DUP4 CODECOPY DUP2 DUP2 ADD PUSH1 0x40 MSTORE DUP2 ADD SWAP1 PUSH2 0x31 SWAP2 SWAP1 PUSH2 0x1E9 JUMP JUMPDEST DUP2 DUP2 DUP2 PUSH1 0x3 SWAP1 DUP2 PUSH2 0x42 SWAP2 SWAP1 PUSH2 0x46C JUMP JUMPDEST POP DUP1 PUSH1 0x4 SWAP1 DUP2 PUSH2 0x52 SWAP2 SWAP1 PUSH2 0x46C JUMP JUMPDEST POP POP POP CALLER PUSH1 0x5 PUSH0 PUSH2 0x100 EXP DUP2 SLOAD DUP2 PUSH20 0xFFFFFFFFFFFFFFFFFFFFFFFFFFFFFFFFFFFFFFFF MUL NOT AND SWAP1 DUP4 PUSH20 0xFFFFFFFFFFFFFFFFFFFFFFFFFFFFFFFFFFFFFFFF AND MUL OR SWAP1 SSTORE POP POP POP PUSH2 0x53B JUMP JUMPDEST PUSH0 PUSH1 0x40 MLOAD SWAP1 POP SWAP1 JUMP JUMPDEST PUSH0 DUP1 REVERT JUMPDEST PUSH0 DUP1 REVERT JUMPDEST PUSH0 DUP1 REVERT JUMPDEST PUSH0 DUP1 REVERT JUMPDEST PUSH0 PUSH1 0x1F NOT PUSH1 0x1F DUP4 ADD AND SWAP1 POP SWAP2 SWAP1 POP JUMP JUMPDEST PUSH32 0x4E487B7100000000000000000000000000000000000000000000000000000000 PUSH0 MSTORE PUSH1 0x41 PUSH1 0x4 MSTORE PUSH1 0x24 PUSH0 REVERT JUMPDEST PUSH2 0xFB DUP3 PUSH2 0xB5 JUMP JUMPDEST DUP2 ADD DUP2 DUP2 LT PUSH8 0xFFFFFFFFFFFFFFFF DUP3 GT OR ISZERO PUSH2 0x11A JUMPI PUSH2 0x119 PUSH2 0xC5 JUMP JUMPDEST JUMPDEST DUP1 PUSH1 0x40 MSTORE POP POP POP JUMP JUMPDEST PUSH0 PUSH2 0x12C PUSH2 0x9C JUMP JUMPDEST SWAP1 POP PUSH2 0x138 DUP3 DUP3 PUSH2 0xF2 JUMP JUMPDEST SWAP2 SWAP1 POP JUMP JUMPDEST PUSH0 PUSH8 0xFFFFFFFFFFFFFFFF DUP3 GT ISZERO PUSH2 0x157 JUMPI PUSH2 0x156 PUSH2 0xC5 JUMP JUMPDEST JUMPDEST PUSH2 0x160 DUP3 PUSH2 0xB5 JUMP JUMPDEST SWAP1 POP PUSH1 0x20 DUP2 ADD SWAP1 POP SWAP2 SWAP1 POP JUMP JUMPDEST DUP3 DUP2 DUP4 MCOPY PUSH0 DUP4 DUP4 ADD MSTORE POP POP POP JUMP JUMPDEST PUSH0 PUSH2 0x18D PUSH2 0x188 DUP5 PUSH2 0x13D JUMP JUMPDEST PUSH2 0x123 JUMP JUMPDEST SWAP1 POP DUP3 DUP2 MSTORE PUSH1 0x20 DUP2 ADD DUP5 DUP5 DUP5 ADD GT ISZERO PUSH2 0x1A9 JUMPI PUSH2 0x1A8 PUSH2 0xB1 JUMP JUMPDEST JUMPDEST PUSH2 0x1B4 DUP5 DUP3 DUP6 PUSH2 0x16D JUMP JUMPDEST POP SWAP4 SWAP3 POP POP POP JUMP JUMPDEST PUSH0 DUP3 PUSH1 0x1F DUP4 ADD SLT PUSH2 0x1D0 JUMPI PUSH2 0x1CF PUSH2 0xAD JUMP JUMPDEST JUMPDEST DUP2 MLOAD PUSH2 0x1E0 DUP5 DUP3 PUSH1 0x20 DUP7 ADD PUSH2 0x17B JUMP JUMPDEST SWAP2 POP POP SWAP3 SWAP2 POP POP JUMP JUMPDEST PUSH0 DUP1 PUSH1 0x40 DUP4 DUP6 SUB SLT ISZERO PUSH2 0x1FF JUMPI PUSH2 0x1FE PUSH2 0xA5 JUMP JUMPDEST JUMPDEST PUSH0 DUP4 ADD MLOAD PUSH8 0xFFFFFFFFFFFFFFFF DUP2 GT ISZERO PUSH2 0x21C JUMPI PUSH2 0x21B PUSH2 0xA9 JUMP JUMPDEST JUMPDEST PUSH2 0x228 DUP6 DUP3 DUP7 ADD PUSH2 0x1BC JUMP JUMPDEST SWAP3 POP POP PUSH1 0x20 DUP4 ADD MLOAD PUSH8 0xFFFFFFFFFFFFFFFF DUP2 GT ISZERO PUSH2 0x249 JUMPI PUSH2 0x248 PUSH2 0xA9 JUMP JUMPDEST JUMPDEST PUSH2 0x255 DUP6 DUP3 DUP7 ADD PUSH2 0x1BC JUMP JUMPDEST SWAP2 POP POP SWAP3 POP SWAP3 SWAP1 POP JUMP JUMPDEST PUSH0 DUP2 MLOAD SWAP1 POP SWAP2 SWAP1 POP JUMP JUMPDEST PUSH32 0x4E487B7100000000000000000000000000000000000000000000000000000000 PUSH0 MSTORE PUSH1 0x22 PUSH1 0x4 MSTORE PUSH1 0x24 PUSH0 REVERT JUMPDEST PUSH0 PUSH1 0x2 DUP3 DIV SWAP1 POP PUSH1 0x1 DUP3 AND DUP1 PUSH2 0x2AD JUMPI PUSH1 0x7F DUP3 AND SWAP2 POP JUMPDEST PUSH1 0x20 DUP3 LT DUP2 SUB PUSH2 0x2C0 JUMPI PUSH2 0x2BF PUSH2 0x269 JUMP JUMPDEST JUMPDEST POP SWAP2 SWAP1 POP JUMP JUMPDEST PUSH0 DUP2 SWAP1 POP DUP2 PUSH0 MSTORE PUSH1 0x20 PUSH0 KECCAK256 SWAP1 POP SWAP2 SWAP1 POP JUMP JUMPDEST PUSH0 PUSH1 0x20 PUSH1 0x1F DUP4 ADD DIV SWAP1 POP SWAP2 SWAP1 POP JUMP JUMPDEST PUSH0 DUP3 DUP3 SHL SWAP1 POP SWAP3 SWAP2 POP POP JUMP JUMPDEST PUSH0 PUSH1 0x8 DUP4 MUL PUSH2 0x322 PUSH32 0xFFFFFFFFFFFFFFFFFFFFFFFFFFFFFFFFFFFFFFFFFFFFFFFFFFFFFFFFFFFFFFFF DUP3 PUSH2 0x2E7 JUMP JUMPDEST PUSH2 0x32C DUP7 DUP4 PUSH2 0x2E7 JUMP JUMPDEST SWAP6 POP DUP1 NOT DUP5 AND SWAP4 POP DUP1 DUP7 AND DUP5 OR SWAP3 POP POP POP SWAP4 SWAP3 POP POP POP JUMP JUMPDEST PUSH0 DUP2 SWAP1 POP SWAP2 SWAP1 POP JUMP JUMPDEST PUSH0 DUP2 SWAP1 POP SWAP2 SWAP1 POP JUMP JUMPDEST PUSH0 PUSH2 0x370 PUSH2 0x36B PUSH2 0x366 DUP5 PUSH2 0x344 JUMP JUMPDEST PUSH2 0x34D JUMP JUMPDEST PUSH2 0x344 JUMP JUMPDEST SWAP1 POP SWAP2 SWAP1 POP JUMP JUMPDEST PUSH0 DUP2 SWAP1 POP SWAP2 SWAP1 POP JUMP JUMPDEST PUSH2 0x389 DUP4 PUSH2 0x356 JUMP JUMPDEST PUSH2 0x39D PUSH2 0x395 DUP3 PUSH2 0x377 JUMP JUMPDEST DUP5 DUP5 SLOAD PUSH2 0x2F3 JUMP JUMPDEST DUP3 SSTORE POP POP POP POP JUMP JUMPDEST PUSH0 SWAP1 JUMP JUMPDEST PUSH2 0x3B1 PUSH2 0x3A5 JUMP JUMPDEST PUSH2 0x3BC DUP2 DUP5 DUP5 PUSH2 0x380 JUMP JUMPDEST POP POP POP JUMP JUMPDEST JUMPDEST DUP2 DUP2 LT ISZERO PUSH2 0x3DF JUMPI PUSH2 0x3D4 PUSH0 DUP3 PUSH2 0x3A9 JUMP JUMPDEST PUSH1 0x1 DUP2 ADD SWAP1 POP PUSH2 0x3C2 JUMP JUMPDEST POP POP JUMP JUMPDEST PUSH1 0x1F DUP3 GT ISZERO PUSH2 0x424 JUMPI PUSH2 0x3F5 DUP2 PUSH2 0x2C6 JUMP JUMPDEST PUSH2 0x3FE DUP5 PUSH2 0x2D8 JUMP JUMPDEST DUP2 ADD PUSH1 0x20 DUP6 LT ISZERO PUSH2 0x40D JUMPI DUP2 SWAP1 POP JUMPDEST PUSH2 0x421 PUSH2 0x419 DUP6 PUSH2 0x2D8 JUMP JUMPDEST DUP4 ADD DUP3 PUSH2 0x3C1 JUMP JUMPDEST POP POP JUMPDEST POP POP POP JUMP JUMPDEST PUSH0 DUP3 DUP3 SHR SWAP1 POP SWAP3 SWAP2 POP POP JUMP JUMPDEST PUSH0 PUSH2 0x444 PUSH0 NOT DUP5 PUSH1 0x8 MUL PUSH2 0x429 JUMP JUMPDEST NOT DUP1 DUP4 AND SWAP2 POP POP SWAP3 SWAP2 POP POP JUMP JUMPDEST PUSH0 PUSH2 0x45C DUP4 DUP4 PUSH2 0x435 JUMP JUMPDEST SWAP2 POP DUP3 PUSH1 0x2 MUL DUP3 OR SWAP1 POP SWAP3 SWAP2 POP POP JUMP JUMPDEST PUSH2 0x475 DUP3 PUSH2 0x25F JUMP JUMPDEST PUSH8 0xFFFFFFFFFFFFFFFF DUP2 GT ISZERO PUSH2 0x48E JUMPI PUSH2 0x48D PUSH2 0xC5 JUMP JUMPDEST JUMPDEST PUSH2 0x498 DUP3 SLOAD PUSH2 0x296 JUMP JUMPDEST PUSH2 0x4A3 DUP3 DUP3 DUP6 PUSH2 0x3E3 JUMP JUMPDEST PUSH0 PUSH1 0x20 SWAP1 POP PUSH1 0x1F DUP4 GT PUSH1 0x1 DUP2 EQ PUSH2 0x4D4 JUMPI PUSH0 DUP5 ISZERO PUSH2 0x4C2 JUMPI DUP3 DUP8 ADD MLOAD SWAP1 POP JUMPDEST PUSH2 0x4CC DUP6 DUP3 PUSH2 0x451 JUMP JUMPDEST DUP7 SSTORE POP PUSH2 0x533 JUMP JUMPDEST PUSH1 0x1F NOT DUP5 AND PUSH2 0x4E2 DUP7 PUSH2 0x2C6 JUMP JUMPDEST PUSH0 JUMPDEST DUP3 DUP2 LT ISZERO PUSH2 0x509 JUMPI DUP5 DUP10 ADD MLOAD DUP3 SSTORE PUSH1 0x1 DUP3 ADD SWAP2 POP PUSH1 0x20 DUP6 ADD SWAP5 POP PUSH1 0x20 DUP2 ADD SWAP1 POP PUSH2 0x4E4 JUMP JUMPDEST DUP7 DUP4 LT ISZERO PUSH2 0x526 JUMPI DUP5 DUP10 ADD MLOAD PUSH2 0x522 PUSH1 0x1F DUP10 AND DUP3 PUSH2 0x435 JUMP JUMPDEST DUP4 SSTORE POP JUMPDEST PUSH1 0x1 PUSH1 0x2 DUP9 MUL ADD DUP9 SSTORE POP POP POP JUMPDEST POP POP POP POP POP POP JUMP JUMPDEST PUSH2 0x1186 DUP1 PUSH2 0x548 PUSH0 CODECOPY PUSH0 RETURN INVALID PUSH1 0x80 PUSH1 0x40 MSTORE CALLVALUE DUP1 ISZERO PUSH2 0xF JUMPI PUSH0 DUP1 REVERT JUMPDEST POP PUSH1 0x4 CALLDATASIZE LT PUSH2 0xB2 JUMPI PUSH0 CALLDATALOAD PUSH1 0xE0 SHR DUP1 PUSH4 0x692058C2 GT PUSH2 0x6F JUMPI DUP1 PUSH4 0x692058C2 EQ PUSH2 0x18C JUMPI DUP1 PUSH4 0x70A08231 EQ PUSH2 0x1AA JUMPI DUP1 PUSH4 0x79CC6790 EQ PUSH2 0x1DA JUMPI DUP1 PUSH4 0x95D89B41 EQ PUSH2 0x1F6 JUMPI DUP1 PUSH4 0xA9059CBB EQ PUSH2 0x214 JUMPI DUP1 PUSH4 0xDD62ED3E EQ PUSH2 0x244 JUMPI PUSH2 0xB2 JUMP JUMPDEST DUP1 PUSH4 0x6FDDE03 EQ PUSH2 0xB6 JUMPI DUP1 PUSH4 0x95EA7B3 EQ PUSH2 0xD4 JUMPI DUP1 PUSH4 0x18160DDD EQ PUSH2 0x104 JUMPI DUP1 PUSH4 0x23B872DD EQ PUSH2 0x122 JUMPI DUP1 PUSH4 0x313CE567 EQ PUSH2 0x152 JUMPI DUP1 PUSH4 0x40C10F19 EQ PUSH2 0x170 JUMPI JUMPDEST PUSH0 DUP1 REVERT JUMPDEST PUSH2 0xBE PUSH2 0x274 JUMP JUMPDEST PUSH1 0x40 MLOAD PUSH2 0xCB SWAP2 SWAP1 PUSH2 0xD2F JUMP JUMPDEST PUSH1 0x40 MLOAD DUP1 SWAP2 SUB SWAP1 RETURN JUMPDEST PUSH2 0xEE PUSH1 0x4 DUP1 CALLDATASIZE SUB DUP2 ADD SWAP1 PUSH2 0xE9 SWAP2 SWAP1 PUSH2 0xDE0 JUMP JUMPDEST PUSH2 0x304 JUMP JUMPDEST PUSH1 0x40 MLOAD PUSH2 0xFB SWAP2 SWAP1 PUSH2 0xE38 JUMP JUMPDEST PUSH1 0x40 MLOAD DUP1 SWAP2 SUB SWAP1 RETURN JUMPDEST PUSH2 0x10C PUSH2 0x326 JUMP JUMPDEST PUSH1 0x40 MLOAD PUSH2 0x119 SWAP2 SWAP1 PUSH2 0xE60 JUMP JUMPDEST PUSH1 0x40 MLOAD DUP1 SWAP2 SUB SWAP1 RETURN JUMPDEST PUSH2 0x13C PUSH1 0x4 DUP1 CALLDATASIZE SUB DUP2 ADD SWAP1 PUSH2 0x137 SWAP2 SWAP1 PUSH2 0xE79 JUMP JUMPDEST PUSH2 0x32F JUMP JUMPDEST PUSH1 0x40 MLOAD PUSH2 0x149 SWAP2 SWAP1 PUSH2 0xE38 JUMP JUMPDEST PUSH1 0x40 MLOAD DUP1 SWAP2 SUB SWAP1 RETURN JUMPDEST PUSH2 0x15A PUSH2 0x35D JUMP JUMPDEST PUSH1 0x40 MLOAD PUSH2 0x167 SWAP2 SWAP1 PUSH2 0xEE4 JUMP JUMPDEST PUSH1 0x40 MLOAD DUP1 SWAP2 SUB SWAP1 RETURN JUMPDEST PUSH2 0x18A PUSH1 0x4 DUP1 CALLDATASIZE SUB DUP2 ADD SWAP1 PUSH2 0x185 SWAP2 SWAP1 PUSH2 0xDE0 JUMP JUMPDEST PUSH2 0x365 JUMP JUMPDEST STOP JUMPDEST PUSH2 0x194 PUSH2 0x402 JUMP JUMPDEST PUSH1 0x40 MLOAD PUSH2 0x1A1 SWAP2 SWAP1 PUSH2 0xF0C JUMP JUMPDEST PUSH1 0x40 MLOAD DUP1 SWAP2 SUB SWAP1 RETURN JUMPDEST PUSH2 0x1C4 PUSH1 0x4 DUP1 CALLDATASIZE SUB DUP2 ADD SWAP1 PUSH2 0x1BF SWAP2 SWAP1 PUSH2 0xF25 JUMP JUMPDEST PUSH2 0x427 JUMP JUMPDEST PUSH1 0x40 MLOAD PUSH2 0x1D1 SWAP2 SWAP1 PUSH2 0xE60 JUMP JUMPDEST PUSH1 0x40 MLOAD DUP1 SWAP2 SUB SWAP1 RETURN JUMPDEST PUSH2 0x1F4 PUSH1 0x4 DUP1 CALLDATASIZE SUB DUP2 ADD SWAP1 PUSH2 0x1EF SWAP2 SWAP1 PUSH2 0xDE0 JUMP JUMPDEST PUSH2 0x46C JUMP JUMPDEST STOP JUMPDEST PUSH2 0x1FE PUSH2 0x509 JUMP JUMPDEST PUSH1 0x40 MLOAD PUSH2 0x20B SWAP2 SWAP1 PUSH2 0xD2F JUMP JUMPDEST PUSH1 0x40 MLOAD DUP1 SWAP2 SUB SWAP1 RETURN JUMPDEST PUSH2 0x22E PUSH1 0x4 DUP1 CALLDATASIZE SUB DUP2 ADD SWAP1 PUSH2 0x229 SWAP2 SWAP1 PUSH2 0xDE0 JUMP JUMPDEST PUSH2 0x599 JUMP JUMPDEST PUSH1 0x40 MLOAD PUSH2 0x23B SWAP2 SWAP1 PUSH2 0xE38 JUMP JUMPDEST PUSH1 0x40 MLOAD DUP1 SWAP2 SUB SWAP1 RETURN JUMPDEST PUSH2 0x25E PUSH1 0x4 DUP1 CALLDATASIZE SUB DUP2 ADD SWAP1 PUSH2 0x259 SWAP2 SWAP1 PUSH2 0xF50 JUMP JUMPDEST PUSH2 0x5BB JUMP JUMPDEST PUSH1 0x40 MLOAD PUSH2 0x26B SWAP2 SWAP1 PUSH2 0xE60 JUMP JUMPDEST PUSH1 0x40 MLOAD DUP1 SWAP2 SUB SWAP1 RETURN JUMPDEST PUSH1 0x60 PUSH1 0x3 DUP1 SLOAD PUSH2 0x283 SWAP1 PUSH2 0xFBB JUMP JUMPDEST DUP1 PUSH1 0x1F ADD PUSH1 0x20 DUP1 SWAP2 DIV MUL PUSH1 0x20 ADD PUSH1 0x40 MLOAD SWAP1 DUP2 ADD PUSH1 0x40 MSTORE DUP1 SWAP3 SWAP2 SWAP1 DUP2 DUP2 MSTORE PUSH1 0x20 ADD DUP3 DUP1 SLOAD PUSH2 0x2AF SWAP1 PUSH2 0xFBB JUMP JUMPDEST DUP1 ISZERO PUSH2 0x2FA JUMPI DUP1 PUSH1 0x1F LT PUSH2 0x2D1 JUMPI PUSH2 0x100 DUP1 DUP4 SLOAD DIV MUL DUP4 MSTORE SWAP2 PUSH1 0x20 ADD SWAP2 PUSH2 0x2FA JUMP JUMPDEST DUP3 ADD SWAP2 SWAP1 PUSH0 MSTORE PUSH1 0x20 PUSH0 KECCAK256 SWAP1 JUMPDEST DUP2 SLOAD DUP2 MSTORE SWAP1 PUSH1 0x1 ADD SWAP1 PUSH1 0x20 ADD DUP1 DUP4 GT PUSH2 0x2DD JUMPI DUP3 SWAP1 SUB PUSH1 0x1F AND DUP3 ADD SWAP2 JUMPDEST POP POP POP POP POP SWAP1 POP SWAP1 JUMP JUMPDEST PUSH0 DUP1 PUSH2 0x30E PUSH2 0x63D JUMP JUMPDEST SWAP1 POP PUSH2 0x31B DUP2 DUP6 DUP6 PUSH2 0x644 JUMP JUMPDEST PUSH1 0x1 SWAP2 POP POP SWAP3 SWAP2 POP POP JUMP JUMPDEST PUSH0 PUSH1 0x2 SLOAD SWAP1 POP SWAP1 JUMP JUMPDEST PUSH0 DUP1 PUSH2 0x339 PUSH2 0x63D JUMP JUMPDEST SWAP1 POP PUSH2 0x346 DUP6 DUP3 DUP6 PUSH2 0x656 JUMP JUMPDEST PUSH2 0x351 DUP6 DUP6 DUP6 PUSH2 0x6E9 JUMP JUMPDEST PUSH1 0x1 SWAP2 POP POP SWAP4 SWAP3 POP POP POP JUMP JUMPDEST PUSH0 PUSH1 0x12 SWAP1 POP SWAP1 JUMP JUMPDEST PUSH1 0x5 PUSH0 SWAP1 SLOAD SWAP1 PUSH2 0x100 EXP SWAP1 DIV PUSH20 0xFFFFFFFFFFFFFFFFFFFFFFFFFFFFFFFFFFFFFFFF AND PUSH20 0xFFFFFFFFFFFFFFFFFFFFFFFFFFFFFFFFFFFFFFFF AND CALLER PUSH20 0xFFFFFFFFFFFFFFFFFFFFFFFFFFFFFFFFFFFFFFFF AND EQ PUSH2 0x3F4 JUMPI PUSH1 0x40 MLOAD PUSH32 0x8C379A000000000000000000000000000000000000000000000000000000000 DUP2 MSTORE PUSH1 0x4 ADD PUSH2 0x3EB SWAP1 PUSH2 0x1035 JUMP JUMPDEST PUSH1 0x40 MLOAD DUP1 SWAP2 SUB SWAP1 REVERT JUMPDEST PUSH2 0x3FE DUP3 DUP3 PUSH2 0x7D9 JUMP JUMPDEST POP POP JUMP JUMPDEST PUSH1 0x5 PUSH0 SWAP1 SLOAD SWAP1 PUSH2 0x100 EXP SWAP1 DIV PUSH20 0xFFFFFFFFFFFFFFFFFFFFFFFFFFFFFFFFFFFFFFFF AND DUP2 JUMP JUMPDEST PUSH0 DUP1 PUSH0 DUP4 PUSH20 0xFFFFFFFFFFFFFFFFFFFFFFFFFFFFFFFFFFFFFFFF AND PUSH20 0xFFFFFFFFFFFFFFFFFFFFFFFFFFFFFFFFFFFFFFFF AND DUP2 MSTORE PUSH1 0x20 ADD SWAP1 DUP2 MSTORE PUSH1 0x20 ADD PUSH0 KECCAK256 SLOAD SWAP1 POP SWAP2 SWAP1 POP JUMP JUMPDEST PUSH1 0x5 PUSH0 SWAP1 SLOAD SWAP1 PUSH2 0x100 EXP SWAP1 DIV PUSH20 0xFFFFFFFFFFFFFFFFFFFFFFFFFFFFFFFFFFFFFFFF AND PUSH20 0xFFFFFFFFFFFFFFFFFFFFFFFFFFFFFFFFFFFFFFFF AND CALLER PUSH20 0xFFFFFFFFFFFFFFFFFFFFFFFFFFFFFFFFFFFFFFFF AND EQ PUSH2 0x4FB JUMPI PUSH1 0x40 MLOAD PUSH32 0x8C379A000000000000000000000000000000000000000000000000000000000 DUP2 MSTORE PUSH1 0x4 ADD PUSH2 0x4F2 SWAP1 PUSH2 0x109D JUMP JUMPDEST PUSH1 0x40 MLOAD DUP1 SWAP2 SUB SWAP1 REVERT JUMPDEST PUSH2 0x505 DUP3 DUP3 PUSH2 0x858 JUMP JUMPDEST POP POP JUMP JUMPDEST PUSH1 0x60 PUSH1 0x4 DUP1 SLOAD PUSH2 0x518 SWAP1 PUSH2 0xFBB JUMP JUMPDEST DUP1 PUSH1 0x1F ADD PUSH1 0x20 DUP1 SWAP2 DIV MUL PUSH1 0x20 ADD PUSH1 0x40 MLOAD SWAP1 DUP2 ADD PUSH1 0x40 MSTORE DUP1 SWAP3 SWAP2 SWAP1 DUP2 DUP2 MSTORE PUSH1 0x20 ADD DUP3 DUP1 SLOAD PUSH2 0x544 SWAP1 PUSH2 0xFBB JUMP JUMPDEST DUP1 ISZERO PUSH2 0x58F JUMPI DUP1 PUSH1 0x1F LT PUSH2 0x566 JUMPI PUSH2 0x100 DUP1 DUP4 SLOAD DIV MUL DUP4 MSTORE SWAP2 PUSH1 0x20 ADD SWAP2 PUSH2 0x58F JUMP JUMPDEST DUP3 ADD SWAP2 SWAP1 PUSH0 MSTORE PUSH1 0x20 PUSH0 KECCAK256 SWAP1 JUMPDEST DUP2 SLOAD DUP2 MSTORE SWAP1 PUSH1 0x1 ADD SWAP1 PUSH1 0x20 ADD DUP1 DUP4 GT PUSH2 0x572 JUMPI DUP3 SWAP1 SUB PUSH1 0x1F AND DUP3 ADD SWAP2 JUMPDEST POP POP POP POP POP SWAP1 POP SWAP1 JUMP JUMPDEST PUSH0 DUP1 PUSH2 0x5A3 PUSH2 0x63D JUMP JUMPDEST SWAP1 POP PUSH2 0x5B0 DUP2 DUP6 DUP6 PUSH2 0x6E9 JUMP JUMPDEST PUSH1 0x1 SWAP2 POP POP SWAP3 SWAP2 POP POP JUMP JUMPDEST PUSH0 PUSH1 0x1 PUSH0 DUP5 PUSH20 0xFFFFFFFFFFFFFFFFFFFFFFFFFFFFFFFFFFFFFFFF AND PUSH20 0xFFFFFFFFFFFFFFFFFFFFFFFFFFFFFFFFFFFFFFFF AND DUP2 MSTORE PUSH1 0x20 ADD SWAP1 DUP2 MSTORE PUSH1 0x20 ADD PUSH0 KECCAK256 PUSH0 DUP4 PUSH20 0xFFFFFFFFFFFFFFFFFFFFFFFFFFFFFFFFFFFFFFFF AND PUSH20 0xFFFFFFFFFFFFFFFFFFFFFFFFFFFFFFFFFFFFFFFF AND DUP2 MSTORE PUSH1 0x20 ADD SWAP1 DUP2 MSTORE PUSH1 0x20 ADD PUSH0 KECCAK256 SLOAD SWAP1 POP SWAP3 SWAP2 POP POP JUMP JUMPDEST PUSH0 CALLER SWAP1 POP SWAP1 JUMP JUMPDEST PUSH2 0x651 DUP4 DUP4 DUP4 PUSH1 0x1 PUSH2 0x8D7 JUMP JUMPDEST POP POP POP JUMP JUMPDEST PUSH0 PUSH2 0x661 DUP5 DUP5 PUSH2 0x5BB JUMP JUMPDEST SWAP1 POP PUSH32 0xFFFFFFFFFFFFFFFFFFFFFFFFFFFFFFFFFFFFFFFFFFFFFFFFFFFFFFFFFFFFFFFF DUP2 LT ISZERO PUSH2 0x6E3 JUMPI DUP2 DUP2 LT ISZERO PUSH2 0x6D4 JUMPI DUP3 DUP2 DUP4 PUSH1 0x40 MLOAD PUSH32 0xFB8F41B200000000000000000000000000000000000000000000000000000000 DUP2 MSTORE PUSH1 0x4 ADD PUSH2 0x6CB SWAP4 SWAP3 SWAP2 SWAP1 PUSH2 0x10BB JUMP JUMPDEST PUSH1 0x40 MLOAD DUP1 SWAP2 SUB SWAP1 REVERT JUMPDEST PUSH2 0x6E2 DUP5 DUP5 DUP5 DUP5 SUB PUSH0 PUSH2 0x8D7 JUMP JUMPDEST JUMPDEST POP POP POP POP JUMP JUMPDEST PUSH0 PUSH20 0xFFFFFFFFFFFFFFFFFFFFFFFFFFFFFFFFFFFFFFFF AND DUP4 PUSH20 0xFFFFFFFFFFFFFFFFFFFFFFFFFFFFFFFFFFFFFFFF AND SUB PUSH2 0x759 JUMPI PUSH0 PUSH1 0x40 MLOAD PUSH32 0x96C6FD1E00000000000000000000000000000000000000000000000000000000 DUP2 MSTORE PUSH1 0x4 ADD PUSH2 0x750 SWAP2 SWAP1 PUSH2 0xF0C JUMP JUMPDEST PUSH1 0x40 MLOAD DUP1 SWAP2 SUB SWAP1 REVERT JUMPDEST PUSH0 PUSH20 0xFFFFFFFFFFFFFFFFFFFFFFFFFFFFFFFFFFFFFFFF AND DUP3 PUSH20 0xFFFFFFFFFFFFFFFFFFFFFFFFFFFFFFFFFFFFFFFF AND SUB PUSH2 0x7C9 JUMPI PUSH0 PUSH1 0x40 MLOAD PUSH32 0xEC442F0500000000000000000000000000000000000000000000000000000000 DUP2 MSTORE PUSH1 0x4 ADD PUSH2 0x7C0 SWAP2 SWAP1 PUSH2 0xF0C JUMP JUMPDEST PUSH1 0x40 MLOAD DUP1 SWAP2 SUB SWAP1 REVERT JUMPDEST PUSH2 0x7D4 DUP4 DUP4 DUP4 PUSH2 0xAA6 JUMP JUMPDEST POP POP POP JUMP JUMPDEST PUSH0 PUSH20 0xFFFFFFFFFFFFFFFFFFFFFFFFFFFFFFFFFFFFFFFF AND DUP3 PUSH20 0xFFFFFFFFFFFFFFFFFFFFFFFFFFFFFFFFFFFFFFFF AND SUB PUSH2 0x849 JUMPI PUSH0 PUSH1 0x40 MLOAD PUSH32 0xEC442F0500000000000000000000000000000000000000000000000000000000 DUP2 MSTORE PUSH1 0x4 ADD PUSH2 0x840 SWAP2 SWAP1 PUSH2 0xF0C JUMP JUMPDEST PUSH1 0x40 MLOAD DUP1 SWAP2 SUB SWAP1 REVERT JUMPDEST PUSH2 0x854 PUSH0 DUP4 DUP4 PUSH2 0xAA6 JUMP JUMPDEST POP POP JUMP JUMPDEST PUSH0 PUSH20 0xFFFFFFFFFFFFFFFFFFFFFFFFFFFFFFFFFFFFFFFF AND DUP3 PUSH20 0xFFFFFFFFFFFFFFFFFFFFFFFFFFFFFFFFFFFFFFFF AND SUB PUSH2 0x8C8 JUMPI PUSH0 PUSH1 0x40 MLOAD PUSH32 0x96C6FD1E00000000000000000000000000000000000000000000000000000000 DUP2 MSTORE PUSH1 0x4 ADD PUSH2 0x8BF SWAP2 SWAP1 PUSH2 0xF0C JUMP JUMPDEST PUSH1 0x40 MLOAD DUP1 SWAP2 SUB SWAP1 REVERT JUMPDEST PUSH2 0x8D3 DUP3 PUSH0 DUP4 PUSH2 0xAA6 JUMP JUMPDEST POP POP JUMP JUMPDEST PUSH0 PUSH20 0xFFFFFFFFFFFFFFFFFFFFFFFFFFFFFFFFFFFFFFFF AND DUP5 PUSH20 0xFFFFFFFFFFFFFFFFFFFFFFFFFFFFFFFFFFFFFFFF AND SUB PUSH2 0x947 JUMPI PUSH0 PUSH1 0x40 MLOAD PUSH32 0xE602DF0500000000000000000000000000000000000000000000000000000000 DUP2 MSTORE PUSH1 0x4 ADD PUSH2 0x93E SWAP2 SWAP1 PUSH2 0xF0C JUMP JUMPDEST PUSH1 0x40 MLOAD DUP1 SWAP2 SUB SWAP1 REVERT JUMPDEST PUSH0 PUSH20 0xFFFFFFFFFFFFFFFFFFFFFFFFFFFFFFFFFFFFFFFF AND DUP4 PUSH20 0xFFFFFFFFFFFFFFFFFFFFFFFFFFFFFFFFFFFFFFFF AND SUB PUSH2 0x9B7 JUMPI PUSH0 PUSH1 0x40 MLOAD PUSH32 0x94280D6200000000000000000000000000000000000000000000000000000000 DUP2 MSTORE PUSH1 0x4 ADD PUSH2 0x9AE SWAP2 SWAP1 PUSH2 0xF0C JUMP JUMPDEST PUSH1 0x40 MLOAD DUP1 SWAP2 SUB SWAP1 REVERT JUMPDEST DUP2 PUSH1 0x1 PUSH0 DUP7 PUSH20 0xFFFFFFFFFFFFFFFFFFFFFFFFFFFFFFFFFFFFFFFF AND PUSH20 0xFFFFFFFFFFFFFFFFFFFFFFFFFFFFFFFFFFFFFFFF AND DUP2 MSTORE PUSH1 0x20 ADD SWAP1 DUP2 MSTORE PUSH1 0x20 ADD PUSH0 KECCAK256 PUSH0 DUP6 PUSH20 0xFFFFFFFFFFFFFFFFFFFFFFFFFFFFFFFFFFFFFFFF AND PUSH20 0xFFFFFFFFFFFFFFFFFFFFFFFFFFFFFFFFFFFFFFFF AND DUP2 MSTORE PUSH1 0x20 ADD SWAP1 DUP2 MSTORE PUSH1 0x20 ADD PUSH0 KECCAK256 DUP2 SWAP1 SSTORE POP DUP1 ISZERO PUSH2 0xAA0 JUMPI DUP3 PUSH20 0xFFFFFFFFFFFFFFFFFFFFFFFFFFFFFFFFFFFFFFFF AND DUP5 PUSH20 0xFFFFFFFFFFFFFFFFFFFFFFFFFFFFFFFFFFFFFFFF AND PUSH32 0x8C5BE1E5EBEC7D5BD14F71427D1E84F3DD0314C0F7B2291E5B200AC8C7C3B925 DUP5 PUSH1 0x40 MLOAD PUSH2 0xA97 SWAP2 SWAP1 PUSH2 0xE60 JUMP JUMPDEST PUSH1 0x40 MLOAD DUP1 SWAP2 SUB SWAP1 LOG3 JUMPDEST POP POP POP POP JUMP JUMPDEST PUSH0 PUSH20 0xFFFFFFFFFFFFFFFFFFFFFFFFFFFFFFFFFFFFFFFF AND DUP4 PUSH20 0xFFFFFFFFFFFFFFFFFFFFFFFFFFFFFFFFFFFFFFFF AND SUB PUSH2 0xAF6 JUMPI DUP1 PUSH1 0x2 PUSH0 DUP3 DUP3 SLOAD PUSH2 0xAEA SWAP2 SWAP1 PUSH2 0x111D JUMP JUMPDEST SWAP3 POP POP DUP2 SWAP1 SSTORE POP PUSH2 0xBC4 JUMP JUMPDEST PUSH0 DUP1 PUSH0 DUP6 PUSH20 0xFFFFFFFFFFFFFFFFFFFFFFFFFFFFFFFFFFFFFFFF AND PUSH20 0xFFFFFFFFFFFFFFFFFFFFFFFFFFFFFFFFFFFFFFFF AND DUP2 MSTORE PUSH1 0x20 ADD SWAP1 DUP2 MSTORE PUSH1 0x20 ADD PUSH0 KECCAK256 SLOAD SWAP1 POP DUP2 DUP2 LT ISZERO PUSH2 0xB7F JUMPI DUP4 DUP2 DUP4 PUSH1 0x40 MLOAD PUSH32 0xE450D38C00000000000000000000000000000000000000000000000000000000 DUP2 MSTORE PUSH1 0x4 ADD PUSH2 0xB76 SWAP4 SWAP3 SWAP2 SWAP1 PUSH2 0x10BB JUMP JUMPDEST PUSH1 0x40 MLOAD DUP1 SWAP2 SUB SWAP1 REVERT JUMPDEST DUP2 DUP2 SUB PUSH0 DUP1 DUP7 PUSH20 0xFFFFFFFFFFFFFFFFFFFFFFFFFFFFFFFFFFFFFFFF AND PUSH20 0xFFFFFFFFFFFFFFFFFFFFFFFFFFFFFFFFFFFFFFFF AND DUP2 MSTORE PUSH1 0x20 ADD SWAP1 DUP2 MSTORE PUSH1 0x20 ADD PUSH0 KECCAK256 DUP2 SWAP1 SSTORE POP POP JUMPDEST PUSH0 PUSH20 0xFFFFFFFFFFFFFFFFFFFFFFFFFFFFFFFFFFFFFFFF AND DUP3 PUSH20 0xFFFFFFFFFFFFFFFFFFFFFFFFFFFFFFFFFFFFFFFF AND SUB PUSH2 0xC0B JUMPI DUP1 PUSH1 0x2 PUSH0 DUP3 DUP3 SLOAD SUB SWAP3 POP POP DUP2 SWAP1 SSTORE POP PUSH2 0xC55 JUMP JUMPDEST DUP1 PUSH0 DUP1 DUP5 PUSH20 0xFFFFFFFFFFFFFFFFFFFFFFFFFFFFFFFFFFFFFFFF AND PUSH20 0xFFFFFFFFFFFFFFFFFFFFFFFFFFFFFFFFFFFFFFFF AND DUP2 MSTORE PUSH1 0x20 ADD SWAP1 DUP2 MSTORE PUSH1 0x20 ADD PUSH0 KECCAK256 PUSH0 DUP3 DUP3 SLOAD ADD SWAP3 POP POP DUP2 SWAP1 SSTORE POP JUMPDEST DUP2 PUSH20 0xFFFFFFFFFFFFFFFFFFFFFFFFFFFFFFFFFFFFFFFF AND DUP4 PUSH20 0xFFFFFFFFFFFFFFFFFFFFFFFFFFFFFFFFFFFFFFFF AND PUSH32 0xDDF252AD1BE2C89B69C2B068FC378DAA952BA7F163C4A11628F55A4DF523B3EF DUP4 PUSH1 0x40 MLOAD PUSH2 0xCB2 SWAP2 SWAP1 PUSH2 0xE60 JUMP JUMPDEST PUSH1 0x40 MLOAD DUP1 SWAP2 SUB SWAP1 LOG3 POP POP POP JUMP JUMPDEST PUSH0 DUP2 MLOAD SWAP1 POP SWAP2 SWAP1 POP JUMP JUMPDEST PUSH0 DUP3 DUP3 MSTORE PUSH1 0x20 DUP3 ADD SWAP1 POP SWAP3 SWAP2 POP POP JUMP JUMPDEST DUP3 DUP2 DUP4 MCOPY PUSH0 DUP4 DUP4 ADD MSTORE POP POP POP JUMP JUMPDEST PUSH0 PUSH1 0x1F NOT PUSH1 0x1F DUP4 ADD AND SWAP1 POP SWAP2 SWAP1 POP JUMP JUMPDEST PUSH0 PUSH2 0xD01 DUP3 PUSH2 0xCBF JUMP JUMPDEST PUSH2 0xD0B DUP2 DUP6 PUSH2 0xCC9 JUMP JUMPDEST SWAP4 POP PUSH2 0xD1B DUP2 DUP6 PUSH1 0x20 DUP7 ADD PUSH2 0xCD9 JUMP JUMPDEST PUSH2 0xD24 DUP2 PUSH2 0xCE7 JUMP JUMPDEST DUP5 ADD SWAP2 POP POP SWAP3 SWAP2 POP POP JUMP JUMPDEST PUSH0 PUSH1 0x20 DUP3 ADD SWAP1 POP DUP2 DUP2 SUB PUSH0 DUP4 ADD MSTORE PUSH2 0xD47 DUP2 DUP5 PUSH2 0xCF7 JUMP JUMPDEST SWAP1 POP SWAP3 SWAP2 POP POP JUMP JUMPDEST PUSH0 DUP1 REVERT JUMPDEST PUSH0 PUSH20 0xFFFFFFFFFFFFFFFFFFFFFFFFFFFFFFFFFFFFFFFF DUP3 AND SWAP1 POP SWAP2 SWAP1 POP JUMP JUMPDEST PUSH0 PUSH2 0xD7C DUP3 PUSH2 0xD53 JUMP JUMPDEST SWAP1 POP SWAP2 SWAP1 POP JUMP JUMPDEST PUSH2 0xD8C DUP2 PUSH2 0xD72 JUMP JUMPDEST DUP2 EQ PUSH2 0xD96 JUMPI PUSH0 DUP1 REVERT JUMPDEST POP JUMP JUMPDEST PUSH0 DUP2 CALLDATALOAD SWAP1 POP PUSH2 0xDA7 DUP2 PUSH2 0xD83 JUMP JUMPDEST SWAP3 SWAP2 POP POP JUMP JUMPDEST PUSH0 DUP2 SWAP1 POP SWAP2 SWAP1 POP JUMP JUMPDEST PUSH2 0xDBF DUP2 PUSH2 0xDAD JUMP JUMPDEST DUP2 EQ PUSH2 0xDC9 JUMPI PUSH0 DUP1 REVERT JUMPDEST POP JUMP JUMPDEST PUSH0 DUP2 CALLDATALOAD SWAP1 POP PUSH2 0xDDA DUP2 PUSH2 0xDB6 JUMP JUMPDEST SWAP3 SWAP2 POP POP JUMP JUMPDEST PUSH0 DUP1 PUSH1 0x40 DUP4 DUP6 SUB SLT ISZERO PUSH2 0xDF6 JUMPI PUSH2 0xDF5 PUSH2 0xD4F JUMP JUMPDEST JUMPDEST PUSH0 PUSH2 0xE03 DUP6 DUP3 DUP7 ADD PUSH2 0xD99 JUMP JUMPDEST SWAP3 POP POP PUSH1 0x20 PUSH2 0xE14 DUP6 DUP3 DUP7 ADD PUSH2 0xDCC JUMP JUMPDEST SWAP2 POP POP SWAP3 POP SWAP3 SWAP1 POP JUMP JUMPDEST PUSH0 DUP2 ISZERO ISZERO SWAP1 POP SWAP2 SWAP1 POP JUMP JUMPDEST PUSH2 0xE32 DUP2 PUSH2 0xE1E JUMP JUMPDEST DUP3 MSTORE POP POP JUMP JUMPDEST PUSH0 PUSH1 0x20 DUP3 ADD SWAP1 POP PUSH2 0xE4B PUSH0 DUP4 ADD DUP5 PUSH2 0xE29 JUMP JUMPDEST SWAP3 SWAP2 POP POP JUMP JUMPDEST PUSH2 0xE5A DUP2 PUSH2 0xDAD JUMP JUMPDEST DUP3 MSTORE POP POP JUMP JUMPDEST PUSH0 PUSH1 0x20 DUP3 ADD SWAP1 POP PUSH2 0xE73 PUSH0 DUP4 ADD DUP5 PUSH2 0xE51 JUMP JUMPDEST SWAP3 SWAP2 POP POP JUMP JUMPDEST PUSH0 DUP1 PUSH0 PUSH1 0x60 DUP5 DUP7 SUB SLT ISZERO PUSH2 0xE90 JUMPI PUSH2 0xE8F PUSH2 0xD4F JUMP JUMPDEST JUMPDEST PUSH0 PUSH2 0xE9D DUP7 DUP3 DUP8 ADD PUSH2 0xD99 JUMP JUMPDEST SWAP4 POP POP PUSH1 0x20 PUSH2 0xEAE DUP7 DUP3 DUP8 ADD PUSH2 0xD99 JUMP JUMPDEST SWAP3 POP POP PUSH1 0x40 PUSH2 0xEBF DUP7 DUP3 DUP8 ADD PUSH2 0xDCC JUMP JUMPDEST SWAP2 POP POP SWAP3 POP SWAP3 POP SWAP3 JUMP JUMPDEST PUSH0 PUSH1 0xFF DUP3 AND SWAP1 POP SWAP2 SWAP1 POP JUMP JUMPDEST PUSH2 0xEDE DUP2 PUSH2 0xEC9 JUMP JUMPDEST DUP3 MSTORE POP POP JUMP JUMPDEST PUSH0 PUSH1 0x20 DUP3 ADD SWAP1 POP PUSH2 0xEF7 PUSH0 DUP4 ADD DUP5 PUSH2 0xED5 JUMP JUMPDEST SWAP3 SWAP2 POP POP JUMP JUMPDEST PUSH2 0xF06 DUP2 PUSH2 0xD72 JUMP JUMPDEST DUP3 MSTORE POP POP JUMP JUMPDEST PUSH0 PUSH1 0x20 DUP3 ADD SWAP1 POP PUSH2 0xF1F PUSH0 DUP4 ADD DUP5 PUSH2 0xEFD JUMP JUMPDEST SWAP3 SWAP2 POP POP JUMP JUMPDEST PUSH0 PUSH1 0x20 DUP3 DUP5 SUB SLT ISZERO PUSH2 0xF3A JUMPI PUSH2 0xF39 PUSH2 0xD4F JUMP JUMPDEST JUMPDEST PUSH0 PUSH2 0xF47 DUP5 DUP3 DUP6 ADD PUSH2 0xD99 JUMP JUMPDEST SWAP2 POP POP SWAP3 SWAP2 POP POP JUMP JUMPDEST PUSH0 DUP1 PUSH1 0x40 DUP4 DUP6 SUB SLT ISZERO PUSH2 0xF66 JUMPI PUSH2 0xF65 PUSH2 0xD4F JUMP JUMPDEST JUMPDEST PUSH0 PUSH2 0xF73 DUP6 DUP3 DUP7 ADD PUSH2 0xD99 JUMP JUMPDEST SWAP3 POP POP PUSH1 0x20 PUSH2 0xF84 DUP6 DUP3 DUP7 ADD PUSH2 0xD99 JUMP JUMPDEST SWAP2 POP POP SWAP3 POP SWAP3 SWAP1 POP JUMP JUMPDEST PUSH32 0x4E487B7100000000000000000000000000000000000000000000000000000000 PUSH0 MSTORE PUSH1 0x22 PUSH1 0x4 MSTORE PUSH1 0x24 PUSH0 REVERT JUMPDEST PUSH0 PUSH1 0x2 DUP3 DIV SWAP1 POP PUSH1 0x1 DUP3 AND DUP1 PUSH2 0xFD2 JUMPI PUSH1 0x7F DUP3 AND SWAP2 POP JUMPDEST PUSH1 0x20 DUP3 LT DUP2 SUB PUSH2 0xFE5 JUMPI PUSH2 0xFE4 PUSH2 0xF8E JUMP JUMPDEST JUMPDEST POP SWAP2 SWAP1 POP JUMP JUMPDEST PUSH32 0x4C50546F6B656E3A204F6E6C79204445582063616E206D696E74000000000000 PUSH0 DUP3 ADD MSTORE POP JUMP JUMPDEST PUSH0 PUSH2 0x101F PUSH1 0x1A DUP4 PUSH2 0xCC9 JUMP JUMPDEST SWAP2 POP PUSH2 0x102A DUP3 PUSH2 0xFEB JUMP JUMPDEST PUSH1 0x20 DUP3 ADD SWAP1 POP SWAP2 SWAP1 POP JUMP JUMPDEST PUSH0 PUSH1 0x20 DUP3 ADD SWAP1 POP DUP2 DUP2 SUB PUSH0 DUP4 ADD MSTORE PUSH2 0x104C DUP2 PUSH2 0x1013 JUMP JUMPDEST SWAP1 POP SWAP2 SWAP1 POP JUMP JUMPDEST PUSH32 0x4C50546F6B656E3A204F6E6C79204445582063616E206275726E000000000000 PUSH0 DUP3 ADD MSTORE POP JUMP JUMPDEST PUSH0 PUSH2 0x1087 PUSH1 0x1A DUP4 PUSH2 0xCC9 JUMP JUMPDEST SWAP2 POP PUSH2 0x1092 DUP3 PUSH2 0x1053 JUMP JUMPDEST PUSH1 0x20 DUP3 ADD SWAP1 POP SWAP2 SWAP1 POP JUMP JUMPDEST PUSH0 PUSH1 0x20 DUP3 ADD SWAP1 POP DUP2 DUP2 SUB PUSH0 DUP4 ADD MSTORE PUSH2 0x10B4 DUP2 PUSH2 0x107B JUMP JUMPDEST SWAP1 POP SWAP2 SWAP1 POP JUMP JUMPDEST PUSH0 PUSH1 0x60 DUP3 ADD SWAP1 POP PUSH2 0x10CE PUSH0 DUP4 ADD DUP7 PUSH2 0xEFD JUMP JUMPDEST PUSH2 0x10DB PUSH1 0x20 DUP4 ADD DUP6 PUSH2 0xE51 JUMP JUMPDEST PUSH2 0x10E8 PUSH1 0x40 DUP4 ADD DUP5 PUSH2 0xE51 JUMP JUMPDEST SWAP5 SWAP4 POP POP POP POP JUMP JUMPDEST PUSH32 0x4E487B7100000000000000000000000000000000000000000000000000000000 PUSH0 MSTORE PUSH1 0x11 PUSH1 0x4 MSTORE PUSH1 0x24 PUSH0 REVERT JUMPDEST PUSH0 PUSH2 0x1127 DUP3 PUSH2 0xDAD JUMP JUMPDEST SWAP2 POP PUSH2 0x1132 DUP4 PUSH2 0xDAD JUMP JUMPDEST SWAP3 POP DUP3 DUP3 ADD SWAP1 POP DUP1 DUP3 GT ISZERO PUSH2 0x114A JUMPI PUSH2 0x1149 PUSH2 0x10F0 JUMP JUMPDEST JUMPDEST SWAP3 SWAP2 POP POP JUMP INVALID LOG2 PUSH5 0x6970667358 0x22 SLT KECCAK256 PUSH15 0x4411A21CB1DF315A0815FCEEE83A45 SHL OR 0xD1 CHAINID 0xCB 0xB2 ADD SUB BLOBHASH GAS 0xF6 MSTORE DUP5 SAR PUSH3 0x9A6473 PUSH16 0x6C634300081A00330000000000000000 "
				},
				"gasEstimates": {
					"creation": {
						"codeDepositCost": "1466400",
						"executionCost": "infinite",
						"totalCost": "infinite"
					},
					"external": {
						"depositLiquidity(uint256,uint256)": "infinite",
						"getReserves()": "infinite",
						"getSpotPriceAinB()": "infinite",
						"getSpotPriceBinA()": "infinite",
						"lpToken()": "infinite",
						"reserveA()": "2535",
						"reserveB()": "2492",
						"swapTokenAForTokenB(uint256)": "infinite",
						"swapTokenBForTokenA(uint256)": "infinite",
						"tokenA()": "infinite",
						"tokenB()": "infinite",
						"withdrawLiquidity(uint256)": "infinite"
					},
					"internal": {
						"sqrt(uint256)": "infinite"
					}
				},
				"methodIdentifiers": {
					"depositLiquidity(uint256,uint256)": "34a860e4",
					"getReserves()": "0902f1ac",
					"getSpotPriceAinB()": "68a94844",
					"getSpotPriceBinA()": "723f916a",
					"lpToken()": "5fcbd285",
					"reserveA()": "dc5fa6c5",
					"reserveB()": "19e36f3b",
					"swapTokenAForTokenB(uint256)": "507b0e6b",
					"swapTokenBForTokenA(uint256)": "ad56238d",
					"tokenA()": "0fc63d10",
					"tokenB()": "5f64b55b",
					"withdrawLiquidity(uint256)": "0a861f2a"
				}
			},
			"storageLayout": {
				"storage": [
					{
						"astId": 792,
						"contract": "contracts/DEX.sol:DEX",
						"label": "tokenA",
						"offset": 0,
						"slot": "0",
						"type": "t_contract(IERC20)729"
					},
					{
						"astId": 795,
						"contract": "contracts/DEX.sol:DEX",
						"label": "tokenB",
						"offset": 0,
						"slot": "1",
						"type": "t_contract(IERC20)729"
					},
					{
						"astId": 798,
						"contract": "contracts/DEX.sol:DEX",
						"label": "lpToken",
						"offset": 0,
						"slot": "2",
						"type": "t_contract(LPToken)1413"
					},
					{
						"astId": 800,
						"contract": "contracts/DEX.sol:DEX",
						"label": "reserveA",
						"offset": 0,
						"slot": "3",
						"type": "t_uint256"
					},
					{
						"astId": 802,
						"contract": "contracts/DEX.sol:DEX",
						"label": "reserveB",
						"offset": 0,
						"slot": "4",
						"type": "t_uint256"
					}
				],
				"types": {
					"t_contract(IERC20)729": {
						"encoding": "inplace",
						"label": "contract IERC20",
						"numberOfBytes": "20"
					},
					"t_contract(LPToken)1413": {
						"encoding": "inplace",
						"label": "contract LPToken",
						"numberOfBytes": "20"
					},
					"t_uint256": {
						"encoding": "inplace",
						"label": "uint256",
						"numberOfBytes": "32"
					}
				}
			},
			"userdoc": {
				"kind": "user",
				"methods": {
					"constructor": {
						"notice": "Initialize the DEX with the addresses of TokenA and TokenB."
					},
					"depositLiquidity(uint256,uint256)": {
						"notice": "Deposit liquidity into the pool."
					},
					"getReserves()": {
						"notice": "Returns the current reserves of TokenA and TokenB in the pool."
					},
					"getSpotPriceAinB()": {
						"notice": "Returns the spot price of TokenA in terms of TokenB."
					},
					"getSpotPriceBinA()": {
						"notice": "Returns the spot price of TokenB in terms of TokenA."
					},
					"swapTokenAForTokenB(uint256)": {
						"notice": "Swap an exact amount of TokenA for as many TokenB as possible."
					},
					"swapTokenBForTokenA(uint256)": {
						"notice": "Swap an exact amount of TokenB for as many TokenA as possible."
					},
					"withdrawLiquidity(uint256)": {
						"notice": "Withdraw liquidity from the pool."
					}
				},
				"version": 1
			}
		}
	}
}