{
	"contracts/Arbitrage.sol": {
		"Arbitrage": {
			"abi": [
				{
					"inputs": [
						{
							"internalType": "address",
							"name": "_dex1",
							"type": "address"
						},
						{
							"internalType": "address",
							"name": "_dex2",
							"type": "address"
						},
						{
							"internalType": "address",
							"name": "_tokenA",
							"type": "address"
						},
						{
							"internalType": "address",
							"name": "_tokenB",
							"type": "address"
						}
					],
					"stateMutability": "nonpayable",
					"type": "constructor"
				},
				{
					"anonymous": false,
					"inputs": [
						{
							"indexed": true,
							"internalType": "address",
							"name": "trader",
							"type": "address"
						},
						{
							"indexed": false,
							"internalType": "uint256",
							"name": "capital",
							"type": "uint256"
						},
						{
							"indexed": false,
							"internalType": "uint256",
							"name": "profit",
							"type": "uint256"
						}
					],
					"name": "ArbitrageExecutedAtoBtoA",
					"type": "event"
				},
				{
					"anonymous": false,
					"inputs": [
						{
							"indexed": true,
							"internalType": "address",
							"name": "trader",
							"type": "address"
						},
						{
							"indexed": false,
							"internalType": "uint256",
							"name": "capital",
							"type": "uint256"
						},
						{
							"indexed": false,
							"internalType": "uint256",
							"name": "profit",
							"type": "uint256"
						}
					],
					"name": "ArbitrageExecutedBtoAtoB",
					"type": "event"
				},
				{
					"inputs": [
						{
							"internalType": "uint256",
							"name": "amountAIn",
							"type": "uint256"
						},
						{
							"internalType": "uint256",
							"name": "minProfit",
							"type": "uint256"
						}
					],
					"name": "arbitrageAtoBtoA",
					"outputs": [
						{
							"internalType": "uint256",
							"name": "finalA",
							"type": "uint256"
						},
						{
							"internalType": "uint256",
							"name": "profit",
							"type": "uint256"
						}
					],
					"stateMutability": "nonpayable",
					"type": "function"
				},
				{
					"inputs": [
						{
							"internalType": "uint256",
							"name": "amountBIn",
							"type": "uint256"
						},
						{
							"internalType": "uint256",
							"name": "minProfit",
							"type": "uint256"
						}
					],
					"name": "arbitrageBtoAtoB",
					"outputs": [
						{
							"internalType": "uint256",
							"name": "finalB",
							"type": "uint256"
						},
						{
							"internalType": "uint256",
							"name": "profit",
							"type": "uint256"
						}
					],
					"stateMutability": "nonpayable",
					"type": "function"
				},
				{
					"inputs": [],
					"name": "dex1",
					"outputs": [
						{
							"internalType": "address",
							"name": "",
							"type": "address"
						}
					],
					"stateMutability": "view",
					"type": "function"
				},
				{
					"inputs": [],
					"name": "dex2",
					"outputs": [
						{
							"internalType": "address",
							"name": "",
							"type": "address"
						}
					],
					"stateMutability": "view",
					"type": "function"
				},
				{
					"inputs": [
						{
							"internalType": "uint256",
							"name": "amountIn",
							"type": "uint256"
						},
						{
							"internalType": "uint256",
							"name": "reserveIn",
							"type": "uint256"
						},
						{
							"internalType": "uint256",
							"name": "reserveOut",
							"type": "uint256"
						}
					],
					"name": "getAmountOut",
					"outputs": [
						{
							"internalType": "uint256",
							"name": "amountOut",
							"type": "uint256"
						}
					],
					"stateMutability": "pure",
					"type": "function"
				},
				{
					"inputs": [],
					"name": "tokenA",
					"outputs": [
						{
							"internalType": "contract IERC20",
							"name": "",
							"type": "address"
						}
					],
					"stateMutability": "view",
					"type": "function"
				},
				{
					"inputs": [],
					"name": "tokenB",
					"outputs": [
						{
							"internalType": "contract IERC20",
							"name": "",
							"type": "address"
						}
					],
					"stateMutability": "view",
					"type": "function"
				}
			],
			"devdoc": {
				"kind": "dev",
				"methods": {
					"arbitrageAtoBtoA(uint256,uint256)": {
						"params": {
							"amountAIn": "The amount of TokenA that the arbitrageur is willing to trade.",
							"minProfit": "The minimum profit (in TokenA) required to execute the arbitrage."
						},
						"returns": {
							"finalA": "The total amount of TokenA returned (capital + profit).",
							"profit": "The profit (in TokenA) earned from the arbitrage."
						}
					},
					"arbitrageBtoAtoB(uint256,uint256)": {
						"params": {
							"amountBIn": "The amount of TokenB that the arbitrageur is willing to trade.",
							"minProfit": "The minimum profit (in TokenB) required to execute the arbitrage."
						},
						"returns": {
							"finalB": "The total amount of TokenB returned (capital + profit).",
							"profit": "The profit (in TokenB) earned from the arbitrage."
						}
					},
					"constructor": {
						"params": {
							"_dex1": "Address of the first DEX.",
							"_dex2": "Address of the second DEX.",
							"_tokenA": "Address of TokenA.",
							"_tokenB": "Address of TokenB."
						}
					},
					"getAmountOut(uint256,uint256,uint256)": {
						"params": {
							"amountIn": "The amount being swapped.",
							"reserveIn": "The reserve amount for the input token.",
							"reserveOut": "The reserve amount for the output token."
						},
						"returns": {
							"amountOut": "The simulated amount received after the swap."
						}
					}
				},
				"title": "Arbitrage Contract",
				"version": 1
			},
			"evm": {
				"assembly": "    /* \"contracts/Arbitrage.sol\":1855:9659  contract Arbitrage {... */\n  mstore(0x40, 0x80)\n    /* \"contracts/Arbitrage.sol\":2654:3298  constructor(... */\n  callvalue\n  dup1\n  iszero\n  tag_1\n  jumpi\n  0x00\n  dup1\n  revert\ntag_1:\n  pop\n  mload(0x40)\n  sub(codesize, bytecodeSize)\n  dup1\n  bytecodeSize\n  dup4\n  codecopy\n  dup2\n  dup2\n  add\n  0x40\n  mstore\n  dup2\n  add\n  swap1\n  tag_2\n  swap2\n  swap1\n  tag_3\n  jump\t// in\ntag_2:\n    /* \"contracts/Arbitrage.sol\":2803:2804  0 */\n  0x00\n    /* \"contracts/Arbitrage.sol\":2786:2805  _dex1 != address(0) */\n  0xffffffffffffffffffffffffffffffffffffffff\n  and\n    /* \"contracts/Arbitrage.sol\":2786:2791  _dex1 */\n  dup5\n    /* \"contracts/Arbitrage.sol\":2786:2805  _dex1 != address(0) */\n  0xffffffffffffffffffffffffffffffffffffffff\n  and\n  eq\n  iszero\n    /* \"contracts/Arbitrage.sol\":2786:2828  _dex1 != address(0) && _dex2 != address(0) */\n  dup1\n  iszero\n  tag_6\n  jumpi\n  pop\n    /* \"contracts/Arbitrage.sol\":2826:2827  0 */\n  0x00\n    /* \"contracts/Arbitrage.sol\":2809:2828  _dex2 != address(0) */\n  0xffffffffffffffffffffffffffffffffffffffff\n  and\n    /* \"contracts/Arbitrage.sol\":2809:2814  _dex2 */\n  dup4\n    /* \"contracts/Arbitrage.sol\":2809:2828  _dex2 != address(0) */\n  0xffffffffffffffffffffffffffffffffffffffff\n  and\n  eq\n  iszero\n    /* \"contracts/Arbitrage.sol\":2786:2828  _dex1 != address(0) && _dex2 != address(0) */\ntag_6:\n    /* \"contracts/Arbitrage.sol\":2786:2853  _dex1 != address(0) && _dex2 != address(0) && _tokenA != address(0) */\n  dup1\n  iszero\n  tag_7\n  jumpi\n  pop\n    /* \"contracts/Arbitrage.sol\":2851:2852  0 */\n  0x00\n    /* \"contracts/Arbitrage.sol\":2832:2853  _tokenA != address(0) */\n  0xffffffffffffffffffffffffffffffffffffffff\n  and\n    /* \"contracts/Arbitrage.sol\":2832:2839  _tokenA */\n  dup3\n    /* \"contracts/Arbitrage.sol\":2832:2853  _tokenA != address(0) */\n  0xffffffffffffffffffffffffffffffffffffffff\n  and\n  eq\n  iszero\n    /* \"contracts/Arbitrage.sol\":2786:2853  _dex1 != address(0) && _dex2 != address(0) && _tokenA != address(0) */\ntag_7:\n    /* \"contracts/Arbitrage.sol\":2786:2878  _dex1 != address(0) && _dex2 != address(0) && _tokenA != address(0) && _tokenB != address(0) */\n  dup1\n  iszero\n  tag_8\n  jumpi\n  pop\n    /* \"contracts/Arbitrage.sol\":2876:2877  0 */\n  0x00\n    /* \"contracts/Arbitrage.sol\":2857:2878  _tokenB != address(0) */\n  0xffffffffffffffffffffffffffffffffffffffff\n  and\n    /* \"contracts/Arbitrage.sol\":2857:2864  _tokenB */\n  dup2\n    /* \"contracts/Arbitrage.sol\":2857:2878  _tokenB != address(0) */\n  0xffffffffffffffffffffffffffffffffffffffff\n  and\n  eq\n  iszero\n    /* \"contracts/Arbitrage.sol\":2786:2878  _dex1 != address(0) && _dex2 != address(0) && _tokenA != address(0) && _tokenB != address(0) */\ntag_8:\n    /* \"contracts/Arbitrage.sol\":2778:2900  require(_dex1 != address(0) && _dex2 != address(0) && _tokenA != address(0) && _tokenB != address(0), \"Invalid addresses\") */\n  tag_9\n  jumpi\n  mload(0x40)\n  0x08c379a000000000000000000000000000000000000000000000000000000000\n  dup2\n  mstore\n  0x04\n  add\n  tag_10\n  swap1\n  tag_11\n  jump\t// in\ntag_10:\n  mload(0x40)\n  dup1\n  swap2\n  sub\n  swap1\n  revert\ntag_9:\n    /* \"contracts/Arbitrage.sol\":2917:2922  _dex1 */\n  dup4\n    /* \"contracts/Arbitrage.sol\":2910:2914  dex1 */\n  0x00\n  dup1\n    /* \"contracts/Arbitrage.sol\":2910:2922  dex1 = _dex1 */\n  0x0100\n  exp\n  dup2\n  sload\n  dup2\n  0xffffffffffffffffffffffffffffffffffffffff\n  mul\n  not\n  and\n  swap1\n  dup4\n  0xffffffffffffffffffffffffffffffffffffffff\n  and\n  mul\n  or\n  swap1\n  sstore\n  pop\n    /* \"contracts/Arbitrage.sol\":2939:2944  _dex2 */\n  dup3\n    /* \"contracts/Arbitrage.sol\":2932:2936  dex2 */\n  0x01\n  0x00\n    /* \"contracts/Arbitrage.sol\":2932:2944  dex2 = _dex2 */\n  0x0100\n  exp\n  dup2\n  sload\n  dup2\n  0xffffffffffffffffffffffffffffffffffffffff\n  mul\n  not\n  and\n  swap1\n  dup4\n  0xffffffffffffffffffffffffffffffffffffffff\n  and\n  mul\n  or\n  swap1\n  sstore\n  pop\n    /* \"contracts/Arbitrage.sol\":2970:2977  _tokenA */\n  dup2\n    /* \"contracts/Arbitrage.sol\":2954:2960  tokenA */\n  0x02\n  0x00\n    /* \"contracts/Arbitrage.sol\":2954:2978  tokenA = IERC20(_tokenA) */\n  0x0100\n  exp\n  dup2\n  sload\n  dup2\n  0xffffffffffffffffffffffffffffffffffffffff\n  mul\n  not\n  and\n  swap1\n  dup4\n  0xffffffffffffffffffffffffffffffffffffffff\n  and\n  mul\n  or\n  swap1\n  sstore\n  pop\n    /* \"contracts/Arbitrage.sol\":3004:3011  _tokenB */\n  dup1\n    /* \"contracts/Arbitrage.sol\":2988:2994  tokenB */\n  0x03\n  0x00\n    /* \"contracts/Arbitrage.sol\":2988:3012  tokenB = IERC20(_tokenB) */\n  0x0100\n  exp\n  dup2\n  sload\n  dup2\n  0xffffffffffffffffffffffffffffffffffffffff\n  mul\n  not\n  and\n  swap1\n  dup4\n  0xffffffffffffffffffffffffffffffffffffffff\n  and\n  mul\n  or\n  swap1\n  sstore\n  pop\n    /* \"contracts/Arbitrage.sol\":3105:3111  tokenA */\n  0x02\n  0x00\n  swap1\n  sload\n  swap1\n  0x0100\n  exp\n  swap1\n  div\n  0xffffffffffffffffffffffffffffffffffffffff\n  and\n    /* \"contracts/Arbitrage.sol\":3105:3119  tokenA.approve */\n  0xffffffffffffffffffffffffffffffffffffffff\n  and\n  0x095ea7b3\n    /* \"contracts/Arbitrage.sol\":3120:3124  dex1 */\n  0x00\n  dup1\n  sload\n  swap1\n  0x0100\n  exp\n  swap1\n  div\n  0xffffffffffffffffffffffffffffffffffffffff\n  and\n    /* \"contracts/Arbitrage.sol\":3126:3143  type(uint256).max */\n  0xffffffffffffffffffffffffffffffffffffffffffffffffffffffffffffffff\n    /* \"contracts/Arbitrage.sol\":3105:3144  tokenA.approve(dex1, type(uint256).max) */\n  mload(0x40)\n  dup4\n  0xffffffff\n  and\n  0xe0\n  shl\n  dup2\n  mstore\n  0x04\n  add\n  tag_12\n  swap3\n  swap2\n  swap1\n  tag_13\n  jump\t// in\ntag_12:\n  0x20\n  mload(0x40)\n  dup1\n  dup4\n  sub\n  dup2\n  0x00\n  dup8\n  gas\n  call\n  iszero\n  dup1\n  iszero\n  tag_15\n  jumpi\n  returndatasize\n  0x00\n  dup1\n  returndatacopy\n  revert(0x00, returndatasize)\ntag_15:\n  pop\n  pop\n  pop\n  pop\n  mload(0x40)\n  returndatasize\n  not(0x1f)\n  0x1f\n  dup3\n  add\n  and\n  dup3\n  add\n  dup1\n  0x40\n  mstore\n  pop\n  dup2\n  add\n  swap1\n  tag_16\n  swap2\n  swap1\n  tag_17\n  jump\t// in\ntag_16:\n  pop\n    /* \"contracts/Arbitrage.sol\":3154:3160  tokenB */\n  0x03\n  0x00\n  swap1\n  sload\n  swap1\n  0x0100\n  exp\n  swap1\n  div\n  0xffffffffffffffffffffffffffffffffffffffff\n  and\n    /* \"contracts/Arbitrage.sol\":3154:3168  tokenB.approve */\n  0xffffffffffffffffffffffffffffffffffffffff\n  and\n  0x095ea7b3\n    /* \"contracts/Arbitrage.sol\":3169:3173  dex1 */\n  0x00\n  dup1\n  sload\n  swap1\n  0x0100\n  exp\n  swap1\n  div\n  0xffffffffffffffffffffffffffffffffffffffff\n  and\n    /* \"contracts/Arbitrage.sol\":3175:3192  type(uint256).max */\n  0xffffffffffffffffffffffffffffffffffffffffffffffffffffffffffffffff\n    /* \"contracts/Arbitrage.sol\":3154:3193  tokenB.approve(dex1, type(uint256).max) */\n  mload(0x40)\n  dup4\n  0xffffffff\n  and\n  0xe0\n  shl\n  dup2\n  mstore\n  0x04\n  add\n  tag_18\n  swap3\n  swap2\n  swap1\n  tag_13\n  jump\t// in\ntag_18:\n  0x20\n  mload(0x40)\n  dup1\n  dup4\n  sub\n  dup2\n  0x00\n  dup8\n  gas\n  call\n  iszero\n  dup1\n  iszero\n  tag_20\n  jumpi\n  returndatasize\n  0x00\n  dup1\n  returndatacopy\n  revert(0x00, returndatasize)\ntag_20:\n  pop\n  pop\n  pop\n  pop\n  mload(0x40)\n  returndatasize\n  not(0x1f)\n  0x1f\n  dup3\n  add\n  and\n  dup3\n  add\n  dup1\n  0x40\n  mstore\n  pop\n  dup2\n  add\n  swap1\n  tag_21\n  swap2\n  swap1\n  tag_17\n  jump\t// in\ntag_21:\n  pop\n    /* \"contracts/Arbitrage.sol\":3203:3209  tokenA */\n  0x02\n  0x00\n  swap1\n  sload\n  swap1\n  0x0100\n  exp\n  swap1\n  div\n  0xffffffffffffffffffffffffffffffffffffffff\n  and\n    /* \"contracts/Arbitrage.sol\":3203:3217  tokenA.approve */\n  0xffffffffffffffffffffffffffffffffffffffff\n  and\n  0x095ea7b3\n    /* \"contracts/Arbitrage.sol\":3218:3222  dex2 */\n  0x01\n  0x00\n  swap1\n  sload\n  swap1\n  0x0100\n  exp\n  swap1\n  div\n  0xffffffffffffffffffffffffffffffffffffffff\n  and\n    /* \"contracts/Arbitrage.sol\":3224:3241  type(uint256).max */\n  0xffffffffffffffffffffffffffffffffffffffffffffffffffffffffffffffff\n    /* \"contracts/Arbitrage.sol\":3203:3242  tokenA.approve(dex2, type(uint256).max) */\n  mload(0x40)\n  dup4\n  0xffffffff\n  and\n  0xe0\n  shl\n  dup2\n  mstore\n  0x04\n  add\n  tag_22\n  swap3\n  swap2\n  swap1\n  tag_13\n  jump\t// in\ntag_22:\n  0x20\n  mload(0x40)\n  dup1\n  dup4\n  sub\n  dup2\n  0x00\n  dup8\n  gas\n  call\n  iszero\n  dup1\n  iszero\n  tag_24\n  jumpi\n  returndatasize\n  0x00\n  dup1\n  returndatacopy\n  revert(0x00, returndatasize)\ntag_24:\n  pop\n  pop\n  pop\n  pop\n  mload(0x40)\n  returndatasize\n  not(0x1f)\n  0x1f\n  dup3\n  add\n  and\n  dup3\n  add\n  dup1\n  0x40\n  mstore\n  pop\n  dup2\n  add\n  swap1\n  tag_25\n  swap2\n  swap1\n  tag_17\n  jump\t// in\ntag_25:\n  pop\n    /* \"contracts/Arbitrage.sol\":3252:3258  tokenB */\n  0x03\n  0x00\n  swap1\n  sload\n  swap1\n  0x0100\n  exp\n  swap1\n  div\n  0xffffffffffffffffffffffffffffffffffffffff\n  and\n    /* \"contracts/Arbitrage.sol\":3252:3266  tokenB.approve */\n  0xffffffffffffffffffffffffffffffffffffffff\n  and\n  0x095ea7b3\n    /* \"contracts/Arbitrage.sol\":3267:3271  dex2 */\n  0x01\n  0x00\n  swap1\n  sload\n  swap1\n  0x0100\n  exp\n  swap1\n  div\n  0xffffffffffffffffffffffffffffffffffffffff\n  and\n    /* \"contracts/Arbitrage.sol\":3273:3290  type(uint256).max */\n  0xffffffffffffffffffffffffffffffffffffffffffffffffffffffffffffffff\n    /* \"contracts/Arbitrage.sol\":3252:3291  tokenB.approve(dex2, type(uint256).max) */\n  mload(0x40)\n  dup4\n  0xffffffff\n  and\n  0xe0\n  shl\n  dup2\n  mstore\n  0x04\n  add\n  tag_26\n  swap3\n  swap2\n  swap1\n  tag_13\n  jump\t// in\ntag_26:\n  0x20\n  mload(0x40)\n  dup1\n  dup4\n  sub\n  dup2\n  0x00\n  dup8\n  gas\n  call\n  iszero\n  dup1\n  iszero\n  tag_28\n  jumpi\n  returndatasize\n  0x00\n  dup1\n  returndatacopy\n  revert(0x00, returndatasize)\ntag_28:\n  pop\n  pop\n  pop\n  pop\n  mload(0x40)\n  returndatasize\n  not(0x1f)\n  0x1f\n  dup3\n  add\n  and\n  dup3\n  add\n  dup1\n  0x40\n  mstore\n  pop\n  dup2\n  add\n  swap1\n  tag_29\n  swap2\n  swap1\n  tag_17\n  jump\t// in\ntag_29:\n  pop\n    /* \"contracts/Arbitrage.sol\":2654:3298  constructor(... */\n  pop\n  pop\n  pop\n  pop\n    /* \"contracts/Arbitrage.sol\":1855:9659  contract Arbitrage {... */\n  jump(tag_30)\n    /* \"#utility.yul\":88:205   */\ntag_32:\n    /* \"#utility.yul\":197:198   */\n  0x00\n    /* \"#utility.yul\":194:195   */\n  dup1\n    /* \"#utility.yul\":187:199   */\n  revert\n    /* \"#utility.yul\":334:460   */\ntag_34:\n    /* \"#utility.yul\":371:378   */\n  0x00\n    /* \"#utility.yul\":411:453   */\n  0xffffffffffffffffffffffffffffffffffffffff\n    /* \"#utility.yul\":404:409   */\n  dup3\n    /* \"#utility.yul\":400:454   */\n  and\n    /* \"#utility.yul\":389:454   */\n  swap1\n  pop\n    /* \"#utility.yul\":334:460   */\n  swap2\n  swap1\n  pop\n  jump\t// out\n    /* \"#utility.yul\":466:562   */\ntag_35:\n    /* \"#utility.yul\":503:510   */\n  0x00\n    /* \"#utility.yul\":532:556   */\n  tag_53\n    /* \"#utility.yul\":550:555   */\n  dup3\n    /* \"#utility.yul\":532:556   */\n  tag_34\n  jump\t// in\ntag_53:\n    /* \"#utility.yul\":521:556   */\n  swap1\n  pop\n    /* \"#utility.yul\":466:562   */\n  swap2\n  swap1\n  pop\n  jump\t// out\n    /* \"#utility.yul\":568:690   */\ntag_36:\n    /* \"#utility.yul\":641:665   */\n  tag_55\n    /* \"#utility.yul\":659:664   */\n  dup2\n    /* \"#utility.yul\":641:665   */\n  tag_35\n  jump\t// in\ntag_55:\n    /* \"#utility.yul\":634:639   */\n  dup2\n    /* \"#utility.yul\":631:666   */\n  eq\n    /* \"#utility.yul\":621:684   */\n  tag_56\n  jumpi\n    /* \"#utility.yul\":680:681   */\n  0x00\n    /* \"#utility.yul\":677:678   */\n  dup1\n    /* \"#utility.yul\":670:682   */\n  revert\n    /* \"#utility.yul\":621:684   */\ntag_56:\n    /* \"#utility.yul\":568:690   */\n  pop\n  jump\t// out\n    /* \"#utility.yul\":696:839   */\ntag_37:\n    /* \"#utility.yul\":753:758   */\n  0x00\n    /* \"#utility.yul\":784:790   */\n  dup2\n    /* \"#utility.yul\":778:791   */\n  mload\n    /* \"#utility.yul\":769:791   */\n  swap1\n  pop\n    /* \"#utility.yul\":800:833   */\n  tag_58\n    /* \"#utility.yul\":827:832   */\n  dup2\n    /* \"#utility.yul\":800:833   */\n  tag_36\n  jump\t// in\ntag_58:\n    /* \"#utility.yul\":696:839   */\n  swap3\n  swap2\n  pop\n  pop\n  jump\t// out\n    /* \"#utility.yul\":845:1665   */\ntag_3:\n    /* \"#utility.yul\":942:948   */\n  0x00\n    /* \"#utility.yul\":950:956   */\n  dup1\n    /* \"#utility.yul\":958:964   */\n  0x00\n    /* \"#utility.yul\":966:972   */\n  dup1\n    /* \"#utility.yul\":1015:1018   */\n  0x80\n    /* \"#utility.yul\":1003:1012   */\n  dup6\n    /* \"#utility.yul\":994:1001   */\n  dup8\n    /* \"#utility.yul\":990:1013   */\n  sub\n    /* \"#utility.yul\":986:1019   */\n  slt\n    /* \"#utility.yul\":983:1103   */\n  iszero\n  tag_60\n  jumpi\n    /* \"#utility.yul\":1022:1101   */\n  tag_61\n  tag_32\n  jump\t// in\ntag_61:\n    /* \"#utility.yul\":983:1103   */\ntag_60:\n    /* \"#utility.yul\":1142:1143   */\n  0x00\n    /* \"#utility.yul\":1167:1231   */\n  tag_62\n    /* \"#utility.yul\":1223:1230   */\n  dup8\n    /* \"#utility.yul\":1214:1220   */\n  dup3\n    /* \"#utility.yul\":1203:1212   */\n  dup9\n    /* \"#utility.yul\":1199:1221   */\n  add\n    /* \"#utility.yul\":1167:1231   */\n  tag_37\n  jump\t// in\ntag_62:\n    /* \"#utility.yul\":1157:1231   */\n  swap5\n  pop\n    /* \"#utility.yul\":1113:1241   */\n  pop\n    /* \"#utility.yul\":1280:1282   */\n  0x20\n    /* \"#utility.yul\":1306:1370   */\n  tag_63\n    /* \"#utility.yul\":1362:1369   */\n  dup8\n    /* \"#utility.yul\":1353:1359   */\n  dup3\n    /* \"#utility.yul\":1342:1351   */\n  dup9\n    /* \"#utility.yul\":1338:1360   */\n  add\n    /* \"#utility.yul\":1306:1370   */\n  tag_37\n  jump\t// in\ntag_63:\n    /* \"#utility.yul\":1296:1370   */\n  swap4\n  pop\n    /* \"#utility.yul\":1251:1380   */\n  pop\n    /* \"#utility.yul\":1419:1421   */\n  0x40\n    /* \"#utility.yul\":1445:1509   */\n  tag_64\n    /* \"#utility.yul\":1501:1508   */\n  dup8\n    /* \"#utility.yul\":1492:1498   */\n  dup3\n    /* \"#utility.yul\":1481:1490   */\n  dup9\n    /* \"#utility.yul\":1477:1499   */\n  add\n    /* \"#utility.yul\":1445:1509   */\n  tag_37\n  jump\t// in\ntag_64:\n    /* \"#utility.yul\":1435:1509   */\n  swap3\n  pop\n    /* \"#utility.yul\":1390:1519   */\n  pop\n    /* \"#utility.yul\":1558:1560   */\n  0x60\n    /* \"#utility.yul\":1584:1648   */\n  tag_65\n    /* \"#utility.yul\":1640:1647   */\n  dup8\n    /* \"#utility.yul\":1631:1637   */\n  dup3\n    /* \"#utility.yul\":1620:1629   */\n  dup9\n    /* \"#utility.yul\":1616:1638   */\n  add\n    /* \"#utility.yul\":1584:1648   */\n  tag_37\n  jump\t// in\ntag_65:\n    /* \"#utility.yul\":1574:1648   */\n  swap2\n  pop\n    /* \"#utility.yul\":1529:1658   */\n  pop\n    /* \"#utility.yul\":845:1665   */\n  swap3\n  swap6\n  swap2\n  swap5\n  pop\n  swap3\n  pop\n  jump\t// out\n    /* \"#utility.yul\":1671:1840   */\ntag_38:\n    /* \"#utility.yul\":1755:1766   */\n  0x00\n    /* \"#utility.yul\":1789:1795   */\n  dup3\n    /* \"#utility.yul\":1784:1787   */\n  dup3\n    /* \"#utility.yul\":1777:1796   */\n  mstore\n    /* \"#utility.yul\":1829:1833   */\n  0x20\n    /* \"#utility.yul\":1824:1827   */\n  dup3\n    /* \"#utility.yul\":1820:1834   */\n  add\n    /* \"#utility.yul\":1805:1834   */\n  swap1\n  pop\n    /* \"#utility.yul\":1671:1840   */\n  swap3\n  swap2\n  pop\n  pop\n  jump\t// out\n    /* \"#utility.yul\":1846:2013   */\ntag_39:\n    /* \"#utility.yul\":1986:2005   */\n  0x496e76616c696420616464726573736573000000000000000000000000000000\n    /* \"#utility.yul\":1982:1983   */\n  0x00\n    /* \"#utility.yul\":1974:1980   */\n  dup3\n    /* \"#utility.yul\":1970:1984   */\n  add\n    /* \"#utility.yul\":1963:2006   */\n  mstore\n    /* \"#utility.yul\":1846:2013   */\n  pop\n  jump\t// out\n    /* \"#utility.yul\":2019:2385   */\ntag_40:\n    /* \"#utility.yul\":2161:2164   */\n  0x00\n    /* \"#utility.yul\":2182:2249   */\n  tag_69\n    /* \"#utility.yul\":2246:2248   */\n  0x11\n    /* \"#utility.yul\":2241:2244   */\n  dup4\n    /* \"#utility.yul\":2182:2249   */\n  tag_38\n  jump\t// in\ntag_69:\n    /* \"#utility.yul\":2175:2249   */\n  swap2\n  pop\n    /* \"#utility.yul\":2258:2351   */\n  tag_70\n    /* \"#utility.yul\":2347:2350   */\n  dup3\n    /* \"#utility.yul\":2258:2351   */\n  tag_39\n  jump\t// in\ntag_70:\n    /* \"#utility.yul\":2376:2378   */\n  0x20\n    /* \"#utility.yul\":2371:2374   */\n  dup3\n    /* \"#utility.yul\":2367:2379   */\n  add\n    /* \"#utility.yul\":2360:2379   */\n  swap1\n  pop\n    /* \"#utility.yul\":2019:2385   */\n  swap2\n  swap1\n  pop\n  jump\t// out\n    /* \"#utility.yul\":2391:2810   */\ntag_11:\n    /* \"#utility.yul\":2557:2561   */\n  0x00\n    /* \"#utility.yul\":2595:2597   */\n  0x20\n    /* \"#utility.yul\":2584:2593   */\n  dup3\n    /* \"#utility.yul\":2580:2598   */\n  add\n    /* \"#utility.yul\":2572:2598   */\n  swap1\n  pop\n    /* \"#utility.yul\":2644:2653   */\n  dup2\n    /* \"#utility.yul\":2638:2642   */\n  dup2\n    /* \"#utility.yul\":2634:2654   */\n  sub\n    /* \"#utility.yul\":2630:2631   */\n  0x00\n    /* \"#utility.yul\":2619:2628   */\n  dup4\n    /* \"#utility.yul\":2615:2632   */\n  add\n    /* \"#utility.yul\":2608:2655   */\n  mstore\n    /* \"#utility.yul\":2672:2803   */\n  tag_72\n    /* \"#utility.yul\":2798:2802   */\n  dup2\n    /* \"#utility.yul\":2672:2803   */\n  tag_40\n  jump\t// in\ntag_72:\n    /* \"#utility.yul\":2664:2803   */\n  swap1\n  pop\n    /* \"#utility.yul\":2391:2810   */\n  swap2\n  swap1\n  pop\n  jump\t// out\n    /* \"#utility.yul\":2816:2934   */\ntag_41:\n    /* \"#utility.yul\":2903:2927   */\n  tag_74\n    /* \"#utility.yul\":2921:2926   */\n  dup2\n    /* \"#utility.yul\":2903:2927   */\n  tag_35\n  jump\t// in\ntag_74:\n    /* \"#utility.yul\":2898:2901   */\n  dup3\n    /* \"#utility.yul\":2891:2928   */\n  mstore\n    /* \"#utility.yul\":2816:2934   */\n  pop\n  pop\n  jump\t// out\n    /* \"#utility.yul\":2940:3017   */\ntag_42:\n    /* \"#utility.yul\":2977:2984   */\n  0x00\n    /* \"#utility.yul\":3006:3011   */\n  dup2\n    /* \"#utility.yul\":2995:3011   */\n  swap1\n  pop\n    /* \"#utility.yul\":2940:3017   */\n  swap2\n  swap1\n  pop\n  jump\t// out\n    /* \"#utility.yul\":3023:3141   */\ntag_43:\n    /* \"#utility.yul\":3110:3134   */\n  tag_77\n    /* \"#utility.yul\":3128:3133   */\n  dup2\n    /* \"#utility.yul\":3110:3134   */\n  tag_42\n  jump\t// in\ntag_77:\n    /* \"#utility.yul\":3105:3108   */\n  dup3\n    /* \"#utility.yul\":3098:3135   */\n  mstore\n    /* \"#utility.yul\":3023:3141   */\n  pop\n  pop\n  jump\t// out\n    /* \"#utility.yul\":3147:3479   */\ntag_13:\n    /* \"#utility.yul\":3268:3272   */\n  0x00\n    /* \"#utility.yul\":3306:3308   */\n  0x40\n    /* \"#utility.yul\":3295:3304   */\n  dup3\n    /* \"#utility.yul\":3291:3309   */\n  add\n    /* \"#utility.yul\":3283:3309   */\n  swap1\n  pop\n    /* \"#utility.yul\":3319:3390   */\n  tag_79\n    /* \"#utility.yul\":3387:3388   */\n  0x00\n    /* \"#utility.yul\":3376:3385   */\n  dup4\n    /* \"#utility.yul\":3372:3389   */\n  add\n    /* \"#utility.yul\":3363:3369   */\n  dup6\n    /* \"#utility.yul\":3319:3390   */\n  tag_41\n  jump\t// in\ntag_79:\n    /* \"#utility.yul\":3400:3472   */\n  tag_80\n    /* \"#utility.yul\":3468:3470   */\n  0x20\n    /* \"#utility.yul\":3457:3466   */\n  dup4\n    /* \"#utility.yul\":3453:3471   */\n  add\n    /* \"#utility.yul\":3444:3450   */\n  dup5\n    /* \"#utility.yul\":3400:3472   */\n  tag_43\n  jump\t// in\ntag_80:\n    /* \"#utility.yul\":3147:3479   */\n  swap4\n  swap3\n  pop\n  pop\n  pop\n  jump\t// out\n    /* \"#utility.yul\":3485:3575   */\ntag_44:\n    /* \"#utility.yul\":3519:3526   */\n  0x00\n    /* \"#utility.yul\":3562:3567   */\n  dup2\n    /* \"#utility.yul\":3555:3568   */\n  iszero\n    /* \"#utility.yul\":3548:3569   */\n  iszero\n    /* \"#utility.yul\":3537:3569   */\n  swap1\n  pop\n    /* \"#utility.yul\":3485:3575   */\n  swap2\n  swap1\n  pop\n  jump\t// out\n    /* \"#utility.yul\":3581:3697   */\ntag_45:\n    /* \"#utility.yul\":3651:3672   */\n  tag_83\n    /* \"#utility.yul\":3666:3671   */\n  dup2\n    /* \"#utility.yul\":3651:3672   */\n  tag_44\n  jump\t// in\ntag_83:\n    /* \"#utility.yul\":3644:3649   */\n  dup2\n    /* \"#utility.yul\":3641:3673   */\n  eq\n    /* \"#utility.yul\":3631:3691   */\n  tag_84\n  jumpi\n    /* \"#utility.yul\":3687:3688   */\n  0x00\n    /* \"#utility.yul\":3684:3685   */\n  dup1\n    /* \"#utility.yul\":3677:3689   */\n  revert\n    /* \"#utility.yul\":3631:3691   */\ntag_84:\n    /* \"#utility.yul\":3581:3697   */\n  pop\n  jump\t// out\n    /* \"#utility.yul\":3703:3840   */\ntag_46:\n    /* \"#utility.yul\":3757:3762   */\n  0x00\n    /* \"#utility.yul\":3788:3794   */\n  dup2\n    /* \"#utility.yul\":3782:3795   */\n  mload\n    /* \"#utility.yul\":3773:3795   */\n  swap1\n  pop\n    /* \"#utility.yul\":3804:3834   */\n  tag_86\n    /* \"#utility.yul\":3828:3833   */\n  dup2\n    /* \"#utility.yul\":3804:3834   */\n  tag_45\n  jump\t// in\ntag_86:\n    /* \"#utility.yul\":3703:3840   */\n  swap3\n  swap2\n  pop\n  pop\n  jump\t// out\n    /* \"#utility.yul\":3846:4191   */\ntag_17:\n    /* \"#utility.yul\":3913:3919   */\n  0x00\n    /* \"#utility.yul\":3962:3964   */\n  0x20\n    /* \"#utility.yul\":3950:3959   */\n  dup3\n    /* \"#utility.yul\":3941:3948   */\n  dup5\n    /* \"#utility.yul\":3937:3960   */\n  sub\n    /* \"#utility.yul\":3933:3965   */\n  slt\n    /* \"#utility.yul\":3930:4049   */\n  iszero\n  tag_88\n  jumpi\n    /* \"#utility.yul\":3968:4047   */\n  tag_89\n  tag_32\n  jump\t// in\ntag_89:\n    /* \"#utility.yul\":3930:4049   */\ntag_88:\n    /* \"#utility.yul\":4088:4089   */\n  0x00\n    /* \"#utility.yul\":4113:4174   */\n  tag_90\n    /* \"#utility.yul\":4166:4173   */\n  dup5\n    /* \"#utility.yul\":4157:4163   */\n  dup3\n    /* \"#utility.yul\":4146:4155   */\n  dup6\n    /* \"#utility.yul\":4142:4164   */\n  add\n    /* \"#utility.yul\":4113:4174   */\n  tag_46\n  jump\t// in\ntag_90:\n    /* \"#utility.yul\":4103:4174   */\n  swap2\n  pop\n    /* \"#utility.yul\":4059:4184   */\n  pop\n    /* \"#utility.yul\":3846:4191   */\n  swap3\n  swap2\n  pop\n  pop\n  jump\t// out\n    /* \"contracts/Arbitrage.sol\":1855:9659  contract Arbitrage {... */\ntag_30:\n  dataSize(sub_0)\n  dup1\n  dataOffset(sub_0)\n  0x00\n  codecopy\n  0x00\n  return\nstop\n\nsub_0: assembly {\n        /* \"contracts/Arbitrage.sol\":1855:9659  contract Arbitrage {... */\n      mstore(0x40, 0x80)\n      callvalue\n      dup1\n      iszero\n      tag_1\n      jumpi\n      0x00\n      dup1\n      revert\n    tag_1:\n      pop\n      jumpi(tag_2, lt(calldatasize, 0x04))\n      shr(0xe0, calldataload(0x00))\n      dup1\n      0x5f64b55b\n      gt\n      tag_10\n      jumpi\n      dup1\n      0x5f64b55b\n      eq\n      tag_6\n      jumpi\n      dup1\n      0xd4551ad6\n      eq\n      tag_7\n      jumpi\n      dup1\n      0xdaf7e78e\n      eq\n      tag_8\n      jumpi\n      dup1\n      0xed5b0dad\n      eq\n      tag_9\n      jumpi\n      jump(tag_2)\n    tag_10:\n      dup1\n      0x054d50d4\n      eq\n      tag_3\n      jumpi\n      dup1\n      0x0fc63d10\n      eq\n      tag_4\n      jumpi\n      dup1\n      0x2365cd80\n      eq\n      tag_5\n      jumpi\n    tag_2:\n      0x00\n      dup1\n      revert\n        /* \"contracts/Arbitrage.sol\":3657:3947  function getAmountOut(uint256 amountIn, uint256 reserveIn, uint256 reserveOut) public pure returns (uint256 amountOut) {... */\n    tag_3:\n      tag_11\n      0x04\n      dup1\n      calldatasize\n      sub\n      dup2\n      add\n      swap1\n      tag_12\n      swap2\n      swap1\n      tag_13\n      jump\t// in\n    tag_12:\n      tag_14\n      jump\t// in\n    tag_11:\n      mload(0x40)\n      tag_15\n      swap2\n      swap1\n      tag_16\n      jump\t// in\n    tag_15:\n      mload(0x40)\n      dup1\n      swap2\n      sub\n      swap1\n      return\n        /* \"contracts/Arbitrage.sol\":2012:2032  IERC20 public tokenA */\n    tag_4:\n      tag_17\n      tag_18\n      jump\t// in\n    tag_17:\n      mload(0x40)\n      tag_19\n      swap2\n      swap1\n      tag_20\n      jump\t// in\n    tag_19:\n      mload(0x40)\n      dup1\n      swap2\n      sub\n      swap1\n      return\n        /* \"contracts/Arbitrage.sol\":7488:9656  function arbitrageBtoAtoB(uint256 amountBIn, uint256 minProfit) external returns (uint256 finalB, uint256 profit) {... */\n    tag_5:\n      tag_21\n      0x04\n      dup1\n      calldatasize\n      sub\n      dup2\n      add\n      swap1\n      tag_22\n      swap2\n      swap1\n      tag_23\n      jump\t// in\n    tag_22:\n      tag_24\n      jump\t// in\n    tag_21:\n      mload(0x40)\n      tag_25\n      swap3\n      swap2\n      swap1\n      tag_26\n      jump\t// in\n    tag_25:\n      mload(0x40)\n      dup1\n      swap2\n      sub\n      swap1\n      return\n        /* \"contracts/Arbitrage.sol\":2038:2058  IERC20 public tokenB */\n    tag_6:\n      tag_27\n      tag_28\n      jump\t// in\n    tag_27:\n      mload(0x40)\n      tag_29\n      swap2\n      swap1\n      tag_20\n      jump\t// in\n    tag_29:\n      mload(0x40)\n      dup1\n      swap2\n      sub\n      swap1\n      return\n        /* \"contracts/Arbitrage.sol\":1923:1942  address public dex1 */\n    tag_7:\n      tag_30\n      tag_31\n      jump\t// in\n    tag_30:\n      mload(0x40)\n      tag_32\n      swap2\n      swap1\n      tag_33\n      jump\t// in\n    tag_32:\n      mload(0x40)\n      dup1\n      swap2\n      sub\n      swap1\n      return\n        /* \"contracts/Arbitrage.sol\":1948:1967  address public dex2 */\n    tag_8:\n      tag_34\n      tag_35\n      jump\t// in\n    tag_34:\n      mload(0x40)\n      tag_36\n      swap2\n      swap1\n      tag_33\n      jump\t// in\n    tag_36:\n      mload(0x40)\n      dup1\n      swap2\n      sub\n      swap1\n      return\n        /* \"contracts/Arbitrage.sol\":4624:6811  function arbitrageAtoBtoA(uint256 amountAIn, uint256 minProfit) external returns (uint256 finalA, uint256 profit) {... */\n    tag_9:\n      tag_37\n      0x04\n      dup1\n      calldatasize\n      sub\n      dup2\n      add\n      swap1\n      tag_38\n      swap2\n      swap1\n      tag_23\n      jump\t// in\n    tag_38:\n      tag_39\n      jump\t// in\n    tag_37:\n      mload(0x40)\n      tag_40\n      swap3\n      swap2\n      swap1\n      tag_26\n      jump\t// in\n    tag_40:\n      mload(0x40)\n      dup1\n      swap2\n      sub\n      swap1\n      return\n        /* \"contracts/Arbitrage.sol\":3657:3947  function getAmountOut(uint256 amountIn, uint256 reserveIn, uint256 reserveOut) public pure returns (uint256 amountOut) {... */\n    tag_14:\n        /* \"contracts/Arbitrage.sol\":3757:3774  uint256 amountOut */\n      0x00\n        /* \"contracts/Arbitrage.sol\":3786:3809  uint256 amountInWithFee */\n      dup1\n        /* \"contracts/Arbitrage.sol\":2195:2199  1000 */\n      0x03e8\n        /* \"contracts/Arbitrage.sol\":2143:2146  997 */\n      0x03e5\n        /* \"contracts/Arbitrage.sol\":3813:3821  amountIn */\n      dup7\n        /* \"contracts/Arbitrage.sol\":3813:3837  amountIn * FEE_NUMERATOR */\n      tag_42\n      swap2\n      swap1\n      tag_43\n      jump\t// in\n    tag_42:\n        /* \"contracts/Arbitrage.sol\":3812:3856  (amountIn * FEE_NUMERATOR) / FEE_DENOMINATOR */\n      tag_44\n      swap2\n      swap1\n      tag_45\n      jump\t// in\n    tag_44:\n        /* \"contracts/Arbitrage.sol\":3786:3856  uint256 amountInWithFee = (amountIn * FEE_NUMERATOR) / FEE_DENOMINATOR */\n      swap1\n      pop\n        /* \"contracts/Arbitrage.sol\":3924:3939  amountInWithFee */\n      dup1\n        /* \"contracts/Arbitrage.sol\":3912:3921  reserveIn */\n      dup5\n        /* \"contracts/Arbitrage.sol\":3912:3939  reserveIn + amountInWithFee */\n      tag_46\n      swap2\n      swap1\n      tag_47\n      jump\t// in\n    tag_46:\n        /* \"contracts/Arbitrage.sol\":3892:3907  amountInWithFee */\n      dup2\n        /* \"contracts/Arbitrage.sol\":3879:3889  reserveOut */\n      dup5\n        /* \"contracts/Arbitrage.sol\":3879:3907  reserveOut * amountInWithFee */\n      tag_48\n      swap2\n      swap1\n      tag_43\n      jump\t// in\n    tag_48:\n        /* \"contracts/Arbitrage.sol\":3878:3940  (reserveOut * amountInWithFee) / (reserveIn + amountInWithFee) */\n      tag_49\n      swap2\n      swap1\n      tag_45\n      jump\t// in\n    tag_49:\n        /* \"contracts/Arbitrage.sol\":3866:3940  amountOut = (reserveOut * amountInWithFee) / (reserveIn + amountInWithFee) */\n      swap2\n      pop\n        /* \"contracts/Arbitrage.sol\":3776:3947  {... */\n      pop\n        /* \"contracts/Arbitrage.sol\":3657:3947  function getAmountOut(uint256 amountIn, uint256 reserveIn, uint256 reserveOut) public pure returns (uint256 amountOut) {... */\n      swap4\n      swap3\n      pop\n      pop\n      pop\n      jump\t// out\n        /* \"contracts/Arbitrage.sol\":2012:2032  IERC20 public tokenA */\n    tag_18:\n      0x02\n      0x00\n      swap1\n      sload\n      swap1\n      0x0100\n      exp\n      swap1\n      div\n      0xffffffffffffffffffffffffffffffffffffffff\n      and\n      dup2\n      jump\t// out\n        /* \"contracts/Arbitrage.sol\":7488:9656  function arbitrageBtoAtoB(uint256 amountBIn, uint256 minProfit) external returns (uint256 finalB, uint256 profit) {... */\n    tag_24:\n        /* \"contracts/Arbitrage.sol\":7570:7584  uint256 finalB */\n      0x00\n        /* \"contracts/Arbitrage.sol\":7586:7600  uint256 profit */\n      dup1\n        /* \"contracts/Arbitrage.sol\":7628:7629  0 */\n      0x00\n        /* \"contracts/Arbitrage.sol\":7616:7625  amountBIn */\n      dup5\n        /* \"contracts/Arbitrage.sol\":7616:7629  amountBIn > 0 */\n      gt\n        /* \"contracts/Arbitrage.sol\":7608:7653  require(amountBIn > 0, \"Capital must be > 0\") */\n      tag_51\n      jumpi\n      mload(0x40)\n      0x08c379a000000000000000000000000000000000000000000000000000000000\n      dup2\n      mstore\n      0x04\n      add\n      tag_52\n      swap1\n      tag_53\n      jump\t// in\n    tag_52:\n      mload(0x40)\n      dup1\n      swap2\n      sub\n      swap1\n      revert\n    tag_51:\n        /* \"contracts/Arbitrage.sol\":7758:7775  uint256 reserveA1 */\n      0x00\n        /* \"contracts/Arbitrage.sol\":7777:7794  uint256 reserveB1 */\n      dup1\n        /* \"contracts/Arbitrage.sol\":7803:7807  dex1 */\n      0x00\n      dup1\n      sload\n      swap1\n      0x0100\n      exp\n      swap1\n      div\n      0xffffffffffffffffffffffffffffffffffffffff\n      and\n        /* \"contracts/Arbitrage.sol\":7798:7820  IDEX(dex1).getReserves */\n      0xffffffffffffffffffffffffffffffffffffffff\n      and\n      0x0902f1ac\n        /* \"contracts/Arbitrage.sol\":7798:7822  IDEX(dex1).getReserves() */\n      mload(0x40)\n      dup2\n      0xffffffff\n      and\n      0xe0\n      shl\n      dup2\n      mstore\n      0x04\n      add\n      0x40\n      dup1\n      mload\n      dup1\n      dup4\n      sub\n      dup2\n      dup7\n      gas\n      staticcall\n      iszero\n      dup1\n      iszero\n      tag_55\n      jumpi\n      returndatasize\n      0x00\n      dup1\n      returndatacopy\n      revert(0x00, returndatasize)\n    tag_55:\n      pop\n      pop\n      pop\n      pop\n      mload(0x40)\n      returndatasize\n      not(0x1f)\n      0x1f\n      dup3\n      add\n      and\n      dup3\n      add\n      dup1\n      0x40\n      mstore\n      pop\n      dup2\n      add\n      swap1\n      tag_56\n      swap2\n      swap1\n      tag_57\n      jump\t// in\n    tag_56:\n        /* \"contracts/Arbitrage.sol\":7757:7822  (uint256 reserveA1, uint256 reserveB1) = IDEX(dex1).getReserves() */\n      swap2\n      pop\n      swap2\n      pop\n        /* \"contracts/Arbitrage.sol\":7879:7896  uint256 reserveA2 */\n      0x00\n        /* \"contracts/Arbitrage.sol\":7898:7915  uint256 reserveB2 */\n      dup1\n        /* \"contracts/Arbitrage.sol\":7924:7928  dex2 */\n      0x01\n      0x00\n      swap1\n      sload\n      swap1\n      0x0100\n      exp\n      swap1\n      div\n      0xffffffffffffffffffffffffffffffffffffffff\n      and\n        /* \"contracts/Arbitrage.sol\":7919:7941  IDEX(dex2).getReserves */\n      0xffffffffffffffffffffffffffffffffffffffff\n      and\n      0x0902f1ac\n        /* \"contracts/Arbitrage.sol\":7919:7943  IDEX(dex2).getReserves() */\n      mload(0x40)\n      dup2\n      0xffffffff\n      and\n      0xe0\n      shl\n      dup2\n      mstore\n      0x04\n      add\n      0x40\n      dup1\n      mload\n      dup1\n      dup4\n      sub\n      dup2\n      dup7\n      gas\n      staticcall\n      iszero\n      dup1\n      iszero\n      tag_59\n      jumpi\n      returndatasize\n      0x00\n      dup1\n      returndatacopy\n      revert(0x00, returndatasize)\n    tag_59:\n      pop\n      pop\n      pop\n      pop\n      mload(0x40)\n      returndatasize\n      not(0x1f)\n      0x1f\n      dup3\n      add\n      and\n      dup3\n      add\n      dup1\n      0x40\n      mstore\n      pop\n      dup2\n      add\n      swap1\n      tag_60\n      swap2\n      swap1\n      tag_57\n      jump\t// in\n    tag_60:\n        /* \"contracts/Arbitrage.sol\":7878:7943  (uint256 reserveA2, uint256 reserveB2) = IDEX(dex2).getReserves() */\n      swap2\n      pop\n      swap2\n      pop\n        /* \"contracts/Arbitrage.sol\":8009:8032  uint256 simulatedTokenA */\n      0x00\n        /* \"contracts/Arbitrage.sol\":8035:8080  getAmountOut(amountBIn, reserveB1, reserveA1) */\n      tag_61\n        /* \"contracts/Arbitrage.sol\":8048:8057  amountBIn */\n      dup10\n        /* \"contracts/Arbitrage.sol\":8059:8068  reserveB1 */\n      dup6\n        /* \"contracts/Arbitrage.sol\":8070:8079  reserveA1 */\n      dup8\n        /* \"contracts/Arbitrage.sol\":8035:8047  getAmountOut */\n      tag_14\n        /* \"contracts/Arbitrage.sol\":8035:8080  getAmountOut(amountBIn, reserveB1, reserveA1) */\n      jump\t// in\n    tag_61:\n        /* \"contracts/Arbitrage.sol\":8009:8080  uint256 simulatedTokenA = getAmountOut(amountBIn, reserveB1, reserveA1) */\n      swap1\n      pop\n        /* \"contracts/Arbitrage.sol\":8146:8169  uint256 simulatedFinalB */\n      0x00\n        /* \"contracts/Arbitrage.sol\":8172:8223  getAmountOut(simulatedTokenA, reserveA2, reserveB2) */\n      tag_62\n        /* \"contracts/Arbitrage.sol\":8185:8200  simulatedTokenA */\n      dup3\n        /* \"contracts/Arbitrage.sol\":8202:8211  reserveA2 */\n      dup6\n        /* \"contracts/Arbitrage.sol\":8213:8222  reserveB2 */\n      dup6\n        /* \"contracts/Arbitrage.sol\":8172:8184  getAmountOut */\n      tag_14\n        /* \"contracts/Arbitrage.sol\":8172:8223  getAmountOut(simulatedTokenA, reserveA2, reserveB2) */\n      jump\t// in\n    tag_62:\n        /* \"contracts/Arbitrage.sol\":8146:8223  uint256 simulatedFinalB = getAmountOut(simulatedTokenA, reserveA2, reserveB2) */\n      swap1\n      pop\n        /* \"contracts/Arbitrage.sol\":8311:8320  amountBIn */\n      dup10\n        /* \"contracts/Arbitrage.sol\":8293:8308  simulatedFinalB */\n      dup2\n        /* \"contracts/Arbitrage.sol\":8293:8320  simulatedFinalB > amountBIn */\n      gt\n        /* \"contracts/Arbitrage.sol\":8285:8381  require(simulatedFinalB > amountBIn, \"Arbitrage: No profitable opportunity based on simulation\") */\n      tag_63\n      jumpi\n      mload(0x40)\n      0x08c379a000000000000000000000000000000000000000000000000000000000\n      dup2\n      mstore\n      0x04\n      add\n      tag_64\n      swap1\n      tag_65\n      jump\t// in\n    tag_64:\n      mload(0x40)\n      dup1\n      swap2\n      sub\n      swap1\n      revert\n    tag_63:\n        /* \"contracts/Arbitrage.sol\":8426:8435  minProfit */\n      dup9\n        /* \"contracts/Arbitrage.sol\":8413:8422  amountBIn */\n      dup11\n        /* \"contracts/Arbitrage.sol\":8395:8410  simulatedFinalB */\n      dup3\n        /* \"contracts/Arbitrage.sol\":8395:8422  simulatedFinalB - amountBIn */\n      tag_66\n      swap2\n      swap1\n      tag_67\n      jump\t// in\n    tag_66:\n        /* \"contracts/Arbitrage.sol\":8395:8435  simulatedFinalB - amountBIn >= minProfit */\n      lt\n      iszero\n        /* \"contracts/Arbitrage.sol\":8387:8498  require(simulatedFinalB - amountBIn >= minProfit, \"Arbitrage: Expected profit does not meet minimum threshold\") */\n      tag_68\n      jumpi\n      mload(0x40)\n      0x08c379a000000000000000000000000000000000000000000000000000000000\n      dup2\n      mstore\n      0x04\n      add\n      tag_69\n      swap1\n      tag_70\n      jump\t// in\n    tag_69:\n      mload(0x40)\n      dup1\n      swap2\n      sub\n      swap1\n      revert\n    tag_68:\n        /* \"contracts/Arbitrage.sol\":8554:8560  tokenB */\n      0x03\n      0x00\n      swap1\n      sload\n      swap1\n      0x0100\n      exp\n      swap1\n      div\n      0xffffffffffffffffffffffffffffffffffffffff\n      and\n        /* \"contracts/Arbitrage.sol\":8554:8573  tokenB.transferFrom */\n      0xffffffffffffffffffffffffffffffffffffffff\n      and\n      0x23b872dd\n        /* \"contracts/Arbitrage.sol\":8574:8584  msg.sender */\n      caller\n        /* \"contracts/Arbitrage.sol\":8594:8598  this */\n      address\n        /* \"contracts/Arbitrage.sol\":8601:8610  amountBIn */\n      dup14\n        /* \"contracts/Arbitrage.sol\":8554:8611  tokenB.transferFrom(msg.sender, address(this), amountBIn) */\n      mload(0x40)\n      dup5\n      0xffffffff\n      and\n      0xe0\n      shl\n      dup2\n      mstore\n      0x04\n      add\n      tag_71\n      swap4\n      swap3\n      swap2\n      swap1\n      tag_72\n      jump\t// in\n    tag_71:\n      0x20\n      mload(0x40)\n      dup1\n      dup4\n      sub\n      dup2\n      0x00\n      dup8\n      gas\n      call\n      iszero\n      dup1\n      iszero\n      tag_74\n      jumpi\n      returndatasize\n      0x00\n      dup1\n      returndatacopy\n      revert(0x00, returndatasize)\n    tag_74:\n      pop\n      pop\n      pop\n      pop\n      mload(0x40)\n      returndatasize\n      not(0x1f)\n      0x1f\n      dup3\n      add\n      and\n      dup3\n      add\n      dup1\n      0x40\n      mstore\n      pop\n      dup2\n      add\n      swap1\n      tag_75\n      swap2\n      swap1\n      tag_76\n      jump\t// in\n    tag_75:\n        /* \"contracts/Arbitrage.sol\":8546:8652  require(tokenB.transferFrom(msg.sender, address(this), amountBIn), \"Arbitrage: Transfer of TokenB failed\") */\n      tag_77\n      jumpi\n      mload(0x40)\n      0x08c379a000000000000000000000000000000000000000000000000000000000\n      dup2\n      mstore\n      0x04\n      add\n      tag_78\n      swap1\n      tag_79\n      jump\t// in\n    tag_78:\n      mload(0x40)\n      dup1\n      swap2\n      sub\n      swap1\n      revert\n    tag_77:\n        /* \"contracts/Arbitrage.sol\":8722:8726  dex1 */\n      0x00\n      dup1\n      sload\n      swap1\n      0x0100\n      exp\n      swap1\n      div\n      0xffffffffffffffffffffffffffffffffffffffff\n      and\n        /* \"contracts/Arbitrage.sol\":8717:8747  IDEX(dex1).swapTokenBForTokenA */\n      0xffffffffffffffffffffffffffffffffffffffff\n      and\n      0xad56238d\n        /* \"contracts/Arbitrage.sol\":8748:8757  amountBIn */\n      dup12\n        /* \"contracts/Arbitrage.sol\":8717:8758  IDEX(dex1).swapTokenBForTokenA(amountBIn) */\n      mload(0x40)\n      dup3\n      0xffffffff\n      and\n      0xe0\n      shl\n      dup2\n      mstore\n      0x04\n      add\n      tag_80\n      swap2\n      swap1\n      tag_16\n      jump\t// in\n    tag_80:\n      0x00\n      mload(0x40)\n      dup1\n      dup4\n      sub\n      dup2\n      0x00\n      dup8\n      dup1\n      extcodesize\n      iszero\n      dup1\n      iszero\n      tag_81\n      jumpi\n      0x00\n      dup1\n      revert\n    tag_81:\n      pop\n      gas\n      call\n      iszero\n      dup1\n      iszero\n      tag_83\n      jumpi\n      returndatasize\n      0x00\n      dup1\n      returndatacopy\n      revert(0x00, returndatasize)\n    tag_83:\n      pop\n      pop\n      pop\n      pop\n        /* \"contracts/Arbitrage.sol\":8816:8837  uint256 tokenABalance */\n      0x00\n        /* \"contracts/Arbitrage.sol\":8840:8846  tokenA */\n      0x02\n      0x00\n      swap1\n      sload\n      swap1\n      0x0100\n      exp\n      swap1\n      div\n      0xffffffffffffffffffffffffffffffffffffffff\n      and\n        /* \"contracts/Arbitrage.sol\":8840:8856  tokenA.balanceOf */\n      0xffffffffffffffffffffffffffffffffffffffff\n      and\n      0x70a08231\n        /* \"contracts/Arbitrage.sol\":8865:8869  this */\n      address\n        /* \"contracts/Arbitrage.sol\":8840:8871  tokenA.balanceOf(address(this)) */\n      mload(0x40)\n      dup3\n      0xffffffff\n      and\n      0xe0\n      shl\n      dup2\n      mstore\n      0x04\n      add\n      tag_84\n      swap2\n      swap1\n      tag_33\n      jump\t// in\n    tag_84:\n      0x20\n      mload(0x40)\n      dup1\n      dup4\n      sub\n      dup2\n      dup7\n      gas\n      staticcall\n      iszero\n      dup1\n      iszero\n      tag_86\n      jumpi\n      returndatasize\n      0x00\n      dup1\n      returndatacopy\n      revert(0x00, returndatasize)\n    tag_86:\n      pop\n      pop\n      pop\n      pop\n      mload(0x40)\n      returndatasize\n      not(0x1f)\n      0x1f\n      dup3\n      add\n      and\n      dup3\n      add\n      dup1\n      0x40\n      mstore\n      pop\n      dup2\n      add\n      swap1\n      tag_87\n      swap2\n      swap1\n      tag_88\n      jump\t// in\n    tag_87:\n        /* \"contracts/Arbitrage.sol\":8816:8871  uint256 tokenABalance = tokenA.balanceOf(address(this)) */\n      swap1\n      pop\n        /* \"contracts/Arbitrage.sol\":8901:8902  0 */\n      0x00\n        /* \"contracts/Arbitrage.sol\":8885:8898  tokenABalance */\n      dup2\n        /* \"contracts/Arbitrage.sol\":8885:8902  tokenABalance > 0 */\n      gt\n        /* \"contracts/Arbitrage.sol\":8877:8952  require(tokenABalance > 0, \"Arbitrage: Swap on DEX1 did not return TokenA\") */\n      tag_89\n      jumpi\n      mload(0x40)\n      0x08c379a000000000000000000000000000000000000000000000000000000000\n      dup2\n      mstore\n      0x04\n      add\n      tag_90\n      swap1\n      tag_91\n      jump\t// in\n    tag_90:\n      mload(0x40)\n      dup1\n      swap2\n      sub\n      swap1\n      revert\n    tag_89:\n        /* \"contracts/Arbitrage.sol\":9023:9027  dex2 */\n      0x01\n      0x00\n      swap1\n      sload\n      swap1\n      0x0100\n      exp\n      swap1\n      div\n      0xffffffffffffffffffffffffffffffffffffffff\n      and\n        /* \"contracts/Arbitrage.sol\":9018:9048  IDEX(dex2).swapTokenAForTokenB */\n      0xffffffffffffffffffffffffffffffffffffffff\n      and\n      0x507b0e6b\n        /* \"contracts/Arbitrage.sol\":9049:9062  tokenABalance */\n      dup3\n        /* \"contracts/Arbitrage.sol\":9018:9063  IDEX(dex2).swapTokenAForTokenB(tokenABalance) */\n      mload(0x40)\n      dup3\n      0xffffffff\n      and\n      0xe0\n      shl\n      dup2\n      mstore\n      0x04\n      add\n      tag_92\n      swap2\n      swap1\n      tag_16\n      jump\t// in\n    tag_92:\n      0x00\n      mload(0x40)\n      dup1\n      dup4\n      sub\n      dup2\n      0x00\n      dup8\n      dup1\n      extcodesize\n      iszero\n      dup1\n      iszero\n      tag_93\n      jumpi\n      0x00\n      dup1\n      revert\n    tag_93:\n      pop\n      gas\n      call\n      iszero\n      dup1\n      iszero\n      tag_95\n      jumpi\n      returndatasize\n      0x00\n      dup1\n      returndatacopy\n      revert(0x00, returndatasize)\n    tag_95:\n      pop\n      pop\n      pop\n      pop\n        /* \"contracts/Arbitrage.sol\":9118:9124  tokenB */\n      0x03\n      0x00\n      swap1\n      sload\n      swap1\n      0x0100\n      exp\n      swap1\n      div\n      0xffffffffffffffffffffffffffffffffffffffff\n      and\n        /* \"contracts/Arbitrage.sol\":9118:9134  tokenB.balanceOf */\n      0xffffffffffffffffffffffffffffffffffffffff\n      and\n      0x70a08231\n        /* \"contracts/Arbitrage.sol\":9143:9147  this */\n      address\n        /* \"contracts/Arbitrage.sol\":9118:9149  tokenB.balanceOf(address(this)) */\n      mload(0x40)\n      dup3\n      0xffffffff\n      and\n      0xe0\n      shl\n      dup2\n      mstore\n      0x04\n      add\n      tag_96\n      swap2\n      swap1\n      tag_33\n      jump\t// in\n    tag_96:\n      0x20\n      mload(0x40)\n      dup1\n      dup4\n      sub\n      dup2\n      dup7\n      gas\n      staticcall\n      iszero\n      dup1\n      iszero\n      tag_98\n      jumpi\n      returndatasize\n      0x00\n      dup1\n      returndatacopy\n      revert(0x00, returndatasize)\n    tag_98:\n      pop\n      pop\n      pop\n      pop\n      mload(0x40)\n      returndatasize\n      not(0x1f)\n      0x1f\n      dup3\n      add\n      and\n      dup3\n      add\n      dup1\n      0x40\n      mstore\n      pop\n      dup2\n      add\n      swap1\n      tag_99\n      swap2\n      swap1\n      tag_88\n      jump\t// in\n    tag_99:\n        /* \"contracts/Arbitrage.sol\":9109:9149  finalB = tokenB.balanceOf(address(this)) */\n      swap9\n      pop\n        /* \"contracts/Arbitrage.sol\":9172:9181  amountBIn */\n      dup11\n        /* \"contracts/Arbitrage.sol\":9163:9169  finalB */\n      dup10\n        /* \"contracts/Arbitrage.sol\":9163:9181  finalB > amountBIn */\n      gt\n        /* \"contracts/Arbitrage.sol\":9155:9232  require(finalB > amountBIn, \"Arbitrage: No profit made in B->A->B direction\") */\n      tag_100\n      jumpi\n      mload(0x40)\n      0x08c379a000000000000000000000000000000000000000000000000000000000\n      dup2\n      mstore\n      0x04\n      add\n      tag_101\n      swap1\n      tag_102\n      jump\t// in\n    tag_101:\n      mload(0x40)\n      dup1\n      swap2\n      sub\n      swap1\n      revert\n    tag_100:\n        /* \"contracts/Arbitrage.sol\":9257:9266  amountBIn */\n      dup11\n        /* \"contracts/Arbitrage.sol\":9248:9254  finalB */\n      dup10\n        /* \"contracts/Arbitrage.sol\":9248:9266  finalB - amountBIn */\n      tag_103\n      swap2\n      swap1\n      tag_67\n      jump\t// in\n    tag_103:\n        /* \"contracts/Arbitrage.sol\":9239:9266  profit = finalB - amountBIn */\n      swap8\n      pop\n        /* \"contracts/Arbitrage.sol\":9290:9299  minProfit */\n      dup10\n        /* \"contracts/Arbitrage.sol\":9280:9286  profit */\n      dup9\n        /* \"contracts/Arbitrage.sol\":9280:9299  profit >= minProfit */\n      lt\n      iszero\n        /* \"contracts/Arbitrage.sol\":9272:9353  require(profit >= minProfit, \"Arbitrage: Profit does not meet minimum threshold\") */\n      tag_104\n      jumpi\n      mload(0x40)\n      0x08c379a000000000000000000000000000000000000000000000000000000000\n      dup2\n      mstore\n      0x04\n      add\n      tag_105\n      swap1\n      tag_106\n      jump\t// in\n    tag_105:\n      mload(0x40)\n      dup1\n      swap2\n      sub\n      swap1\n      revert\n    tag_104:\n        /* \"contracts/Arbitrage.sol\":9445:9451  tokenB */\n      0x03\n      0x00\n      swap1\n      sload\n      swap1\n      0x0100\n      exp\n      swap1\n      div\n      0xffffffffffffffffffffffffffffffffffffffff\n      and\n        /* \"contracts/Arbitrage.sol\":9445:9460  tokenB.transfer */\n      0xffffffffffffffffffffffffffffffffffffffff\n      and\n      0xa9059cbb\n        /* \"contracts/Arbitrage.sol\":9461:9471  msg.sender */\n      caller\n        /* \"contracts/Arbitrage.sol\":9473:9479  finalB */\n      dup12\n        /* \"contracts/Arbitrage.sol\":9445:9480  tokenB.transfer(msg.sender, finalB) */\n      mload(0x40)\n      dup4\n      0xffffffff\n      and\n      0xe0\n      shl\n      dup2\n      mstore\n      0x04\n      add\n      tag_107\n      swap3\n      swap2\n      swap1\n      tag_108\n      jump\t// in\n    tag_107:\n      0x20\n      mload(0x40)\n      dup1\n      dup4\n      sub\n      dup2\n      0x00\n      dup8\n      gas\n      call\n      iszero\n      dup1\n      iszero\n      tag_110\n      jumpi\n      returndatasize\n      0x00\n      dup1\n      returndatacopy\n      revert(0x00, returndatasize)\n    tag_110:\n      pop\n      pop\n      pop\n      pop\n      mload(0x40)\n      returndatasize\n      not(0x1f)\n      0x1f\n      dup3\n      add\n      and\n      dup3\n      add\n      dup1\n      0x40\n      mstore\n      pop\n      dup2\n      add\n      swap1\n      tag_111\n      swap2\n      swap1\n      tag_76\n      jump\t// in\n    tag_111:\n        /* \"contracts/Arbitrage.sol\":9437:9526  require(tokenB.transfer(msg.sender, finalB), \"Arbitrage: Transfer of TokenB back failed\") */\n      tag_112\n      jumpi\n      mload(0x40)\n      0x08c379a000000000000000000000000000000000000000000000000000000000\n      dup2\n      mstore\n      0x04\n      add\n      tag_113\n      swap1\n      tag_114\n      jump\t// in\n    tag_113:\n      mload(0x40)\n      dup1\n      swap2\n      sub\n      swap1\n      revert\n    tag_112:\n        /* \"contracts/Arbitrage.sol\":9623:9633  msg.sender */\n      caller\n        /* \"contracts/Arbitrage.sol\":9598:9653  ArbitrageExecutedBtoAtoB(msg.sender, amountBIn, profit) */\n      0xffffffffffffffffffffffffffffffffffffffff\n      and\n      0xbbbcd055a26726c6d9add2cc4b5d40e88108b660b181678f7412bd8f84deacd9\n        /* \"contracts/Arbitrage.sol\":9635:9644  amountBIn */\n      dup13\n        /* \"contracts/Arbitrage.sol\":9646:9652  profit */\n      dup11\n        /* \"contracts/Arbitrage.sol\":9598:9653  ArbitrageExecutedBtoAtoB(msg.sender, amountBIn, profit) */\n      mload(0x40)\n      tag_115\n      swap3\n      swap2\n      swap1\n      tag_26\n      jump\t// in\n    tag_115:\n      mload(0x40)\n      dup1\n      swap2\n      sub\n      swap1\n      log2\n        /* \"contracts/Arbitrage.sol\":7602:9656  {... */\n      pop\n      pop\n      pop\n      pop\n      pop\n      pop\n      pop\n        /* \"contracts/Arbitrage.sol\":7488:9656  function arbitrageBtoAtoB(uint256 amountBIn, uint256 minProfit) external returns (uint256 finalB, uint256 profit) {... */\n      swap3\n      pop\n      swap3\n      swap1\n      pop\n      jump\t// out\n        /* \"contracts/Arbitrage.sol\":2038:2058  IERC20 public tokenB */\n    tag_28:\n      0x03\n      0x00\n      swap1\n      sload\n      swap1\n      0x0100\n      exp\n      swap1\n      div\n      0xffffffffffffffffffffffffffffffffffffffff\n      and\n      dup2\n      jump\t// out\n        /* \"contracts/Arbitrage.sol\":1923:1942  address public dex1 */\n    tag_31:\n      0x00\n      dup1\n      sload\n      swap1\n      0x0100\n      exp\n      swap1\n      div\n      0xffffffffffffffffffffffffffffffffffffffff\n      and\n      dup2\n      jump\t// out\n        /* \"contracts/Arbitrage.sol\":1948:1967  address public dex2 */\n    tag_35:\n      0x01\n      0x00\n      swap1\n      sload\n      swap1\n      0x0100\n      exp\n      swap1\n      div\n      0xffffffffffffffffffffffffffffffffffffffff\n      and\n      dup2\n      jump\t// out\n        /* \"contracts/Arbitrage.sol\":4624:6811  function arbitrageAtoBtoA(uint256 amountAIn, uint256 minProfit) external returns (uint256 finalA, uint256 profit) {... */\n    tag_39:\n        /* \"contracts/Arbitrage.sol\":4706:4720  uint256 finalA */\n      0x00\n        /* \"contracts/Arbitrage.sol\":4722:4736  uint256 profit */\n      dup1\n        /* \"contracts/Arbitrage.sol\":4768:4769  0 */\n      0x00\n        /* \"contracts/Arbitrage.sol\":4756:4765  amountAIn */\n      dup5\n        /* \"contracts/Arbitrage.sol\":4756:4769  amountAIn > 0 */\n      gt\n        /* \"contracts/Arbitrage.sol\":4748:4793  require(amountAIn > 0, \"Capital must be > 0\") */\n      tag_117\n      jumpi\n      mload(0x40)\n      0x08c379a000000000000000000000000000000000000000000000000000000000\n      dup2\n      mstore\n      0x04\n      add\n      tag_118\n      swap1\n      tag_53\n      jump\t// in\n    tag_118:\n      mload(0x40)\n      dup1\n      swap2\n      sub\n      swap1\n      revert\n    tag_117:\n        /* \"contracts/Arbitrage.sol\":4854:4871  uint256 reserveA1 */\n      0x00\n        /* \"contracts/Arbitrage.sol\":4873:4890  uint256 reserveB1 */\n      dup1\n        /* \"contracts/Arbitrage.sol\":4899:4903  dex1 */\n      0x00\n      dup1\n      sload\n      swap1\n      0x0100\n      exp\n      swap1\n      div\n      0xffffffffffffffffffffffffffffffffffffffff\n      and\n        /* \"contracts/Arbitrage.sol\":4894:4916  IDEX(dex1).getReserves */\n      0xffffffffffffffffffffffffffffffffffffffff\n      and\n      0x0902f1ac\n        /* \"contracts/Arbitrage.sol\":4894:4918  IDEX(dex1).getReserves() */\n      mload(0x40)\n      dup2\n      0xffffffff\n      and\n      0xe0\n      shl\n      dup2\n      mstore\n      0x04\n      add\n      0x40\n      dup1\n      mload\n      dup1\n      dup4\n      sub\n      dup2\n      dup7\n      gas\n      staticcall\n      iszero\n      dup1\n      iszero\n      tag_120\n      jumpi\n      returndatasize\n      0x00\n      dup1\n      returndatacopy\n      revert(0x00, returndatasize)\n    tag_120:\n      pop\n      pop\n      pop\n      pop\n      mload(0x40)\n      returndatasize\n      not(0x1f)\n      0x1f\n      dup3\n      add\n      and\n      dup3\n      add\n      dup1\n      0x40\n      mstore\n      pop\n      dup2\n      add\n      swap1\n      tag_121\n      swap2\n      swap1\n      tag_57\n      jump\t// in\n    tag_121:\n        /* \"contracts/Arbitrage.sol\":4853:4918  (uint256 reserveA1, uint256 reserveB1) = IDEX(dex1).getReserves() */\n      swap2\n      pop\n      swap2\n      pop\n        /* \"contracts/Arbitrage.sol\":4929:4946  uint256 reserveA2 */\n      0x00\n        /* \"contracts/Arbitrage.sol\":4948:4965  uint256 reserveB2 */\n      dup1\n        /* \"contracts/Arbitrage.sol\":4974:4978  dex2 */\n      0x01\n      0x00\n      swap1\n      sload\n      swap1\n      0x0100\n      exp\n      swap1\n      div\n      0xffffffffffffffffffffffffffffffffffffffff\n      and\n        /* \"contracts/Arbitrage.sol\":4969:4991  IDEX(dex2).getReserves */\n      0xffffffffffffffffffffffffffffffffffffffff\n      and\n      0x0902f1ac\n        /* \"contracts/Arbitrage.sol\":4969:4993  IDEX(dex2).getReserves() */\n      mload(0x40)\n      dup2\n      0xffffffff\n      and\n      0xe0\n      shl\n      dup2\n      mstore\n      0x04\n      add\n      0x40\n      dup1\n      mload\n      dup1\n      dup4\n      sub\n      dup2\n      dup7\n      gas\n      staticcall\n      iszero\n      dup1\n      iszero\n      tag_123\n      jumpi\n      returndatasize\n      0x00\n      dup1\n      returndatacopy\n      revert(0x00, returndatasize)\n    tag_123:\n      pop\n      pop\n      pop\n      pop\n      mload(0x40)\n      returndatasize\n      not(0x1f)\n      0x1f\n      dup3\n      add\n      and\n      dup3\n      add\n      dup1\n      0x40\n      mstore\n      pop\n      dup2\n      add\n      swap1\n      tag_124\n      swap2\n      swap1\n      tag_57\n      jump\t// in\n    tag_124:\n        /* \"contracts/Arbitrage.sol\":4928:4993  (uint256 reserveA2, uint256 reserveB2) = IDEX(dex2).getReserves() */\n      swap2\n      pop\n      swap2\n      pop\n        /* \"contracts/Arbitrage.sol\":5067:5090  uint256 simulatedTokenB */\n      0x00\n        /* \"contracts/Arbitrage.sol\":5093:5138  getAmountOut(amountAIn, reserveA1, reserveB1) */\n      tag_125\n        /* \"contracts/Arbitrage.sol\":5106:5115  amountAIn */\n      dup10\n        /* \"contracts/Arbitrage.sol\":5117:5126  reserveA1 */\n      dup7\n        /* \"contracts/Arbitrage.sol\":5128:5137  reserveB1 */\n      dup7\n        /* \"contracts/Arbitrage.sol\":5093:5105  getAmountOut */\n      tag_14\n        /* \"contracts/Arbitrage.sol\":5093:5138  getAmountOut(amountAIn, reserveA1, reserveB1) */\n      jump\t// in\n    tag_125:\n        /* \"contracts/Arbitrage.sol\":5067:5138  uint256 simulatedTokenB = getAmountOut(amountAIn, reserveA1, reserveB1) */\n      swap1\n      pop\n        /* \"contracts/Arbitrage.sol\":5213:5236  uint256 simulatedFinalA */\n      0x00\n        /* \"contracts/Arbitrage.sol\":5239:5290  getAmountOut(simulatedTokenB, reserveB2, reserveA2) */\n      tag_126\n        /* \"contracts/Arbitrage.sol\":5252:5267  simulatedTokenB */\n      dup3\n        /* \"contracts/Arbitrage.sol\":5269:5278  reserveB2 */\n      dup5\n        /* \"contracts/Arbitrage.sol\":5280:5289  reserveA2 */\n      dup7\n        /* \"contracts/Arbitrage.sol\":5239:5251  getAmountOut */\n      tag_14\n        /* \"contracts/Arbitrage.sol\":5239:5290  getAmountOut(simulatedTokenB, reserveB2, reserveA2) */\n      jump\t// in\n    tag_126:\n        /* \"contracts/Arbitrage.sol\":5213:5290  uint256 simulatedFinalA = getAmountOut(simulatedTokenB, reserveB2, reserveA2) */\n      swap1\n      pop\n        /* \"contracts/Arbitrage.sol\":5386:5395  amountAIn */\n      dup10\n        /* \"contracts/Arbitrage.sol\":5368:5383  simulatedFinalA */\n      dup2\n        /* \"contracts/Arbitrage.sol\":5368:5395  simulatedFinalA > amountAIn */\n      gt\n        /* \"contracts/Arbitrage.sol\":5360:5456  require(simulatedFinalA > amountAIn, \"Arbitrage: No profitable opportunity based on simulation\") */\n      tag_127\n      jumpi\n      mload(0x40)\n      0x08c379a000000000000000000000000000000000000000000000000000000000\n      dup2\n      mstore\n      0x04\n      add\n      tag_128\n      swap1\n      tag_65\n      jump\t// in\n    tag_128:\n      mload(0x40)\n      dup1\n      swap2\n      sub\n      swap1\n      revert\n    tag_127:\n        /* \"contracts/Arbitrage.sol\":5505:5514  minProfit */\n      dup9\n        /* \"contracts/Arbitrage.sol\":5492:5501  amountAIn */\n      dup11\n        /* \"contracts/Arbitrage.sol\":5474:5489  simulatedFinalA */\n      dup3\n        /* \"contracts/Arbitrage.sol\":5474:5501  simulatedFinalA - amountAIn */\n      tag_129\n      swap2\n      swap1\n      tag_67\n      jump\t// in\n    tag_129:\n        /* \"contracts/Arbitrage.sol\":5474:5514  simulatedFinalA - amountAIn >= minProfit */\n      lt\n      iszero\n        /* \"contracts/Arbitrage.sol\":5466:5577  require(simulatedFinalA - amountAIn >= minProfit, \"Arbitrage: Expected profit does not meet minimum threshold\") */\n      tag_130\n      jumpi\n      mload(0x40)\n      0x08c379a000000000000000000000000000000000000000000000000000000000\n      dup2\n      mstore\n      0x04\n      add\n      tag_131\n      swap1\n      tag_70\n      jump\t// in\n    tag_131:\n      mload(0x40)\n      dup1\n      swap2\n      sub\n      swap1\n      revert\n    tag_130:\n        /* \"contracts/Arbitrage.sol\":5641:5647  tokenA */\n      0x02\n      0x00\n      swap1\n      sload\n      swap1\n      0x0100\n      exp\n      swap1\n      div\n      0xffffffffffffffffffffffffffffffffffffffff\n      and\n        /* \"contracts/Arbitrage.sol\":5641:5660  tokenA.transferFrom */\n      0xffffffffffffffffffffffffffffffffffffffff\n      and\n      0x23b872dd\n        /* \"contracts/Arbitrage.sol\":5661:5671  msg.sender */\n      caller\n        /* \"contracts/Arbitrage.sol\":5681:5685  this */\n      address\n        /* \"contracts/Arbitrage.sol\":5688:5697  amountAIn */\n      dup14\n        /* \"contracts/Arbitrage.sol\":5641:5698  tokenA.transferFrom(msg.sender, address(this), amountAIn) */\n      mload(0x40)\n      dup5\n      0xffffffff\n      and\n      0xe0\n      shl\n      dup2\n      mstore\n      0x04\n      add\n      tag_132\n      swap4\n      swap3\n      swap2\n      swap1\n      tag_72\n      jump\t// in\n    tag_132:\n      0x20\n      mload(0x40)\n      dup1\n      dup4\n      sub\n      dup2\n      0x00\n      dup8\n      gas\n      call\n      iszero\n      dup1\n      iszero\n      tag_134\n      jumpi\n      returndatasize\n      0x00\n      dup1\n      returndatacopy\n      revert(0x00, returndatasize)\n    tag_134:\n      pop\n      pop\n      pop\n      pop\n      mload(0x40)\n      returndatasize\n      not(0x1f)\n      0x1f\n      dup3\n      add\n      and\n      dup3\n      add\n      dup1\n      0x40\n      mstore\n      pop\n      dup2\n      add\n      swap1\n      tag_135\n      swap2\n      swap1\n      tag_76\n      jump\t// in\n    tag_135:\n        /* \"contracts/Arbitrage.sol\":5633:5739  require(tokenA.transferFrom(msg.sender, address(this), amountAIn), \"Arbitrage: Transfer of TokenA failed\") */\n      tag_136\n      jumpi\n      mload(0x40)\n      0x08c379a000000000000000000000000000000000000000000000000000000000\n      dup2\n      mstore\n      0x04\n      add\n      tag_137\n      swap1\n      tag_138\n      jump\t// in\n    tag_137:\n      mload(0x40)\n      dup1\n      swap2\n      sub\n      swap1\n      revert\n    tag_136:\n        /* \"contracts/Arbitrage.sol\":5817:5821  dex1 */\n      0x00\n      dup1\n      sload\n      swap1\n      0x0100\n      exp\n      swap1\n      div\n      0xffffffffffffffffffffffffffffffffffffffff\n      and\n        /* \"contracts/Arbitrage.sol\":5812:5842  IDEX(dex1).swapTokenAForTokenB */\n      0xffffffffffffffffffffffffffffffffffffffff\n      and\n      0x507b0e6b\n        /* \"contracts/Arbitrage.sol\":5843:5852  amountAIn */\n      dup12\n        /* \"contracts/Arbitrage.sol\":5812:5853  IDEX(dex1).swapTokenAForTokenB(amountAIn) */\n      mload(0x40)\n      dup3\n      0xffffffff\n      and\n      0xe0\n      shl\n      dup2\n      mstore\n      0x04\n      add\n      tag_139\n      swap2\n      swap1\n      tag_16\n      jump\t// in\n    tag_139:\n      0x00\n      mload(0x40)\n      dup1\n      dup4\n      sub\n      dup2\n      0x00\n      dup8\n      dup1\n      extcodesize\n      iszero\n      dup1\n      iszero\n      tag_140\n      jumpi\n      0x00\n      dup1\n      revert\n    tag_140:\n      pop\n      gas\n      call\n      iszero\n      dup1\n      iszero\n      tag_142\n      jumpi\n      returndatasize\n      0x00\n      dup1\n      returndatacopy\n      revert(0x00, returndatasize)\n    tag_142:\n      pop\n      pop\n      pop\n      pop\n        /* \"contracts/Arbitrage.sol\":5919:5940  uint256 tokenBBalance */\n      0x00\n        /* \"contracts/Arbitrage.sol\":5943:5949  tokenB */\n      0x03\n      0x00\n      swap1\n      sload\n      swap1\n      0x0100\n      exp\n      swap1\n      div\n      0xffffffffffffffffffffffffffffffffffffffff\n      and\n        /* \"contracts/Arbitrage.sol\":5943:5959  tokenB.balanceOf */\n      0xffffffffffffffffffffffffffffffffffffffff\n      and\n      0x70a08231\n        /* \"contracts/Arbitrage.sol\":5968:5972  this */\n      address\n        /* \"contracts/Arbitrage.sol\":5943:5974  tokenB.balanceOf(address(this)) */\n      mload(0x40)\n      dup3\n      0xffffffff\n      and\n      0xe0\n      shl\n      dup2\n      mstore\n      0x04\n      add\n      tag_143\n      swap2\n      swap1\n      tag_33\n      jump\t// in\n    tag_143:\n      0x20\n      mload(0x40)\n      dup1\n      dup4\n      sub\n      dup2\n      dup7\n      gas\n      staticcall\n      iszero\n      dup1\n      iszero\n      tag_145\n      jumpi\n      returndatasize\n      0x00\n      dup1\n      returndatacopy\n      revert(0x00, returndatasize)\n    tag_145:\n      pop\n      pop\n      pop\n      pop\n      mload(0x40)\n      returndatasize\n      not(0x1f)\n      0x1f\n      dup3\n      add\n      and\n      dup3\n      add\n      dup1\n      0x40\n      mstore\n      pop\n      dup2\n      add\n      swap1\n      tag_146\n      swap2\n      swap1\n      tag_88\n      jump\t// in\n    tag_146:\n        /* \"contracts/Arbitrage.sol\":5919:5974  uint256 tokenBBalance = tokenB.balanceOf(address(this)) */\n      swap1\n      pop\n        /* \"contracts/Arbitrage.sol\":6008:6009  0 */\n      0x00\n        /* \"contracts/Arbitrage.sol\":5992:6005  tokenBBalance */\n      dup2\n        /* \"contracts/Arbitrage.sol\":5992:6009  tokenBBalance > 0 */\n      gt\n        /* \"contracts/Arbitrage.sol\":5984:6059  require(tokenBBalance > 0, \"Arbitrage: Swap on DEX1 did not return TokenB\") */\n      tag_147\n      jumpi\n      mload(0x40)\n      0x08c379a000000000000000000000000000000000000000000000000000000000\n      dup2\n      mstore\n      0x04\n      add\n      tag_148\n      swap1\n      tag_149\n      jump\t// in\n    tag_148:\n      mload(0x40)\n      dup1\n      swap2\n      sub\n      swap1\n      revert\n    tag_147:\n        /* \"contracts/Arbitrage.sol\":6138:6142  dex2 */\n      0x01\n      0x00\n      swap1\n      sload\n      swap1\n      0x0100\n      exp\n      swap1\n      div\n      0xffffffffffffffffffffffffffffffffffffffff\n      and\n        /* \"contracts/Arbitrage.sol\":6133:6163  IDEX(dex2).swapTokenBForTokenA */\n      0xffffffffffffffffffffffffffffffffffffffff\n      and\n      0xad56238d\n        /* \"contracts/Arbitrage.sol\":6164:6177  tokenBBalance */\n      dup3\n        /* \"contracts/Arbitrage.sol\":6133:6178  IDEX(dex2).swapTokenBForTokenA(tokenBBalance) */\n      mload(0x40)\n      dup3\n      0xffffffff\n      and\n      0xe0\n      shl\n      dup2\n      mstore\n      0x04\n      add\n      tag_150\n      swap2\n      swap1\n      tag_16\n      jump\t// in\n    tag_150:\n      0x00\n      mload(0x40)\n      dup1\n      dup4\n      sub\n      dup2\n      0x00\n      dup8\n      dup1\n      extcodesize\n      iszero\n      dup1\n      iszero\n      tag_151\n      jumpi\n      0x00\n      dup1\n      revert\n    tag_151:\n      pop\n      gas\n      call\n      iszero\n      dup1\n      iszero\n      tag_153\n      jumpi\n      returndatasize\n      0x00\n      dup1\n      returndatacopy\n      revert(0x00, returndatasize)\n    tag_153:\n      pop\n      pop\n      pop\n      pop\n        /* \"contracts/Arbitrage.sol\":6241:6247  tokenA */\n      0x02\n      0x00\n      swap1\n      sload\n      swap1\n      0x0100\n      exp\n      swap1\n      div\n      0xffffffffffffffffffffffffffffffffffffffff\n      and\n        /* \"contracts/Arbitrage.sol\":6241:6257  tokenA.balanceOf */\n      0xffffffffffffffffffffffffffffffffffffffff\n      and\n      0x70a08231\n        /* \"contracts/Arbitrage.sol\":6266:6270  this */\n      address\n        /* \"contracts/Arbitrage.sol\":6241:6272  tokenA.balanceOf(address(this)) */\n      mload(0x40)\n      dup3\n      0xffffffff\n      and\n      0xe0\n      shl\n      dup2\n      mstore\n      0x04\n      add\n      tag_154\n      swap2\n      swap1\n      tag_33\n      jump\t// in\n    tag_154:\n      0x20\n      mload(0x40)\n      dup1\n      dup4\n      sub\n      dup2\n      dup7\n      gas\n      staticcall\n      iszero\n      dup1\n      iszero\n      tag_156\n      jumpi\n      returndatasize\n      0x00\n      dup1\n      returndatacopy\n      revert(0x00, returndatasize)\n    tag_156:\n      pop\n      pop\n      pop\n      pop\n      mload(0x40)\n      returndatasize\n      not(0x1f)\n      0x1f\n      dup3\n      add\n      and\n      dup3\n      add\n      dup1\n      0x40\n      mstore\n      pop\n      dup2\n      add\n      swap1\n      tag_157\n      swap2\n      swap1\n      tag_88\n      jump\t// in\n    tag_157:\n        /* \"contracts/Arbitrage.sol\":6232:6272  finalA = tokenA.balanceOf(address(this)) */\n      swap9\n      pop\n        /* \"contracts/Arbitrage.sol\":6299:6308  amountAIn */\n      dup11\n        /* \"contracts/Arbitrage.sol\":6290:6296  finalA */\n      dup10\n        /* \"contracts/Arbitrage.sol\":6290:6308  finalA > amountAIn */\n      gt\n        /* \"contracts/Arbitrage.sol\":6282:6359  require(finalA > amountAIn, \"Arbitrage: No profit made in A->B->A direction\") */\n      tag_158\n      jumpi\n      mload(0x40)\n      0x08c379a000000000000000000000000000000000000000000000000000000000\n      dup2\n      mstore\n      0x04\n      add\n      tag_159\n      swap1\n      tag_160\n      jump\t// in\n    tag_159:\n      mload(0x40)\n      dup1\n      swap2\n      sub\n      swap1\n      revert\n    tag_158:\n        /* \"contracts/Arbitrage.sol\":6388:6397  amountAIn */\n      dup11\n        /* \"contracts/Arbitrage.sol\":6379:6385  finalA */\n      dup10\n        /* \"contracts/Arbitrage.sol\":6379:6397  finalA - amountAIn */\n      tag_161\n      swap2\n      swap1\n      tag_67\n      jump\t// in\n    tag_161:\n        /* \"contracts/Arbitrage.sol\":6370:6397  profit = finalA - amountAIn */\n      swap8\n      pop\n        /* \"contracts/Arbitrage.sol\":6425:6434  minProfit */\n      dup10\n        /* \"contracts/Arbitrage.sol\":6415:6421  profit */\n      dup9\n        /* \"contracts/Arbitrage.sol\":6415:6434  profit >= minProfit */\n      lt\n      iszero\n        /* \"contracts/Arbitrage.sol\":6407:6488  require(profit >= minProfit, \"Arbitrage: Profit does not meet minimum threshold\") */\n      tag_162\n      jumpi\n      mload(0x40)\n      0x08c379a000000000000000000000000000000000000000000000000000000000\n      dup2\n      mstore\n      0x04\n      add\n      tag_163\n      swap1\n      tag_106\n      jump\t// in\n    tag_163:\n      mload(0x40)\n      dup1\n      swap2\n      sub\n      swap1\n      revert\n    tag_162:\n        /* \"contracts/Arbitrage.sol\":6588:6594  tokenA */\n      0x02\n      0x00\n      swap1\n      sload\n      swap1\n      0x0100\n      exp\n      swap1\n      div\n      0xffffffffffffffffffffffffffffffffffffffff\n      and\n        /* \"contracts/Arbitrage.sol\":6588:6603  tokenA.transfer */\n      0xffffffffffffffffffffffffffffffffffffffff\n      and\n      0xa9059cbb\n        /* \"contracts/Arbitrage.sol\":6604:6614  msg.sender */\n      caller\n        /* \"contracts/Arbitrage.sol\":6616:6622  finalA */\n      dup12\n        /* \"contracts/Arbitrage.sol\":6588:6623  tokenA.transfer(msg.sender, finalA) */\n      mload(0x40)\n      dup4\n      0xffffffff\n      and\n      0xe0\n      shl\n      dup2\n      mstore\n      0x04\n      add\n      tag_164\n      swap3\n      swap2\n      swap1\n      tag_108\n      jump\t// in\n    tag_164:\n      0x20\n      mload(0x40)\n      dup1\n      dup4\n      sub\n      dup2\n      0x00\n      dup8\n      gas\n      call\n      iszero\n      dup1\n      iszero\n      tag_166\n      jumpi\n      returndatasize\n      0x00\n      dup1\n      returndatacopy\n      revert(0x00, returndatasize)\n    tag_166:\n      pop\n      pop\n      pop\n      pop\n      mload(0x40)\n      returndatasize\n      not(0x1f)\n      0x1f\n      dup3\n      add\n      and\n      dup3\n      add\n      dup1\n      0x40\n      mstore\n      pop\n      dup2\n      add\n      swap1\n      tag_167\n      swap2\n      swap1\n      tag_76\n      jump\t// in\n    tag_167:\n        /* \"contracts/Arbitrage.sol\":6580:6669  require(tokenA.transfer(msg.sender, finalA), \"Arbitrage: Transfer of TokenA back failed\") */\n      tag_168\n      jumpi\n      mload(0x40)\n      0x08c379a000000000000000000000000000000000000000000000000000000000\n      dup2\n      mstore\n      0x04\n      add\n      tag_169\n      swap1\n      tag_170\n      jump\t// in\n    tag_169:\n      mload(0x40)\n      dup1\n      swap2\n      sub\n      swap1\n      revert\n    tag_168:\n        /* \"contracts/Arbitrage.sol\":6774:6784  msg.sender */\n      caller\n        /* \"contracts/Arbitrage.sol\":6749:6804  ArbitrageExecutedAtoBtoA(msg.sender, amountAIn, profit) */\n      0xffffffffffffffffffffffffffffffffffffffff\n      and\n      0x71ad98c4c51f285f5fb12df8209d763304c7574624711bae9b20c1db5dae8d14\n        /* \"contracts/Arbitrage.sol\":6786:6795  amountAIn */\n      dup13\n        /* \"contracts/Arbitrage.sol\":6797:6803  profit */\n      dup11\n        /* \"contracts/Arbitrage.sol\":6749:6804  ArbitrageExecutedAtoBtoA(msg.sender, amountAIn, profit) */\n      mload(0x40)\n      tag_171\n      swap3\n      swap2\n      swap1\n      tag_26\n      jump\t// in\n    tag_171:\n      mload(0x40)\n      dup1\n      swap2\n      sub\n      swap1\n      log2\n        /* \"contracts/Arbitrage.sol\":4738:6811  {... */\n      pop\n      pop\n      pop\n      pop\n      pop\n      pop\n      pop\n        /* \"contracts/Arbitrage.sol\":4624:6811  function arbitrageAtoBtoA(uint256 amountAIn, uint256 minProfit) external returns (uint256 finalA, uint256 profit) {... */\n      swap3\n      pop\n      swap3\n      swap1\n      pop\n      jump\t// out\n        /* \"#utility.yul\":88:205   */\n    tag_173:\n        /* \"#utility.yul\":197:198   */\n      0x00\n        /* \"#utility.yul\":194:195   */\n      dup1\n        /* \"#utility.yul\":187:199   */\n      revert\n        /* \"#utility.yul\":334:411   */\n    tag_175:\n        /* \"#utility.yul\":371:378   */\n      0x00\n        /* \"#utility.yul\":400:405   */\n      dup2\n        /* \"#utility.yul\":389:405   */\n      swap1\n      pop\n        /* \"#utility.yul\":334:411   */\n      swap2\n      swap1\n      pop\n      jump\t// out\n        /* \"#utility.yul\":417:539   */\n    tag_176:\n        /* \"#utility.yul\":490:514   */\n      tag_224\n        /* \"#utility.yul\":508:513   */\n      dup2\n        /* \"#utility.yul\":490:514   */\n      tag_175\n      jump\t// in\n    tag_224:\n        /* \"#utility.yul\":483:488   */\n      dup2\n        /* \"#utility.yul\":480:515   */\n      eq\n        /* \"#utility.yul\":470:533   */\n      tag_225\n      jumpi\n        /* \"#utility.yul\":529:530   */\n      0x00\n        /* \"#utility.yul\":526:527   */\n      dup1\n        /* \"#utility.yul\":519:531   */\n      revert\n        /* \"#utility.yul\":470:533   */\n    tag_225:\n        /* \"#utility.yul\":417:539   */\n      pop\n      jump\t// out\n        /* \"#utility.yul\":545:684   */\n    tag_177:\n        /* \"#utility.yul\":591:596   */\n      0x00\n        /* \"#utility.yul\":629:635   */\n      dup2\n        /* \"#utility.yul\":616:636   */\n      calldataload\n        /* \"#utility.yul\":607:636   */\n      swap1\n      pop\n        /* \"#utility.yul\":645:678   */\n      tag_227\n        /* \"#utility.yul\":672:677   */\n      dup2\n        /* \"#utility.yul\":645:678   */\n      tag_176\n      jump\t// in\n    tag_227:\n        /* \"#utility.yul\":545:684   */\n      swap3\n      swap2\n      pop\n      pop\n      jump\t// out\n        /* \"#utility.yul\":690:1309   */\n    tag_13:\n        /* \"#utility.yul\":767:773   */\n      0x00\n        /* \"#utility.yul\":775:781   */\n      dup1\n        /* \"#utility.yul\":783:789   */\n      0x00\n        /* \"#utility.yul\":832:834   */\n      0x60\n        /* \"#utility.yul\":820:829   */\n      dup5\n        /* \"#utility.yul\":811:818   */\n      dup7\n        /* \"#utility.yul\":807:830   */\n      sub\n        /* \"#utility.yul\":803:835   */\n      slt\n        /* \"#utility.yul\":800:919   */\n      iszero\n      tag_229\n      jumpi\n        /* \"#utility.yul\":838:917   */\n      tag_230\n      tag_173\n      jump\t// in\n    tag_230:\n        /* \"#utility.yul\":800:919   */\n    tag_229:\n        /* \"#utility.yul\":958:959   */\n      0x00\n        /* \"#utility.yul\":983:1036   */\n      tag_231\n        /* \"#utility.yul\":1028:1035   */\n      dup7\n        /* \"#utility.yul\":1019:1025   */\n      dup3\n        /* \"#utility.yul\":1008:1017   */\n      dup8\n        /* \"#utility.yul\":1004:1026   */\n      add\n        /* \"#utility.yul\":983:1036   */\n      tag_177\n      jump\t// in\n    tag_231:\n        /* \"#utility.yul\":973:1036   */\n      swap4\n      pop\n        /* \"#utility.yul\":929:1046   */\n      pop\n        /* \"#utility.yul\":1085:1087   */\n      0x20\n        /* \"#utility.yul\":1111:1164   */\n      tag_232\n        /* \"#utility.yul\":1156:1163   */\n      dup7\n        /* \"#utility.yul\":1147:1153   */\n      dup3\n        /* \"#utility.yul\":1136:1145   */\n      dup8\n        /* \"#utility.yul\":1132:1154   */\n      add\n        /* \"#utility.yul\":1111:1164   */\n      tag_177\n      jump\t// in\n    tag_232:\n        /* \"#utility.yul\":1101:1164   */\n      swap3\n      pop\n        /* \"#utility.yul\":1056:1174   */\n      pop\n        /* \"#utility.yul\":1213:1215   */\n      0x40\n        /* \"#utility.yul\":1239:1292   */\n      tag_233\n        /* \"#utility.yul\":1284:1291   */\n      dup7\n        /* \"#utility.yul\":1275:1281   */\n      dup3\n        /* \"#utility.yul\":1264:1273   */\n      dup8\n        /* \"#utility.yul\":1260:1282   */\n      add\n        /* \"#utility.yul\":1239:1292   */\n      tag_177\n      jump\t// in\n    tag_233:\n        /* \"#utility.yul\":1229:1292   */\n      swap2\n      pop\n        /* \"#utility.yul\":1184:1302   */\n      pop\n        /* \"#utility.yul\":690:1309   */\n      swap3\n      pop\n      swap3\n      pop\n      swap3\n      jump\t// out\n        /* \"#utility.yul\":1315:1433   */\n    tag_178:\n        /* \"#utility.yul\":1402:1426   */\n      tag_235\n        /* \"#utility.yul\":1420:1425   */\n      dup2\n        /* \"#utility.yul\":1402:1426   */\n      tag_175\n      jump\t// in\n    tag_235:\n        /* \"#utility.yul\":1397:1400   */\n      dup3\n        /* \"#utility.yul\":1390:1427   */\n      mstore\n        /* \"#utility.yul\":1315:1433   */\n      pop\n      pop\n      jump\t// out\n        /* \"#utility.yul\":1439:1661   */\n    tag_16:\n        /* \"#utility.yul\":1532:1536   */\n      0x00\n        /* \"#utility.yul\":1570:1572   */\n      0x20\n        /* \"#utility.yul\":1559:1568   */\n      dup3\n        /* \"#utility.yul\":1555:1573   */\n      add\n        /* \"#utility.yul\":1547:1573   */\n      swap1\n      pop\n        /* \"#utility.yul\":1583:1654   */\n      tag_237\n        /* \"#utility.yul\":1651:1652   */\n      0x00\n        /* \"#utility.yul\":1640:1649   */\n      dup4\n        /* \"#utility.yul\":1636:1653   */\n      add\n        /* \"#utility.yul\":1627:1633   */\n      dup5\n        /* \"#utility.yul\":1583:1654   */\n      tag_178\n      jump\t// in\n    tag_237:\n        /* \"#utility.yul\":1439:1661   */\n      swap3\n      swap2\n      pop\n      pop\n      jump\t// out\n        /* \"#utility.yul\":1667:1793   */\n    tag_179:\n        /* \"#utility.yul\":1704:1711   */\n      0x00\n        /* \"#utility.yul\":1744:1786   */\n      0xffffffffffffffffffffffffffffffffffffffff\n        /* \"#utility.yul\":1737:1742   */\n      dup3\n        /* \"#utility.yul\":1733:1787   */\n      and\n        /* \"#utility.yul\":1722:1787   */\n      swap1\n      pop\n        /* \"#utility.yul\":1667:1793   */\n      swap2\n      swap1\n      pop\n      jump\t// out\n        /* \"#utility.yul\":1799:1859   */\n    tag_180:\n        /* \"#utility.yul\":1827:1830   */\n      0x00\n        /* \"#utility.yul\":1848:1853   */\n      dup2\n        /* \"#utility.yul\":1841:1853   */\n      swap1\n      pop\n        /* \"#utility.yul\":1799:1859   */\n      swap2\n      swap1\n      pop\n      jump\t// out\n        /* \"#utility.yul\":1865:2007   */\n    tag_181:\n        /* \"#utility.yul\":1915:1924   */\n      0x00\n        /* \"#utility.yul\":1948:2001   */\n      tag_241\n        /* \"#utility.yul\":1966:2000   */\n      tag_242\n        /* \"#utility.yul\":1975:1999   */\n      tag_243\n        /* \"#utility.yul\":1993:1998   */\n      dup5\n        /* \"#utility.yul\":1975:1999   */\n      tag_179\n      jump\t// in\n    tag_243:\n        /* \"#utility.yul\":1966:2000   */\n      tag_180\n      jump\t// in\n    tag_242:\n        /* \"#utility.yul\":1948:2001   */\n      tag_179\n      jump\t// in\n    tag_241:\n        /* \"#utility.yul\":1935:2001   */\n      swap1\n      pop\n        /* \"#utility.yul\":1865:2007   */\n      swap2\n      swap1\n      pop\n      jump\t// out\n        /* \"#utility.yul\":2013:2139   */\n    tag_182:\n        /* \"#utility.yul\":2063:2072   */\n      0x00\n        /* \"#utility.yul\":2096:2133   */\n      tag_245\n        /* \"#utility.yul\":2127:2132   */\n      dup3\n        /* \"#utility.yul\":2096:2133   */\n      tag_181\n      jump\t// in\n    tag_245:\n        /* \"#utility.yul\":2083:2133   */\n      swap1\n      pop\n        /* \"#utility.yul\":2013:2139   */\n      swap2\n      swap1\n      pop\n      jump\t// out\n        /* \"#utility.yul\":2145:2284   */\n    tag_183:\n        /* \"#utility.yul\":2208:2217   */\n      0x00\n        /* \"#utility.yul\":2241:2278   */\n      tag_247\n        /* \"#utility.yul\":2272:2277   */\n      dup3\n        /* \"#utility.yul\":2241:2278   */\n      tag_182\n      jump\t// in\n    tag_247:\n        /* \"#utility.yul\":2228:2278   */\n      swap1\n      pop\n        /* \"#utility.yul\":2145:2284   */\n      swap2\n      swap1\n      pop\n      jump\t// out\n        /* \"#utility.yul\":2290:2447   */\n    tag_184:\n        /* \"#utility.yul\":2390:2440   */\n      tag_249\n        /* \"#utility.yul\":2434:2439   */\n      dup2\n        /* \"#utility.yul\":2390:2440   */\n      tag_183\n      jump\t// in\n    tag_249:\n        /* \"#utility.yul\":2385:2388   */\n      dup3\n        /* \"#utility.yul\":2378:2441   */\n      mstore\n        /* \"#utility.yul\":2290:2447   */\n      pop\n      pop\n      jump\t// out\n        /* \"#utility.yul\":2453:2701   */\n    tag_20:\n        /* \"#utility.yul\":2559:2563   */\n      0x00\n        /* \"#utility.yul\":2597:2599   */\n      0x20\n        /* \"#utility.yul\":2586:2595   */\n      dup3\n        /* \"#utility.yul\":2582:2600   */\n      add\n        /* \"#utility.yul\":2574:2600   */\n      swap1\n      pop\n        /* \"#utility.yul\":2610:2694   */\n      tag_251\n        /* \"#utility.yul\":2691:2692   */\n      0x00\n        /* \"#utility.yul\":2680:2689   */\n      dup4\n        /* \"#utility.yul\":2676:2693   */\n      add\n        /* \"#utility.yul\":2667:2673   */\n      dup5\n        /* \"#utility.yul\":2610:2694   */\n      tag_184\n      jump\t// in\n    tag_251:\n        /* \"#utility.yul\":2453:2701   */\n      swap3\n      swap2\n      pop\n      pop\n      jump\t// out\n        /* \"#utility.yul\":2707:3181   */\n    tag_23:\n        /* \"#utility.yul\":2775:2781   */\n      0x00\n        /* \"#utility.yul\":2783:2789   */\n      dup1\n        /* \"#utility.yul\":2832:2834   */\n      0x40\n        /* \"#utility.yul\":2820:2829   */\n      dup4\n        /* \"#utility.yul\":2811:2818   */\n      dup6\n        /* \"#utility.yul\":2807:2830   */\n      sub\n        /* \"#utility.yul\":2803:2835   */\n      slt\n        /* \"#utility.yul\":2800:2919   */\n      iszero\n      tag_253\n      jumpi\n        /* \"#utility.yul\":2838:2917   */\n      tag_254\n      tag_173\n      jump\t// in\n    tag_254:\n        /* \"#utility.yul\":2800:2919   */\n    tag_253:\n        /* \"#utility.yul\":2958:2959   */\n      0x00\n        /* \"#utility.yul\":2983:3036   */\n      tag_255\n        /* \"#utility.yul\":3028:3035   */\n      dup6\n        /* \"#utility.yul\":3019:3025   */\n      dup3\n        /* \"#utility.yul\":3008:3017   */\n      dup7\n        /* \"#utility.yul\":3004:3026   */\n      add\n        /* \"#utility.yul\":2983:3036   */\n      tag_177\n      jump\t// in\n    tag_255:\n        /* \"#utility.yul\":2973:3036   */\n      swap3\n      pop\n        /* \"#utility.yul\":2929:3046   */\n      pop\n        /* \"#utility.yul\":3085:3087   */\n      0x20\n        /* \"#utility.yul\":3111:3164   */\n      tag_256\n        /* \"#utility.yul\":3156:3163   */\n      dup6\n        /* \"#utility.yul\":3147:3153   */\n      dup3\n        /* \"#utility.yul\":3136:3145   */\n      dup7\n        /* \"#utility.yul\":3132:3154   */\n      add\n        /* \"#utility.yul\":3111:3164   */\n      tag_177\n      jump\t// in\n    tag_256:\n        /* \"#utility.yul\":3101:3164   */\n      swap2\n      pop\n        /* \"#utility.yul\":3056:3174   */\n      pop\n        /* \"#utility.yul\":2707:3181   */\n      swap3\n      pop\n      swap3\n      swap1\n      pop\n      jump\t// out\n        /* \"#utility.yul\":3187:3519   */\n    tag_26:\n        /* \"#utility.yul\":3308:3312   */\n      0x00\n        /* \"#utility.yul\":3346:3348   */\n      0x40\n        /* \"#utility.yul\":3335:3344   */\n      dup3\n        /* \"#utility.yul\":3331:3349   */\n      add\n        /* \"#utility.yul\":3323:3349   */\n      swap1\n      pop\n        /* \"#utility.yul\":3359:3430   */\n      tag_258\n        /* \"#utility.yul\":3427:3428   */\n      0x00\n        /* \"#utility.yul\":3416:3425   */\n      dup4\n        /* \"#utility.yul\":3412:3429   */\n      add\n        /* \"#utility.yul\":3403:3409   */\n      dup6\n        /* \"#utility.yul\":3359:3430   */\n      tag_178\n      jump\t// in\n    tag_258:\n        /* \"#utility.yul\":3440:3512   */\n      tag_259\n        /* \"#utility.yul\":3508:3510   */\n      0x20\n        /* \"#utility.yul\":3497:3506   */\n      dup4\n        /* \"#utility.yul\":3493:3511   */\n      add\n        /* \"#utility.yul\":3484:3490   */\n      dup5\n        /* \"#utility.yul\":3440:3512   */\n      tag_178\n      jump\t// in\n    tag_259:\n        /* \"#utility.yul\":3187:3519   */\n      swap4\n      swap3\n      pop\n      pop\n      pop\n      jump\t// out\n        /* \"#utility.yul\":3525:3621   */\n    tag_185:\n        /* \"#utility.yul\":3562:3569   */\n      0x00\n        /* \"#utility.yul\":3591:3615   */\n      tag_261\n        /* \"#utility.yul\":3609:3614   */\n      dup3\n        /* \"#utility.yul\":3591:3615   */\n      tag_179\n      jump\t// in\n    tag_261:\n        /* \"#utility.yul\":3580:3615   */\n      swap1\n      pop\n        /* \"#utility.yul\":3525:3621   */\n      swap2\n      swap1\n      pop\n      jump\t// out\n        /* \"#utility.yul\":3627:3745   */\n    tag_186:\n        /* \"#utility.yul\":3714:3738   */\n      tag_263\n        /* \"#utility.yul\":3732:3737   */\n      dup2\n        /* \"#utility.yul\":3714:3738   */\n      tag_185\n      jump\t// in\n    tag_263:\n        /* \"#utility.yul\":3709:3712   */\n      dup3\n        /* \"#utility.yul\":3702:3739   */\n      mstore\n        /* \"#utility.yul\":3627:3745   */\n      pop\n      pop\n      jump\t// out\n        /* \"#utility.yul\":3751:3973   */\n    tag_33:\n        /* \"#utility.yul\":3844:3848   */\n      0x00\n        /* \"#utility.yul\":3882:3884   */\n      0x20\n        /* \"#utility.yul\":3871:3880   */\n      dup3\n        /* \"#utility.yul\":3867:3885   */\n      add\n        /* \"#utility.yul\":3859:3885   */\n      swap1\n      pop\n        /* \"#utility.yul\":3895:3966   */\n      tag_265\n        /* \"#utility.yul\":3963:3964   */\n      0x00\n        /* \"#utility.yul\":3952:3961   */\n      dup4\n        /* \"#utility.yul\":3948:3965   */\n      add\n        /* \"#utility.yul\":3939:3945   */\n      dup5\n        /* \"#utility.yul\":3895:3966   */\n      tag_186\n      jump\t// in\n    tag_265:\n        /* \"#utility.yul\":3751:3973   */\n      swap3\n      swap2\n      pop\n      pop\n      jump\t// out\n        /* \"#utility.yul\":3979:4159   */\n    tag_187:\n        /* \"#utility.yul\":4027:4104   */\n      0x4e487b7100000000000000000000000000000000000000000000000000000000\n        /* \"#utility.yul\":4024:4025   */\n      0x00\n        /* \"#utility.yul\":4017:4105   */\n      mstore\n        /* \"#utility.yul\":4124:4128   */\n      0x11\n        /* \"#utility.yul\":4121:4122   */\n      0x04\n        /* \"#utility.yul\":4114:4129   */\n      mstore\n        /* \"#utility.yul\":4148:4152   */\n      0x24\n        /* \"#utility.yul\":4145:4146   */\n      0x00\n        /* \"#utility.yul\":4138:4153   */\n      revert\n        /* \"#utility.yul\":4165:4575   */\n    tag_43:\n        /* \"#utility.yul\":4205:4212   */\n      0x00\n        /* \"#utility.yul\":4228:4248   */\n      tag_268\n        /* \"#utility.yul\":4246:4247   */\n      dup3\n        /* \"#utility.yul\":4228:4248   */\n      tag_175\n      jump\t// in\n    tag_268:\n        /* \"#utility.yul\":4223:4248   */\n      swap2\n      pop\n        /* \"#utility.yul\":4262:4282   */\n      tag_269\n        /* \"#utility.yul\":4280:4281   */\n      dup4\n        /* \"#utility.yul\":4262:4282   */\n      tag_175\n      jump\t// in\n    tag_269:\n        /* \"#utility.yul\":4257:4282   */\n      swap3\n      pop\n        /* \"#utility.yul\":4317:4318   */\n      dup3\n        /* \"#utility.yul\":4314:4315   */\n      dup3\n        /* \"#utility.yul\":4310:4319   */\n      mul\n        /* \"#utility.yul\":4339:4369   */\n      tag_270\n        /* \"#utility.yul\":4357:4368   */\n      dup2\n        /* \"#utility.yul\":4339:4369   */\n      tag_175\n      jump\t// in\n    tag_270:\n        /* \"#utility.yul\":4328:4369   */\n      swap2\n      pop\n        /* \"#utility.yul\":4518:4519   */\n      dup3\n        /* \"#utility.yul\":4509:4516   */\n      dup3\n        /* \"#utility.yul\":4505:4520   */\n      div\n        /* \"#utility.yul\":4502:4503   */\n      dup5\n        /* \"#utility.yul\":4499:4521   */\n      eq\n        /* \"#utility.yul\":4479:4480   */\n      dup4\n        /* \"#utility.yul\":4472:4481   */\n      iszero\n        /* \"#utility.yul\":4452:4535   */\n      or\n        /* \"#utility.yul\":4429:4568   */\n      tag_271\n      jumpi\n        /* \"#utility.yul\":4548:4566   */\n      tag_272\n      tag_187\n      jump\t// in\n    tag_272:\n        /* \"#utility.yul\":4429:4568   */\n    tag_271:\n        /* \"#utility.yul\":4213:4575   */\n      pop\n        /* \"#utility.yul\":4165:4575   */\n      swap3\n      swap2\n      pop\n      pop\n      jump\t// out\n        /* \"#utility.yul\":4581:4761   */\n    tag_188:\n        /* \"#utility.yul\":4629:4706   */\n      0x4e487b7100000000000000000000000000000000000000000000000000000000\n        /* \"#utility.yul\":4626:4627   */\n      0x00\n        /* \"#utility.yul\":4619:4707   */\n      mstore\n        /* \"#utility.yul\":4726:4730   */\n      0x12\n        /* \"#utility.yul\":4723:4724   */\n      0x04\n        /* \"#utility.yul\":4716:4731   */\n      mstore\n        /* \"#utility.yul\":4750:4754   */\n      0x24\n        /* \"#utility.yul\":4747:4748   */\n      0x00\n        /* \"#utility.yul\":4740:4755   */\n      revert\n        /* \"#utility.yul\":4767:4952   */\n    tag_45:\n        /* \"#utility.yul\":4807:4808   */\n      0x00\n        /* \"#utility.yul\":4824:4844   */\n      tag_275\n        /* \"#utility.yul\":4842:4843   */\n      dup3\n        /* \"#utility.yul\":4824:4844   */\n      tag_175\n      jump\t// in\n    tag_275:\n        /* \"#utility.yul\":4819:4844   */\n      swap2\n      pop\n        /* \"#utility.yul\":4858:4878   */\n      tag_276\n        /* \"#utility.yul\":4876:4877   */\n      dup4\n        /* \"#utility.yul\":4858:4878   */\n      tag_175\n      jump\t// in\n    tag_276:\n        /* \"#utility.yul\":4853:4878   */\n      swap3\n      pop\n        /* \"#utility.yul\":4897:4898   */\n      dup3\n        /* \"#utility.yul\":4887:4922   */\n      tag_277\n      jumpi\n        /* \"#utility.yul\":4902:4920   */\n      tag_278\n      tag_188\n      jump\t// in\n    tag_278:\n        /* \"#utility.yul\":4887:4922   */\n    tag_277:\n        /* \"#utility.yul\":4944:4945   */\n      dup3\n        /* \"#utility.yul\":4941:4942   */\n      dup3\n        /* \"#utility.yul\":4937:4946   */\n      div\n        /* \"#utility.yul\":4932:4946   */\n      swap1\n      pop\n        /* \"#utility.yul\":4767:4952   */\n      swap3\n      swap2\n      pop\n      pop\n      jump\t// out\n        /* \"#utility.yul\":4958:5149   */\n    tag_47:\n        /* \"#utility.yul\":4998:5001   */\n      0x00\n        /* \"#utility.yul\":5017:5037   */\n      tag_280\n        /* \"#utility.yul\":5035:5036   */\n      dup3\n        /* \"#utility.yul\":5017:5037   */\n      tag_175\n      jump\t// in\n    tag_280:\n        /* \"#utility.yul\":5012:5037   */\n      swap2\n      pop\n        /* \"#utility.yul\":5051:5071   */\n      tag_281\n        /* \"#utility.yul\":5069:5070   */\n      dup4\n        /* \"#utility.yul\":5051:5071   */\n      tag_175\n      jump\t// in\n    tag_281:\n        /* \"#utility.yul\":5046:5071   */\n      swap3\n      pop\n        /* \"#utility.yul\":5094:5095   */\n      dup3\n        /* \"#utility.yul\":5091:5092   */\n      dup3\n        /* \"#utility.yul\":5087:5096   */\n      add\n        /* \"#utility.yul\":5080:5096   */\n      swap1\n      pop\n        /* \"#utility.yul\":5115:5118   */\n      dup1\n        /* \"#utility.yul\":5112:5113   */\n      dup3\n        /* \"#utility.yul\":5109:5119   */\n      gt\n        /* \"#utility.yul\":5106:5142   */\n      iszero\n      tag_282\n      jumpi\n        /* \"#utility.yul\":5122:5140   */\n      tag_283\n      tag_187\n      jump\t// in\n    tag_283:\n        /* \"#utility.yul\":5106:5142   */\n    tag_282:\n        /* \"#utility.yul\":4958:5149   */\n      swap3\n      swap2\n      pop\n      pop\n      jump\t// out\n        /* \"#utility.yul\":5155:5324   */\n    tag_189:\n        /* \"#utility.yul\":5239:5250   */\n      0x00\n        /* \"#utility.yul\":5273:5279   */\n      dup3\n        /* \"#utility.yul\":5268:5271   */\n      dup3\n        /* \"#utility.yul\":5261:5280   */\n      mstore\n        /* \"#utility.yul\":5313:5317   */\n      0x20\n        /* \"#utility.yul\":5308:5311   */\n      dup3\n        /* \"#utility.yul\":5304:5318   */\n      add\n        /* \"#utility.yul\":5289:5318   */\n      swap1\n      pop\n        /* \"#utility.yul\":5155:5324   */\n      swap3\n      swap2\n      pop\n      pop\n      jump\t// out\n        /* \"#utility.yul\":5330:5499   */\n    tag_190:\n        /* \"#utility.yul\":5470:5491   */\n      0x4361706974616c206d757374206265203e203000000000000000000000000000\n        /* \"#utility.yul\":5466:5467   */\n      0x00\n        /* \"#utility.yul\":5458:5464   */\n      dup3\n        /* \"#utility.yul\":5454:5468   */\n      add\n        /* \"#utility.yul\":5447:5492   */\n      mstore\n        /* \"#utility.yul\":5330:5499   */\n      pop\n      jump\t// out\n        /* \"#utility.yul\":5505:5871   */\n    tag_191:\n        /* \"#utility.yul\":5647:5650   */\n      0x00\n        /* \"#utility.yul\":5668:5735   */\n      tag_287\n        /* \"#utility.yul\":5732:5734   */\n      0x13\n        /* \"#utility.yul\":5727:5730   */\n      dup4\n        /* \"#utility.yul\":5668:5735   */\n      tag_189\n      jump\t// in\n    tag_287:\n        /* \"#utility.yul\":5661:5735   */\n      swap2\n      pop\n        /* \"#utility.yul\":5744:5837   */\n      tag_288\n        /* \"#utility.yul\":5833:5836   */\n      dup3\n        /* \"#utility.yul\":5744:5837   */\n      tag_190\n      jump\t// in\n    tag_288:\n        /* \"#utility.yul\":5862:5864   */\n      0x20\n        /* \"#utility.yul\":5857:5860   */\n      dup3\n        /* \"#utility.yul\":5853:5865   */\n      add\n        /* \"#utility.yul\":5846:5865   */\n      swap1\n      pop\n        /* \"#utility.yul\":5505:5871   */\n      swap2\n      swap1\n      pop\n      jump\t// out\n        /* \"#utility.yul\":5877:6296   */\n    tag_53:\n        /* \"#utility.yul\":6043:6047   */\n      0x00\n        /* \"#utility.yul\":6081:6083   */\n      0x20\n        /* \"#utility.yul\":6070:6079   */\n      dup3\n        /* \"#utility.yul\":6066:6084   */\n      add\n        /* \"#utility.yul\":6058:6084   */\n      swap1\n      pop\n        /* \"#utility.yul\":6130:6139   */\n      dup2\n        /* \"#utility.yul\":6124:6128   */\n      dup2\n        /* \"#utility.yul\":6120:6140   */\n      sub\n        /* \"#utility.yul\":6116:6117   */\n      0x00\n        /* \"#utility.yul\":6105:6114   */\n      dup4\n        /* \"#utility.yul\":6101:6118   */\n      add\n        /* \"#utility.yul\":6094:6141   */\n      mstore\n        /* \"#utility.yul\":6158:6289   */\n      tag_290\n        /* \"#utility.yul\":6284:6288   */\n      dup2\n        /* \"#utility.yul\":6158:6289   */\n      tag_191\n      jump\t// in\n    tag_290:\n        /* \"#utility.yul\":6150:6289   */\n      swap1\n      pop\n        /* \"#utility.yul\":5877:6296   */\n      swap2\n      swap1\n      pop\n      jump\t// out\n        /* \"#utility.yul\":6302:6445   */\n    tag_192:\n        /* \"#utility.yul\":6359:6364   */\n      0x00\n        /* \"#utility.yul\":6390:6396   */\n      dup2\n        /* \"#utility.yul\":6384:6397   */\n      mload\n        /* \"#utility.yul\":6375:6397   */\n      swap1\n      pop\n        /* \"#utility.yul\":6406:6439   */\n      tag_292\n        /* \"#utility.yul\":6433:6438   */\n      dup2\n        /* \"#utility.yul\":6406:6439   */\n      tag_176\n      jump\t// in\n    tag_292:\n        /* \"#utility.yul\":6302:6445   */\n      swap3\n      swap2\n      pop\n      pop\n      jump\t// out\n        /* \"#utility.yul\":6451:6958   */\n    tag_57:\n        /* \"#utility.yul\":6530:6536   */\n      0x00\n        /* \"#utility.yul\":6538:6544   */\n      dup1\n        /* \"#utility.yul\":6587:6589   */\n      0x40\n        /* \"#utility.yul\":6575:6584   */\n      dup4\n        /* \"#utility.yul\":6566:6573   */\n      dup6\n        /* \"#utility.yul\":6562:6585   */\n      sub\n        /* \"#utility.yul\":6558:6590   */\n      slt\n        /* \"#utility.yul\":6555:6674   */\n      iszero\n      tag_294\n      jumpi\n        /* \"#utility.yul\":6593:6672   */\n      tag_295\n      tag_173\n      jump\t// in\n    tag_295:\n        /* \"#utility.yul\":6555:6674   */\n    tag_294:\n        /* \"#utility.yul\":6713:6714   */\n      0x00\n        /* \"#utility.yul\":6738:6802   */\n      tag_296\n        /* \"#utility.yul\":6794:6801   */\n      dup6\n        /* \"#utility.yul\":6785:6791   */\n      dup3\n        /* \"#utility.yul\":6774:6783   */\n      dup7\n        /* \"#utility.yul\":6770:6792   */\n      add\n        /* \"#utility.yul\":6738:6802   */\n      tag_192\n      jump\t// in\n    tag_296:\n        /* \"#utility.yul\":6728:6802   */\n      swap3\n      pop\n        /* \"#utility.yul\":6684:6812   */\n      pop\n        /* \"#utility.yul\":6851:6853   */\n      0x20\n        /* \"#utility.yul\":6877:6941   */\n      tag_297\n        /* \"#utility.yul\":6933:6940   */\n      dup6\n        /* \"#utility.yul\":6924:6930   */\n      dup3\n        /* \"#utility.yul\":6913:6922   */\n      dup7\n        /* \"#utility.yul\":6909:6931   */\n      add\n        /* \"#utility.yul\":6877:6941   */\n      tag_192\n      jump\t// in\n    tag_297:\n        /* \"#utility.yul\":6867:6941   */\n      swap2\n      pop\n        /* \"#utility.yul\":6822:6951   */\n      pop\n        /* \"#utility.yul\":6451:6958   */\n      swap3\n      pop\n      swap3\n      swap1\n      pop\n      jump\t// out\n        /* \"#utility.yul\":6964:7207   */\n    tag_193:\n        /* \"#utility.yul\":7104:7138   */\n      0x4172626974726167653a204e6f2070726f66697461626c65206f70706f727475\n        /* \"#utility.yul\":7100:7101   */\n      0x00\n        /* \"#utility.yul\":7092:7098   */\n      dup3\n        /* \"#utility.yul\":7088:7102   */\n      add\n        /* \"#utility.yul\":7081:7139   */\n      mstore\n        /* \"#utility.yul\":7173:7199   */\n      0x6e697479206261736564206f6e2073696d756c6174696f6e0000000000000000\n        /* \"#utility.yul\":7168:7170   */\n      0x20\n        /* \"#utility.yul\":7160:7166   */\n      dup3\n        /* \"#utility.yul\":7156:7171   */\n      add\n        /* \"#utility.yul\":7149:7200   */\n      mstore\n        /* \"#utility.yul\":6964:7207   */\n      pop\n      jump\t// out\n        /* \"#utility.yul\":7213:7579   */\n    tag_194:\n        /* \"#utility.yul\":7355:7358   */\n      0x00\n        /* \"#utility.yul\":7376:7443   */\n      tag_300\n        /* \"#utility.yul\":7440:7442   */\n      0x38\n        /* \"#utility.yul\":7435:7438   */\n      dup4\n        /* \"#utility.yul\":7376:7443   */\n      tag_189\n      jump\t// in\n    tag_300:\n        /* \"#utility.yul\":7369:7443   */\n      swap2\n      pop\n        /* \"#utility.yul\":7452:7545   */\n      tag_301\n        /* \"#utility.yul\":7541:7544   */\n      dup3\n        /* \"#utility.yul\":7452:7545   */\n      tag_193\n      jump\t// in\n    tag_301:\n        /* \"#utility.yul\":7570:7572   */\n      0x40\n        /* \"#utility.yul\":7565:7568   */\n      dup3\n        /* \"#utility.yul\":7561:7573   */\n      add\n        /* \"#utility.yul\":7554:7573   */\n      swap1\n      pop\n        /* \"#utility.yul\":7213:7579   */\n      swap2\n      swap1\n      pop\n      jump\t// out\n        /* \"#utility.yul\":7585:8004   */\n    tag_65:\n        /* \"#utility.yul\":7751:7755   */\n      0x00\n        /* \"#utility.yul\":7789:7791   */\n      0x20\n        /* \"#utility.yul\":7778:7787   */\n      dup3\n        /* \"#utility.yul\":7774:7792   */\n      add\n        /* \"#utility.yul\":7766:7792   */\n      swap1\n      pop\n        /* \"#utility.yul\":7838:7847   */\n      dup2\n        /* \"#utility.yul\":7832:7836   */\n      dup2\n        /* \"#utility.yul\":7828:7848   */\n      sub\n        /* \"#utility.yul\":7824:7825   */\n      0x00\n        /* \"#utility.yul\":7813:7822   */\n      dup4\n        /* \"#utility.yul\":7809:7826   */\n      add\n        /* \"#utility.yul\":7802:7849   */\n      mstore\n        /* \"#utility.yul\":7866:7997   */\n      tag_303\n        /* \"#utility.yul\":7992:7996   */\n      dup2\n        /* \"#utility.yul\":7866:7997   */\n      tag_194\n      jump\t// in\n    tag_303:\n        /* \"#utility.yul\":7858:7997   */\n      swap1\n      pop\n        /* \"#utility.yul\":7585:8004   */\n      swap2\n      swap1\n      pop\n      jump\t// out\n        /* \"#utility.yul\":8010:8204   */\n    tag_67:\n        /* \"#utility.yul\":8050:8054   */\n      0x00\n        /* \"#utility.yul\":8070:8090   */\n      tag_305\n        /* \"#utility.yul\":8088:8089   */\n      dup3\n        /* \"#utility.yul\":8070:8090   */\n      tag_175\n      jump\t// in\n    tag_305:\n        /* \"#utility.yul\":8065:8090   */\n      swap2\n      pop\n        /* \"#utility.yul\":8104:8124   */\n      tag_306\n        /* \"#utility.yul\":8122:8123   */\n      dup4\n        /* \"#utility.yul\":8104:8124   */\n      tag_175\n      jump\t// in\n    tag_306:\n        /* \"#utility.yul\":8099:8124   */\n      swap3\n      pop\n        /* \"#utility.yul\":8148:8149   */\n      dup3\n        /* \"#utility.yul\":8145:8146   */\n      dup3\n        /* \"#utility.yul\":8141:8150   */\n      sub\n        /* \"#utility.yul\":8133:8150   */\n      swap1\n      pop\n        /* \"#utility.yul\":8172:8173   */\n      dup2\n        /* \"#utility.yul\":8166:8170   */\n      dup2\n        /* \"#utility.yul\":8163:8174   */\n      gt\n        /* \"#utility.yul\":8160:8197   */\n      iszero\n      tag_307\n      jumpi\n        /* \"#utility.yul\":8177:8195   */\n      tag_308\n      tag_187\n      jump\t// in\n    tag_308:\n        /* \"#utility.yul\":8160:8197   */\n    tag_307:\n        /* \"#utility.yul\":8010:8204   */\n      swap3\n      swap2\n      pop\n      pop\n      jump\t// out\n        /* \"#utility.yul\":8210:8455   */\n    tag_195:\n        /* \"#utility.yul\":8350:8384   */\n      0x4172626974726167653a2045787065637465642070726f66697420646f657320\n        /* \"#utility.yul\":8346:8347   */\n      0x00\n        /* \"#utility.yul\":8338:8344   */\n      dup3\n        /* \"#utility.yul\":8334:8348   */\n      add\n        /* \"#utility.yul\":8327:8385   */\n      mstore\n        /* \"#utility.yul\":8419:8447   */\n      0x6e6f74206d656574206d696e696d756d207468726573686f6c64000000000000\n        /* \"#utility.yul\":8414:8416   */\n      0x20\n        /* \"#utility.yul\":8406:8412   */\n      dup3\n        /* \"#utility.yul\":8402:8417   */\n      add\n        /* \"#utility.yul\":8395:8448   */\n      mstore\n        /* \"#utility.yul\":8210:8455   */\n      pop\n      jump\t// out\n        /* \"#utility.yul\":8461:8827   */\n    tag_196:\n        /* \"#utility.yul\":8603:8606   */\n      0x00\n        /* \"#utility.yul\":8624:8691   */\n      tag_311\n        /* \"#utility.yul\":8688:8690   */\n      0x3a\n        /* \"#utility.yul\":8683:8686   */\n      dup4\n        /* \"#utility.yul\":8624:8691   */\n      tag_189\n      jump\t// in\n    tag_311:\n        /* \"#utility.yul\":8617:8691   */\n      swap2\n      pop\n        /* \"#utility.yul\":8700:8793   */\n      tag_312\n        /* \"#utility.yul\":8789:8792   */\n      dup3\n        /* \"#utility.yul\":8700:8793   */\n      tag_195\n      jump\t// in\n    tag_312:\n        /* \"#utility.yul\":8818:8820   */\n      0x40\n        /* \"#utility.yul\":8813:8816   */\n      dup3\n        /* \"#utility.yul\":8809:8821   */\n      add\n        /* \"#utility.yul\":8802:8821   */\n      swap1\n      pop\n        /* \"#utility.yul\":8461:8827   */\n      swap2\n      swap1\n      pop\n      jump\t// out\n        /* \"#utility.yul\":8833:9252   */\n    tag_70:\n        /* \"#utility.yul\":8999:9003   */\n      0x00\n        /* \"#utility.yul\":9037:9039   */\n      0x20\n        /* \"#utility.yul\":9026:9035   */\n      dup3\n        /* \"#utility.yul\":9022:9040   */\n      add\n        /* \"#utility.yul\":9014:9040   */\n      swap1\n      pop\n        /* \"#utility.yul\":9086:9095   */\n      dup2\n        /* \"#utility.yul\":9080:9084   */\n      dup2\n        /* \"#utility.yul\":9076:9096   */\n      sub\n        /* \"#utility.yul\":9072:9073   */\n      0x00\n        /* \"#utility.yul\":9061:9070   */\n      dup4\n        /* \"#utility.yul\":9057:9074   */\n      add\n        /* \"#utility.yul\":9050:9097   */\n      mstore\n        /* \"#utility.yul\":9114:9245   */\n      tag_314\n        /* \"#utility.yul\":9240:9244   */\n      dup2\n        /* \"#utility.yul\":9114:9245   */\n      tag_196\n      jump\t// in\n    tag_314:\n        /* \"#utility.yul\":9106:9245   */\n      swap1\n      pop\n        /* \"#utility.yul\":8833:9252   */\n      swap2\n      swap1\n      pop\n      jump\t// out\n        /* \"#utility.yul\":9258:9700   */\n    tag_72:\n        /* \"#utility.yul\":9407:9411   */\n      0x00\n        /* \"#utility.yul\":9445:9447   */\n      0x60\n        /* \"#utility.yul\":9434:9443   */\n      dup3\n        /* \"#utility.yul\":9430:9448   */\n      add\n        /* \"#utility.yul\":9422:9448   */\n      swap1\n      pop\n        /* \"#utility.yul\":9458:9529   */\n      tag_316\n        /* \"#utility.yul\":9526:9527   */\n      0x00\n        /* \"#utility.yul\":9515:9524   */\n      dup4\n        /* \"#utility.yul\":9511:9528   */\n      add\n        /* \"#utility.yul\":9502:9508   */\n      dup7\n        /* \"#utility.yul\":9458:9529   */\n      tag_186\n      jump\t// in\n    tag_316:\n        /* \"#utility.yul\":9539:9611   */\n      tag_317\n        /* \"#utility.yul\":9607:9609   */\n      0x20\n        /* \"#utility.yul\":9596:9605   */\n      dup4\n        /* \"#utility.yul\":9592:9610   */\n      add\n        /* \"#utility.yul\":9583:9589   */\n      dup6\n        /* \"#utility.yul\":9539:9611   */\n      tag_186\n      jump\t// in\n    tag_317:\n        /* \"#utility.yul\":9621:9693   */\n      tag_318\n        /* \"#utility.yul\":9689:9691   */\n      0x40\n        /* \"#utility.yul\":9678:9687   */\n      dup4\n        /* \"#utility.yul\":9674:9692   */\n      add\n        /* \"#utility.yul\":9665:9671   */\n      dup5\n        /* \"#utility.yul\":9621:9693   */\n      tag_178\n      jump\t// in\n    tag_318:\n        /* \"#utility.yul\":9258:9700   */\n      swap5\n      swap4\n      pop\n      pop\n      pop\n      pop\n      jump\t// out\n        /* \"#utility.yul\":9706:9796   */\n    tag_197:\n        /* \"#utility.yul\":9740:9747   */\n      0x00\n        /* \"#utility.yul\":9783:9788   */\n      dup2\n        /* \"#utility.yul\":9776:9789   */\n      iszero\n        /* \"#utility.yul\":9769:9790   */\n      iszero\n        /* \"#utility.yul\":9758:9790   */\n      swap1\n      pop\n        /* \"#utility.yul\":9706:9796   */\n      swap2\n      swap1\n      pop\n      jump\t// out\n        /* \"#utility.yul\":9802:9918   */\n    tag_198:\n        /* \"#utility.yul\":9872:9893   */\n      tag_321\n        /* \"#utility.yul\":9887:9892   */\n      dup2\n        /* \"#utility.yul\":9872:9893   */\n      tag_197\n      jump\t// in\n    tag_321:\n        /* \"#utility.yul\":9865:9870   */\n      dup2\n        /* \"#utility.yul\":9862:9894   */\n      eq\n        /* \"#utility.yul\":9852:9912   */\n      tag_322\n      jumpi\n        /* \"#utility.yul\":9908:9909   */\n      0x00\n        /* \"#utility.yul\":9905:9906   */\n      dup1\n        /* \"#utility.yul\":9898:9910   */\n      revert\n        /* \"#utility.yul\":9852:9912   */\n    tag_322:\n        /* \"#utility.yul\":9802:9918   */\n      pop\n      jump\t// out\n        /* \"#utility.yul\":9924:10061   */\n    tag_199:\n        /* \"#utility.yul\":9978:9983   */\n      0x00\n        /* \"#utility.yul\":10009:10015   */\n      dup2\n        /* \"#utility.yul\":10003:10016   */\n      mload\n        /* \"#utility.yul\":9994:10016   */\n      swap1\n      pop\n        /* \"#utility.yul\":10025:10055   */\n      tag_324\n        /* \"#utility.yul\":10049:10054   */\n      dup2\n        /* \"#utility.yul\":10025:10055   */\n      tag_198\n      jump\t// in\n    tag_324:\n        /* \"#utility.yul\":9924:10061   */\n      swap3\n      swap2\n      pop\n      pop\n      jump\t// out\n        /* \"#utility.yul\":10067:10412   */\n    tag_76:\n        /* \"#utility.yul\":10134:10140   */\n      0x00\n        /* \"#utility.yul\":10183:10185   */\n      0x20\n        /* \"#utility.yul\":10171:10180   */\n      dup3\n        /* \"#utility.yul\":10162:10169   */\n      dup5\n        /* \"#utility.yul\":10158:10181   */\n      sub\n        /* \"#utility.yul\":10154:10186   */\n      slt\n        /* \"#utility.yul\":10151:10270   */\n      iszero\n      tag_326\n      jumpi\n        /* \"#utility.yul\":10189:10268   */\n      tag_327\n      tag_173\n      jump\t// in\n    tag_327:\n        /* \"#utility.yul\":10151:10270   */\n    tag_326:\n        /* \"#utility.yul\":10309:10310   */\n      0x00\n        /* \"#utility.yul\":10334:10395   */\n      tag_328\n        /* \"#utility.yul\":10387:10394   */\n      dup5\n        /* \"#utility.yul\":10378:10384   */\n      dup3\n        /* \"#utility.yul\":10367:10376   */\n      dup6\n        /* \"#utility.yul\":10363:10385   */\n      add\n        /* \"#utility.yul\":10334:10395   */\n      tag_199\n      jump\t// in\n    tag_328:\n        /* \"#utility.yul\":10324:10395   */\n      swap2\n      pop\n        /* \"#utility.yul\":10280:10405   */\n      pop\n        /* \"#utility.yul\":10067:10412   */\n      swap3\n      swap2\n      pop\n      pop\n      jump\t// out\n        /* \"#utility.yul\":10418:10641   */\n    tag_200:\n        /* \"#utility.yul\":10558:10592   */\n      0x4172626974726167653a205472616e73666572206f6620546f6b656e42206661\n        /* \"#utility.yul\":10554:10555   */\n      0x00\n        /* \"#utility.yul\":10546:10552   */\n      dup3\n        /* \"#utility.yul\":10542:10556   */\n      add\n        /* \"#utility.yul\":10535:10593   */\n      mstore\n        /* \"#utility.yul\":10627:10633   */\n      0x696c656400000000000000000000000000000000000000000000000000000000\n        /* \"#utility.yul\":10622:10624   */\n      0x20\n        /* \"#utility.yul\":10614:10620   */\n      dup3\n        /* \"#utility.yul\":10610:10625   */\n      add\n        /* \"#utility.yul\":10603:10634   */\n      mstore\n        /* \"#utility.yul\":10418:10641   */\n      pop\n      jump\t// out\n        /* \"#utility.yul\":10647:11013   */\n    tag_201:\n        /* \"#utility.yul\":10789:10792   */\n      0x00\n        /* \"#utility.yul\":10810:10877   */\n      tag_331\n        /* \"#utility.yul\":10874:10876   */\n      0x24\n        /* \"#utility.yul\":10869:10872   */\n      dup4\n        /* \"#utility.yul\":10810:10877   */\n      tag_189\n      jump\t// in\n    tag_331:\n        /* \"#utility.yul\":10803:10877   */\n      swap2\n      pop\n        /* \"#utility.yul\":10886:10979   */\n      tag_332\n        /* \"#utility.yul\":10975:10978   */\n      dup3\n        /* \"#utility.yul\":10886:10979   */\n      tag_200\n      jump\t// in\n    tag_332:\n        /* \"#utility.yul\":11004:11006   */\n      0x40\n        /* \"#utility.yul\":10999:11002   */\n      dup3\n        /* \"#utility.yul\":10995:11007   */\n      add\n        /* \"#utility.yul\":10988:11007   */\n      swap1\n      pop\n        /* \"#utility.yul\":10647:11013   */\n      swap2\n      swap1\n      pop\n      jump\t// out\n        /* \"#utility.yul\":11019:11438   */\n    tag_79:\n        /* \"#utility.yul\":11185:11189   */\n      0x00\n        /* \"#utility.yul\":11223:11225   */\n      0x20\n        /* \"#utility.yul\":11212:11221   */\n      dup3\n        /* \"#utility.yul\":11208:11226   */\n      add\n        /* \"#utility.yul\":11200:11226   */\n      swap1\n      pop\n        /* \"#utility.yul\":11272:11281   */\n      dup2\n        /* \"#utility.yul\":11266:11270   */\n      dup2\n        /* \"#utility.yul\":11262:11282   */\n      sub\n        /* \"#utility.yul\":11258:11259   */\n      0x00\n        /* \"#utility.yul\":11247:11256   */\n      dup4\n        /* \"#utility.yul\":11243:11260   */\n      add\n        /* \"#utility.yul\":11236:11283   */\n      mstore\n        /* \"#utility.yul\":11300:11431   */\n      tag_334\n        /* \"#utility.yul\":11426:11430   */\n      dup2\n        /* \"#utility.yul\":11300:11431   */\n      tag_201\n      jump\t// in\n    tag_334:\n        /* \"#utility.yul\":11292:11431   */\n      swap1\n      pop\n        /* \"#utility.yul\":11019:11438   */\n      swap2\n      swap1\n      pop\n      jump\t// out\n        /* \"#utility.yul\":11444:11795   */\n    tag_88:\n        /* \"#utility.yul\":11514:11520   */\n      0x00\n        /* \"#utility.yul\":11563:11565   */\n      0x20\n        /* \"#utility.yul\":11551:11560   */\n      dup3\n        /* \"#utility.yul\":11542:11549   */\n      dup5\n        /* \"#utility.yul\":11538:11561   */\n      sub\n        /* \"#utility.yul\":11534:11566   */\n      slt\n        /* \"#utility.yul\":11531:11650   */\n      iszero\n      tag_336\n      jumpi\n        /* \"#utility.yul\":11569:11648   */\n      tag_337\n      tag_173\n      jump\t// in\n    tag_337:\n        /* \"#utility.yul\":11531:11650   */\n    tag_336:\n        /* \"#utility.yul\":11689:11690   */\n      0x00\n        /* \"#utility.yul\":11714:11778   */\n      tag_338\n        /* \"#utility.yul\":11770:11777   */\n      dup5\n        /* \"#utility.yul\":11761:11767   */\n      dup3\n        /* \"#utility.yul\":11750:11759   */\n      dup6\n        /* \"#utility.yul\":11746:11768   */\n      add\n        /* \"#utility.yul\":11714:11778   */\n      tag_192\n      jump\t// in\n    tag_338:\n        /* \"#utility.yul\":11704:11778   */\n      swap2\n      pop\n        /* \"#utility.yul\":11660:11788   */\n      pop\n        /* \"#utility.yul\":11444:11795   */\n      swap3\n      swap2\n      pop\n      pop\n      jump\t// out\n        /* \"#utility.yul\":11801:12033   */\n    tag_202:\n        /* \"#utility.yul\":11941:11975   */\n      0x4172626974726167653a2053776170206f6e204445583120646964206e6f7420\n        /* \"#utility.yul\":11937:11938   */\n      0x00\n        /* \"#utility.yul\":11929:11935   */\n      dup3\n        /* \"#utility.yul\":11925:11939   */\n      add\n        /* \"#utility.yul\":11918:11976   */\n      mstore\n        /* \"#utility.yul\":12010:12025   */\n      0x72657475726e20546f6b656e4100000000000000000000000000000000000000\n        /* \"#utility.yul\":12005:12007   */\n      0x20\n        /* \"#utility.yul\":11997:12003   */\n      dup3\n        /* \"#utility.yul\":11993:12008   */\n      add\n        /* \"#utility.yul\":11986:12026   */\n      mstore\n        /* \"#utility.yul\":11801:12033   */\n      pop\n      jump\t// out\n        /* \"#utility.yul\":12039:12405   */\n    tag_203:\n        /* \"#utility.yul\":12181:12184   */\n      0x00\n        /* \"#utility.yul\":12202:12269   */\n      tag_341\n        /* \"#utility.yul\":12266:12268   */\n      0x2d\n        /* \"#utility.yul\":12261:12264   */\n      dup4\n        /* \"#utility.yul\":12202:12269   */\n      tag_189\n      jump\t// in\n    tag_341:\n        /* \"#utility.yul\":12195:12269   */\n      swap2\n      pop\n        /* \"#utility.yul\":12278:12371   */\n      tag_342\n        /* \"#utility.yul\":12367:12370   */\n      dup3\n        /* \"#utility.yul\":12278:12371   */\n      tag_202\n      jump\t// in\n    tag_342:\n        /* \"#utility.yul\":12396:12398   */\n      0x40\n        /* \"#utility.yul\":12391:12394   */\n      dup3\n        /* \"#utility.yul\":12387:12399   */\n      add\n        /* \"#utility.yul\":12380:12399   */\n      swap1\n      pop\n        /* \"#utility.yul\":12039:12405   */\n      swap2\n      swap1\n      pop\n      jump\t// out\n        /* \"#utility.yul\":12411:12830   */\n    tag_91:\n        /* \"#utility.yul\":12577:12581   */\n      0x00\n        /* \"#utility.yul\":12615:12617   */\n      0x20\n        /* \"#utility.yul\":12604:12613   */\n      dup3\n        /* \"#utility.yul\":12600:12618   */\n      add\n        /* \"#utility.yul\":12592:12618   */\n      swap1\n      pop\n        /* \"#utility.yul\":12664:12673   */\n      dup2\n        /* \"#utility.yul\":12658:12662   */\n      dup2\n        /* \"#utility.yul\":12654:12674   */\n      sub\n        /* \"#utility.yul\":12650:12651   */\n      0x00\n        /* \"#utility.yul\":12639:12648   */\n      dup4\n        /* \"#utility.yul\":12635:12652   */\n      add\n        /* \"#utility.yul\":12628:12675   */\n      mstore\n        /* \"#utility.yul\":12692:12823   */\n      tag_344\n        /* \"#utility.yul\":12818:12822   */\n      dup2\n        /* \"#utility.yul\":12692:12823   */\n      tag_203\n      jump\t// in\n    tag_344:\n        /* \"#utility.yul\":12684:12823   */\n      swap1\n      pop\n        /* \"#utility.yul\":12411:12830   */\n      swap2\n      swap1\n      pop\n      jump\t// out\n        /* \"#utility.yul\":12836:13069   */\n    tag_204:\n        /* \"#utility.yul\":12976:13010   */\n      0x4172626974726167653a204e6f2070726f666974206d61646520696e20422d3e\n        /* \"#utility.yul\":12972:12973   */\n      0x00\n        /* \"#utility.yul\":12964:12970   */\n      dup3\n        /* \"#utility.yul\":12960:12974   */\n      add\n        /* \"#utility.yul\":12953:13011   */\n      mstore\n        /* \"#utility.yul\":13045:13061   */\n      0x412d3e4220646972656374696f6e000000000000000000000000000000000000\n        /* \"#utility.yul\":13040:13042   */\n      0x20\n        /* \"#utility.yul\":13032:13038   */\n      dup3\n        /* \"#utility.yul\":13028:13043   */\n      add\n        /* \"#utility.yul\":13021:13062   */\n      mstore\n        /* \"#utility.yul\":12836:13069   */\n      pop\n      jump\t// out\n        /* \"#utility.yul\":13075:13441   */\n    tag_205:\n        /* \"#utility.yul\":13217:13220   */\n      0x00\n        /* \"#utility.yul\":13238:13305   */\n      tag_347\n        /* \"#utility.yul\":13302:13304   */\n      0x2e\n        /* \"#utility.yul\":13297:13300   */\n      dup4\n        /* \"#utility.yul\":13238:13305   */\n      tag_189\n      jump\t// in\n    tag_347:\n        /* \"#utility.yul\":13231:13305   */\n      swap2\n      pop\n        /* \"#utility.yul\":13314:13407   */\n      tag_348\n        /* \"#utility.yul\":13403:13406   */\n      dup3\n        /* \"#utility.yul\":13314:13407   */\n      tag_204\n      jump\t// in\n    tag_348:\n        /* \"#utility.yul\":13432:13434   */\n      0x40\n        /* \"#utility.yul\":13427:13430   */\n      dup3\n        /* \"#utility.yul\":13423:13435   */\n      add\n        /* \"#utility.yul\":13416:13435   */\n      swap1\n      pop\n        /* \"#utility.yul\":13075:13441   */\n      swap2\n      swap1\n      pop\n      jump\t// out\n        /* \"#utility.yul\":13447:13866   */\n    tag_102:\n        /* \"#utility.yul\":13613:13617   */\n      0x00\n        /* \"#utility.yul\":13651:13653   */\n      0x20\n        /* \"#utility.yul\":13640:13649   */\n      dup3\n        /* \"#utility.yul\":13636:13654   */\n      add\n        /* \"#utility.yul\":13628:13654   */\n      swap1\n      pop\n        /* \"#utility.yul\":13700:13709   */\n      dup2\n        /* \"#utility.yul\":13694:13698   */\n      dup2\n        /* \"#utility.yul\":13690:13710   */\n      sub\n        /* \"#utility.yul\":13686:13687   */\n      0x00\n        /* \"#utility.yul\":13675:13684   */\n      dup4\n        /* \"#utility.yul\":13671:13688   */\n      add\n        /* \"#utility.yul\":13664:13711   */\n      mstore\n        /* \"#utility.yul\":13728:13859   */\n      tag_350\n        /* \"#utility.yul\":13854:13858   */\n      dup2\n        /* \"#utility.yul\":13728:13859   */\n      tag_205\n      jump\t// in\n    tag_350:\n        /* \"#utility.yul\":13720:13859   */\n      swap1\n      pop\n        /* \"#utility.yul\":13447:13866   */\n      swap2\n      swap1\n      pop\n      jump\t// out\n        /* \"#utility.yul\":13872:14108   */\n    tag_206:\n        /* \"#utility.yul\":14012:14046   */\n      0x4172626974726167653a2050726f66697420646f6573206e6f74206d65657420\n        /* \"#utility.yul\":14008:14009   */\n      0x00\n        /* \"#utility.yul\":14000:14006   */\n      dup3\n        /* \"#utility.yul\":13996:14010   */\n      add\n        /* \"#utility.yul\":13989:14047   */\n      mstore\n        /* \"#utility.yul\":14081:14100   */\n      0x6d696e696d756d207468726573686f6c64000000000000000000000000000000\n        /* \"#utility.yul\":14076:14078   */\n      0x20\n        /* \"#utility.yul\":14068:14074   */\n      dup3\n        /* \"#utility.yul\":14064:14079   */\n      add\n        /* \"#utility.yul\":14057:14101   */\n      mstore\n        /* \"#utility.yul\":13872:14108   */\n      pop\n      jump\t// out\n        /* \"#utility.yul\":14114:14480   */\n    tag_207:\n        /* \"#utility.yul\":14256:14259   */\n      0x00\n        /* \"#utility.yul\":14277:14344   */\n      tag_353\n        /* \"#utility.yul\":14341:14343   */\n      0x31\n        /* \"#utility.yul\":14336:14339   */\n      dup4\n        /* \"#utility.yul\":14277:14344   */\n      tag_189\n      jump\t// in\n    tag_353:\n        /* \"#utility.yul\":14270:14344   */\n      swap2\n      pop\n        /* \"#utility.yul\":14353:14446   */\n      tag_354\n        /* \"#utility.yul\":14442:14445   */\n      dup3\n        /* \"#utility.yul\":14353:14446   */\n      tag_206\n      jump\t// in\n    tag_354:\n        /* \"#utility.yul\":14471:14473   */\n      0x40\n        /* \"#utility.yul\":14466:14469   */\n      dup3\n        /* \"#utility.yul\":14462:14474   */\n      add\n        /* \"#utility.yul\":14455:14474   */\n      swap1\n      pop\n        /* \"#utility.yul\":14114:14480   */\n      swap2\n      swap1\n      pop\n      jump\t// out\n        /* \"#utility.yul\":14486:14905   */\n    tag_106:\n        /* \"#utility.yul\":14652:14656   */\n      0x00\n        /* \"#utility.yul\":14690:14692   */\n      0x20\n        /* \"#utility.yul\":14679:14688   */\n      dup3\n        /* \"#utility.yul\":14675:14693   */\n      add\n        /* \"#utility.yul\":14667:14693   */\n      swap1\n      pop\n        /* \"#utility.yul\":14739:14748   */\n      dup2\n        /* \"#utility.yul\":14733:14737   */\n      dup2\n        /* \"#utility.yul\":14729:14749   */\n      sub\n        /* \"#utility.yul\":14725:14726   */\n      0x00\n        /* \"#utility.yul\":14714:14723   */\n      dup4\n        /* \"#utility.yul\":14710:14727   */\n      add\n        /* \"#utility.yul\":14703:14750   */\n      mstore\n        /* \"#utility.yul\":14767:14898   */\n      tag_356\n        /* \"#utility.yul\":14893:14897   */\n      dup2\n        /* \"#utility.yul\":14767:14898   */\n      tag_207\n      jump\t// in\n    tag_356:\n        /* \"#utility.yul\":14759:14898   */\n      swap1\n      pop\n        /* \"#utility.yul\":14486:14905   */\n      swap2\n      swap1\n      pop\n      jump\t// out\n        /* \"#utility.yul\":14911:15243   */\n    tag_108:\n        /* \"#utility.yul\":15032:15036   */\n      0x00\n        /* \"#utility.yul\":15070:15072   */\n      0x40\n        /* \"#utility.yul\":15059:15068   */\n      dup3\n        /* \"#utility.yul\":15055:15073   */\n      add\n        /* \"#utility.yul\":15047:15073   */\n      swap1\n      pop\n        /* \"#utility.yul\":15083:15154   */\n      tag_358\n        /* \"#utility.yul\":15151:15152   */\n      0x00\n        /* \"#utility.yul\":15140:15149   */\n      dup4\n        /* \"#utility.yul\":15136:15153   */\n      add\n        /* \"#utility.yul\":15127:15133   */\n      dup6\n        /* \"#utility.yul\":15083:15154   */\n      tag_186\n      jump\t// in\n    tag_358:\n        /* \"#utility.yul\":15164:15236   */\n      tag_359\n        /* \"#utility.yul\":15232:15234   */\n      0x20\n        /* \"#utility.yul\":15221:15230   */\n      dup4\n        /* \"#utility.yul\":15217:15235   */\n      add\n        /* \"#utility.yul\":15208:15214   */\n      dup5\n        /* \"#utility.yul\":15164:15236   */\n      tag_178\n      jump\t// in\n    tag_359:\n        /* \"#utility.yul\":14911:15243   */\n      swap4\n      swap3\n      pop\n      pop\n      pop\n      jump\t// out\n        /* \"#utility.yul\":15249:15477   */\n    tag_208:\n        /* \"#utility.yul\":15389:15423   */\n      0x4172626974726167653a205472616e73666572206f6620546f6b656e42206261\n        /* \"#utility.yul\":15385:15386   */\n      0x00\n        /* \"#utility.yul\":15377:15383   */\n      dup3\n        /* \"#utility.yul\":15373:15387   */\n      add\n        /* \"#utility.yul\":15366:15424   */\n      mstore\n        /* \"#utility.yul\":15458:15469   */\n      0x636b206661696c65640000000000000000000000000000000000000000000000\n        /* \"#utility.yul\":15453:15455   */\n      0x20\n        /* \"#utility.yul\":15445:15451   */\n      dup3\n        /* \"#utility.yul\":15441:15456   */\n      add\n        /* \"#utility.yul\":15434:15470   */\n      mstore\n        /* \"#utility.yul\":15249:15477   */\n      pop\n      jump\t// out\n        /* \"#utility.yul\":15483:15849   */\n    tag_209:\n        /* \"#utility.yul\":15625:15628   */\n      0x00\n        /* \"#utility.yul\":15646:15713   */\n      tag_362\n        /* \"#utility.yul\":15710:15712   */\n      0x29\n        /* \"#utility.yul\":15705:15708   */\n      dup4\n        /* \"#utility.yul\":15646:15713   */\n      tag_189\n      jump\t// in\n    tag_362:\n        /* \"#utility.yul\":15639:15713   */\n      swap2\n      pop\n        /* \"#utility.yul\":15722:15815   */\n      tag_363\n        /* \"#utility.yul\":15811:15814   */\n      dup3\n        /* \"#utility.yul\":15722:15815   */\n      tag_208\n      jump\t// in\n    tag_363:\n        /* \"#utility.yul\":15840:15842   */\n      0x40\n        /* \"#utility.yul\":15835:15838   */\n      dup3\n        /* \"#utility.yul\":15831:15843   */\n      add\n        /* \"#utility.yul\":15824:15843   */\n      swap1\n      pop\n        /* \"#utility.yul\":15483:15849   */\n      swap2\n      swap1\n      pop\n      jump\t// out\n        /* \"#utility.yul\":15855:16274   */\n    tag_114:\n        /* \"#utility.yul\":16021:16025   */\n      0x00\n        /* \"#utility.yul\":16059:16061   */\n      0x20\n        /* \"#utility.yul\":16048:16057   */\n      dup3\n        /* \"#utility.yul\":16044:16062   */\n      add\n        /* \"#utility.yul\":16036:16062   */\n      swap1\n      pop\n        /* \"#utility.yul\":16108:16117   */\n      dup2\n        /* \"#utility.yul\":16102:16106   */\n      dup2\n        /* \"#utility.yul\":16098:16118   */\n      sub\n        /* \"#utility.yul\":16094:16095   */\n      0x00\n        /* \"#utility.yul\":16083:16092   */\n      dup4\n        /* \"#utility.yul\":16079:16096   */\n      add\n        /* \"#utility.yul\":16072:16119   */\n      mstore\n        /* \"#utility.yul\":16136:16267   */\n      tag_365\n        /* \"#utility.yul\":16262:16266   */\n      dup2\n        /* \"#utility.yul\":16136:16267   */\n      tag_209\n      jump\t// in\n    tag_365:\n        /* \"#utility.yul\":16128:16267   */\n      swap1\n      pop\n        /* \"#utility.yul\":15855:16274   */\n      swap2\n      swap1\n      pop\n      jump\t// out\n        /* \"#utility.yul\":16280:16503   */\n    tag_210:\n        /* \"#utility.yul\":16420:16454   */\n      0x4172626974726167653a205472616e73666572206f6620546f6b656e41206661\n        /* \"#utility.yul\":16416:16417   */\n      0x00\n        /* \"#utility.yul\":16408:16414   */\n      dup3\n        /* \"#utility.yul\":16404:16418   */\n      add\n        /* \"#utility.yul\":16397:16455   */\n      mstore\n        /* \"#utility.yul\":16489:16495   */\n      0x696c656400000000000000000000000000000000000000000000000000000000\n        /* \"#utility.yul\":16484:16486   */\n      0x20\n        /* \"#utility.yul\":16476:16482   */\n      dup3\n        /* \"#utility.yul\":16472:16487   */\n      add\n        /* \"#utility.yul\":16465:16496   */\n      mstore\n        /* \"#utility.yul\":16280:16503   */\n      pop\n      jump\t// out\n        /* \"#utility.yul\":16509:16875   */\n    tag_211:\n        /* \"#utility.yul\":16651:16654   */\n      0x00\n        /* \"#utility.yul\":16672:16739   */\n      tag_368\n        /* \"#utility.yul\":16736:16738   */\n      0x24\n        /* \"#utility.yul\":16731:16734   */\n      dup4\n        /* \"#utility.yul\":16672:16739   */\n      tag_189\n      jump\t// in\n    tag_368:\n        /* \"#utility.yul\":16665:16739   */\n      swap2\n      pop\n        /* \"#utility.yul\":16748:16841   */\n      tag_369\n        /* \"#utility.yul\":16837:16840   */\n      dup3\n        /* \"#utility.yul\":16748:16841   */\n      tag_210\n      jump\t// in\n    tag_369:\n        /* \"#utility.yul\":16866:16868   */\n      0x40\n        /* \"#utility.yul\":16861:16864   */\n      dup3\n        /* \"#utility.yul\":16857:16869   */\n      add\n        /* \"#utility.yul\":16850:16869   */\n      swap1\n      pop\n        /* \"#utility.yul\":16509:16875   */\n      swap2\n      swap1\n      pop\n      jump\t// out\n        /* \"#utility.yul\":16881:17300   */\n    tag_138:\n        /* \"#utility.yul\":17047:17051   */\n      0x00\n        /* \"#utility.yul\":17085:17087   */\n      0x20\n        /* \"#utility.yul\":17074:17083   */\n      dup3\n        /* \"#utility.yul\":17070:17088   */\n      add\n        /* \"#utility.yul\":17062:17088   */\n      swap1\n      pop\n        /* \"#utility.yul\":17134:17143   */\n      dup2\n        /* \"#utility.yul\":17128:17132   */\n      dup2\n        /* \"#utility.yul\":17124:17144   */\n      sub\n        /* \"#utility.yul\":17120:17121   */\n      0x00\n        /* \"#utility.yul\":17109:17118   */\n      dup4\n        /* \"#utility.yul\":17105:17122   */\n      add\n        /* \"#utility.yul\":17098:17145   */\n      mstore\n        /* \"#utility.yul\":17162:17293   */\n      tag_371\n        /* \"#utility.yul\":17288:17292   */\n      dup2\n        /* \"#utility.yul\":17162:17293   */\n      tag_211\n      jump\t// in\n    tag_371:\n        /* \"#utility.yul\":17154:17293   */\n      swap1\n      pop\n        /* \"#utility.yul\":16881:17300   */\n      swap2\n      swap1\n      pop\n      jump\t// out\n        /* \"#utility.yul\":17306:17538   */\n    tag_212:\n        /* \"#utility.yul\":17446:17480   */\n      0x4172626974726167653a2053776170206f6e204445583120646964206e6f7420\n        /* \"#utility.yul\":17442:17443   */\n      0x00\n        /* \"#utility.yul\":17434:17440   */\n      dup3\n        /* \"#utility.yul\":17430:17444   */\n      add\n        /* \"#utility.yul\":17423:17481   */\n      mstore\n        /* \"#utility.yul\":17515:17530   */\n      0x72657475726e20546f6b656e4200000000000000000000000000000000000000\n        /* \"#utility.yul\":17510:17512   */\n      0x20\n        /* \"#utility.yul\":17502:17508   */\n      dup3\n        /* \"#utility.yul\":17498:17513   */\n      add\n        /* \"#utility.yul\":17491:17531   */\n      mstore\n        /* \"#utility.yul\":17306:17538   */\n      pop\n      jump\t// out\n        /* \"#utility.yul\":17544:17910   */\n    tag_213:\n        /* \"#utility.yul\":17686:17689   */\n      0x00\n        /* \"#utility.yul\":17707:17774   */\n      tag_374\n        /* \"#utility.yul\":17771:17773   */\n      0x2d\n        /* \"#utility.yul\":17766:17769   */\n      dup4\n        /* \"#utility.yul\":17707:17774   */\n      tag_189\n      jump\t// in\n    tag_374:\n        /* \"#utility.yul\":17700:17774   */\n      swap2\n      pop\n        /* \"#utility.yul\":17783:17876   */\n      tag_375\n        /* \"#utility.yul\":17872:17875   */\n      dup3\n        /* \"#utility.yul\":17783:17876   */\n      tag_212\n      jump\t// in\n    tag_375:\n        /* \"#utility.yul\":17901:17903   */\n      0x40\n        /* \"#utility.yul\":17896:17899   */\n      dup3\n        /* \"#utility.yul\":17892:17904   */\n      add\n        /* \"#utility.yul\":17885:17904   */\n      swap1\n      pop\n        /* \"#utility.yul\":17544:17910   */\n      swap2\n      swap1\n      pop\n      jump\t// out\n        /* \"#utility.yul\":17916:18335   */\n    tag_149:\n        /* \"#utility.yul\":18082:18086   */\n      0x00\n        /* \"#utility.yul\":18120:18122   */\n      0x20\n        /* \"#utility.yul\":18109:18118   */\n      dup3\n        /* \"#utility.yul\":18105:18123   */\n      add\n        /* \"#utility.yul\":18097:18123   */\n      swap1\n      pop\n        /* \"#utility.yul\":18169:18178   */\n      dup2\n        /* \"#utility.yul\":18163:18167   */\n      dup2\n        /* \"#utility.yul\":18159:18179   */\n      sub\n        /* \"#utility.yul\":18155:18156   */\n      0x00\n        /* \"#utility.yul\":18144:18153   */\n      dup4\n        /* \"#utility.yul\":18140:18157   */\n      add\n        /* \"#utility.yul\":18133:18180   */\n      mstore\n        /* \"#utility.yul\":18197:18328   */\n      tag_377\n        /* \"#utility.yul\":18323:18327   */\n      dup2\n        /* \"#utility.yul\":18197:18328   */\n      tag_213\n      jump\t// in\n    tag_377:\n        /* \"#utility.yul\":18189:18328   */\n      swap1\n      pop\n        /* \"#utility.yul\":17916:18335   */\n      swap2\n      swap1\n      pop\n      jump\t// out\n        /* \"#utility.yul\":18341:18574   */\n    tag_214:\n        /* \"#utility.yul\":18481:18515   */\n      0x4172626974726167653a204e6f2070726f666974206d61646520696e20412d3e\n        /* \"#utility.yul\":18477:18478   */\n      0x00\n        /* \"#utility.yul\":18469:18475   */\n      dup3\n        /* \"#utility.yul\":18465:18479   */\n      add\n        /* \"#utility.yul\":18458:18516   */\n      mstore\n        /* \"#utility.yul\":18550:18566   */\n      0x422d3e4120646972656374696f6e000000000000000000000000000000000000\n        /* \"#utility.yul\":18545:18547   */\n      0x20\n        /* \"#utility.yul\":18537:18543   */\n      dup3\n        /* \"#utility.yul\":18533:18548   */\n      add\n        /* \"#utility.yul\":18526:18567   */\n      mstore\n        /* \"#utility.yul\":18341:18574   */\n      pop\n      jump\t// out\n        /* \"#utility.yul\":18580:18946   */\n    tag_215:\n        /* \"#utility.yul\":18722:18725   */\n      0x00\n        /* \"#utility.yul\":18743:18810   */\n      tag_380\n        /* \"#utility.yul\":18807:18809   */\n      0x2e\n        /* \"#utility.yul\":18802:18805   */\n      dup4\n        /* \"#utility.yul\":18743:18810   */\n      tag_189\n      jump\t// in\n    tag_380:\n        /* \"#utility.yul\":18736:18810   */\n      swap2\n      pop\n        /* \"#utility.yul\":18819:18912   */\n      tag_381\n        /* \"#utility.yul\":18908:18911   */\n      dup3\n        /* \"#utility.yul\":18819:18912   */\n      tag_214\n      jump\t// in\n    tag_381:\n        /* \"#utility.yul\":18937:18939   */\n      0x40\n        /* \"#utility.yul\":18932:18935   */\n      dup3\n        /* \"#utility.yul\":18928:18940   */\n      add\n        /* \"#utility.yul\":18921:18940   */\n      swap1\n      pop\n        /* \"#utility.yul\":18580:18946   */\n      swap2\n      swap1\n      pop\n      jump\t// out\n        /* \"#utility.yul\":18952:19371   */\n    tag_160:\n        /* \"#utility.yul\":19118:19122   */\n      0x00\n        /* \"#utility.yul\":19156:19158   */\n      0x20\n        /* \"#utility.yul\":19145:19154   */\n      dup3\n        /* \"#utility.yul\":19141:19159   */\n      add\n        /* \"#utility.yul\":19133:19159   */\n      swap1\n      pop\n        /* \"#utility.yul\":19205:19214   */\n      dup2\n        /* \"#utility.yul\":19199:19203   */\n      dup2\n        /* \"#utility.yul\":19195:19215   */\n      sub\n        /* \"#utility.yul\":19191:19192   */\n      0x00\n        /* \"#utility.yul\":19180:19189   */\n      dup4\n        /* \"#utility.yul\":19176:19193   */\n      add\n        /* \"#utility.yul\":19169:19216   */\n      mstore\n        /* \"#utility.yul\":19233:19364   */\n      tag_383\n        /* \"#utility.yul\":19359:19363   */\n      dup2\n        /* \"#utility.yul\":19233:19364   */\n      tag_215\n      jump\t// in\n    tag_383:\n        /* \"#utility.yul\":19225:19364   */\n      swap1\n      pop\n        /* \"#utility.yul\":18952:19371   */\n      swap2\n      swap1\n      pop\n      jump\t// out\n        /* \"#utility.yul\":19377:19605   */\n    tag_216:\n        /* \"#utility.yul\":19517:19551   */\n      0x4172626974726167653a205472616e73666572206f6620546f6b656e41206261\n        /* \"#utility.yul\":19513:19514   */\n      0x00\n        /* \"#utility.yul\":19505:19511   */\n      dup3\n        /* \"#utility.yul\":19501:19515   */\n      add\n        /* \"#utility.yul\":19494:19552   */\n      mstore\n        /* \"#utility.yul\":19586:19597   */\n      0x636b206661696c65640000000000000000000000000000000000000000000000\n        /* \"#utility.yul\":19581:19583   */\n      0x20\n        /* \"#utility.yul\":19573:19579   */\n      dup3\n        /* \"#utility.yul\":19569:19584   */\n      add\n        /* \"#utility.yul\":19562:19598   */\n      mstore\n        /* \"#utility.yul\":19377:19605   */\n      pop\n      jump\t// out\n        /* \"#utility.yul\":19611:19977   */\n    tag_217:\n        /* \"#utility.yul\":19753:19756   */\n      0x00\n        /* \"#utility.yul\":19774:19841   */\n      tag_386\n        /* \"#utility.yul\":19838:19840   */\n      0x29\n        /* \"#utility.yul\":19833:19836   */\n      dup4\n        /* \"#utility.yul\":19774:19841   */\n      tag_189\n      jump\t// in\n    tag_386:\n        /* \"#utility.yul\":19767:19841   */\n      swap2\n      pop\n        /* \"#utility.yul\":19850:19943   */\n      tag_387\n        /* \"#utility.yul\":19939:19942   */\n      dup3\n        /* \"#utility.yul\":19850:19943   */\n      tag_216\n      jump\t// in\n    tag_387:\n        /* \"#utility.yul\":19968:19970   */\n      0x40\n        /* \"#utility.yul\":19963:19966   */\n      dup3\n        /* \"#utility.yul\":19959:19971   */\n      add\n        /* \"#utility.yul\":19952:19971   */\n      swap1\n      pop\n        /* \"#utility.yul\":19611:19977   */\n      swap2\n      swap1\n      pop\n      jump\t// out\n        /* \"#utility.yul\":19983:20402   */\n    tag_170:\n        /* \"#utility.yul\":20149:20153   */\n      0x00\n        /* \"#utility.yul\":20187:20189   */\n      0x20\n        /* \"#utility.yul\":20176:20185   */\n      dup3\n        /* \"#utility.yul\":20172:20190   */\n      add\n        /* \"#utility.yul\":20164:20190   */\n      swap1\n      pop\n        /* \"#utility.yul\":20236:20245   */\n      dup2\n        /* \"#utility.yul\":20230:20234   */\n      dup2\n        /* \"#utility.yul\":20226:20246   */\n      sub\n        /* \"#utility.yul\":20222:20223   */\n      0x00\n        /* \"#utility.yul\":20211:20220   */\n      dup4\n        /* \"#utility.yul\":20207:20224   */\n      add\n        /* \"#utility.yul\":20200:20247   */\n      mstore\n        /* \"#utility.yul\":20264:20395   */\n      tag_389\n        /* \"#utility.yul\":20390:20394   */\n      dup2\n        /* \"#utility.yul\":20264:20395   */\n      tag_217\n      jump\t// in\n    tag_389:\n        /* \"#utility.yul\":20256:20395   */\n      swap1\n      pop\n        /* \"#utility.yul\":19983:20402   */\n      swap2\n      swap1\n      pop\n      jump\t// out\n\n    auxdata: 0xa2646970667358221220a169344411d1356e908ae04197ea8117ee4cc2b317f4003b1609822242b18d2564736f6c634300081a0033\n}\n",
				"bytecode": {
					"linkReferences": {},
					"object": "608060405234801561000f575f80fd5b506040516123b53803806123b583398181016040528101906100319190610622565b5f73ffffffffffffffffffffffffffffffffffffffff168473ffffffffffffffffffffffffffffffffffffffff161415801561009957505f73ffffffffffffffffffffffffffffffffffffffff168373ffffffffffffffffffffffffffffffffffffffff1614155b80156100d157505f73ffffffffffffffffffffffffffffffffffffffff168273ffffffffffffffffffffffffffffffffffffffff1614155b801561010957505f73ffffffffffffffffffffffffffffffffffffffff168173ffffffffffffffffffffffffffffffffffffffff1614155b610148576040517f08c379a000000000000000000000000000000000000000000000000000000000815260040161013f906106e0565b60405180910390fd5b835f806101000a81548173ffffffffffffffffffffffffffffffffffffffff021916908373ffffffffffffffffffffffffffffffffffffffff1602179055508260015f6101000a81548173ffffffffffffffffffffffffffffffffffffffff021916908373ffffffffffffffffffffffffffffffffffffffff1602179055508160025f6101000a81548173ffffffffffffffffffffffffffffffffffffffff021916908373ffffffffffffffffffffffffffffffffffffffff1602179055508060035f6101000a81548173ffffffffffffffffffffffffffffffffffffffff021916908373ffffffffffffffffffffffffffffffffffffffff16021790555060025f9054906101000a900473ffffffffffffffffffffffffffffffffffffffff1673ffffffffffffffffffffffffffffffffffffffff1663095ea7b35f8054906101000a900473ffffffffffffffffffffffffffffffffffffffff167fffffffffffffffffffffffffffffffffffffffffffffffffffffffffffffffff6040518363ffffffff1660e01b81526004016102e2929190610725565b6020604051808303815f875af11580156102fe573d5f803e3d5ffd5b505050506040513d601f19601f820116820180604052508101906103229190610781565b5060035f9054906101000a900473ffffffffffffffffffffffffffffffffffffffff1673ffffffffffffffffffffffffffffffffffffffff1663095ea7b35f8054906101000a900473ffffffffffffffffffffffffffffffffffffffff167fffffffffffffffffffffffffffffffffffffffffffffffffffffffffffffffff6040518363ffffffff1660e01b81526004016103be929190610725565b6020604051808303815f875af11580156103da573d5f803e3d5ffd5b505050506040513d601f19601f820116820180604052508101906103fe9190610781565b5060025f9054906101000a900473ffffffffffffffffffffffffffffffffffffffff1673ffffffffffffffffffffffffffffffffffffffff1663095ea7b360015f9054906101000a900473ffffffffffffffffffffffffffffffffffffffff167fffffffffffffffffffffffffffffffffffffffffffffffffffffffffffffffff6040518363ffffffff1660e01b815260040161049c929190610725565b6020604051808303815f875af11580156104b8573d5f803e3d5ffd5b505050506040513d601f19601f820116820180604052508101906104dc9190610781565b5060035f9054906101000a900473ffffffffffffffffffffffffffffffffffffffff1673ffffffffffffffffffffffffffffffffffffffff1663095ea7b360015f9054906101000a900473ffffffffffffffffffffffffffffffffffffffff167fffffffffffffffffffffffffffffffffffffffffffffffffffffffffffffffff6040518363ffffffff1660e01b815260040161057a929190610725565b6020604051808303815f875af1158015610596573d5f803e3d5ffd5b505050506040513d601f19601f820116820180604052508101906105ba9190610781565b50505050506107ac565b5f80fd5b5f73ffffffffffffffffffffffffffffffffffffffff82169050919050565b5f6105f1826105c8565b9050919050565b610601816105e7565b811461060b575f80fd5b50565b5f8151905061061c816105f8565b92915050565b5f805f806080858703121561063a576106396105c4565b5b5f6106478782880161060e565b94505060206106588782880161060e565b93505060406106698782880161060e565b925050606061067a8782880161060e565b91505092959194509250565b5f82825260208201905092915050565b7f496e76616c6964206164647265737365730000000000000000000000000000005f82015250565b5f6106ca601183610686565b91506106d582610696565b602082019050919050565b5f6020820190508181035f8301526106f7816106be565b9050919050565b610707816105e7565b82525050565b5f819050919050565b61071f8161070d565b82525050565b5f6040820190506107385f8301856106fe565b6107456020830184610716565b9392505050565b5f8115159050919050565b6107608161074c565b811461076a575f80fd5b50565b5f8151905061077b81610757565b92915050565b5f60208284031215610796576107956105c4565b5b5f6107a38482850161076d565b91505092915050565b611bfc806107b95f395ff3fe608060405234801561000f575f80fd5b506004361061007b575f3560e01c80635f64b55b116100595780635f64b55b146100fe578063d4551ad61461011c578063daf7e78e1461013a578063ed5b0dad146101585761007b565b8063054d50d41461007f5780630fc63d10146100af5780632365cd80146100cd575b5f80fd5b61009960048036038101906100949190611121565b610189565b6040516100a69190611180565b60405180910390f35b6100b76101d4565b6040516100c49190611213565b60405180910390f35b6100e760048036038101906100e2919061122c565b6101f9565b6040516100f592919061126a565b60405180910390f35b61010661093b565b6040516101139190611213565b60405180910390f35b610124610960565b60405161013191906112b1565b60405180910390f35b610142610983565b60405161014f91906112b1565b60405180910390f35b610172600480360381019061016d919061122c565b6109a8565b60405161018092919061126a565b60405180910390f35b5f806103e86103e58661019c91906112f7565b6101a69190611365565b905080846101b49190611395565b81846101c091906112f7565b6101ca9190611365565b9150509392505050565b60025f9054906101000a900473ffffffffffffffffffffffffffffffffffffffff1681565b5f805f841161023d576040517f08c379a000000000000000000000000000000000000000000000000000000000815260040161023490611422565b60405180910390fd5b5f805f8054906101000a900473ffffffffffffffffffffffffffffffffffffffff1673ffffffffffffffffffffffffffffffffffffffff16630902f1ac6040518163ffffffff1660e01b81526004016040805180830381865afa1580156102a6573d5f803e3d5ffd5b505050506040513d601f19601f820116820180604052508101906102ca9190611454565b915091505f8060015f9054906101000a900473ffffffffffffffffffffffffffffffffffffffff1673ffffffffffffffffffffffffffffffffffffffff16630902f1ac6040518163ffffffff1660e01b81526004016040805180830381865afa158015610339573d5f803e3d5ffd5b505050506040513d601f19601f8201168201806040525081019061035d9190611454565b915091505f61036d898587610189565b90505f61037b828585610189565b90508981116103bf576040517f08c379a00000000000000000000000000000000000000000000000000000000081526004016103b690611502565b60405180910390fd5b888a826103cc9190611520565b101561040d576040517f08c379a0000000000000000000000000000000000000000000000000000000008152600401610404906115c3565b60405180910390fd5b60035f9054906101000a900473ffffffffffffffffffffffffffffffffffffffff1673ffffffffffffffffffffffffffffffffffffffff166323b872dd33308d6040518463ffffffff1660e01b815260040161046b939291906115e1565b6020604051808303815f875af1158015610487573d5f803e3d5ffd5b505050506040513d601f19601f820116820180604052508101906104ab919061164b565b6104ea576040517f08c379a00000000000000000000000000000000000000000000000000000000081526004016104e1906116e6565b60405180910390fd5b5f8054906101000a900473ffffffffffffffffffffffffffffffffffffffff1673ffffffffffffffffffffffffffffffffffffffff1663ad56238d8b6040518263ffffffff1660e01b81526004016105429190611180565b5f604051808303815f87803b158015610559575f80fd5b505af115801561056b573d5f803e3d5ffd5b505050505f60025f9054906101000a900473ffffffffffffffffffffffffffffffffffffffff1673ffffffffffffffffffffffffffffffffffffffff166370a08231306040518263ffffffff1660e01b81526004016105ca91906112b1565b602060405180830381865afa1580156105e5573d5f803e3d5ffd5b505050506040513d601f19601f820116820180604052508101906106099190611704565b90505f811161064d576040517f08c379a00000000000000000000000000000000000000000000000000000000081526004016106449061179f565b60405180910390fd5b60015f9054906101000a900473ffffffffffffffffffffffffffffffffffffffff1673ffffffffffffffffffffffffffffffffffffffff1663507b0e6b826040518263ffffffff1660e01b81526004016106a79190611180565b5f604051808303815f87803b1580156106be575f80fd5b505af11580156106d0573d5f803e3d5ffd5b5050505060035f9054906101000a900473ffffffffffffffffffffffffffffffffffffffff1673ffffffffffffffffffffffffffffffffffffffff166370a08231306040518263ffffffff1660e01b815260040161072e91906112b1565b602060405180830381865afa158015610749573d5f803e3d5ffd5b505050506040513d601f19601f8201168201806040525081019061076d9190611704565b98508a89116107b1576040517f08c379a00000000000000000000000000000000000000000000000000000000081526004016107a89061182d565b60405180910390fd5b8a896107bd9190611520565b975089881015610802576040517f08c379a00000000000000000000000000000000000000000000000000000000081526004016107f9906118bb565b60405180910390fd5b60035f9054906101000a900473ffffffffffffffffffffffffffffffffffffffff1673ffffffffffffffffffffffffffffffffffffffff1663a9059cbb338b6040518363ffffffff1660e01b815260040161085e9291906118d9565b6020604051808303815f875af115801561087a573d5f803e3d5ffd5b505050506040513d601f19601f8201168201806040525081019061089e919061164b565b6108dd576040517f08c379a00000000000000000000000000000000000000000000000000000000081526004016108d490611970565b60405180910390fd5b3373ffffffffffffffffffffffffffffffffffffffff167fbbbcd055a26726c6d9add2cc4b5d40e88108b660b181678f7412bd8f84deacd98c8a60405161092592919061126a565b60405180910390a2505050505050509250929050565b60035f9054906101000a900473ffffffffffffffffffffffffffffffffffffffff1681565b5f8054906101000a900473ffffffffffffffffffffffffffffffffffffffff1681565b60015f9054906101000a900473ffffffffffffffffffffffffffffffffffffffff1681565b5f805f84116109ec576040517f08c379a00000000000000000000000000000000000000000000000000000000081526004016109e390611422565b60405180910390fd5b5f805f8054906101000a900473ffffffffffffffffffffffffffffffffffffffff1673ffffffffffffffffffffffffffffffffffffffff16630902f1ac6040518163ffffffff1660e01b81526004016040805180830381865afa158015610a55573d5f803e3d5ffd5b505050506040513d601f19601f82011682018060405250810190610a799190611454565b915091505f8060015f9054906101000a900473ffffffffffffffffffffffffffffffffffffffff1673ffffffffffffffffffffffffffffffffffffffff16630902f1ac6040518163ffffffff1660e01b81526004016040805180830381865afa158015610ae8573d5f803e3d5ffd5b505050506040513d601f19601f82011682018060405250810190610b0c9190611454565b915091505f610b1c898686610189565b90505f610b2a828486610189565b9050898111610b6e576040517f08c379a0000000000000000000000000000000000000000000000000000000008152600401610b6590611502565b60405180910390fd5b888a82610b7b9190611520565b1015610bbc576040517f08c379a0000000000000000000000000000000000000000000000000000000008152600401610bb3906115c3565b60405180910390fd5b60025f9054906101000a900473ffffffffffffffffffffffffffffffffffffffff1673ffffffffffffffffffffffffffffffffffffffff166323b872dd33308d6040518463ffffffff1660e01b8152600401610c1a939291906115e1565b6020604051808303815f875af1158015610c36573d5f803e3d5ffd5b505050506040513d601f19601f82011682018060405250810190610c5a919061164b565b610c99576040517f08c379a0000000000000000000000000000000000000000000000000000000008152600401610c90906119fe565b60405180910390fd5b5f8054906101000a900473ffffffffffffffffffffffffffffffffffffffff1673ffffffffffffffffffffffffffffffffffffffff1663507b0e6b8b6040518263ffffffff1660e01b8152600401610cf19190611180565b5f604051808303815f87803b158015610d08575f80fd5b505af1158015610d1a573d5f803e3d5ffd5b505050505f60035f9054906101000a900473ffffffffffffffffffffffffffffffffffffffff1673ffffffffffffffffffffffffffffffffffffffff166370a08231306040518263ffffffff1660e01b8152600401610d7991906112b1565b602060405180830381865afa158015610d94573d5f803e3d5ffd5b505050506040513d601f19601f82011682018060405250810190610db89190611704565b90505f8111610dfc576040517f08c379a0000000000000000000000000000000000000000000000000000000008152600401610df390611a8c565b60405180910390fd5b60015f9054906101000a900473ffffffffffffffffffffffffffffffffffffffff1673ffffffffffffffffffffffffffffffffffffffff1663ad56238d826040518263ffffffff1660e01b8152600401610e569190611180565b5f604051808303815f87803b158015610e6d575f80fd5b505af1158015610e7f573d5f803e3d5ffd5b5050505060025f9054906101000a900473ffffffffffffffffffffffffffffffffffffffff1673ffffffffffffffffffffffffffffffffffffffff166370a08231306040518263ffffffff1660e01b8152600401610edd91906112b1565b602060405180830381865afa158015610ef8573d5f803e3d5ffd5b505050506040513d601f19601f82011682018060405250810190610f1c9190611704565b98508a8911610f60576040517f08c379a0000000000000000000000000000000000000000000000000000000008152600401610f5790611b1a565b60405180910390fd5b8a89610f6c9190611520565b975089881015610fb1576040517f08c379a0000000000000000000000000000000000000000000000000000000008152600401610fa8906118bb565b60405180910390fd5b60025f9054906101000a900473ffffffffffffffffffffffffffffffffffffffff1673ffffffffffffffffffffffffffffffffffffffff1663a9059cbb338b6040518363ffffffff1660e01b815260040161100d9291906118d9565b6020604051808303815f875af1158015611029573d5f803e3d5ffd5b505050506040513d601f19601f8201168201806040525081019061104d919061164b565b61108c576040517f08c379a000000000000000000000000000000000000000000000000000000000815260040161108390611ba8565b60405180910390fd5b3373ffffffffffffffffffffffffffffffffffffffff167f71ad98c4c51f285f5fb12df8209d763304c7574624711bae9b20c1db5dae8d148c8a6040516110d492919061126a565b60405180910390a2505050505050509250929050565b5f80fd5b5f819050919050565b611100816110ee565b811461110a575f80fd5b50565b5f8135905061111b816110f7565b92915050565b5f805f60608486031215611138576111376110ea565b5b5f6111458682870161110d565b93505060206111568682870161110d565b92505060406111678682870161110d565b9150509250925092565b61117a816110ee565b82525050565b5f6020820190506111935f830184611171565b92915050565b5f73ffffffffffffffffffffffffffffffffffffffff82169050919050565b5f819050919050565b5f6111db6111d66111d184611199565b6111b8565b611199565b9050919050565b5f6111ec826111c1565b9050919050565b5f6111fd826111e2565b9050919050565b61120d816111f3565b82525050565b5f6020820190506112265f830184611204565b92915050565b5f8060408385031215611242576112416110ea565b5b5f61124f8582860161110d565b92505060206112608582860161110d565b9150509250929050565b5f60408201905061127d5f830185611171565b61128a6020830184611171565b9392505050565b5f61129b82611199565b9050919050565b6112ab81611291565b82525050565b5f6020820190506112c45f8301846112a2565b92915050565b7f4e487b71000000000000000000000000000000000000000000000000000000005f52601160045260245ffd5b5f611301826110ee565b915061130c836110ee565b925082820261131a816110ee565b91508282048414831517611331576113306112ca565b5b5092915050565b7f4e487b71000000000000000000000000000000000000000000000000000000005f52601260045260245ffd5b5f61136f826110ee565b915061137a836110ee565b92508261138a57611389611338565b5b828204905092915050565b5f61139f826110ee565b91506113aa836110ee565b92508282019050808211156113c2576113c16112ca565b5b92915050565b5f82825260208201905092915050565b7f4361706974616c206d757374206265203e2030000000000000000000000000005f82015250565b5f61140c6013836113c8565b9150611417826113d8565b602082019050919050565b5f6020820190508181035f83015261143981611400565b9050919050565b5f8151905061144e816110f7565b92915050565b5f806040838503121561146a576114696110ea565b5b5f61147785828601611440565b925050602061148885828601611440565b9150509250929050565b7f4172626974726167653a204e6f2070726f66697461626c65206f70706f7274755f8201527f6e697479206261736564206f6e2073696d756c6174696f6e0000000000000000602082015250565b5f6114ec6038836113c8565b91506114f782611492565b604082019050919050565b5f6020820190508181035f830152611519816114e0565b9050919050565b5f61152a826110ee565b9150611535836110ee565b925082820390508181111561154d5761154c6112ca565b5b92915050565b7f4172626974726167653a2045787065637465642070726f66697420646f6573205f8201527f6e6f74206d656574206d696e696d756d207468726573686f6c64000000000000602082015250565b5f6115ad603a836113c8565b91506115b882611553565b604082019050919050565b5f6020820190508181035f8301526115da816115a1565b9050919050565b5f6060820190506115f45f8301866112a2565b61160160208301856112a2565b61160e6040830184611171565b949350505050565b5f8115159050919050565b61162a81611616565b8114611634575f80fd5b50565b5f8151905061164581611621565b92915050565b5f602082840312156116605761165f6110ea565b5b5f61166d84828501611637565b91505092915050565b7f4172626974726167653a205472616e73666572206f6620546f6b656e422066615f8201527f696c656400000000000000000000000000000000000000000000000000000000602082015250565b5f6116d06024836113c8565b91506116db82611676565b604082019050919050565b5f6020820190508181035f8301526116fd816116c4565b9050919050565b5f60208284031215611719576117186110ea565b5b5f61172684828501611440565b91505092915050565b7f4172626974726167653a2053776170206f6e204445583120646964206e6f74205f8201527f72657475726e20546f6b656e4100000000000000000000000000000000000000602082015250565b5f611789602d836113c8565b91506117948261172f565b604082019050919050565b5f6020820190508181035f8301526117b68161177d565b9050919050565b7f4172626974726167653a204e6f2070726f666974206d61646520696e20422d3e5f8201527f412d3e4220646972656374696f6e000000000000000000000000000000000000602082015250565b5f611817602e836113c8565b9150611822826117bd565b604082019050919050565b5f6020820190508181035f8301526118448161180b565b9050919050565b7f4172626974726167653a2050726f66697420646f6573206e6f74206d656574205f8201527f6d696e696d756d207468726573686f6c64000000000000000000000000000000602082015250565b5f6118a56031836113c8565b91506118b08261184b565b604082019050919050565b5f6020820190508181035f8301526118d281611899565b9050919050565b5f6040820190506118ec5f8301856112a2565b6118f96020830184611171565b9392505050565b7f4172626974726167653a205472616e73666572206f6620546f6b656e422062615f8201527f636b206661696c65640000000000000000000000000000000000000000000000602082015250565b5f61195a6029836113c8565b915061196582611900565b604082019050919050565b5f6020820190508181035f8301526119878161194e565b9050919050565b7f4172626974726167653a205472616e73666572206f6620546f6b656e412066615f8201527f696c656400000000000000000000000000000000000000000000000000000000602082015250565b5f6119e86024836113c8565b91506119f38261198e565b604082019050919050565b5f6020820190508181035f830152611a15816119dc565b9050919050565b7f4172626974726167653a2053776170206f6e204445583120646964206e6f74205f8201527f72657475726e20546f6b656e4200000000000000000000000000000000000000602082015250565b5f611a76602d836113c8565b9150611a8182611a1c565b604082019050919050565b5f6020820190508181035f830152611aa381611a6a565b9050919050565b7f4172626974726167653a204e6f2070726f666974206d61646520696e20412d3e5f8201527f422d3e4120646972656374696f6e000000000000000000000000000000000000602082015250565b5f611b04602e836113c8565b9150611b0f82611aaa565b604082019050919050565b5f6020820190508181035f830152611b3181611af8565b9050919050565b7f4172626974726167653a205472616e73666572206f6620546f6b656e412062615f8201527f636b206661696c65640000000000000000000000000000000000000000000000602082015250565b5f611b926029836113c8565b9150611b9d82611b38565b604082019050919050565b5f6020820190508181035f830152611bbf81611b86565b905091905056fea2646970667358221220a169344411d1356e908ae04197ea8117ee4cc2b317f4003b1609822242b18d2564736f6c634300081a0033",
					"opcodes": "PUSH1 0x80 PUSH1 0x40 MSTORE CALLVALUE DUP1 ISZERO PUSH2 0xF JUMPI PUSH0 DUP1 REVERT JUMPDEST POP PUSH1 0x40 MLOAD PUSH2 0x23B5 CODESIZE SUB DUP1 PUSH2 0x23B5 DUP4 CODECOPY DUP2 DUP2 ADD PUSH1 0x40 MSTORE DUP2 ADD SWAP1 PUSH2 0x31 SWAP2 SWAP1 PUSH2 0x622 JUMP JUMPDEST PUSH0 PUSH20 0xFFFFFFFFFFFFFFFFFFFFFFFFFFFFFFFFFFFFFFFF AND DUP5 PUSH20 0xFFFFFFFFFFFFFFFFFFFFFFFFFFFFFFFFFFFFFFFF AND EQ ISZERO DUP1 ISZERO PUSH2 0x99 JUMPI POP PUSH0 PUSH20 0xFFFFFFFFFFFFFFFFFFFFFFFFFFFFFFFFFFFFFFFF AND DUP4 PUSH20 0xFFFFFFFFFFFFFFFFFFFFFFFFFFFFFFFFFFFFFFFF AND EQ ISZERO JUMPDEST DUP1 ISZERO PUSH2 0xD1 JUMPI POP PUSH0 PUSH20 0xFFFFFFFFFFFFFFFFFFFFFFFFFFFFFFFFFFFFFFFF AND DUP3 PUSH20 0xFFFFFFFFFFFFFFFFFFFFFFFFFFFFFFFFFFFFFFFF AND EQ ISZERO JUMPDEST DUP1 ISZERO PUSH2 0x109 JUMPI POP PUSH0 PUSH20 0xFFFFFFFFFFFFFFFFFFFFFFFFFFFFFFFFFFFFFFFF AND DUP2 PUSH20 0xFFFFFFFFFFFFFFFFFFFFFFFFFFFFFFFFFFFFFFFF AND EQ ISZERO JUMPDEST PUSH2 0x148 JUMPI PUSH1 0x40 MLOAD PUSH32 0x8C379A000000000000000000000000000000000000000000000000000000000 DUP2 MSTORE PUSH1 0x4 ADD PUSH2 0x13F SWAP1 PUSH2 0x6E0 JUMP JUMPDEST PUSH1 0x40 MLOAD DUP1 SWAP2 SUB SWAP1 REVERT JUMPDEST DUP4 PUSH0 DUP1 PUSH2 0x100 EXP DUP2 SLOAD DUP2 PUSH20 0xFFFFFFFFFFFFFFFFFFFFFFFFFFFFFFFFFFFFFFFF MUL NOT AND SWAP1 DUP4 PUSH20 0xFFFFFFFFFFFFFFFFFFFFFFFFFFFFFFFFFFFFFFFF AND MUL OR SWAP1 SSTORE POP DUP3 PUSH1 0x1 PUSH0 PUSH2 0x100 EXP DUP2 SLOAD DUP2 PUSH20 0xFFFFFFFFFFFFFFFFFFFFFFFFFFFFFFFFFFFFFFFF MUL NOT AND SWAP1 DUP4 PUSH20 0xFFFFFFFFFFFFFFFFFFFFFFFFFFFFFFFFFFFFFFFF AND MUL OR SWAP1 SSTORE POP DUP2 PUSH1 0x2 PUSH0 PUSH2 0x100 EXP DUP2 SLOAD DUP2 PUSH20 0xFFFFFFFFFFFFFFFFFFFFFFFFFFFFFFFFFFFFFFFF MUL NOT AND SWAP1 DUP4 PUSH20 0xFFFFFFFFFFFFFFFFFFFFFFFFFFFFFFFFFFFFFFFF AND MUL OR SWAP1 SSTORE POP DUP1 PUSH1 0x3 PUSH0 PUSH2 0x100 EXP DUP2 SLOAD DUP2 PUSH20 0xFFFFFFFFFFFFFFFFFFFFFFFFFFFFFFFFFFFFFFFF MUL NOT AND SWAP1 DUP4 PUSH20 0xFFFFFFFFFFFFFFFFFFFFFFFFFFFFFFFFFFFFFFFF AND MUL OR SWAP1 SSTORE POP PUSH1 0x2 PUSH0 SWAP1 SLOAD SWAP1 PUSH2 0x100 EXP SWAP1 DIV PUSH20 0xFFFFFFFFFFFFFFFFFFFFFFFFFFFFFFFFFFFFFFFF AND PUSH20 0xFFFFFFFFFFFFFFFFFFFFFFFFFFFFFFFFFFFFFFFF AND PUSH4 0x95EA7B3 PUSH0 DUP1 SLOAD SWAP1 PUSH2 0x100 EXP SWAP1 DIV PUSH20 0xFFFFFFFFFFFFFFFFFFFFFFFFFFFFFFFFFFFFFFFF AND PUSH32 0xFFFFFFFFFFFFFFFFFFFFFFFFFFFFFFFFFFFFFFFFFFFFFFFFFFFFFFFFFFFFFFFF PUSH1 0x40 MLOAD DUP4 PUSH4 0xFFFFFFFF AND PUSH1 0xE0 SHL DUP2 MSTORE PUSH1 0x4 ADD PUSH2 0x2E2 SWAP3 SWAP2 SWAP1 PUSH2 0x725 JUMP JUMPDEST PUSH1 0x20 PUSH1 0x40 MLOAD DUP1 DUP4 SUB DUP2 PUSH0 DUP8 GAS CALL ISZERO DUP1 ISZERO PUSH2 0x2FE JUMPI RETURNDATASIZE PUSH0 DUP1 RETURNDATACOPY RETURNDATASIZE PUSH0 REVERT JUMPDEST POP POP POP POP PUSH1 0x40 MLOAD RETURNDATASIZE PUSH1 0x1F NOT PUSH1 0x1F DUP3 ADD AND DUP3 ADD DUP1 PUSH1 0x40 MSTORE POP DUP2 ADD SWAP1 PUSH2 0x322 SWAP2 SWAP1 PUSH2 0x781 JUMP JUMPDEST POP PUSH1 0x3 PUSH0 SWAP1 SLOAD SWAP1 PUSH2 0x100 EXP SWAP1 DIV PUSH20 0xFFFFFFFFFFFFFFFFFFFFFFFFFFFFFFFFFFFFFFFF AND PUSH20 0xFFFFFFFFFFFFFFFFFFFFFFFFFFFFFFFFFFFFFFFF AND PUSH4 0x95EA7B3 PUSH0 DUP1 SLOAD SWAP1 PUSH2 0x100 EXP SWAP1 DIV PUSH20 0xFFFFFFFFFFFFFFFFFFFFFFFFFFFFFFFFFFFFFFFF AND PUSH32 0xFFFFFFFFFFFFFFFFFFFFFFFFFFFFFFFFFFFFFFFFFFFFFFFFFFFFFFFFFFFFFFFF PUSH1 0x40 MLOAD DUP4 PUSH4 0xFFFFFFFF AND PUSH1 0xE0 SHL DUP2 MSTORE PUSH1 0x4 ADD PUSH2 0x3BE SWAP3 SWAP2 SWAP1 PUSH2 0x725 JUMP JUMPDEST PUSH1 0x20 PUSH1 0x40 MLOAD DUP1 DUP4 SUB DUP2 PUSH0 DUP8 GAS CALL ISZERO DUP1 ISZERO PUSH2 0x3DA JUMPI RETURNDATASIZE PUSH0 DUP1 RETURNDATACOPY RETURNDATASIZE PUSH0 REVERT JUMPDEST POP POP POP POP PUSH1 0x40 MLOAD RETURNDATASIZE PUSH1 0x1F NOT PUSH1 0x1F DUP3 ADD AND DUP3 ADD DUP1 PUSH1 0x40 MSTORE POP DUP2 ADD SWAP1 PUSH2 0x3FE SWAP2 SWAP1 PUSH2 0x781 JUMP JUMPDEST POP PUSH1 0x2 PUSH0 SWAP1 SLOAD SWAP1 PUSH2 0x100 EXP SWAP1 DIV PUSH20 0xFFFFFFFFFFFFFFFFFFFFFFFFFFFFFFFFFFFFFFFF AND PUSH20 0xFFFFFFFFFFFFFFFFFFFFFFFFFFFFFFFFFFFFFFFF AND PUSH4 0x95EA7B3 PUSH1 0x1 PUSH0 SWAP1 SLOAD SWAP1 PUSH2 0x100 EXP SWAP1 DIV PUSH20 0xFFFFFFFFFFFFFFFFFFFFFFFFFFFFFFFFFFFFFFFF AND PUSH32 0xFFFFFFFFFFFFFFFFFFFFFFFFFFFFFFFFFFFFFFFFFFFFFFFFFFFFFFFFFFFFFFFF PUSH1 0x40 MLOAD DUP4 PUSH4 0xFFFFFFFF AND PUSH1 0xE0 SHL DUP2 MSTORE PUSH1 0x4 ADD PUSH2 0x49C SWAP3 SWAP2 SWAP1 PUSH2 0x725 JUMP JUMPDEST PUSH1 0x20 PUSH1 0x40 MLOAD DUP1 DUP4 SUB DUP2 PUSH0 DUP8 GAS CALL ISZERO DUP1 ISZERO PUSH2 0x4B8 JUMPI RETURNDATASIZE PUSH0 DUP1 RETURNDATACOPY RETURNDATASIZE PUSH0 REVERT JUMPDEST POP POP POP POP PUSH1 0x40 MLOAD RETURNDATASIZE PUSH1 0x1F NOT PUSH1 0x1F DUP3 ADD AND DUP3 ADD DUP1 PUSH1 0x40 MSTORE POP DUP2 ADD SWAP1 PUSH2 0x4DC SWAP2 SWAP1 PUSH2 0x781 JUMP JUMPDEST POP PUSH1 0x3 PUSH0 SWAP1 SLOAD SWAP1 PUSH2 0x100 EXP SWAP1 DIV PUSH20 0xFFFFFFFFFFFFFFFFFFFFFFFFFFFFFFFFFFFFFFFF AND PUSH20 0xFFFFFFFFFFFFFFFFFFFFFFFFFFFFFFFFFFFFFFFF AND PUSH4 0x95EA7B3 PUSH1 0x1 PUSH0 SWAP1 SLOAD SWAP1 PUSH2 0x100 EXP SWAP1 DIV PUSH20 0xFFFFFFFFFFFFFFFFFFFFFFFFFFFFFFFFFFFFFFFF AND PUSH32 0xFFFFFFFFFFFFFFFFFFFFFFFFFFFFFFFFFFFFFFFFFFFFFFFFFFFFFFFFFFFFFFFF PUSH1 0x40 MLOAD DUP4 PUSH4 0xFFFFFFFF AND PUSH1 0xE0 SHL DUP2 MSTORE PUSH1 0x4 ADD PUSH2 0x57A SWAP3 SWAP2 SWAP1 PUSH2 0x725 JUMP JUMPDEST PUSH1 0x20 PUSH1 0x40 MLOAD DUP1 DUP4 SUB DUP2 PUSH0 DUP8 GAS CALL ISZERO DUP1 ISZERO PUSH2 0x596 JUMPI RETURNDATASIZE PUSH0 DUP1 RETURNDATACOPY RETURNDATASIZE PUSH0 REVERT JUMPDEST POP POP POP POP PUSH1 0x40 MLOAD RETURNDATASIZE PUSH1 0x1F NOT PUSH1 0x1F DUP3 ADD AND DUP3 ADD DUP1 PUSH1 0x40 MSTORE POP DUP2 ADD SWAP1 PUSH2 0x5BA SWAP2 SWAP1 PUSH2 0x781 JUMP JUMPDEST POP POP POP POP POP PUSH2 0x7AC JUMP JUMPDEST PUSH0 DUP1 REVERT JUMPDEST PUSH0 PUSH20 0xFFFFFFFFFFFFFFFFFFFFFFFFFFFFFFFFFFFFFFFF DUP3 AND SWAP1 POP SWAP2 SWAP1 POP JUMP JUMPDEST PUSH0 PUSH2 0x5F1 DUP3 PUSH2 0x5C8 JUMP JUMPDEST SWAP1 POP SWAP2 SWAP1 POP JUMP JUMPDEST PUSH2 0x601 DUP2 PUSH2 0x5E7 JUMP JUMPDEST DUP2 EQ PUSH2 0x60B JUMPI PUSH0 DUP1 REVERT JUMPDEST POP JUMP JUMPDEST PUSH0 DUP2 MLOAD SWAP1 POP PUSH2 0x61C DUP2 PUSH2 0x5F8 JUMP JUMPDEST SWAP3 SWAP2 POP POP JUMP JUMPDEST PUSH0 DUP1 PUSH0 DUP1 PUSH1 0x80 DUP6 DUP8 SUB SLT ISZERO PUSH2 0x63A JUMPI PUSH2 0x639 PUSH2 0x5C4 JUMP JUMPDEST JUMPDEST PUSH0 PUSH2 0x647 DUP8 DUP3 DUP9 ADD PUSH2 0x60E JUMP JUMPDEST SWAP5 POP POP PUSH1 0x20 PUSH2 0x658 DUP8 DUP3 DUP9 ADD PUSH2 0x60E JUMP JUMPDEST SWAP4 POP POP PUSH1 0x40 PUSH2 0x669 DUP8 DUP3 DUP9 ADD PUSH2 0x60E JUMP JUMPDEST SWAP3 POP POP PUSH1 0x60 PUSH2 0x67A DUP8 DUP3 DUP9 ADD PUSH2 0x60E JUMP JUMPDEST SWAP2 POP POP SWAP3 SWAP6 SWAP2 SWAP5 POP SWAP3 POP JUMP JUMPDEST PUSH0 DUP3 DUP3 MSTORE PUSH1 0x20 DUP3 ADD SWAP1 POP SWAP3 SWAP2 POP POP JUMP JUMPDEST PUSH32 0x496E76616C696420616464726573736573000000000000000000000000000000 PUSH0 DUP3 ADD MSTORE POP JUMP JUMPDEST PUSH0 PUSH2 0x6CA PUSH1 0x11 DUP4 PUSH2 0x686 JUMP JUMPDEST SWAP2 POP PUSH2 0x6D5 DUP3 PUSH2 0x696 JUMP JUMPDEST PUSH1 0x20 DUP3 ADD SWAP1 POP SWAP2 SWAP1 POP JUMP JUMPDEST PUSH0 PUSH1 0x20 DUP3 ADD SWAP1 POP DUP2 DUP2 SUB PUSH0 DUP4 ADD MSTORE PUSH2 0x6F7 DUP2 PUSH2 0x6BE JUMP JUMPDEST SWAP1 POP SWAP2 SWAP1 POP JUMP JUMPDEST PUSH2 0x707 DUP2 PUSH2 0x5E7 JUMP JUMPDEST DUP3 MSTORE POP POP JUMP JUMPDEST PUSH0 DUP2 SWAP1 POP SWAP2 SWAP1 POP JUMP JUMPDEST PUSH2 0x71F DUP2 PUSH2 0x70D JUMP JUMPDEST DUP3 MSTORE POP POP JUMP JUMPDEST PUSH0 PUSH1 0x40 DUP3 ADD SWAP1 POP PUSH2 0x738 PUSH0 DUP4 ADD DUP6 PUSH2 0x6FE JUMP JUMPDEST PUSH2 0x745 PUSH1 0x20 DUP4 ADD DUP5 PUSH2 0x716 JUMP JUMPDEST SWAP4 SWAP3 POP POP POP JUMP JUMPDEST PUSH0 DUP2 ISZERO ISZERO SWAP1 POP SWAP2 SWAP1 POP JUMP JUMPDEST PUSH2 0x760 DUP2 PUSH2 0x74C JUMP JUMPDEST DUP2 EQ PUSH2 0x76A JUMPI PUSH0 DUP1 REVERT JUMPDEST POP JUMP JUMPDEST PUSH0 DUP2 MLOAD SWAP1 POP PUSH2 0x77B DUP2 PUSH2 0x757 JUMP JUMPDEST SWAP3 SWAP2 POP POP JUMP JUMPDEST PUSH0 PUSH1 0x20 DUP3 DUP5 SUB SLT ISZERO PUSH2 0x796 JUMPI PUSH2 0x795 PUSH2 0x5C4 JUMP JUMPDEST JUMPDEST PUSH0 PUSH2 0x7A3 DUP5 DUP3 DUP6 ADD PUSH2 0x76D JUMP JUMPDEST SWAP2 POP POP SWAP3 SWAP2 POP POP JUMP JUMPDEST PUSH2 0x1BFC DUP1 PUSH2 0x7B9 PUSH0 CODECOPY PUSH0 RETURN INVALID PUSH1 0x80 PUSH1 0x40 MSTORE CALLVALUE DUP1 ISZERO PUSH2 0xF JUMPI PUSH0 DUP1 REVERT JUMPDEST POP PUSH1 0x4 CALLDATASIZE LT PUSH2 0x7B JUMPI PUSH0 CALLDATALOAD PUSH1 0xE0 SHR DUP1 PUSH4 0x5F64B55B GT PUSH2 0x59 JUMPI DUP1 PUSH4 0x5F64B55B EQ PUSH2 0xFE JUMPI DUP1 PUSH4 0xD4551AD6 EQ PUSH2 0x11C JUMPI DUP1 PUSH4 0xDAF7E78E EQ PUSH2 0x13A JUMPI DUP1 PUSH4 0xED5B0DAD EQ PUSH2 0x158 JUMPI PUSH2 0x7B JUMP JUMPDEST DUP1 PUSH4 0x54D50D4 EQ PUSH2 0x7F JUMPI DUP1 PUSH4 0xFC63D10 EQ PUSH2 0xAF JUMPI DUP1 PUSH4 0x2365CD80 EQ PUSH2 0xCD JUMPI JUMPDEST PUSH0 DUP1 REVERT JUMPDEST PUSH2 0x99 PUSH1 0x4 DUP1 CALLDATASIZE SUB DUP2 ADD SWAP1 PUSH2 0x94 SWAP2 SWAP1 PUSH2 0x1121 JUMP JUMPDEST PUSH2 0x189 JUMP JUMPDEST PUSH1 0x40 MLOAD PUSH2 0xA6 SWAP2 SWAP1 PUSH2 0x1180 JUMP JUMPDEST PUSH1 0x40 MLOAD DUP1 SWAP2 SUB SWAP1 RETURN JUMPDEST PUSH2 0xB7 PUSH2 0x1D4 JUMP JUMPDEST PUSH1 0x40 MLOAD PUSH2 0xC4 SWAP2 SWAP1 PUSH2 0x1213 JUMP JUMPDEST PUSH1 0x40 MLOAD DUP1 SWAP2 SUB SWAP1 RETURN JUMPDEST PUSH2 0xE7 PUSH1 0x4 DUP1 CALLDATASIZE SUB DUP2 ADD SWAP1 PUSH2 0xE2 SWAP2 SWAP1 PUSH2 0x122C JUMP JUMPDEST PUSH2 0x1F9 JUMP JUMPDEST PUSH1 0x40 MLOAD PUSH2 0xF5 SWAP3 SWAP2 SWAP1 PUSH2 0x126A JUMP JUMPDEST PUSH1 0x40 MLOAD DUP1 SWAP2 SUB SWAP1 RETURN JUMPDEST PUSH2 0x106 PUSH2 0x93B JUMP JUMPDEST PUSH1 0x40 MLOAD PUSH2 0x113 SWAP2 SWAP1 PUSH2 0x1213 JUMP JUMPDEST PUSH1 0x40 MLOAD DUP1 SWAP2 SUB SWAP1 RETURN JUMPDEST PUSH2 0x124 PUSH2 0x960 JUMP JUMPDEST PUSH1 0x40 MLOAD PUSH2 0x131 SWAP2 SWAP1 PUSH2 0x12B1 JUMP JUMPDEST PUSH1 0x40 MLOAD DUP1 SWAP2 SUB SWAP1 RETURN JUMPDEST PUSH2 0x142 PUSH2 0x983 JUMP JUMPDEST PUSH1 0x40 MLOAD PUSH2 0x14F SWAP2 SWAP1 PUSH2 0x12B1 JUMP JUMPDEST PUSH1 0x40 MLOAD DUP1 SWAP2 SUB SWAP1 RETURN JUMPDEST PUSH2 0x172 PUSH1 0x4 DUP1 CALLDATASIZE SUB DUP2 ADD SWAP1 PUSH2 0x16D SWAP2 SWAP1 PUSH2 0x122C JUMP JUMPDEST PUSH2 0x9A8 JUMP JUMPDEST PUSH1 0x40 MLOAD PUSH2 0x180 SWAP3 SWAP2 SWAP1 PUSH2 0x126A JUMP JUMPDEST PUSH1 0x40 MLOAD DUP1 SWAP2 SUB SWAP1 RETURN JUMPDEST PUSH0 DUP1 PUSH2 0x3E8 PUSH2 0x3E5 DUP7 PUSH2 0x19C SWAP2 SWAP1 PUSH2 0x12F7 JUMP JUMPDEST PUSH2 0x1A6 SWAP2 SWAP1 PUSH2 0x1365 JUMP JUMPDEST SWAP1 POP DUP1 DUP5 PUSH2 0x1B4 SWAP2 SWAP1 PUSH2 0x1395 JUMP JUMPDEST DUP2 DUP5 PUSH2 0x1C0 SWAP2 SWAP1 PUSH2 0x12F7 JUMP JUMPDEST PUSH2 0x1CA SWAP2 SWAP1 PUSH2 0x1365 JUMP JUMPDEST SWAP2 POP POP SWAP4 SWAP3 POP POP POP JUMP JUMPDEST PUSH1 0x2 PUSH0 SWAP1 SLOAD SWAP1 PUSH2 0x100 EXP SWAP1 DIV PUSH20 0xFFFFFFFFFFFFFFFFFFFFFFFFFFFFFFFFFFFFFFFF AND DUP2 JUMP JUMPDEST PUSH0 DUP1 PUSH0 DUP5 GT PUSH2 0x23D JUMPI PUSH1 0x40 MLOAD PUSH32 0x8C379A000000000000000000000000000000000000000000000000000000000 DUP2 MSTORE PUSH1 0x4 ADD PUSH2 0x234 SWAP1 PUSH2 0x1422 JUMP JUMPDEST PUSH1 0x40 MLOAD DUP1 SWAP2 SUB SWAP1 REVERT JUMPDEST PUSH0 DUP1 PUSH0 DUP1 SLOAD SWAP1 PUSH2 0x100 EXP SWAP1 DIV PUSH20 0xFFFFFFFFFFFFFFFFFFFFFFFFFFFFFFFFFFFFFFFF AND PUSH20 0xFFFFFFFFFFFFFFFFFFFFFFFFFFFFFFFFFFFFFFFF AND PUSH4 0x902F1AC PUSH1 0x40 MLOAD DUP2 PUSH4 0xFFFFFFFF AND PUSH1 0xE0 SHL DUP2 MSTORE PUSH1 0x4 ADD PUSH1 0x40 DUP1 MLOAD DUP1 DUP4 SUB DUP2 DUP7 GAS STATICCALL ISZERO DUP1 ISZERO PUSH2 0x2A6 JUMPI RETURNDATASIZE PUSH0 DUP1 RETURNDATACOPY RETURNDATASIZE PUSH0 REVERT JUMPDEST POP POP POP POP PUSH1 0x40 MLOAD RETURNDATASIZE PUSH1 0x1F NOT PUSH1 0x1F DUP3 ADD AND DUP3 ADD DUP1 PUSH1 0x40 MSTORE POP DUP2 ADD SWAP1 PUSH2 0x2CA SWAP2 SWAP1 PUSH2 0x1454 JUMP JUMPDEST SWAP2 POP SWAP2 POP PUSH0 DUP1 PUSH1 0x1 PUSH0 SWAP1 SLOAD SWAP1 PUSH2 0x100 EXP SWAP1 DIV PUSH20 0xFFFFFFFFFFFFFFFFFFFFFFFFFFFFFFFFFFFFFFFF AND PUSH20 0xFFFFFFFFFFFFFFFFFFFFFFFFFFFFFFFFFFFFFFFF AND PUSH4 0x902F1AC PUSH1 0x40 MLOAD DUP2 PUSH4 0xFFFFFFFF AND PUSH1 0xE0 SHL DUP2 MSTORE PUSH1 0x4 ADD PUSH1 0x40 DUP1 MLOAD DUP1 DUP4 SUB DUP2 DUP7 GAS STATICCALL ISZERO DUP1 ISZERO PUSH2 0x339 JUMPI RETURNDATASIZE PUSH0 DUP1 RETURNDATACOPY RETURNDATASIZE PUSH0 REVERT JUMPDEST POP POP POP POP PUSH1 0x40 MLOAD RETURNDATASIZE PUSH1 0x1F NOT PUSH1 0x1F DUP3 ADD AND DUP3 ADD DUP1 PUSH1 0x40 MSTORE POP DUP2 ADD SWAP1 PUSH2 0x35D SWAP2 SWAP1 PUSH2 0x1454 JUMP JUMPDEST SWAP2 POP SWAP2 POP PUSH0 PUSH2 0x36D DUP10 DUP6 DUP8 PUSH2 0x189 JUMP JUMPDEST SWAP1 POP PUSH0 PUSH2 0x37B DUP3 DUP6 DUP6 PUSH2 0x189 JUMP JUMPDEST SWAP1 POP DUP10 DUP2 GT PUSH2 0x3BF JUMPI PUSH1 0x40 MLOAD PUSH32 0x8C379A000000000000000000000000000000000000000000000000000000000 DUP2 MSTORE PUSH1 0x4 ADD PUSH2 0x3B6 SWAP1 PUSH2 0x1502 JUMP JUMPDEST PUSH1 0x40 MLOAD DUP1 SWAP2 SUB SWAP1 REVERT JUMPDEST DUP9 DUP11 DUP3 PUSH2 0x3CC SWAP2 SWAP1 PUSH2 0x1520 JUMP JUMPDEST LT ISZERO PUSH2 0x40D JUMPI PUSH1 0x40 MLOAD PUSH32 0x8C379A000000000000000000000000000000000000000000000000000000000 DUP2 MSTORE PUSH1 0x4 ADD PUSH2 0x404 SWAP1 PUSH2 0x15C3 JUMP JUMPDEST PUSH1 0x40 MLOAD DUP1 SWAP2 SUB SWAP1 REVERT JUMPDEST PUSH1 0x3 PUSH0 SWAP1 SLOAD SWAP1 PUSH2 0x100 EXP SWAP1 DIV PUSH20 0xFFFFFFFFFFFFFFFFFFFFFFFFFFFFFFFFFFFFFFFF AND PUSH20 0xFFFFFFFFFFFFFFFFFFFFFFFFFFFFFFFFFFFFFFFF AND PUSH4 0x23B872DD CALLER ADDRESS DUP14 PUSH1 0x40 MLOAD DUP5 PUSH4 0xFFFFFFFF AND PUSH1 0xE0 SHL DUP2 MSTORE PUSH1 0x4 ADD PUSH2 0x46B SWAP4 SWAP3 SWAP2 SWAP1 PUSH2 0x15E1 JUMP JUMPDEST PUSH1 0x20 PUSH1 0x40 MLOAD DUP1 DUP4 SUB DUP2 PUSH0 DUP8 GAS CALL ISZERO DUP1 ISZERO PUSH2 0x487 JUMPI RETURNDATASIZE PUSH0 DUP1 RETURNDATACOPY RETURNDATASIZE PUSH0 REVERT JUMPDEST POP POP POP POP PUSH1 0x40 MLOAD RETURNDATASIZE PUSH1 0x1F NOT PUSH1 0x1F DUP3 ADD AND DUP3 ADD DUP1 PUSH1 0x40 MSTORE POP DUP2 ADD SWAP1 PUSH2 0x4AB SWAP2 SWAP1 PUSH2 0x164B JUMP JUMPDEST PUSH2 0x4EA JUMPI PUSH1 0x40 MLOAD PUSH32 0x8C379A000000000000000000000000000000000000000000000000000000000 DUP2 MSTORE PUSH1 0x4 ADD PUSH2 0x4E1 SWAP1 PUSH2 0x16E6 JUMP JUMPDEST PUSH1 0x40 MLOAD DUP1 SWAP2 SUB SWAP1 REVERT JUMPDEST PUSH0 DUP1 SLOAD SWAP1 PUSH2 0x100 EXP SWAP1 DIV PUSH20 0xFFFFFFFFFFFFFFFFFFFFFFFFFFFFFFFFFFFFFFFF AND PUSH20 0xFFFFFFFFFFFFFFFFFFFFFFFFFFFFFFFFFFFFFFFF AND PUSH4 0xAD56238D DUP12 PUSH1 0x40 MLOAD DUP3 PUSH4 0xFFFFFFFF AND PUSH1 0xE0 SHL DUP2 MSTORE PUSH1 0x4 ADD PUSH2 0x542 SWAP2 SWAP1 PUSH2 0x1180 JUMP JUMPDEST PUSH0 PUSH1 0x40 MLOAD DUP1 DUP4 SUB DUP2 PUSH0 DUP8 DUP1 EXTCODESIZE ISZERO DUP1 ISZERO PUSH2 0x559 JUMPI PUSH0 DUP1 REVERT JUMPDEST POP GAS CALL ISZERO DUP1 ISZERO PUSH2 0x56B JUMPI RETURNDATASIZE PUSH0 DUP1 RETURNDATACOPY RETURNDATASIZE PUSH0 REVERT JUMPDEST POP POP POP POP PUSH0 PUSH1 0x2 PUSH0 SWAP1 SLOAD SWAP1 PUSH2 0x100 EXP SWAP1 DIV PUSH20 0xFFFFFFFFFFFFFFFFFFFFFFFFFFFFFFFFFFFFFFFF AND PUSH20 0xFFFFFFFFFFFFFFFFFFFFFFFFFFFFFFFFFFFFFFFF AND PUSH4 0x70A08231 ADDRESS PUSH1 0x40 MLOAD DUP3 PUSH4 0xFFFFFFFF AND PUSH1 0xE0 SHL DUP2 MSTORE PUSH1 0x4 ADD PUSH2 0x5CA SWAP2 SWAP1 PUSH2 0x12B1 JUMP JUMPDEST PUSH1 0x20 PUSH1 0x40 MLOAD DUP1 DUP4 SUB DUP2 DUP7 GAS STATICCALL ISZERO DUP1 ISZERO PUSH2 0x5E5 JUMPI RETURNDATASIZE PUSH0 DUP1 RETURNDATACOPY RETURNDATASIZE PUSH0 REVERT JUMPDEST POP POP POP POP PUSH1 0x40 MLOAD RETURNDATASIZE PUSH1 0x1F NOT PUSH1 0x1F DUP3 ADD AND DUP3 ADD DUP1 PUSH1 0x40 MSTORE POP DUP2 ADD SWAP1 PUSH2 0x609 SWAP2 SWAP1 PUSH2 0x1704 JUMP JUMPDEST SWAP1 POP PUSH0 DUP2 GT PUSH2 0x64D JUMPI PUSH1 0x40 MLOAD PUSH32 0x8C379A000000000000000000000000000000000000000000000000000000000 DUP2 MSTORE PUSH1 0x4 ADD PUSH2 0x644 SWAP1 PUSH2 0x179F JUMP JUMPDEST PUSH1 0x40 MLOAD DUP1 SWAP2 SUB SWAP1 REVERT JUMPDEST PUSH1 0x1 PUSH0 SWAP1 SLOAD SWAP1 PUSH2 0x100 EXP SWAP1 DIV PUSH20 0xFFFFFFFFFFFFFFFFFFFFFFFFFFFFFFFFFFFFFFFF AND PUSH20 0xFFFFFFFFFFFFFFFFFFFFFFFFFFFFFFFFFFFFFFFF AND PUSH4 0x507B0E6B DUP3 PUSH1 0x40 MLOAD DUP3 PUSH4 0xFFFFFFFF AND PUSH1 0xE0 SHL DUP2 MSTORE PUSH1 0x4 ADD PUSH2 0x6A7 SWAP2 SWAP1 PUSH2 0x1180 JUMP JUMPDEST PUSH0 PUSH1 0x40 MLOAD DUP1 DUP4 SUB DUP2 PUSH0 DUP8 DUP1 EXTCODESIZE ISZERO DUP1 ISZERO PUSH2 0x6BE JUMPI PUSH0 DUP1 REVERT JUMPDEST POP GAS CALL ISZERO DUP1 ISZERO PUSH2 0x6D0 JUMPI RETURNDATASIZE PUSH0 DUP1 RETURNDATACOPY RETURNDATASIZE PUSH0 REVERT JUMPDEST POP POP POP POP PUSH1 0x3 PUSH0 SWAP1 SLOAD SWAP1 PUSH2 0x100 EXP SWAP1 DIV PUSH20 0xFFFFFFFFFFFFFFFFFFFFFFFFFFFFFFFFFFFFFFFF AND PUSH20 0xFFFFFFFFFFFFFFFFFFFFFFFFFFFFFFFFFFFFFFFF AND PUSH4 0x70A08231 ADDRESS PUSH1 0x40 MLOAD DUP3 PUSH4 0xFFFFFFFF AND PUSH1 0xE0 SHL DUP2 MSTORE PUSH1 0x4 ADD PUSH2 0x72E SWAP2 SWAP1 PUSH2 0x12B1 JUMP JUMPDEST PUSH1 0x20 PUSH1 0x40 MLOAD DUP1 DUP4 SUB DUP2 DUP7 GAS STATICCALL ISZERO DUP1 ISZERO PUSH2 0x749 JUMPI RETURNDATASIZE PUSH0 DUP1 RETURNDATACOPY RETURNDATASIZE PUSH0 REVERT JUMPDEST POP POP POP POP PUSH1 0x40 MLOAD RETURNDATASIZE PUSH1 0x1F NOT PUSH1 0x1F DUP3 ADD AND DUP3 ADD DUP1 PUSH1 0x40 MSTORE POP DUP2 ADD SWAP1 PUSH2 0x76D SWAP2 SWAP1 PUSH2 0x1704 JUMP JUMPDEST SWAP9 POP DUP11 DUP10 GT PUSH2 0x7B1 JUMPI PUSH1 0x40 MLOAD PUSH32 0x8C379A000000000000000000000000000000000000000000000000000000000 DUP2 MSTORE PUSH1 0x4 ADD PUSH2 0x7A8 SWAP1 PUSH2 0x182D JUMP JUMPDEST PUSH1 0x40 MLOAD DUP1 SWAP2 SUB SWAP1 REVERT JUMPDEST DUP11 DUP10 PUSH2 0x7BD SWAP2 SWAP1 PUSH2 0x1520 JUMP JUMPDEST SWAP8 POP DUP10 DUP9 LT ISZERO PUSH2 0x802 JUMPI PUSH1 0x40 MLOAD PUSH32 0x8C379A000000000000000000000000000000000000000000000000000000000 DUP2 MSTORE PUSH1 0x4 ADD PUSH2 0x7F9 SWAP1 PUSH2 0x18BB JUMP JUMPDEST PUSH1 0x40 MLOAD DUP1 SWAP2 SUB SWAP1 REVERT JUMPDEST PUSH1 0x3 PUSH0 SWAP1 SLOAD SWAP1 PUSH2 0x100 EXP SWAP1 DIV PUSH20 0xFFFFFFFFFFFFFFFFFFFFFFFFFFFFFFFFFFFFFFFF AND PUSH20 0xFFFFFFFFFFFFFFFFFFFFFFFFFFFFFFFFFFFFFFFF AND PUSH4 0xA9059CBB CALLER DUP12 PUSH1 0x40 MLOAD DUP4 PUSH4 0xFFFFFFFF AND PUSH1 0xE0 SHL DUP2 MSTORE PUSH1 0x4 ADD PUSH2 0x85E SWAP3 SWAP2 SWAP1 PUSH2 0x18D9 JUMP JUMPDEST PUSH1 0x20 PUSH1 0x40 MLOAD DUP1 DUP4 SUB DUP2 PUSH0 DUP8 GAS CALL ISZERO DUP1 ISZERO PUSH2 0x87A JUMPI RETURNDATASIZE PUSH0 DUP1 RETURNDATACOPY RETURNDATASIZE PUSH0 REVERT JUMPDEST POP POP POP POP PUSH1 0x40 MLOAD RETURNDATASIZE PUSH1 0x1F NOT PUSH1 0x1F DUP3 ADD AND DUP3 ADD DUP1 PUSH1 0x40 MSTORE POP DUP2 ADD SWAP1 PUSH2 0x89E SWAP2 SWAP1 PUSH2 0x164B JUMP JUMPDEST PUSH2 0x8DD JUMPI PUSH1 0x40 MLOAD PUSH32 0x8C379A000000000000000000000000000000000000000000000000000000000 DUP2 MSTORE PUSH1 0x4 ADD PUSH2 0x8D4 SWAP1 PUSH2 0x1970 JUMP JUMPDEST PUSH1 0x40 MLOAD DUP1 SWAP2 SUB SWAP1 REVERT JUMPDEST CALLER PUSH20 0xFFFFFFFFFFFFFFFFFFFFFFFFFFFFFFFFFFFFFFFF AND PUSH32 0xBBBCD055A26726C6D9ADD2CC4B5D40E88108B660B181678F7412BD8F84DEACD9 DUP13 DUP11 PUSH1 0x40 MLOAD PUSH2 0x925 SWAP3 SWAP2 SWAP1 PUSH2 0x126A JUMP JUMPDEST PUSH1 0x40 MLOAD DUP1 SWAP2 SUB SWAP1 LOG2 POP POP POP POP POP POP POP SWAP3 POP SWAP3 SWAP1 POP JUMP JUMPDEST PUSH1 0x3 PUSH0 SWAP1 SLOAD SWAP1 PUSH2 0x100 EXP SWAP1 DIV PUSH20 0xFFFFFFFFFFFFFFFFFFFFFFFFFFFFFFFFFFFFFFFF AND DUP2 JUMP JUMPDEST PUSH0 DUP1 SLOAD SWAP1 PUSH2 0x100 EXP SWAP1 DIV PUSH20 0xFFFFFFFFFFFFFFFFFFFFFFFFFFFFFFFFFFFFFFFF AND DUP2 JUMP JUMPDEST PUSH1 0x1 PUSH0 SWAP1 SLOAD SWAP1 PUSH2 0x100 EXP SWAP1 DIV PUSH20 0xFFFFFFFFFFFFFFFFFFFFFFFFFFFFFFFFFFFFFFFF AND DUP2 JUMP JUMPDEST PUSH0 DUP1 PUSH0 DUP5 GT PUSH2 0x9EC JUMPI PUSH1 0x40 MLOAD PUSH32 0x8C379A000000000000000000000000000000000000000000000000000000000 DUP2 MSTORE PUSH1 0x4 ADD PUSH2 0x9E3 SWAP1 PUSH2 0x1422 JUMP JUMPDEST PUSH1 0x40 MLOAD DUP1 SWAP2 SUB SWAP1 REVERT JUMPDEST PUSH0 DUP1 PUSH0 DUP1 SLOAD SWAP1 PUSH2 0x100 EXP SWAP1 DIV PUSH20 0xFFFFFFFFFFFFFFFFFFFFFFFFFFFFFFFFFFFFFFFF AND PUSH20 0xFFFFFFFFFFFFFFFFFFFFFFFFFFFFFFFFFFFFFFFF AND PUSH4 0x902F1AC PUSH1 0x40 MLOAD DUP2 PUSH4 0xFFFFFFFF AND PUSH1 0xE0 SHL DUP2 MSTORE PUSH1 0x4 ADD PUSH1 0x40 DUP1 MLOAD DUP1 DUP4 SUB DUP2 DUP7 GAS STATICCALL ISZERO DUP1 ISZERO PUSH2 0xA55 JUMPI RETURNDATASIZE PUSH0 DUP1 RETURNDATACOPY RETURNDATASIZE PUSH0 REVERT JUMPDEST POP POP POP POP PUSH1 0x40 MLOAD RETURNDATASIZE PUSH1 0x1F NOT PUSH1 0x1F DUP3 ADD AND DUP3 ADD DUP1 PUSH1 0x40 MSTORE POP DUP2 ADD SWAP1 PUSH2 0xA79 SWAP2 SWAP1 PUSH2 0x1454 JUMP JUMPDEST SWAP2 POP SWAP2 POP PUSH0 DUP1 PUSH1 0x1 PUSH0 SWAP1 SLOAD SWAP1 PUSH2 0x100 EXP SWAP1 DIV PUSH20 0xFFFFFFFFFFFFFFFFFFFFFFFFFFFFFFFFFFFFFFFF AND PUSH20 0xFFFFFFFFFFFFFFFFFFFFFFFFFFFFFFFFFFFFFFFF AND PUSH4 0x902F1AC PUSH1 0x40 MLOAD DUP2 PUSH4 0xFFFFFFFF AND PUSH1 0xE0 SHL DUP2 MSTORE PUSH1 0x4 ADD PUSH1 0x40 DUP1 MLOAD DUP1 DUP4 SUB DUP2 DUP7 GAS STATICCALL ISZERO DUP1 ISZERO PUSH2 0xAE8 JUMPI RETURNDATASIZE PUSH0 DUP1 RETURNDATACOPY RETURNDATASIZE PUSH0 REVERT JUMPDEST POP POP POP POP PUSH1 0x40 MLOAD RETURNDATASIZE PUSH1 0x1F NOT PUSH1 0x1F DUP3 ADD AND DUP3 ADD DUP1 PUSH1 0x40 MSTORE POP DUP2 ADD SWAP1 PUSH2 0xB0C SWAP2 SWAP1 PUSH2 0x1454 JUMP JUMPDEST SWAP2 POP SWAP2 POP PUSH0 PUSH2 0xB1C DUP10 DUP7 DUP7 PUSH2 0x189 JUMP JUMPDEST SWAP1 POP PUSH0 PUSH2 0xB2A DUP3 DUP5 DUP7 PUSH2 0x189 JUMP JUMPDEST SWAP1 POP DUP10 DUP2 GT PUSH2 0xB6E JUMPI PUSH1 0x40 MLOAD PUSH32 0x8C379A000000000000000000000000000000000000000000000000000000000 DUP2 MSTORE PUSH1 0x4 ADD PUSH2 0xB65 SWAP1 PUSH2 0x1502 JUMP JUMPDEST PUSH1 0x40 MLOAD DUP1 SWAP2 SUB SWAP1 REVERT JUMPDEST DUP9 DUP11 DUP3 PUSH2 0xB7B SWAP2 SWAP1 PUSH2 0x1520 JUMP JUMPDEST LT ISZERO PUSH2 0xBBC JUMPI PUSH1 0x40 MLOAD PUSH32 0x8C379A000000000000000000000000000000000000000000000000000000000 DUP2 MSTORE PUSH1 0x4 ADD PUSH2 0xBB3 SWAP1 PUSH2 0x15C3 JUMP JUMPDEST PUSH1 0x40 MLOAD DUP1 SWAP2 SUB SWAP1 REVERT JUMPDEST PUSH1 0x2 PUSH0 SWAP1 SLOAD SWAP1 PUSH2 0x100 EXP SWAP1 DIV PUSH20 0xFFFFFFFFFFFFFFFFFFFFFFFFFFFFFFFFFFFFFFFF AND PUSH20 0xFFFFFFFFFFFFFFFFFFFFFFFFFFFFFFFFFFFFFFFF AND PUSH4 0x23B872DD CALLER ADDRESS DUP14 PUSH1 0x40 MLOAD DUP5 PUSH4 0xFFFFFFFF AND PUSH1 0xE0 SHL DUP2 MSTORE PUSH1 0x4 ADD PUSH2 0xC1A SWAP4 SWAP3 SWAP2 SWAP1 PUSH2 0x15E1 JUMP JUMPDEST PUSH1 0x20 PUSH1 0x40 MLOAD DUP1 DUP4 SUB DUP2 PUSH0 DUP8 GAS CALL ISZERO DUP1 ISZERO PUSH2 0xC36 JUMPI RETURNDATASIZE PUSH0 DUP1 RETURNDATACOPY RETURNDATASIZE PUSH0 REVERT JUMPDEST POP POP POP POP PUSH1 0x40 MLOAD RETURNDATASIZE PUSH1 0x1F NOT PUSH1 0x1F DUP3 ADD AND DUP3 ADD DUP1 PUSH1 0x40 MSTORE POP DUP2 ADD SWAP1 PUSH2 0xC5A SWAP2 SWAP1 PUSH2 0x164B JUMP JUMPDEST PUSH2 0xC99 JUMPI PUSH1 0x40 MLOAD PUSH32 0x8C379A000000000000000000000000000000000000000000000000000000000 DUP2 MSTORE PUSH1 0x4 ADD PUSH2 0xC90 SWAP1 PUSH2 0x19FE JUMP JUMPDEST PUSH1 0x40 MLOAD DUP1 SWAP2 SUB SWAP1 REVERT JUMPDEST PUSH0 DUP1 SLOAD SWAP1 PUSH2 0x100 EXP SWAP1 DIV PUSH20 0xFFFFFFFFFFFFFFFFFFFFFFFFFFFFFFFFFFFFFFFF AND PUSH20 0xFFFFFFFFFFFFFFFFFFFFFFFFFFFFFFFFFFFFFFFF AND PUSH4 0x507B0E6B DUP12 PUSH1 0x40 MLOAD DUP3 PUSH4 0xFFFFFFFF AND PUSH1 0xE0 SHL DUP2 MSTORE PUSH1 0x4 ADD PUSH2 0xCF1 SWAP2 SWAP1 PUSH2 0x1180 JUMP JUMPDEST PUSH0 PUSH1 0x40 MLOAD DUP1 DUP4 SUB DUP2 PUSH0 DUP8 DUP1 EXTCODESIZE ISZERO DUP1 ISZERO PUSH2 0xD08 JUMPI PUSH0 DUP1 REVERT JUMPDEST POP GAS CALL ISZERO DUP1 ISZERO PUSH2 0xD1A JUMPI RETURNDATASIZE PUSH0 DUP1 RETURNDATACOPY RETURNDATASIZE PUSH0 REVERT JUMPDEST POP POP POP POP PUSH0 PUSH1 0x3 PUSH0 SWAP1 SLOAD SWAP1 PUSH2 0x100 EXP SWAP1 DIV PUSH20 0xFFFFFFFFFFFFFFFFFFFFFFFFFFFFFFFFFFFFFFFF AND PUSH20 0xFFFFFFFFFFFFFFFFFFFFFFFFFFFFFFFFFFFFFFFF AND PUSH4 0x70A08231 ADDRESS PUSH1 0x40 MLOAD DUP3 PUSH4 0xFFFFFFFF AND PUSH1 0xE0 SHL DUP2 MSTORE PUSH1 0x4 ADD PUSH2 0xD79 SWAP2 SWAP1 PUSH2 0x12B1 JUMP JUMPDEST PUSH1 0x20 PUSH1 0x40 MLOAD DUP1 DUP4 SUB DUP2 DUP7 GAS STATICCALL ISZERO DUP1 ISZERO PUSH2 0xD94 JUMPI RETURNDATASIZE PUSH0 DUP1 RETURNDATACOPY RETURNDATASIZE PUSH0 REVERT JUMPDEST POP POP POP POP PUSH1 0x40 MLOAD RETURNDATASIZE PUSH1 0x1F NOT PUSH1 0x1F DUP3 ADD AND DUP3 ADD DUP1 PUSH1 0x40 MSTORE POP DUP2 ADD SWAP1 PUSH2 0xDB8 SWAP2 SWAP1 PUSH2 0x1704 JUMP JUMPDEST SWAP1 POP PUSH0 DUP2 GT PUSH2 0xDFC JUMPI PUSH1 0x40 MLOAD PUSH32 0x8C379A000000000000000000000000000000000000000000000000000000000 DUP2 MSTORE PUSH1 0x4 ADD PUSH2 0xDF3 SWAP1 PUSH2 0x1A8C JUMP JUMPDEST PUSH1 0x40 MLOAD DUP1 SWAP2 SUB SWAP1 REVERT JUMPDEST PUSH1 0x1 PUSH0 SWAP1 SLOAD SWAP1 PUSH2 0x100 EXP SWAP1 DIV PUSH20 0xFFFFFFFFFFFFFFFFFFFFFFFFFFFFFFFFFFFFFFFF AND PUSH20 0xFFFFFFFFFFFFFFFFFFFFFFFFFFFFFFFFFFFFFFFF AND PUSH4 0xAD56238D DUP3 PUSH1 0x40 MLOAD DUP3 PUSH4 0xFFFFFFFF AND PUSH1 0xE0 SHL DUP2 MSTORE PUSH1 0x4 ADD PUSH2 0xE56 SWAP2 SWAP1 PUSH2 0x1180 JUMP JUMPDEST PUSH0 PUSH1 0x40 MLOAD DUP1 DUP4 SUB DUP2 PUSH0 DUP8 DUP1 EXTCODESIZE ISZERO DUP1 ISZERO PUSH2 0xE6D JUMPI PUSH0 DUP1 REVERT JUMPDEST POP GAS CALL ISZERO DUP1 ISZERO PUSH2 0xE7F JUMPI RETURNDATASIZE PUSH0 DUP1 RETURNDATACOPY RETURNDATASIZE PUSH0 REVERT JUMPDEST POP POP POP POP PUSH1 0x2 PUSH0 SWAP1 SLOAD SWAP1 PUSH2 0x100 EXP SWAP1 DIV PUSH20 0xFFFFFFFFFFFFFFFFFFFFFFFFFFFFFFFFFFFFFFFF AND PUSH20 0xFFFFFFFFFFFFFFFFFFFFFFFFFFFFFFFFFFFFFFFF AND PUSH4 0x70A08231 ADDRESS PUSH1 0x40 MLOAD DUP3 PUSH4 0xFFFFFFFF AND PUSH1 0xE0 SHL DUP2 MSTORE PUSH1 0x4 ADD PUSH2 0xEDD SWAP2 SWAP1 PUSH2 0x12B1 JUMP JUMPDEST PUSH1 0x20 PUSH1 0x40 MLOAD DUP1 DUP4 SUB DUP2 DUP7 GAS STATICCALL ISZERO DUP1 ISZERO PUSH2 0xEF8 JUMPI RETURNDATASIZE PUSH0 DUP1 RETURNDATACOPY RETURNDATASIZE PUSH0 REVERT JUMPDEST POP POP POP POP PUSH1 0x40 MLOAD RETURNDATASIZE PUSH1 0x1F NOT PUSH1 0x1F DUP3 ADD AND DUP3 ADD DUP1 PUSH1 0x40 MSTORE POP DUP2 ADD SWAP1 PUSH2 0xF1C SWAP2 SWAP1 PUSH2 0x1704 JUMP JUMPDEST SWAP9 POP DUP11 DUP10 GT PUSH2 0xF60 JUMPI PUSH1 0x40 MLOAD PUSH32 0x8C379A000000000000000000000000000000000000000000000000000000000 DUP2 MSTORE PUSH1 0x4 ADD PUSH2 0xF57 SWAP1 PUSH2 0x1B1A JUMP JUMPDEST PUSH1 0x40 MLOAD DUP1 SWAP2 SUB SWAP1 REVERT JUMPDEST DUP11 DUP10 PUSH2 0xF6C SWAP2 SWAP1 PUSH2 0x1520 JUMP JUMPDEST SWAP8 POP DUP10 DUP9 LT ISZERO PUSH2 0xFB1 JUMPI PUSH1 0x40 MLOAD PUSH32 0x8C379A000000000000000000000000000000000000000000000000000000000 DUP2 MSTORE PUSH1 0x4 ADD PUSH2 0xFA8 SWAP1 PUSH2 0x18BB JUMP JUMPDEST PUSH1 0x40 MLOAD DUP1 SWAP2 SUB SWAP1 REVERT JUMPDEST PUSH1 0x2 PUSH0 SWAP1 SLOAD SWAP1 PUSH2 0x100 EXP SWAP1 DIV PUSH20 0xFFFFFFFFFFFFFFFFFFFFFFFFFFFFFFFFFFFFFFFF AND PUSH20 0xFFFFFFFFFFFFFFFFFFFFFFFFFFFFFFFFFFFFFFFF AND PUSH4 0xA9059CBB CALLER DUP12 PUSH1 0x40 MLOAD DUP4 PUSH4 0xFFFFFFFF AND PUSH1 0xE0 SHL DUP2 MSTORE PUSH1 0x4 ADD PUSH2 0x100D SWAP3 SWAP2 SWAP1 PUSH2 0x18D9 JUMP JUMPDEST PUSH1 0x20 PUSH1 0x40 MLOAD DUP1 DUP4 SUB DUP2 PUSH0 DUP8 GAS CALL ISZERO DUP1 ISZERO PUSH2 0x1029 JUMPI RETURNDATASIZE PUSH0 DUP1 RETURNDATACOPY RETURNDATASIZE PUSH0 REVERT JUMPDEST POP POP POP POP PUSH1 0x40 MLOAD RETURNDATASIZE PUSH1 0x1F NOT PUSH1 0x1F DUP3 ADD AND DUP3 ADD DUP1 PUSH1 0x40 MSTORE POP DUP2 ADD SWAP1 PUSH2 0x104D SWAP2 SWAP1 PUSH2 0x164B JUMP JUMPDEST PUSH2 0x108C JUMPI PUSH1 0x40 MLOAD PUSH32 0x8C379A000000000000000000000000000000000000000000000000000000000 DUP2 MSTORE PUSH1 0x4 ADD PUSH2 0x1083 SWAP1 PUSH2 0x1BA8 JUMP JUMPDEST PUSH1 0x40 MLOAD DUP1 SWAP2 SUB SWAP1 REVERT JUMPDEST CALLER PUSH20 0xFFFFFFFFFFFFFFFFFFFFFFFFFFFFFFFFFFFFFFFF AND PUSH32 0x71AD98C4C51F285F5FB12DF8209D763304C7574624711BAE9B20C1DB5DAE8D14 DUP13 DUP11 PUSH1 0x40 MLOAD PUSH2 0x10D4 SWAP3 SWAP2 SWAP1 PUSH2 0x126A JUMP JUMPDEST PUSH1 0x40 MLOAD DUP1 SWAP2 SUB SWAP1 LOG2 POP POP POP POP POP POP POP SWAP3 POP SWAP3 SWAP1 POP JUMP JUMPDEST PUSH0 DUP1 REVERT JUMPDEST PUSH0 DUP2 SWAP1 POP SWAP2 SWAP1 POP JUMP JUMPDEST PUSH2 0x1100 DUP2 PUSH2 0x10EE JUMP JUMPDEST DUP2 EQ PUSH2 0x110A JUMPI PUSH0 DUP1 REVERT JUMPDEST POP JUMP JUMPDEST PUSH0 DUP2 CALLDATALOAD SWAP1 POP PUSH2 0x111B DUP2 PUSH2 0x10F7 JUMP JUMPDEST SWAP3 SWAP2 POP POP JUMP JUMPDEST PUSH0 DUP1 PUSH0 PUSH1 0x60 DUP5 DUP7 SUB SLT ISZERO PUSH2 0x1138 JUMPI PUSH2 0x1137 PUSH2 0x10EA JUMP JUMPDEST JUMPDEST PUSH0 PUSH2 0x1145 DUP7 DUP3 DUP8 ADD PUSH2 0x110D JUMP JUMPDEST SWAP4 POP POP PUSH1 0x20 PUSH2 0x1156 DUP7 DUP3 DUP8 ADD PUSH2 0x110D JUMP JUMPDEST SWAP3 POP POP PUSH1 0x40 PUSH2 0x1167 DUP7 DUP3 DUP8 ADD PUSH2 0x110D JUMP JUMPDEST SWAP2 POP POP SWAP3 POP SWAP3 POP SWAP3 JUMP JUMPDEST PUSH2 0x117A DUP2 PUSH2 0x10EE JUMP JUMPDEST DUP3 MSTORE POP POP JUMP JUMPDEST PUSH0 PUSH1 0x20 DUP3 ADD SWAP1 POP PUSH2 0x1193 PUSH0 DUP4 ADD DUP5 PUSH2 0x1171 JUMP JUMPDEST SWAP3 SWAP2 POP POP JUMP JUMPDEST PUSH0 PUSH20 0xFFFFFFFFFFFFFFFFFFFFFFFFFFFFFFFFFFFFFFFF DUP3 AND SWAP1 POP SWAP2 SWAP1 POP JUMP JUMPDEST PUSH0 DUP2 SWAP1 POP SWAP2 SWAP1 POP JUMP JUMPDEST PUSH0 PUSH2 0x11DB PUSH2 0x11D6 PUSH2 0x11D1 DUP5 PUSH2 0x1199 JUMP JUMPDEST PUSH2 0x11B8 JUMP JUMPDEST PUSH2 0x1199 JUMP JUMPDEST SWAP1 POP SWAP2 SWAP1 POP JUMP JUMPDEST PUSH0 PUSH2 0x11EC DUP3 PUSH2 0x11C1 JUMP JUMPDEST SWAP1 POP SWAP2 SWAP1 POP JUMP JUMPDEST PUSH0 PUSH2 0x11FD DUP3 PUSH2 0x11E2 JUMP JUMPDEST SWAP1 POP SWAP2 SWAP1 POP JUMP JUMPDEST PUSH2 0x120D DUP2 PUSH2 0x11F3 JUMP JUMPDEST DUP3 MSTORE POP POP JUMP JUMPDEST PUSH0 PUSH1 0x20 DUP3 ADD SWAP1 POP PUSH2 0x1226 PUSH0 DUP4 ADD DUP5 PUSH2 0x1204 JUMP JUMPDEST SWAP3 SWAP2 POP POP JUMP JUMPDEST PUSH0 DUP1 PUSH1 0x40 DUP4 DUP6 SUB SLT ISZERO PUSH2 0x1242 JUMPI PUSH2 0x1241 PUSH2 0x10EA JUMP JUMPDEST JUMPDEST PUSH0 PUSH2 0x124F DUP6 DUP3 DUP7 ADD PUSH2 0x110D JUMP JUMPDEST SWAP3 POP POP PUSH1 0x20 PUSH2 0x1260 DUP6 DUP3 DUP7 ADD PUSH2 0x110D JUMP JUMPDEST SWAP2 POP POP SWAP3 POP SWAP3 SWAP1 POP JUMP JUMPDEST PUSH0 PUSH1 0x40 DUP3 ADD SWAP1 POP PUSH2 0x127D PUSH0 DUP4 ADD DUP6 PUSH2 0x1171 JUMP JUMPDEST PUSH2 0x128A PUSH1 0x20 DUP4 ADD DUP5 PUSH2 0x1171 JUMP JUMPDEST SWAP4 SWAP3 POP POP POP JUMP JUMPDEST PUSH0 PUSH2 0x129B DUP3 PUSH2 0x1199 JUMP JUMPDEST SWAP1 POP SWAP2 SWAP1 POP JUMP JUMPDEST PUSH2 0x12AB DUP2 PUSH2 0x1291 JUMP JUMPDEST DUP3 MSTORE POP POP JUMP JUMPDEST PUSH0 PUSH1 0x20 DUP3 ADD SWAP1 POP PUSH2 0x12C4 PUSH0 DUP4 ADD DUP5 PUSH2 0x12A2 JUMP JUMPDEST SWAP3 SWAP2 POP POP JUMP JUMPDEST PUSH32 0x4E487B7100000000000000000000000000000000000000000000000000000000 PUSH0 MSTORE PUSH1 0x11 PUSH1 0x4 MSTORE PUSH1 0x24 PUSH0 REVERT JUMPDEST PUSH0 PUSH2 0x1301 DUP3 PUSH2 0x10EE JUMP JUMPDEST SWAP2 POP PUSH2 0x130C DUP4 PUSH2 0x10EE JUMP JUMPDEST SWAP3 POP DUP3 DUP3 MUL PUSH2 0x131A DUP2 PUSH2 0x10EE JUMP JUMPDEST SWAP2 POP DUP3 DUP3 DIV DUP5 EQ DUP4 ISZERO OR PUSH2 0x1331 JUMPI PUSH2 0x1330 PUSH2 0x12CA JUMP JUMPDEST JUMPDEST POP SWAP3 SWAP2 POP POP JUMP JUMPDEST PUSH32 0x4E487B7100000000000000000000000000000000000000000000000000000000 PUSH0 MSTORE PUSH1 0x12 PUSH1 0x4 MSTORE PUSH1 0x24 PUSH0 REVERT JUMPDEST PUSH0 PUSH2 0x136F DUP3 PUSH2 0x10EE JUMP JUMPDEST SWAP2 POP PUSH2 0x137A DUP4 PUSH2 0x10EE JUMP JUMPDEST SWAP3 POP DUP3 PUSH2 0x138A JUMPI PUSH2 0x1389 PUSH2 0x1338 JUMP JUMPDEST JUMPDEST DUP3 DUP3 DIV SWAP1 POP SWAP3 SWAP2 POP POP JUMP JUMPDEST PUSH0 PUSH2 0x139F DUP3 PUSH2 0x10EE JUMP JUMPDEST SWAP2 POP PUSH2 0x13AA DUP4 PUSH2 0x10EE JUMP JUMPDEST SWAP3 POP DUP3 DUP3 ADD SWAP1 POP DUP1 DUP3 GT ISZERO PUSH2 0x13C2 JUMPI PUSH2 0x13C1 PUSH2 0x12CA JUMP JUMPDEST JUMPDEST SWAP3 SWAP2 POP POP JUMP JUMPDEST PUSH0 DUP3 DUP3 MSTORE PUSH1 0x20 DUP3 ADD SWAP1 POP SWAP3 SWAP2 POP POP JUMP JUMPDEST PUSH32 0x4361706974616C206D757374206265203E203000000000000000000000000000 PUSH0 DUP3 ADD MSTORE POP JUMP JUMPDEST PUSH0 PUSH2 0x140C PUSH1 0x13 DUP4 PUSH2 0x13C8 JUMP JUMPDEST SWAP2 POP PUSH2 0x1417 DUP3 PUSH2 0x13D8 JUMP JUMPDEST PUSH1 0x20 DUP3 ADD SWAP1 POP SWAP2 SWAP1 POP JUMP JUMPDEST PUSH0 PUSH1 0x20 DUP3 ADD SWAP1 POP DUP2 DUP2 SUB PUSH0 DUP4 ADD MSTORE PUSH2 0x1439 DUP2 PUSH2 0x1400 JUMP JUMPDEST SWAP1 POP SWAP2 SWAP1 POP JUMP JUMPDEST PUSH0 DUP2 MLOAD SWAP1 POP PUSH2 0x144E DUP2 PUSH2 0x10F7 JUMP JUMPDEST SWAP3 SWAP2 POP POP JUMP JUMPDEST PUSH0 DUP1 PUSH1 0x40 DUP4 DUP6 SUB SLT ISZERO PUSH2 0x146A JUMPI PUSH2 0x1469 PUSH2 0x10EA JUMP JUMPDEST JUMPDEST PUSH0 PUSH2 0x1477 DUP6 DUP3 DUP7 ADD PUSH2 0x1440 JUMP JUMPDEST SWAP3 POP POP PUSH1 0x20 PUSH2 0x1488 DUP6 DUP3 DUP7 ADD PUSH2 0x1440 JUMP JUMPDEST SWAP2 POP POP SWAP3 POP SWAP3 SWAP1 POP JUMP JUMPDEST PUSH32 0x4172626974726167653A204E6F2070726F66697461626C65206F70706F727475 PUSH0 DUP3 ADD MSTORE PUSH32 0x6E697479206261736564206F6E2073696D756C6174696F6E0000000000000000 PUSH1 0x20 DUP3 ADD MSTORE POP JUMP JUMPDEST PUSH0 PUSH2 0x14EC PUSH1 0x38 DUP4 PUSH2 0x13C8 JUMP JUMPDEST SWAP2 POP PUSH2 0x14F7 DUP3 PUSH2 0x1492 JUMP JUMPDEST PUSH1 0x40 DUP3 ADD SWAP1 POP SWAP2 SWAP1 POP JUMP JUMPDEST PUSH0 PUSH1 0x20 DUP3 ADD SWAP1 POP DUP2 DUP2 SUB PUSH0 DUP4 ADD MSTORE PUSH2 0x1519 DUP2 PUSH2 0x14E0 JUMP JUMPDEST SWAP1 POP SWAP2 SWAP1 POP JUMP JUMPDEST PUSH0 PUSH2 0x152A DUP3 PUSH2 0x10EE JUMP JUMPDEST SWAP2 POP PUSH2 0x1535 DUP4 PUSH2 0x10EE JUMP JUMPDEST SWAP3 POP DUP3 DUP3 SUB SWAP1 POP DUP2 DUP2 GT ISZERO PUSH2 0x154D JUMPI PUSH2 0x154C PUSH2 0x12CA JUMP JUMPDEST JUMPDEST SWAP3 SWAP2 POP POP JUMP JUMPDEST PUSH32 0x4172626974726167653A2045787065637465642070726F66697420646F657320 PUSH0 DUP3 ADD MSTORE PUSH32 0x6E6F74206D656574206D696E696D756D207468726573686F6C64000000000000 PUSH1 0x20 DUP3 ADD MSTORE POP JUMP JUMPDEST PUSH0 PUSH2 0x15AD PUSH1 0x3A DUP4 PUSH2 0x13C8 JUMP JUMPDEST SWAP2 POP PUSH2 0x15B8 DUP3 PUSH2 0x1553 JUMP JUMPDEST PUSH1 0x40 DUP3 ADD SWAP1 POP SWAP2 SWAP1 POP JUMP JUMPDEST PUSH0 PUSH1 0x20 DUP3 ADD SWAP1 POP DUP2 DUP2 SUB PUSH0 DUP4 ADD MSTORE PUSH2 0x15DA DUP2 PUSH2 0x15A1 JUMP JUMPDEST SWAP1 POP SWAP2 SWAP1 POP JUMP JUMPDEST PUSH0 PUSH1 0x60 DUP3 ADD SWAP1 POP PUSH2 0x15F4 PUSH0 DUP4 ADD DUP7 PUSH2 0x12A2 JUMP JUMPDEST PUSH2 0x1601 PUSH1 0x20 DUP4 ADD DUP6 PUSH2 0x12A2 JUMP JUMPDEST PUSH2 0x160E PUSH1 0x40 DUP4 ADD DUP5 PUSH2 0x1171 JUMP JUMPDEST SWAP5 SWAP4 POP POP POP POP JUMP JUMPDEST PUSH0 DUP2 ISZERO ISZERO SWAP1 POP SWAP2 SWAP1 POP JUMP JUMPDEST PUSH2 0x162A DUP2 PUSH2 0x1616 JUMP JUMPDEST DUP2 EQ PUSH2 0x1634 JUMPI PUSH0 DUP1 REVERT JUMPDEST POP JUMP JUMPDEST PUSH0 DUP2 MLOAD SWAP1 POP PUSH2 0x1645 DUP2 PUSH2 0x1621 JUMP JUMPDEST SWAP3 SWAP2 POP POP JUMP JUMPDEST PUSH0 PUSH1 0x20 DUP3 DUP5 SUB SLT ISZERO PUSH2 0x1660 JUMPI PUSH2 0x165F PUSH2 0x10EA JUMP JUMPDEST JUMPDEST PUSH0 PUSH2 0x166D DUP5 DUP3 DUP6 ADD PUSH2 0x1637 JUMP JUMPDEST SWAP2 POP POP SWAP3 SWAP2 POP POP JUMP JUMPDEST PUSH32 0x4172626974726167653A205472616E73666572206F6620546F6B656E42206661 PUSH0 DUP3 ADD MSTORE PUSH32 0x696C656400000000000000000000000000000000000000000000000000000000 PUSH1 0x20 DUP3 ADD MSTORE POP JUMP JUMPDEST PUSH0 PUSH2 0x16D0 PUSH1 0x24 DUP4 PUSH2 0x13C8 JUMP JUMPDEST SWAP2 POP PUSH2 0x16DB DUP3 PUSH2 0x1676 JUMP JUMPDEST PUSH1 0x40 DUP3 ADD SWAP1 POP SWAP2 SWAP1 POP JUMP JUMPDEST PUSH0 PUSH1 0x20 DUP3 ADD SWAP1 POP DUP2 DUP2 SUB PUSH0 DUP4 ADD MSTORE PUSH2 0x16FD DUP2 PUSH2 0x16C4 JUMP JUMPDEST SWAP1 POP SWAP2 SWAP1 POP JUMP JUMPDEST PUSH0 PUSH1 0x20 DUP3 DUP5 SUB SLT ISZERO PUSH2 0x1719 JUMPI PUSH2 0x1718 PUSH2 0x10EA JUMP JUMPDEST JUMPDEST PUSH0 PUSH2 0x1726 DUP5 DUP3 DUP6 ADD PUSH2 0x1440 JUMP JUMPDEST SWAP2 POP POP SWAP3 SWAP2 POP POP JUMP JUMPDEST PUSH32 0x4172626974726167653A2053776170206F6E204445583120646964206E6F7420 PUSH0 DUP3 ADD MSTORE PUSH32 0x72657475726E20546F6B656E4100000000000000000000000000000000000000 PUSH1 0x20 DUP3 ADD MSTORE POP JUMP JUMPDEST PUSH0 PUSH2 0x1789 PUSH1 0x2D DUP4 PUSH2 0x13C8 JUMP JUMPDEST SWAP2 POP PUSH2 0x1794 DUP3 PUSH2 0x172F JUMP JUMPDEST PUSH1 0x40 DUP3 ADD SWAP1 POP SWAP2 SWAP1 POP JUMP JUMPDEST PUSH0 PUSH1 0x20 DUP3 ADD SWAP1 POP DUP2 DUP2 SUB PUSH0 DUP4 ADD MSTORE PUSH2 0x17B6 DUP2 PUSH2 0x177D JUMP JUMPDEST SWAP1 POP SWAP2 SWAP1 POP JUMP JUMPDEST PUSH32 0x4172626974726167653A204E6F2070726F666974206D61646520696E20422D3E PUSH0 DUP3 ADD MSTORE PUSH32 0x412D3E4220646972656374696F6E000000000000000000000000000000000000 PUSH1 0x20 DUP3 ADD MSTORE POP JUMP JUMPDEST PUSH0 PUSH2 0x1817 PUSH1 0x2E DUP4 PUSH2 0x13C8 JUMP JUMPDEST SWAP2 POP PUSH2 0x1822 DUP3 PUSH2 0x17BD JUMP JUMPDEST PUSH1 0x40 DUP3 ADD SWAP1 POP SWAP2 SWAP1 POP JUMP JUMPDEST PUSH0 PUSH1 0x20 DUP3 ADD SWAP1 POP DUP2 DUP2 SUB PUSH0 DUP4 ADD MSTORE PUSH2 0x1844 DUP2 PUSH2 0x180B JUMP JUMPDEST SWAP1 POP SWAP2 SWAP1 POP JUMP JUMPDEST PUSH32 0x4172626974726167653A2050726F66697420646F6573206E6F74206D65657420 PUSH0 DUP3 ADD MSTORE PUSH32 0x6D696E696D756D207468726573686F6C64000000000000000000000000000000 PUSH1 0x20 DUP3 ADD MSTORE POP JUMP JUMPDEST PUSH0 PUSH2 0x18A5 PUSH1 0x31 DUP4 PUSH2 0x13C8 JUMP JUMPDEST SWAP2 POP PUSH2 0x18B0 DUP3 PUSH2 0x184B JUMP JUMPDEST PUSH1 0x40 DUP3 ADD SWAP1 POP SWAP2 SWAP1 POP JUMP JUMPDEST PUSH0 PUSH1 0x20 DUP3 ADD SWAP1 POP DUP2 DUP2 SUB PUSH0 DUP4 ADD MSTORE PUSH2 0x18D2 DUP2 PUSH2 0x1899 JUMP JUMPDEST SWAP1 POP SWAP2 SWAP1 POP JUMP JUMPDEST PUSH0 PUSH1 0x40 DUP3 ADD SWAP1 POP PUSH2 0x18EC PUSH0 DUP4 ADD DUP6 PUSH2 0x12A2 JUMP JUMPDEST PUSH2 0x18F9 PUSH1 0x20 DUP4 ADD DUP5 PUSH2 0x1171 JUMP JUMPDEST SWAP4 SWAP3 POP POP POP JUMP JUMPDEST PUSH32 0x4172626974726167653A205472616E73666572206F6620546F6B656E42206261 PUSH0 DUP3 ADD MSTORE PUSH32 0x636B206661696C65640000000000000000000000000000000000000000000000 PUSH1 0x20 DUP3 ADD MSTORE POP JUMP JUMPDEST PUSH0 PUSH2 0x195A PUSH1 0x29 DUP4 PUSH2 0x13C8 JUMP JUMPDEST SWAP2 POP PUSH2 0x1965 DUP3 PUSH2 0x1900 JUMP JUMPDEST PUSH1 0x40 DUP3 ADD SWAP1 POP SWAP2 SWAP1 POP JUMP JUMPDEST PUSH0 PUSH1 0x20 DUP3 ADD SWAP1 POP DUP2 DUP2 SUB PUSH0 DUP4 ADD MSTORE PUSH2 0x1987 DUP2 PUSH2 0x194E JUMP JUMPDEST SWAP1 POP SWAP2 SWAP1 POP JUMP JUMPDEST PUSH32 0x4172626974726167653A205472616E73666572206F6620546F6B656E41206661 PUSH0 DUP3 ADD MSTORE PUSH32 0x696C656400000000000000000000000000000000000000000000000000000000 PUSH1 0x20 DUP3 ADD MSTORE POP JUMP JUMPDEST PUSH0 PUSH2 0x19E8 PUSH1 0x24 DUP4 PUSH2 0x13C8 JUMP JUMPDEST SWAP2 POP PUSH2 0x19F3 DUP3 PUSH2 0x198E JUMP JUMPDEST PUSH1 0x40 DUP3 ADD SWAP1 POP SWAP2 SWAP1 POP JUMP JUMPDEST PUSH0 PUSH1 0x20 DUP3 ADD SWAP1 POP DUP2 DUP2 SUB PUSH0 DUP4 ADD MSTORE PUSH2 0x1A15 DUP2 PUSH2 0x19DC JUMP JUMPDEST SWAP1 POP SWAP2 SWAP1 POP JUMP JUMPDEST PUSH32 0x4172626974726167653A2053776170206F6E204445583120646964206E6F7420 PUSH0 DUP3 ADD MSTORE PUSH32 0x72657475726E20546F6B656E4200000000000000000000000000000000000000 PUSH1 0x20 DUP3 ADD MSTORE POP JUMP JUMPDEST PUSH0 PUSH2 0x1A76 PUSH1 0x2D DUP4 PUSH2 0x13C8 JUMP JUMPDEST SWAP2 POP PUSH2 0x1A81 DUP3 PUSH2 0x1A1C JUMP JUMPDEST PUSH1 0x40 DUP3 ADD SWAP1 POP SWAP2 SWAP1 POP JUMP JUMPDEST PUSH0 PUSH1 0x20 DUP3 ADD SWAP1 POP DUP2 DUP2 SUB PUSH0 DUP4 ADD MSTORE PUSH2 0x1AA3 DUP2 PUSH2 0x1A6A JUMP JUMPDEST SWAP1 POP SWAP2 SWAP1 POP JUMP JUMPDEST PUSH32 0x4172626974726167653A204E6F2070726F666974206D61646520696E20412D3E PUSH0 DUP3 ADD MSTORE PUSH32 0x422D3E4120646972656374696F6E000000000000000000000000000000000000 PUSH1 0x20 DUP3 ADD MSTORE POP JUMP JUMPDEST PUSH0 PUSH2 0x1B04 PUSH1 0x2E DUP4 PUSH2 0x13C8 JUMP JUMPDEST SWAP2 POP PUSH2 0x1B0F DUP3 PUSH2 0x1AAA JUMP JUMPDEST PUSH1 0x40 DUP3 ADD SWAP1 POP SWAP2 SWAP1 POP JUMP JUMPDEST PUSH0 PUSH1 0x20 DUP3 ADD SWAP1 POP DUP2 DUP2 SUB PUSH0 DUP4 ADD MSTORE PUSH2 0x1B31 DUP2 PUSH2 0x1AF8 JUMP JUMPDEST SWAP1 POP SWAP2 SWAP1 POP JUMP JUMPDEST PUSH32 0x4172626974726167653A205472616E73666572206F6620546F6B656E41206261 PUSH0 DUP3 ADD MSTORE PUSH32 0x636B206661696C65640000000000000000000000000000000000000000000000 PUSH1 0x20 DUP3 ADD MSTORE POP JUMP JUMPDEST PUSH0 PUSH2 0x1B92 PUSH1 0x29 DUP4 PUSH2 0x13C8 JUMP JUMPDEST SWAP2 POP PUSH2 0x1B9D DUP3 PUSH2 0x1B38 JUMP JUMPDEST PUSH1 0x40 DUP3 ADD SWAP1 POP SWAP2 SWAP1 POP JUMP JUMPDEST PUSH0 PUSH1 0x20 DUP3 ADD SWAP1 POP DUP2 DUP2 SUB PUSH0 DUP4 ADD MSTORE PUSH2 0x1BBF DUP2 PUSH2 0x1B86 JUMP JUMPDEST SWAP1 POP SWAP2 SWAP1 POP JUMP INVALID LOG2 PUSH5 0x6970667358 0x22 SLT KECCAK256 LOG1 PUSH10 0x344411D1356E908AE041 SWAP8 0xEA DUP2 OR 0xEE 0x4C 0xC2 0xB3 OR DELEGATECALL STOP EXTCODESIZE AND MULMOD DUP3 0x22 TIMESTAMP 0xB1 DUP14 0x25 PUSH5 0x736F6C6343 STOP ADDMOD BYTE STOP CALLER "
				},
				"gasEstimates": {
					"creation": {
						"codeDepositCost": "1432800",
						"executionCost": "infinite",
						"totalCost": "infinite"
					},
					"external": {
						"arbitrageAtoBtoA(uint256,uint256)": "infinite",
						"arbitrageBtoAtoB(uint256,uint256)": "infinite",
						"dex1()": "2527",
						"dex2()": "2552",
						"getAmountOut(uint256,uint256,uint256)": "infinite",
						"tokenA()": "infinite",
						"tokenB()": "infinite"
					}
				},
				"methodIdentifiers": {
					"arbitrageAtoBtoA(uint256,uint256)": "ed5b0dad",
					"arbitrageBtoAtoB(uint256,uint256)": "2365cd80",
					"dex1()": "d4551ad6",
					"dex2()": "daf7e78e",
					"getAmountOut(uint256,uint256,uint256)": "054d50d4",
					"tokenA()": "0fc63d10",
					"tokenB()": "5f64b55b"
				}
			},
			"storageLayout": {
				"storage": [
					{
						"astId": 76,
						"contract": "contracts/Arbitrage.sol:Arbitrage",
						"label": "dex1",
						"offset": 0,
						"slot": "0",
						"type": "t_address"
					},
					{
						"astId": 78,
						"contract": "contracts/Arbitrage.sol:Arbitrage",
						"label": "dex2",
						"offset": 0,
						"slot": "1",
						"type": "t_address"
					},
					{
						"astId": 81,
						"contract": "contracts/Arbitrage.sol:Arbitrage",
						"label": "tokenA",
						"offset": 0,
						"slot": "2",
						"type": "t_contract(IERC20)39"
					},
					{
						"astId": 84,
						"contract": "contracts/Arbitrage.sol:Arbitrage",
						"label": "tokenB",
						"offset": 0,
						"slot": "3",
						"type": "t_contract(IERC20)39"
					}
				],
				"types": {
					"t_address": {
						"encoding": "inplace",
						"label": "address",
						"numberOfBytes": "20"
					},
					"t_contract(IERC20)39": {
						"encoding": "inplace",
						"label": "contract IERC20",
						"numberOfBytes": "20"
					}
				}
			},
			"userdoc": {
				"kind": "user",
				"methods": {
					"arbitrageAtoBtoA(uint256,uint256)": {
						"notice": "Executes an arbitrage opportunity starting with TokenA using route A→B→A.         It simulates the expected return by reading reserves from both DEXes using the constant product formula.         The swap is only executed if the simulation indicates that the expected profit meets or exceeds `minProfit`."
					},
					"arbitrageBtoAtoB(uint256,uint256)": {
						"notice": "Executes an arbitrage opportunity starting with TokenB using route B→A→B.         It simulates the expected return by reading reserves from both DEXes using the constant product formula.         The swap is only executed if the simulation indicates that the expected profit meets or exceeds `minProfit`."
					},
					"constructor": {
						"notice": "Constructor sets up the arbitrage contract."
					},
					"getAmountOut(uint256,uint256,uint256)": {
						"notice": "Helper function that simulates a swap using the constant product formula with fee."
					}
				},
				"notice": "Implements arbitrage between two DEXes in both directions (A→B→A and B→A→B).         Before executing any swaps, it checks that the simulated profit (using the constant-product formula         with fees) exceeds a given minimum threshold. If not, the transaction reverts with a descriptive error.         Successful arbitrage execution is logged via events.",
				"version": 1
			}
		}
	}
}